{
	"contracts/MNT_Mumai_2.sol": {
		"MNT": {
			"abi": [
				{
					"inputs": [],
					"stateMutability": "nonpayable",
					"type": "constructor"
				},
				{
					"inputs": [
						{
							"internalType": "uint256",
							"name": "increasedSupply",
							"type": "uint256"
						},
						{
							"internalType": "uint256",
							"name": "cap",
							"type": "uint256"
						}
					],
					"name": "ERC20ExceededCap",
					"type": "error"
				},
				{
					"inputs": [
						{
							"internalType": "address",
							"name": "spender",
							"type": "address"
						},
						{
							"internalType": "uint256",
							"name": "allowance",
							"type": "uint256"
						},
						{
							"internalType": "uint256",
							"name": "needed",
							"type": "uint256"
						}
					],
					"name": "ERC20InsufficientAllowance",
					"type": "error"
				},
				{
					"inputs": [
						{
							"internalType": "address",
							"name": "sender",
							"type": "address"
						},
						{
							"internalType": "uint256",
							"name": "balance",
							"type": "uint256"
						},
						{
							"internalType": "uint256",
							"name": "needed",
							"type": "uint256"
						}
					],
					"name": "ERC20InsufficientBalance",
					"type": "error"
				},
				{
					"inputs": [
						{
							"internalType": "address",
							"name": "approver",
							"type": "address"
						}
					],
					"name": "ERC20InvalidApprover",
					"type": "error"
				},
				{
					"inputs": [
						{
							"internalType": "uint256",
							"name": "cap",
							"type": "uint256"
						}
					],
					"name": "ERC20InvalidCap",
					"type": "error"
				},
				{
					"inputs": [
						{
							"internalType": "address",
							"name": "receiver",
							"type": "address"
						}
					],
					"name": "ERC20InvalidReceiver",
					"type": "error"
				},
				{
					"inputs": [
						{
							"internalType": "address",
							"name": "sender",
							"type": "address"
						}
					],
					"name": "ERC20InvalidSender",
					"type": "error"
				},
				{
					"inputs": [
						{
							"internalType": "address",
							"name": "spender",
							"type": "address"
						}
					],
					"name": "ERC20InvalidSpender",
					"type": "error"
				},
				{
					"anonymous": false,
					"inputs": [
						{
							"indexed": true,
							"internalType": "address",
							"name": "owner",
							"type": "address"
						},
						{
							"indexed": true,
							"internalType": "address",
							"name": "spender",
							"type": "address"
						},
						{
							"indexed": false,
							"internalType": "uint256",
							"name": "value",
							"type": "uint256"
						}
					],
					"name": "Approval",
					"type": "event"
				},
				{
					"anonymous": false,
					"inputs": [
						{
							"indexed": false,
							"internalType": "uint256",
							"name": "previousCap",
							"type": "uint256"
						},
						{
							"indexed": false,
							"internalType": "uint256",
							"name": "newCap",
							"type": "uint256"
						},
						{
							"indexed": false,
							"internalType": "uint256",
							"name": "timestamp",
							"type": "uint256"
						}
					],
					"name": "CapPerAccountUpdated",
					"type": "event"
				},
				{
					"anonymous": false,
					"inputs": [
						{
							"indexed": false,
							"internalType": "uint256",
							"name": "amount",
							"type": "uint256"
						},
						{
							"indexed": false,
							"internalType": "uint256",
							"name": "timestamp",
							"type": "uint256"
						}
					],
					"name": "MintingFeesWithdrawn",
					"type": "event"
				},
				{
					"anonymous": false,
					"inputs": [
						{
							"indexed": true,
							"internalType": "address",
							"name": "buyer",
							"type": "address"
						},
						{
							"indexed": false,
							"internalType": "uint256",
							"name": "tokensMinted",
							"type": "uint256"
						},
						{
							"indexed": false,
							"internalType": "uint256",
							"name": "weiPaid",
							"type": "uint256"
						},
						{
							"indexed": false,
							"internalType": "uint256",
							"name": "timestamp",
							"type": "uint256"
						},
						{
							"indexed": false,
							"internalType": "uint256",
							"name": "balance",
							"type": "uint256"
						}
					],
					"name": "TokensPurchased",
					"type": "event"
				},
				{
					"anonymous": false,
					"inputs": [
						{
							"indexed": true,
							"internalType": "address",
							"name": "from",
							"type": "address"
						},
						{
							"indexed": true,
							"internalType": "address",
							"name": "to",
							"type": "address"
						},
						{
							"indexed": false,
							"internalType": "uint256",
							"name": "value",
							"type": "uint256"
						}
					],
					"name": "Transfer",
					"type": "event"
				},
				{
					"inputs": [],
					"name": "OneMATICInCents",
					"outputs": [
						{
							"internalType": "int256",
							"name": "",
							"type": "int256"
						}
					],
					"stateMutability": "view",
					"type": "function"
				},
				{
					"inputs": [],
					"name": "WithdrawMintingFees",
					"outputs": [],
					"stateMutability": "nonpayable",
					"type": "function"
				},
				{
					"inputs": [
						{
							"internalType": "address",
							"name": "owner",
							"type": "address"
						},
						{
							"internalType": "address",
							"name": "spender",
							"type": "address"
						}
					],
					"name": "allowance",
					"outputs": [
						{
							"internalType": "uint256",
							"name": "",
							"type": "uint256"
						}
					],
					"stateMutability": "view",
					"type": "function"
				},
				{
					"inputs": [
						{
							"internalType": "address",
							"name": "spender",
							"type": "address"
						},
						{
							"internalType": "uint256",
							"name": "value",
							"type": "uint256"
						}
					],
					"name": "approve",
					"outputs": [
						{
							"internalType": "bool",
							"name": "",
							"type": "bool"
						}
					],
					"stateMutability": "nonpayable",
					"type": "function"
				},
				{
					"inputs": [
						{
							"internalType": "address",
							"name": "account",
							"type": "address"
						}
					],
					"name": "balanceOf",
					"outputs": [
						{
							"internalType": "uint256",
							"name": "",
							"type": "uint256"
						}
					],
					"stateMutability": "view",
					"type": "function"
				},
				{
					"inputs": [
						{
							"internalType": "uint256",
							"name": "amount",
							"type": "uint256"
						}
					],
					"name": "buyTokensFromContract",
					"outputs": [],
					"stateMutability": "payable",
					"type": "function"
				},
				{
					"inputs": [],
					"name": "cap",
					"outputs": [
						{
							"internalType": "uint256",
							"name": "",
							"type": "uint256"
						}
					],
					"stateMutability": "view",
					"type": "function"
				},
				{
					"inputs": [],
					"name": "capPerAccount",
					"outputs": [
						{
							"internalType": "uint256",
							"name": "",
							"type": "uint256"
						}
					],
					"stateMutability": "view",
					"type": "function"
				},
				{
					"inputs": [],
					"name": "contractOwner",
					"outputs": [
						{
							"internalType": "address",
							"name": "",
							"type": "address"
						}
					],
					"stateMutability": "view",
					"type": "function"
				},
				{
					"inputs": [],
					"name": "decimals",
					"outputs": [
						{
							"internalType": "uint8",
							"name": "",
							"type": "uint8"
						}
					],
					"stateMutability": "view",
					"type": "function"
				},
				{
					"inputs": [],
					"name": "name",
					"outputs": [
						{
							"internalType": "string",
							"name": "",
							"type": "string"
						}
					],
					"stateMutability": "view",
					"type": "function"
				},
				{
					"inputs": [
						{
							"internalType": "uint256",
							"name": "numberOfTokens",
							"type": "uint256"
						}
					],
					"name": "priceOf_N_TokensInWei",
					"outputs": [
						{
							"internalType": "uint256",
							"name": "",
							"type": "uint256"
						}
					],
					"stateMutability": "view",
					"type": "function"
				},
				{
					"inputs": [],
					"name": "symbol",
					"outputs": [
						{
							"internalType": "string",
							"name": "",
							"type": "string"
						}
					],
					"stateMutability": "view",
					"type": "function"
				},
				{
					"inputs": [],
					"name": "totalSupply",
					"outputs": [
						{
							"internalType": "uint256",
							"name": "",
							"type": "uint256"
						}
					],
					"stateMutability": "view",
					"type": "function"
				},
				{
					"inputs": [
						{
							"internalType": "address",
							"name": "to",
							"type": "address"
						},
						{
							"internalType": "uint256",
							"name": "value",
							"type": "uint256"
						}
					],
					"name": "transfer",
					"outputs": [
						{
							"internalType": "bool",
							"name": "",
							"type": "bool"
						}
					],
					"stateMutability": "nonpayable",
					"type": "function"
				},
				{
					"inputs": [
						{
							"internalType": "address",
							"name": "from",
							"type": "address"
						},
						{
							"internalType": "address",
							"name": "to",
							"type": "address"
						},
						{
							"internalType": "uint256",
							"name": "value",
							"type": "uint256"
						}
					],
					"name": "transferFrom",
					"outputs": [
						{
							"internalType": "bool",
							"name": "",
							"type": "bool"
						}
					],
					"stateMutability": "nonpayable",
					"type": "function"
				},
				{
					"inputs": [
						{
							"internalType": "uint256",
							"name": "newCap",
							"type": "uint256"
						}
					],
					"name": "updateCapPerAccount",
					"outputs": [],
					"stateMutability": "nonpayable",
					"type": "function"
				},
				{
					"inputs": [],
					"name": "zTokenPriceInWei",
					"outputs": [
						{
							"internalType": "uint256",
							"name": "",
							"type": "uint256"
						}
					],
					"stateMutability": "view",
					"type": "function"
				}
			],
			"devdoc": {
				"errors": {
					"ERC20ExceededCap(uint256,uint256)": [
						{
							"details": "Total supply cap has been exceeded."
						}
					],
					"ERC20InsufficientAllowance(address,uint256,uint256)": [
						{
							"details": "Indicates a failure with the `spender`’s `allowance`. Used in transfers.",
							"params": {
								"allowance": "Amount of tokens a `spender` is allowed to operate with.",
								"needed": "Minimum amount required to perform a transfer.",
								"spender": "Address that may be allowed to operate on tokens without being their owner."
							}
						}
					],
					"ERC20InsufficientBalance(address,uint256,uint256)": [
						{
							"details": "Indicates an error related to the current `balance` of a `sender`. Used in transfers.",
							"params": {
								"balance": "Current balance for the interacting account.",
								"needed": "Minimum amount required to perform a transfer.",
								"sender": "Address whose tokens are being transferred."
							}
						}
					],
					"ERC20InvalidApprover(address)": [
						{
							"details": "Indicates a failure with the `approver` of a token to be approved. Used in approvals.",
							"params": {
								"approver": "Address initiating an approval operation."
							}
						}
					],
					"ERC20InvalidCap(uint256)": [
						{
							"details": "The supplied cap is not a valid cap."
						}
					],
					"ERC20InvalidReceiver(address)": [
						{
							"details": "Indicates a failure with the token `receiver`. Used in transfers.",
							"params": {
								"receiver": "Address to which tokens are being transferred."
							}
						}
					],
					"ERC20InvalidSender(address)": [
						{
							"details": "Indicates a failure with the token `sender`. Used in transfers.",
							"params": {
								"sender": "Address whose tokens are being transferred."
							}
						}
					],
					"ERC20InvalidSpender(address)": [
						{
							"details": "Indicates a failure with the `spender` to be approved. Used in approvals.",
							"params": {
								"spender": "Address that may be allowed to operate on tokens without being their owner."
							}
						}
					]
				},
				"events": {
					"Approval(address,address,uint256)": {
						"details": "Emitted when the allowance of a `spender` for an `owner` is set by a call to {approve}. `value` is the new allowance."
					},
					"Transfer(address,address,uint256)": {
						"details": "Emitted when `value` tokens are moved from one account (`from`) to another (`to`). Note that `value` may be zero."
					}
				},
				"kind": "dev",
				"methods": {
					"allowance(address,address)": {
						"details": "See {IERC20-allowance}."
					},
					"approve(address,uint256)": {
						"details": "See {IERC20-approve}. NOTE: If `value` is the maximum `uint256`, the allowance is not updated on `transferFrom`. This is semantically equivalent to an infinite approval. Requirements: - `spender` cannot be the zero address."
					},
					"balanceOf(address)": {
						"details": "See {IERC20-balanceOf}."
					},
					"cap()": {
						"details": "Returns the cap on the token's total supply."
					},
					"decimals()": {
						"details": "Returns the number of decimals used to get its user representation. For example, if `decimals` equals `2`, a balance of `505` tokens should be displayed to a user as `5.05` (`505 / 10 ** 2`). Tokens usually opt for a value of 18, imitating the relationship between Ether and Wei. This is the default value returned by this function, unless it's overridden. NOTE: This information is only used for _display_ purposes: it in no way affects any of the arithmetic of the contract, including {IERC20-balanceOf} and {IERC20-transfer}."
					},
					"name()": {
						"details": "Returns the name of the token."
					},
					"symbol()": {
						"details": "Returns the symbol of the token, usually a shorter version of the name."
					},
					"totalSupply()": {
						"details": "See {IERC20-totalSupply}."
					},
					"transfer(address,uint256)": {
						"details": "See {IERC20-transfer}. Requirements: - `to` cannot be the zero address. - the caller must have a balance of at least `value`."
					},
					"transferFrom(address,address,uint256)": {
						"details": "See {IERC20-transferFrom}. Emits an {Approval} event indicating the updated allowance. This is not required by the EIP. See the note at the beginning of {ERC20}. NOTE: Does not update the allowance if the current allowance is the maximum `uint256`. Requirements: - `from` and `to` cannot be the zero address. - `from` must have a balance of at least `value`. - the caller must have allowance for ``from``'s tokens of at least `value`."
					}
				},
				"version": 1
			},
			"evm": {
				"assembly": "    /* \"contracts/MNT_Mumai_2.sol\":380:4398  contract MNT is ERC20Capped... */\n  mstore(0x40, 0xa0)\n    /* \"contracts/MNT_Mumai_2.sol\":514:524  5000000000 */\n  0x012a05f200\n    /* \"contracts/MNT_Mumai_2.sol\":499:524  uint256 ourCap=5000000000 */\n  0x07\n  sstore\n    /* \"contracts/MNT_Mumai_2.sol\":583:587  5000 */\n  0x1388\n    /* \"contracts/MNT_Mumai_2.sol\":554:587  uint256 public capPerAccount=5000 */\n  0x08\n  sstore\n    /* \"contracts/MNT_Mumai_2.sol\":1140:1497  constructor() ERC20(\"Monet\",\"MNT\")  ERC20Capped(ourCap*(10**uint256(decimals())))... */\n  callvalue\n  dup1\n  iszero\n  tag_1\n  jumpi\n  0x00\n  dup1\n  revert\ntag_1:\n  pop\n    /* \"contracts/MNT_Mumai_2.sol\":1208:1218  decimals() */\n  tag_3\n    /* \"contracts/MNT_Mumai_2.sol\":1208:1216  decimals */\n  shl(0x20, tag_4)\n    /* \"contracts/MNT_Mumai_2.sol\":1208:1218  decimals() */\n  0x20\n  shr\n  jump\t// in\ntag_3:\n    /* \"contracts/MNT_Mumai_2.sol\":1200:1219  uint256(decimals()) */\n  0xff\n  and\n    /* \"contracts/MNT_Mumai_2.sol\":1196:1198  10 */\n  0x0a\n    /* \"contracts/MNT_Mumai_2.sol\":1196:1219  10**uint256(decimals()) */\n  tag_5\n  swap2\n  swap1\n  tag_6\n  jump\t// in\ntag_5:\n    /* \"contracts/MNT_Mumai_2.sol\":1188:1194  ourCap */\n  sload(0x07)\n    /* \"contracts/MNT_Mumai_2.sol\":1188:1220  ourCap*(10**uint256(decimals())) */\n  tag_7\n  swap2\n  swap1\n  tag_8\n  jump\t// in\ntag_7:\n    /* \"@openzeppelin/contracts/token/ERC20/ERC20.sol\":1896:2009  constructor(string memory name_, string memory symbol_) {... */\n  mload(0x40)\n  dup1\n  0x40\n  add\n  0x40\n  mstore\n  dup1\n  0x05\n  dup2\n  mstore\n  0x20\n  add\n  0x4d6f6e6574000000000000000000000000000000000000000000000000000000\n  dup2\n  mstore\n  pop\n  mload(0x40)\n  dup1\n  0x40\n  add\n  0x40\n  mstore\n  dup1\n  0x03\n  dup2\n  mstore\n  0x20\n  add\n  0x4d4e540000000000000000000000000000000000000000000000000000000000\n  dup2\n  mstore\n  pop\n    /* \"@openzeppelin/contracts/token/ERC20/ERC20.sol\":1970:1975  name_ */\n  dup2\n    /* \"@openzeppelin/contracts/token/ERC20/ERC20.sol\":1962:1967  _name */\n  0x03\n    /* \"@openzeppelin/contracts/token/ERC20/ERC20.sol\":1962:1975  _name = name_ */\n  swap1\n  dup2\n  tag_12\n  swap2\n  swap1\n  tag_13\n  jump\t// in\ntag_12:\n  pop\n    /* \"@openzeppelin/contracts/token/ERC20/ERC20.sol\":1995:2002  symbol_ */\n  dup1\n    /* \"@openzeppelin/contracts/token/ERC20/ERC20.sol\":1985:1992  _symbol */\n  0x04\n    /* \"@openzeppelin/contracts/token/ERC20/ERC20.sol\":1985:2002  _symbol = symbol_ */\n  swap1\n  dup2\n  tag_14\n  swap2\n  swap1\n  tag_13\n  jump\t// in\ntag_14:\n  pop\n    /* \"@openzeppelin/contracts/token/ERC20/ERC20.sol\":1896:2009  constructor(string memory name_, string memory symbol_) {... */\n  pop\n  pop\n    /* \"@openzeppelin/contracts/token/ERC20/extensions/ERC20Capped.sol\":764:765  0 */\n  0x00\n    /* \"@openzeppelin/contracts/token/ERC20/extensions/ERC20Capped.sol\":756:760  cap_ */\n  dup2\n    /* \"@openzeppelin/contracts/token/ERC20/extensions/ERC20Capped.sol\":756:765  cap_ == 0 */\n  sub\n    /* \"@openzeppelin/contracts/token/ERC20/extensions/ERC20Capped.sol\":752:817  if (cap_ == 0) {... */\n  tag_16\n  jumpi\n    /* \"@openzeppelin/contracts/token/ERC20/extensions/ERC20Capped.sol\":804:805  0 */\n  0x00\n    /* \"@openzeppelin/contracts/token/ERC20/extensions/ERC20Capped.sol\":788:806  ERC20InvalidCap(0) */\n  mload(0x40)\n  0x392e1e2700000000000000000000000000000000000000000000000000000000\n  dup2\n  mstore\n  0x04\n  add\n  tag_17\n  swap2\n  swap1\n  tag_18\n  jump\t// in\ntag_17:\n  mload(0x40)\n  dup1\n  swap2\n  sub\n  swap1\n  revert\n    /* \"@openzeppelin/contracts/token/ERC20/extensions/ERC20Capped.sol\":752:817  if (cap_ == 0) {... */\ntag_16:\n    /* \"@openzeppelin/contracts/token/ERC20/extensions/ERC20Capped.sol\":833:837  cap_ */\n  dup1\n    /* \"@openzeppelin/contracts/token/ERC20/extensions/ERC20Capped.sol\":826:837  _cap = cap_ */\n  0x80\n  dup2\n  dup2\n  mstore\n  pop\n  pop\n    /* \"@openzeppelin/contracts/token/ERC20/extensions/ERC20Capped.sol\":716:844  constructor(uint256 cap_) {... */\n  pop\n    /* \"contracts/MNT_Mumai_2.sol\":1252:1262  msg.sender */\n  caller\n    /* \"contracts/MNT_Mumai_2.sol\":1238:1251  contractOwner */\n  0x06\n  0x00\n    /* \"contracts/MNT_Mumai_2.sol\":1238:1262  contractOwner=msg.sender */\n  0x0100\n  exp\n  dup2\n  sload\n  dup2\n  0xffffffffffffffffffffffffffffffffffffffff\n  mul\n  not\n  and\n  swap1\n  dup4\n  0xffffffffffffffffffffffffffffffffffffffff\n  and\n  mul\n  or\n  swap1\n  sstore\n  pop\n    /* \"contracts/MNT_Mumai_2.sol\":1306:1348  0xd0D5e3DB44DE05E9F294BB0a3bEEaF030DE24Ada */\n  0xd0d5e3db44de05e9f294bb0a3beeaf030de24ada\n    /* \"contracts/MNT_Mumai_2.sol\":1273:1281  dataFeed */\n  0x05\n  0x00\n    /* \"contracts/MNT_Mumai_2.sol\":1273:1349  dataFeed = AggregatorV3Interface(0xd0D5e3DB44DE05E9F294BB0a3bEEaF030DE24Ada) */\n  0x0100\n  exp\n  dup2\n  sload\n  dup2\n  0xffffffffffffffffffffffffffffffffffffffff\n  mul\n  not\n  and\n  swap1\n  dup4\n  0xffffffffffffffffffffffffffffffffffffffff\n  and\n  mul\n  or\n  swap1\n  sstore\n  pop\n    /* \"contracts/MNT_Mumai_2.sol\":1432:1489  _mint(contractOwner,2500000000*(10**uint256(decimals()))) */\n  tag_20\n    /* \"contracts/MNT_Mumai_2.sol\":1438:1451  contractOwner */\n  0x06\n  0x00\n  swap1\n  sload\n  swap1\n  0x0100\n  exp\n  swap1\n  div\n  0xffffffffffffffffffffffffffffffffffffffff\n  and\n    /* \"contracts/MNT_Mumai_2.sol\":1476:1486  decimals() */\n  tag_21\n    /* \"contracts/MNT_Mumai_2.sol\":1476:1484  decimals */\n  shl(0x20, tag_4)\n    /* \"contracts/MNT_Mumai_2.sol\":1476:1486  decimals() */\n  0x20\n  shr\n  jump\t// in\ntag_21:\n    /* \"contracts/MNT_Mumai_2.sol\":1468:1487  uint256(decimals()) */\n  0xff\n  and\n    /* \"contracts/MNT_Mumai_2.sol\":1464:1466  10 */\n  0x0a\n    /* \"contracts/MNT_Mumai_2.sol\":1464:1487  10**uint256(decimals()) */\n  tag_22\n  swap2\n  swap1\n  tag_6\n  jump\t// in\ntag_22:\n    /* \"contracts/MNT_Mumai_2.sol\":1452:1462  2500000000 */\n  0x9502f900\n    /* \"contracts/MNT_Mumai_2.sol\":1452:1488  2500000000*(10**uint256(decimals())) */\n  tag_23\n  swap2\n  swap1\n  tag_8\n  jump\t// in\ntag_23:\n    /* \"contracts/MNT_Mumai_2.sol\":1432:1437  _mint */\n  shl(0x20, tag_24)\n    /* \"contracts/MNT_Mumai_2.sol\":1432:1489  _mint(contractOwner,2500000000*(10**uint256(decimals()))) */\n  0x20\n  shr\n  jump\t// in\ntag_20:\n    /* \"contracts/MNT_Mumai_2.sol\":380:4398  contract MNT is ERC20Capped... */\n  jump(tag_25)\n    /* \"@openzeppelin/contracts/token/ERC20/ERC20.sol\":3002:3084  function decimals() public view virtual returns (uint8) {... */\ntag_4:\n    /* \"@openzeppelin/contracts/token/ERC20/ERC20.sol\":3051:3056  uint8 */\n  0x00\n    /* \"@openzeppelin/contracts/token/ERC20/ERC20.sol\":3075:3077  18 */\n  0x12\n    /* \"@openzeppelin/contracts/token/ERC20/ERC20.sol\":3068:3077  return 18 */\n  swap1\n  pop\n    /* \"@openzeppelin/contracts/token/ERC20/ERC20.sol\":3002:3084  function decimals() public view virtual returns (uint8) {... */\n  swap1\n  jump\t// out\n    /* \"@openzeppelin/contracts/token/ERC20/ERC20.sol\":7721:7929  function _mint(address account, uint256 value) internal {... */\ntag_24:\n    /* \"@openzeppelin/contracts/token/ERC20/ERC20.sol\":7810:7811  0 */\n  0x00\n    /* \"@openzeppelin/contracts/token/ERC20/ERC20.sol\":7791:7812  account == address(0) */\n  0xffffffffffffffffffffffffffffffffffffffff\n  and\n    /* \"@openzeppelin/contracts/token/ERC20/ERC20.sol\":7791:7798  account */\n  dup3\n    /* \"@openzeppelin/contracts/token/ERC20/ERC20.sol\":7791:7812  account == address(0) */\n  0xffffffffffffffffffffffffffffffffffffffff\n  and\n  sub\n    /* \"@openzeppelin/contracts/token/ERC20/ERC20.sol\":7787:7878  if (account == address(0)) {... */\n  tag_28\n  jumpi\n    /* \"@openzeppelin/contracts/token/ERC20/ERC20.sol\":7864:7865  0 */\n  0x00\n    /* \"@openzeppelin/contracts/token/ERC20/ERC20.sol\":7835:7867  ERC20InvalidReceiver(address(0)) */\n  mload(0x40)\n  0xec442f0500000000000000000000000000000000000000000000000000000000\n  dup2\n  mstore\n  0x04\n  add\n  tag_29\n  swap2\n  swap1\n  tag_30\n  jump\t// in\ntag_29:\n  mload(0x40)\n  dup1\n  swap2\n  sub\n  swap1\n  revert\n    /* \"@openzeppelin/contracts/token/ERC20/ERC20.sol\":7787:7878  if (account == address(0)) {... */\ntag_28:\n    /* \"@openzeppelin/contracts/token/ERC20/ERC20.sol\":7887:7922  _update(address(0), account, value) */\n  tag_31\n    /* \"@openzeppelin/contracts/token/ERC20/ERC20.sol\":7903:7904  0 */\n  0x00\n    /* \"@openzeppelin/contracts/token/ERC20/ERC20.sol\":7907:7914  account */\n  dup4\n    /* \"@openzeppelin/contracts/token/ERC20/ERC20.sol\":7916:7921  value */\n  dup4\n    /* \"@openzeppelin/contracts/token/ERC20/ERC20.sol\":7887:7894  _update */\n  shl(0x20, tag_32)\n    /* \"@openzeppelin/contracts/token/ERC20/ERC20.sol\":7887:7922  _update(address(0), account, value) */\n  0x20\n  shr\n  jump\t// in\ntag_31:\n    /* \"@openzeppelin/contracts/token/ERC20/ERC20.sol\":7721:7929  function _mint(address account, uint256 value) internal {... */\n  pop\n  pop\n  jump\t// out\n    /* \"@openzeppelin/contracts/token/ERC20/extensions/ERC20Capped.sol\":1059:1430  function _update(address from, address to, uint256 value) internal virtual override {... */\ntag_32:\n    /* \"@openzeppelin/contracts/token/ERC20/extensions/ERC20Capped.sol\":1153:1183  super._update(from, to, value) */\n  tag_34\n    /* \"@openzeppelin/contracts/token/ERC20/extensions/ERC20Capped.sol\":1167:1171  from */\n  dup4\n    /* \"@openzeppelin/contracts/token/ERC20/extensions/ERC20Capped.sol\":1173:1175  to */\n  dup4\n    /* \"@openzeppelin/contracts/token/ERC20/extensions/ERC20Capped.sol\":1177:1182  value */\n  dup4\n    /* \"@openzeppelin/contracts/token/ERC20/extensions/ERC20Capped.sol\":1153:1166  super._update */\n  shl(0x20, tag_35)\n    /* \"@openzeppelin/contracts/token/ERC20/extensions/ERC20Capped.sol\":1153:1183  super._update(from, to, value) */\n  0x20\n  shr\n  jump\t// in\ntag_34:\n    /* \"@openzeppelin/contracts/token/ERC20/extensions/ERC20Capped.sol\":1214:1215  0 */\n  0x00\n    /* \"@openzeppelin/contracts/token/ERC20/extensions/ERC20Capped.sol\":1198:1216  from == address(0) */\n  0xffffffffffffffffffffffffffffffffffffffff\n  and\n    /* \"@openzeppelin/contracts/token/ERC20/extensions/ERC20Capped.sol\":1198:1202  from */\n  dup4\n    /* \"@openzeppelin/contracts/token/ERC20/extensions/ERC20Capped.sol\":1198:1216  from == address(0) */\n  0xffffffffffffffffffffffffffffffffffffffff\n  and\n  sub\n    /* \"@openzeppelin/contracts/token/ERC20/extensions/ERC20Capped.sol\":1194:1424  if (from == address(0)) {... */\n  tag_36\n  jumpi\n    /* \"@openzeppelin/contracts/token/ERC20/extensions/ERC20Capped.sol\":1232:1249  uint256 maxSupply */\n  0x00\n    /* \"@openzeppelin/contracts/token/ERC20/extensions/ERC20Capped.sol\":1252:1257  cap() */\n  tag_37\n    /* \"@openzeppelin/contracts/token/ERC20/extensions/ERC20Capped.sol\":1252:1255  cap */\n  shl(0x20, tag_38)\n    /* \"@openzeppelin/contracts/token/ERC20/extensions/ERC20Capped.sol\":1252:1257  cap() */\n  0x20\n  shr\n  jump\t// in\ntag_37:\n    /* \"@openzeppelin/contracts/token/ERC20/extensions/ERC20Capped.sol\":1232:1257  uint256 maxSupply = cap() */\n  swap1\n  pop\n    /* \"@openzeppelin/contracts/token/ERC20/extensions/ERC20Capped.sol\":1271:1285  uint256 supply */\n  0x00\n    /* \"@openzeppelin/contracts/token/ERC20/extensions/ERC20Capped.sol\":1288:1301  totalSupply() */\n  tag_39\n    /* \"@openzeppelin/contracts/token/ERC20/extensions/ERC20Capped.sol\":1288:1299  totalSupply */\n  shl(0x20, tag_40)\n    /* \"@openzeppelin/contracts/token/ERC20/extensions/ERC20Capped.sol\":1288:1301  totalSupply() */\n  0x20\n  shr\n  jump\t// in\ntag_39:\n    /* \"@openzeppelin/contracts/token/ERC20/extensions/ERC20Capped.sol\":1271:1301  uint256 supply = totalSupply() */\n  swap1\n  pop\n    /* \"@openzeppelin/contracts/token/ERC20/extensions/ERC20Capped.sol\":1328:1337  maxSupply */\n  dup2\n    /* \"@openzeppelin/contracts/token/ERC20/extensions/ERC20Capped.sol\":1319:1325  supply */\n  dup2\n    /* \"@openzeppelin/contracts/token/ERC20/extensions/ERC20Capped.sol\":1319:1337  supply > maxSupply */\n  gt\n    /* \"@openzeppelin/contracts/token/ERC20/extensions/ERC20Capped.sol\":1315:1414  if (supply > maxSupply) {... */\n  iszero\n  tag_41\n  jumpi\n    /* \"@openzeppelin/contracts/token/ERC20/extensions/ERC20Capped.sol\":1381:1387  supply */\n  dup1\n    /* \"@openzeppelin/contracts/token/ERC20/extensions/ERC20Capped.sol\":1389:1398  maxSupply */\n  dup3\n    /* \"@openzeppelin/contracts/token/ERC20/extensions/ERC20Capped.sol\":1364:1399  ERC20ExceededCap(supply, maxSupply) */\n  mload(0x40)\n  0x9e79f85400000000000000000000000000000000000000000000000000000000\n  dup2\n  mstore\n  0x04\n  add\n  tag_42\n  swap3\n  swap2\n  swap1\n  tag_43\n  jump\t// in\ntag_42:\n  mload(0x40)\n  dup1\n  swap2\n  sub\n  swap1\n  revert\n    /* \"@openzeppelin/contracts/token/ERC20/extensions/ERC20Capped.sol\":1315:1414  if (supply > maxSupply) {... */\ntag_41:\n    /* \"@openzeppelin/contracts/token/ERC20/extensions/ERC20Capped.sol\":1218:1424  {... */\n  pop\n  pop\n    /* \"@openzeppelin/contracts/token/ERC20/extensions/ERC20Capped.sol\":1194:1424  if (from == address(0)) {... */\ntag_36:\n    /* \"@openzeppelin/contracts/token/ERC20/extensions/ERC20Capped.sol\":1059:1430  function _update(address from, address to, uint256 value) internal virtual override {... */\n  pop\n  pop\n  pop\n  jump\t// out\n    /* \"@openzeppelin/contracts/token/ERC20/ERC20.sol\":6271:7378  function _update(address from, address to, uint256 value) internal virtual {... */\ntag_35:\n    /* \"@openzeppelin/contracts/token/ERC20/ERC20.sol\":6376:6377  0 */\n  0x00\n    /* \"@openzeppelin/contracts/token/ERC20/ERC20.sol\":6360:6378  from == address(0) */\n  0xffffffffffffffffffffffffffffffffffffffff\n  and\n    /* \"@openzeppelin/contracts/token/ERC20/ERC20.sol\":6360:6364  from */\n  dup4\n    /* \"@openzeppelin/contracts/token/ERC20/ERC20.sol\":6360:6378  from == address(0) */\n  0xffffffffffffffffffffffffffffffffffffffff\n  and\n  sub\n    /* \"@openzeppelin/contracts/token/ERC20/ERC20.sol\":6356:6896  if (from == address(0)) {... */\n  tag_45\n  jumpi\n    /* \"@openzeppelin/contracts/token/ERC20/ERC20.sol\":6512:6517  value */\n  dup1\n    /* \"@openzeppelin/contracts/token/ERC20/ERC20.sol\":6496:6508  _totalSupply */\n  0x02\n  0x00\n    /* \"@openzeppelin/contracts/token/ERC20/ERC20.sol\":6496:6517  _totalSupply += value */\n  dup3\n  dup3\n  sload\n  tag_46\n  swap2\n  swap1\n  tag_47\n  jump\t// in\ntag_46:\n  swap3\n  pop\n  pop\n  dup2\n  swap1\n  sstore\n  pop\n    /* \"@openzeppelin/contracts/token/ERC20/ERC20.sol\":6356:6896  if (from == address(0)) {... */\n  jump(tag_48)\ntag_45:\n    /* \"@openzeppelin/contracts/token/ERC20/ERC20.sol\":6548:6567  uint256 fromBalance */\n  0x00\n    /* \"@openzeppelin/contracts/token/ERC20/ERC20.sol\":6570:6579  _balances */\n  dup1\n    /* \"@openzeppelin/contracts/token/ERC20/ERC20.sol\":6570:6585  _balances[from] */\n  0x00\n    /* \"@openzeppelin/contracts/token/ERC20/ERC20.sol\":6580:6584  from */\n  dup6\n    /* \"@openzeppelin/contracts/token/ERC20/ERC20.sol\":6570:6585  _balances[from] */\n  0xffffffffffffffffffffffffffffffffffffffff\n  and\n  0xffffffffffffffffffffffffffffffffffffffff\n  and\n  dup2\n  mstore\n  0x20\n  add\n  swap1\n  dup2\n  mstore\n  0x20\n  add\n  0x00\n  keccak256\n  sload\n    /* \"@openzeppelin/contracts/token/ERC20/ERC20.sol\":6548:6585  uint256 fromBalance = _balances[from] */\n  swap1\n  pop\n    /* \"@openzeppelin/contracts/token/ERC20/ERC20.sol\":6617:6622  value */\n  dup2\n    /* \"@openzeppelin/contracts/token/ERC20/ERC20.sol\":6603:6614  fromBalance */\n  dup2\n    /* \"@openzeppelin/contracts/token/ERC20/ERC20.sol\":6603:6622  fromBalance < value */\n  lt\n    /* \"@openzeppelin/contracts/token/ERC20/ERC20.sol\":6599:6714  if (fromBalance < value) {... */\n  iszero\n  tag_49\n  jumpi\n    /* \"@openzeppelin/contracts/token/ERC20/ERC20.sol\":6674:6678  from */\n  dup4\n    /* \"@openzeppelin/contracts/token/ERC20/ERC20.sol\":6680:6691  fromBalance */\n  dup2\n    /* \"@openzeppelin/contracts/token/ERC20/ERC20.sol\":6693:6698  value */\n  dup4\n    /* \"@openzeppelin/contracts/token/ERC20/ERC20.sol\":6649:6699  ERC20InsufficientBalance(from, fromBalance, value) */\n  mload(0x40)\n  0xe450d38c00000000000000000000000000000000000000000000000000000000\n  dup2\n  mstore\n  0x04\n  add\n  tag_50\n  swap4\n  swap3\n  swap2\n  swap1\n  tag_51\n  jump\t// in\ntag_50:\n  mload(0x40)\n  dup1\n  swap2\n  sub\n  swap1\n  revert\n    /* \"@openzeppelin/contracts/token/ERC20/ERC20.sol\":6599:6714  if (fromBalance < value) {... */\ntag_49:\n    /* \"@openzeppelin/contracts/token/ERC20/ERC20.sol\":6866:6871  value */\n  dup2\n    /* \"@openzeppelin/contracts/token/ERC20/ERC20.sol\":6852:6863  fromBalance */\n  dup2\n    /* \"@openzeppelin/contracts/token/ERC20/ERC20.sol\":6852:6871  fromBalance - value */\n  sub\n    /* \"@openzeppelin/contracts/token/ERC20/ERC20.sol\":6834:6843  _balances */\n  0x00\n    /* \"@openzeppelin/contracts/token/ERC20/ERC20.sol\":6834:6849  _balances[from] */\n  dup1\n    /* \"@openzeppelin/contracts/token/ERC20/ERC20.sol\":6844:6848  from */\n  dup7\n    /* \"@openzeppelin/contracts/token/ERC20/ERC20.sol\":6834:6849  _balances[from] */\n  0xffffffffffffffffffffffffffffffffffffffff\n  and\n  0xffffffffffffffffffffffffffffffffffffffff\n  and\n  dup2\n  mstore\n  0x20\n  add\n  swap1\n  dup2\n  mstore\n  0x20\n  add\n  0x00\n  keccak256\n    /* \"@openzeppelin/contracts/token/ERC20/ERC20.sol\":6834:6871  _balances[from] = fromBalance - value */\n  dup2\n  swap1\n  sstore\n  pop\n    /* \"@openzeppelin/contracts/token/ERC20/ERC20.sol\":6534:6896  {... */\n  pop\n    /* \"@openzeppelin/contracts/token/ERC20/ERC20.sol\":6356:6896  if (from == address(0)) {... */\ntag_48:\n    /* \"@openzeppelin/contracts/token/ERC20/ERC20.sol\":6924:6925  0 */\n  0x00\n    /* \"@openzeppelin/contracts/token/ERC20/ERC20.sol\":6910:6926  to == address(0) */\n  0xffffffffffffffffffffffffffffffffffffffff\n  and\n    /* \"@openzeppelin/contracts/token/ERC20/ERC20.sol\":6910:6912  to */\n  dup3\n    /* \"@openzeppelin/contracts/token/ERC20/ERC20.sol\":6910:6926  to == address(0) */\n  0xffffffffffffffffffffffffffffffffffffffff\n  and\n  sub\n    /* \"@openzeppelin/contracts/token/ERC20/ERC20.sol\":6906:7331  if (to == address(0)) {... */\n  tag_52\n  jumpi\n    /* \"@openzeppelin/contracts/token/ERC20/ERC20.sol\":7089:7094  value */\n  dup1\n    /* \"@openzeppelin/contracts/token/ERC20/ERC20.sol\":7073:7085  _totalSupply */\n  0x02\n  0x00\n    /* \"@openzeppelin/contracts/token/ERC20/ERC20.sol\":7073:7094  _totalSupply -= value */\n  dup3\n  dup3\n  sload\n  sub\n  swap3\n  pop\n  pop\n  dup2\n  swap1\n  sstore\n  pop\n    /* \"@openzeppelin/contracts/token/ERC20/ERC20.sol\":6906:7331  if (to == address(0)) {... */\n  jump(tag_53)\ntag_52:\n    /* \"@openzeppelin/contracts/token/ERC20/ERC20.sol\":7301:7306  value */\n  dup1\n    /* \"@openzeppelin/contracts/token/ERC20/ERC20.sol\":7284:7293  _balances */\n  0x00\n    /* \"@openzeppelin/contracts/token/ERC20/ERC20.sol\":7284:7297  _balances[to] */\n  dup1\n    /* \"@openzeppelin/contracts/token/ERC20/ERC20.sol\":7294:7296  to */\n  dup5\n    /* \"@openzeppelin/contracts/token/ERC20/ERC20.sol\":7284:7297  _balances[to] */\n  0xffffffffffffffffffffffffffffffffffffffff\n  and\n  0xffffffffffffffffffffffffffffffffffffffff\n  and\n  dup2\n  mstore\n  0x20\n  add\n  swap1\n  dup2\n  mstore\n  0x20\n  add\n  0x00\n  keccak256\n  0x00\n    /* \"@openzeppelin/contracts/token/ERC20/ERC20.sol\":7284:7306  _balances[to] += value */\n  dup3\n  dup3\n  sload\n  add\n  swap3\n  pop\n  pop\n  dup2\n  swap1\n  sstore\n  pop\n    /* \"@openzeppelin/contracts/token/ERC20/ERC20.sol\":6906:7331  if (to == address(0)) {... */\ntag_53:\n    /* \"@openzeppelin/contracts/token/ERC20/ERC20.sol\":7361:7363  to */\n  dup2\n    /* \"@openzeppelin/contracts/token/ERC20/ERC20.sol\":7346:7371  Transfer(from, to, value) */\n  0xffffffffffffffffffffffffffffffffffffffff\n  and\n    /* \"@openzeppelin/contracts/token/ERC20/ERC20.sol\":7355:7359  from */\n  dup4\n    /* \"@openzeppelin/contracts/token/ERC20/ERC20.sol\":7346:7371  Transfer(from, to, value) */\n  0xffffffffffffffffffffffffffffffffffffffff\n  and\n  0xddf252ad1be2c89b69c2b068fc378daa952ba7f163c4a11628f55a4df523b3ef\n    /* \"@openzeppelin/contracts/token/ERC20/ERC20.sol\":7365:7370  value */\n  dup4\n    /* \"@openzeppelin/contracts/token/ERC20/ERC20.sol\":7346:7371  Transfer(from, to, value) */\n  mload(0x40)\n  tag_54\n  swap2\n  swap1\n  tag_55\n  jump\t// in\ntag_54:\n  mload(0x40)\n  dup1\n  swap2\n  sub\n  swap1\n  log3\n    /* \"@openzeppelin/contracts/token/ERC20/ERC20.sol\":6271:7378  function _update(address from, address to, uint256 value) internal virtual {... */\n  pop\n  pop\n  pop\n  jump\t// out\n    /* \"@openzeppelin/contracts/token/ERC20/extensions/ERC20Capped.sol\":923:1004  function cap() public view virtual returns (uint256) {... */\ntag_38:\n    /* \"@openzeppelin/contracts/token/ERC20/extensions/ERC20Capped.sol\":967:974  uint256 */\n  0x00\n    /* \"@openzeppelin/contracts/token/ERC20/extensions/ERC20Capped.sol\":993:997  _cap */\n  mload(0x80)\n    /* \"@openzeppelin/contracts/token/ERC20/extensions/ERC20Capped.sol\":986:997  return _cap */\n  swap1\n  pop\n    /* \"@openzeppelin/contracts/token/ERC20/extensions/ERC20Capped.sol\":923:1004  function cap() public view virtual returns (uint256) {... */\n  swap1\n  jump\t// out\n    /* \"@openzeppelin/contracts/token/ERC20/ERC20.sol\":3144:3241  function totalSupply() public view virtual returns (uint256) {... */\ntag_40:\n    /* \"@openzeppelin/contracts/token/ERC20/ERC20.sol\":3196:3203  uint256 */\n  0x00\n    /* \"@openzeppelin/contracts/token/ERC20/ERC20.sol\":3222:3234  _totalSupply */\n  sload(0x02)\n    /* \"@openzeppelin/contracts/token/ERC20/ERC20.sol\":3215:3234  return _totalSupply */\n  swap1\n  pop\n    /* \"@openzeppelin/contracts/token/ERC20/ERC20.sol\":3144:3241  function totalSupply() public view virtual returns (uint256) {... */\n  swap1\n  jump\t// out\n    /* \"#utility.yul\":7:187   */\ntag_58:\n    /* \"#utility.yul\":55:132   */\n  0x4e487b7100000000000000000000000000000000000000000000000000000000\n    /* \"#utility.yul\":52:53   */\n  0x00\n    /* \"#utility.yul\":45:133   */\n  mstore\n    /* \"#utility.yul\":152:156   */\n  0x11\n    /* \"#utility.yul\":149:150   */\n  0x04\n    /* \"#utility.yul\":142:157   */\n  mstore\n    /* \"#utility.yul\":176:180   */\n  0x24\n    /* \"#utility.yul\":173:174   */\n  0x00\n    /* \"#utility.yul\":166:181   */\n  revert\n    /* \"#utility.yul\":193:295   */\ntag_59:\n    /* \"#utility.yul\":235:243   */\n  0x00\n    /* \"#utility.yul\":282:287   */\n  dup2\n    /* \"#utility.yul\":279:280   */\n  0x01\n    /* \"#utility.yul\":275:288   */\n  shr\n    /* \"#utility.yul\":254:288   */\n  swap1\n  pop\n    /* \"#utility.yul\":193:295   */\n  swap2\n  swap1\n  pop\n  jump\t// out\n    /* \"#utility.yul\":301:1149   */\ntag_60:\n    /* \"#utility.yul\":362:367   */\n  0x00\n    /* \"#utility.yul\":369:373   */\n  dup1\n    /* \"#utility.yul\":393:399   */\n  dup3\n    /* \"#utility.yul\":384:399   */\n  swap2\n  pop\n    /* \"#utility.yul\":417:422   */\n  dup4\n    /* \"#utility.yul\":408:422   */\n  swap1\n  pop\n    /* \"#utility.yul\":431:1143   */\ntag_93:\n    /* \"#utility.yul\":452:453   */\n  0x01\n    /* \"#utility.yul\":442:450   */\n  dup6\n    /* \"#utility.yul\":439:454   */\n  gt\n    /* \"#utility.yul\":431:1143   */\n  iszero\n  tag_95\n  jumpi\n    /* \"#utility.yul\":547:551   */\n  dup1\n    /* \"#utility.yul\":542:545   */\n  dup7\n    /* \"#utility.yul\":538:552   */\n  div\n    /* \"#utility.yul\":532:536   */\n  dup2\n    /* \"#utility.yul\":529:553   */\n  gt\n    /* \"#utility.yul\":526:576   */\n  iszero\n  tag_96\n  jumpi\n    /* \"#utility.yul\":556:574   */\n  tag_97\n  tag_58\n  jump\t// in\ntag_97:\n    /* \"#utility.yul\":526:576   */\ntag_96:\n    /* \"#utility.yul\":606:607   */\n  0x01\n    /* \"#utility.yul\":596:604   */\n  dup6\n    /* \"#utility.yul\":592:608   */\n  and\n    /* \"#utility.yul\":589:1040   */\n  iszero\n  tag_98\n  jumpi\n    /* \"#utility.yul\":1021:1025   */\n  dup1\n    /* \"#utility.yul\":1014:1019   */\n  dup3\n    /* \"#utility.yul\":1010:1026   */\n  mul\n    /* \"#utility.yul\":1001:1026   */\n  swap2\n  pop\n    /* \"#utility.yul\":589:1040   */\ntag_98:\n    /* \"#utility.yul\":1071:1075   */\n  dup1\n    /* \"#utility.yul\":1065:1069   */\n  dup2\n    /* \"#utility.yul\":1061:1076   */\n  mul\n    /* \"#utility.yul\":1053:1076   */\n  swap1\n  pop\n    /* \"#utility.yul\":1101:1133   */\n  tag_99\n    /* \"#utility.yul\":1124:1132   */\n  dup6\n    /* \"#utility.yul\":1101:1133   */\n  tag_59\n  jump\t// in\ntag_99:\n    /* \"#utility.yul\":1089:1133   */\n  swap5\n  pop\n    /* \"#utility.yul\":431:1143   */\n  jump(tag_93)\ntag_95:\n    /* \"#utility.yul\":301:1149   */\n  swap5\n  pop\n  swap5\n  swap3\n  pop\n  pop\n  pop\n  jump\t// out\n    /* \"#utility.yul\":1155:2228   */\ntag_61:\n    /* \"#utility.yul\":1209:1214   */\n  0x00\n    /* \"#utility.yul\":1400:1408   */\n  dup3\n    /* \"#utility.yul\":1390:1430   */\n  tag_101\n  jumpi\n    /* \"#utility.yul\":1421:1422   */\n  0x01\n    /* \"#utility.yul\":1412:1422   */\n  swap1\n  pop\n    /* \"#utility.yul\":1423:1428   */\n  jump(tag_100)\n    /* \"#utility.yul\":1390:1430   */\ntag_101:\n    /* \"#utility.yul\":1449:1453   */\n  dup2\n    /* \"#utility.yul\":1439:1475   */\n  tag_102\n  jumpi\n    /* \"#utility.yul\":1466:1467   */\n  0x00\n    /* \"#utility.yul\":1457:1467   */\n  swap1\n  pop\n    /* \"#utility.yul\":1468:1473   */\n  jump(tag_100)\n    /* \"#utility.yul\":1439:1475   */\ntag_102:\n    /* \"#utility.yul\":1535:1539   */\n  dup2\n    /* \"#utility.yul\":1583:1584   */\n  0x01\n    /* \"#utility.yul\":1578:1605   */\n  dup2\n  eq\n  tag_104\n  jumpi\n    /* \"#utility.yul\":1619:1620   */\n  0x02\n    /* \"#utility.yul\":1614:1805   */\n  dup2\n  eq\n  tag_105\n  jumpi\n    /* \"#utility.yul\":1528:1805   */\n  jump(tag_103)\n    /* \"#utility.yul\":1578:1605   */\ntag_104:\n    /* \"#utility.yul\":1596:1597   */\n  0x01\n    /* \"#utility.yul\":1587:1597   */\n  swap2\n  pop\n    /* \"#utility.yul\":1598:1603   */\n  pop\n  jump(tag_100)\n    /* \"#utility.yul\":1614:1805   */\ntag_105:\n    /* \"#utility.yul\":1659:1662   */\n  0xff\n    /* \"#utility.yul\":1649:1657   */\n  dup5\n    /* \"#utility.yul\":1646:1663   */\n  gt\n    /* \"#utility.yul\":1643:1686   */\n  iszero\n  tag_106\n  jumpi\n    /* \"#utility.yul\":1666:1684   */\n  tag_107\n  tag_58\n  jump\t// in\ntag_107:\n    /* \"#utility.yul\":1643:1686   */\ntag_106:\n    /* \"#utility.yul\":1715:1723   */\n  dup4\n    /* \"#utility.yul\":1712:1713   */\n  0x02\n    /* \"#utility.yul\":1708:1724   */\n  exp\n    /* \"#utility.yul\":1699:1724   */\n  swap2\n  pop\n    /* \"#utility.yul\":1750:1753   */\n  dup5\n    /* \"#utility.yul\":1743:1748   */\n  dup3\n    /* \"#utility.yul\":1740:1754   */\n  gt\n    /* \"#utility.yul\":1737:1777   */\n  iszero\n  tag_108\n  jumpi\n    /* \"#utility.yul\":1757:1775   */\n  tag_109\n  tag_58\n  jump\t// in\ntag_109:\n    /* \"#utility.yul\":1737:1777   */\ntag_108:\n    /* \"#utility.yul\":1790:1795   */\n  pop\n  jump(tag_100)\n    /* \"#utility.yul\":1528:1805   */\ntag_103:\n  pop\n    /* \"#utility.yul\":1914:1916   */\n  0x20\n    /* \"#utility.yul\":1904:1912   */\n  dup4\n    /* \"#utility.yul\":1901:1917   */\n  lt\n    /* \"#utility.yul\":1895:1898   */\n  0x0133\n    /* \"#utility.yul\":1889:1893   */\n  dup4\n    /* \"#utility.yul\":1886:1899   */\n  lt\n    /* \"#utility.yul\":1882:1918   */\n  and\n    /* \"#utility.yul\":1864:1866   */\n  0x4e\n    /* \"#utility.yul\":1854:1862   */\n  dup5\n    /* \"#utility.yul\":1851:1867   */\n  lt\n    /* \"#utility.yul\":1846:1848   */\n  0x0b\n    /* \"#utility.yul\":1840:1844   */\n  dup5\n    /* \"#utility.yul\":1837:1849   */\n  lt\n    /* \"#utility.yul\":1833:1868   */\n  and\n    /* \"#utility.yul\":1817:1928   */\n  or\n    /* \"#utility.yul\":1814:2060   */\n  iszero\n  tag_110\n  jumpi\n    /* \"#utility.yul\":1970:1978   */\n  dup3\n    /* \"#utility.yul\":1964:1968   */\n  dup3\n    /* \"#utility.yul\":1960:1979   */\n  exp\n    /* \"#utility.yul\":1951:1979   */\n  swap1\n  pop\n    /* \"#utility.yul\":2005:2008   */\n  dup4\n    /* \"#utility.yul\":1998:2003   */\n  dup2\n    /* \"#utility.yul\":1995:2009   */\n  gt\n    /* \"#utility.yul\":1992:2032   */\n  iszero\n  tag_111\n  jumpi\n    /* \"#utility.yul\":2012:2030   */\n  tag_112\n  tag_58\n  jump\t// in\ntag_112:\n    /* \"#utility.yul\":1992:2032   */\ntag_111:\n    /* \"#utility.yul\":2045:2050   */\n  jump(tag_100)\n    /* \"#utility.yul\":1814:2060   */\ntag_110:\n    /* \"#utility.yul\":2085:2127   */\n  tag_113\n    /* \"#utility.yul\":2123:2126   */\n  dup5\n    /* \"#utility.yul\":2113:2121   */\n  dup5\n    /* \"#utility.yul\":2107:2111   */\n  dup5\n    /* \"#utility.yul\":2104:2105   */\n  0x01\n    /* \"#utility.yul\":2085:2127   */\n  tag_60\n  jump\t// in\ntag_113:\n    /* \"#utility.yul\":2070:2127   */\n  swap3\n  pop\n  swap1\n  pop\n    /* \"#utility.yul\":2159:2163   */\n  dup2\n    /* \"#utility.yul\":2154:2157   */\n  dup5\n    /* \"#utility.yul\":2150:2164   */\n  div\n    /* \"#utility.yul\":2143:2148   */\n  dup2\n    /* \"#utility.yul\":2140:2165   */\n  gt\n    /* \"#utility.yul\":2137:2188   */\n  iszero\n  tag_114\n  jumpi\n    /* \"#utility.yul\":2168:2186   */\n  tag_115\n  tag_58\n  jump\t// in\ntag_115:\n    /* \"#utility.yul\":2137:2188   */\ntag_114:\n    /* \"#utility.yul\":2217:2221   */\n  dup2\n    /* \"#utility.yul\":2210:2215   */\n  dup2\n    /* \"#utility.yul\":2206:2222   */\n  mul\n    /* \"#utility.yul\":2197:2222   */\n  swap1\n  pop\n    /* \"#utility.yul\":1155:2228   */\ntag_100:\n  swap4\n  swap3\n  pop\n  pop\n  pop\n  jump\t// out\n    /* \"#utility.yul\":2234:2311   */\ntag_62:\n    /* \"#utility.yul\":2271:2278   */\n  0x00\n    /* \"#utility.yul\":2300:2305   */\n  dup2\n    /* \"#utility.yul\":2289:2305   */\n  swap1\n  pop\n    /* \"#utility.yul\":2234:2311   */\n  swap2\n  swap1\n  pop\n  jump\t// out\n    /* \"#utility.yul\":2317:2602   */\ntag_6:\n    /* \"#utility.yul\":2377:2382   */\n  0x00\n    /* \"#utility.yul\":2401:2424   */\n  tag_118\n    /* \"#utility.yul\":2419:2423   */\n  dup3\n    /* \"#utility.yul\":2401:2424   */\n  tag_62\n  jump\t// in\ntag_118:\n    /* \"#utility.yul\":2393:2424   */\n  swap2\n  pop\n    /* \"#utility.yul\":2445:2472   */\n  tag_119\n    /* \"#utility.yul\":2463:2471   */\n  dup4\n    /* \"#utility.yul\":2445:2472   */\n  tag_62\n  jump\t// in\ntag_119:\n    /* \"#utility.yul\":2433:2472   */\n  swap3\n  pop\n    /* \"#utility.yul\":2491:2595   */\n  tag_120\n    /* \"#utility.yul\":2528:2594   */\n  0xffffffffffffffffffffffffffffffffffffffffffffffffffffffffffffffff\n    /* \"#utility.yul\":2518:2526   */\n  dup5\n    /* \"#utility.yul\":2512:2516   */\n  dup5\n    /* \"#utility.yul\":2491:2595   */\n  tag_61\n  jump\t// in\ntag_120:\n    /* \"#utility.yul\":2482:2595   */\n  swap1\n  pop\n    /* \"#utility.yul\":2317:2602   */\n  swap3\n  swap2\n  pop\n  pop\n  jump\t// out\n    /* \"#utility.yul\":2608:3018   */\ntag_8:\n    /* \"#utility.yul\":2648:2655   */\n  0x00\n    /* \"#utility.yul\":2671:2691   */\n  tag_122\n    /* \"#utility.yul\":2689:2690   */\n  dup3\n    /* \"#utility.yul\":2671:2691   */\n  tag_62\n  jump\t// in\ntag_122:\n    /* \"#utility.yul\":2666:2691   */\n  swap2\n  pop\n    /* \"#utility.yul\":2705:2725   */\n  tag_123\n    /* \"#utility.yul\":2723:2724   */\n  dup4\n    /* \"#utility.yul\":2705:2725   */\n  tag_62\n  jump\t// in\ntag_123:\n    /* \"#utility.yul\":2700:2725   */\n  swap3\n  pop\n    /* \"#utility.yul\":2760:2761   */\n  dup3\n    /* \"#utility.yul\":2757:2758   */\n  dup3\n    /* \"#utility.yul\":2753:2762   */\n  mul\n    /* \"#utility.yul\":2782:2812   */\n  tag_124\n    /* \"#utility.yul\":2800:2811   */\n  dup2\n    /* \"#utility.yul\":2782:2812   */\n  tag_62\n  jump\t// in\ntag_124:\n    /* \"#utility.yul\":2771:2812   */\n  swap2\n  pop\n    /* \"#utility.yul\":2961:2962   */\n  dup3\n    /* \"#utility.yul\":2952:2959   */\n  dup3\n    /* \"#utility.yul\":2948:2963   */\n  div\n    /* \"#utility.yul\":2945:2946   */\n  dup5\n    /* \"#utility.yul\":2942:2964   */\n  eq\n    /* \"#utility.yul\":2922:2923   */\n  dup4\n    /* \"#utility.yul\":2915:2924   */\n  iszero\n    /* \"#utility.yul\":2895:2978   */\n  or\n    /* \"#utility.yul\":2872:3011   */\n  tag_125\n  jumpi\n    /* \"#utility.yul\":2991:3009   */\n  tag_126\n  tag_58\n  jump\t// in\ntag_126:\n    /* \"#utility.yul\":2872:3011   */\ntag_125:\n    /* \"#utility.yul\":2656:3018   */\n  pop\n    /* \"#utility.yul\":2608:3018   */\n  swap3\n  swap2\n  pop\n  pop\n  jump\t// out\n    /* \"#utility.yul\":3024:3123   */\ntag_63:\n    /* \"#utility.yul\":3076:3082   */\n  0x00\n    /* \"#utility.yul\":3110:3115   */\n  dup2\n    /* \"#utility.yul\":3104:3116   */\n  mload\n    /* \"#utility.yul\":3094:3116   */\n  swap1\n  pop\n    /* \"#utility.yul\":3024:3123   */\n  swap2\n  swap1\n  pop\n  jump\t// out\n    /* \"#utility.yul\":3129:3309   */\ntag_64:\n    /* \"#utility.yul\":3177:3254   */\n  0x4e487b7100000000000000000000000000000000000000000000000000000000\n    /* \"#utility.yul\":3174:3175   */\n  0x00\n    /* \"#utility.yul\":3167:3255   */\n  mstore\n    /* \"#utility.yul\":3274:3278   */\n  0x41\n    /* \"#utility.yul\":3271:3272   */\n  0x04\n    /* \"#utility.yul\":3264:3279   */\n  mstore\n    /* \"#utility.yul\":3298:3302   */\n  0x24\n    /* \"#utility.yul\":3295:3296   */\n  0x00\n    /* \"#utility.yul\":3288:3303   */\n  revert\n    /* \"#utility.yul\":3315:3495   */\ntag_65:\n    /* \"#utility.yul\":3363:3440   */\n  0x4e487b7100000000000000000000000000000000000000000000000000000000\n    /* \"#utility.yul\":3360:3361   */\n  0x00\n    /* \"#utility.yul\":3353:3441   */\n  mstore\n    /* \"#utility.yul\":3460:3464   */\n  0x22\n    /* \"#utility.yul\":3457:3458   */\n  0x04\n    /* \"#utility.yul\":3450:3465   */\n  mstore\n    /* \"#utility.yul\":3484:3488   */\n  0x24\n    /* \"#utility.yul\":3481:3482   */\n  0x00\n    /* \"#utility.yul\":3474:3489   */\n  revert\n    /* \"#utility.yul\":3501:3821   */\ntag_66:\n    /* \"#utility.yul\":3545:3551   */\n  0x00\n    /* \"#utility.yul\":3582:3583   */\n  0x02\n    /* \"#utility.yul\":3576:3580   */\n  dup3\n    /* \"#utility.yul\":3572:3584   */\n  div\n    /* \"#utility.yul\":3562:3584   */\n  swap1\n  pop\n    /* \"#utility.yul\":3629:3630   */\n  0x01\n    /* \"#utility.yul\":3623:3627   */\n  dup3\n    /* \"#utility.yul\":3619:3631   */\n  and\n    /* \"#utility.yul\":3650:3668   */\n  dup1\n    /* \"#utility.yul\":3640:3721   */\n  tag_131\n  jumpi\n    /* \"#utility.yul\":3706:3710   */\n  0x7f\n    /* \"#utility.yul\":3698:3704   */\n  dup3\n    /* \"#utility.yul\":3694:3711   */\n  and\n    /* \"#utility.yul\":3684:3711   */\n  swap2\n  pop\n    /* \"#utility.yul\":3640:3721   */\ntag_131:\n    /* \"#utility.yul\":3768:3770   */\n  0x20\n    /* \"#utility.yul\":3760:3766   */\n  dup3\n    /* \"#utility.yul\":3757:3771   */\n  lt\n    /* \"#utility.yul\":3737:3755   */\n  dup2\n    /* \"#utility.yul\":3734:3772   */\n  sub\n    /* \"#utility.yul\":3731:3815   */\n  tag_132\n  jumpi\n    /* \"#utility.yul\":3787:3805   */\n  tag_133\n  tag_65\n  jump\t// in\ntag_133:\n    /* \"#utility.yul\":3731:3815   */\ntag_132:\n    /* \"#utility.yul\":3552:3821   */\n  pop\n    /* \"#utility.yul\":3501:3821   */\n  swap2\n  swap1\n  pop\n  jump\t// out\n    /* \"#utility.yul\":3827:3968   */\ntag_67:\n    /* \"#utility.yul\":3876:3880   */\n  0x00\n    /* \"#utility.yul\":3899:3902   */\n  dup2\n    /* \"#utility.yul\":3891:3902   */\n  swap1\n  pop\n    /* \"#utility.yul\":3922:3925   */\n  dup2\n    /* \"#utility.yul\":3919:3920   */\n  0x00\n    /* \"#utility.yul\":3912:3926   */\n  mstore\n    /* \"#utility.yul\":3956:3960   */\n  0x20\n    /* \"#utility.yul\":3953:3954   */\n  0x00\n    /* \"#utility.yul\":3943:3961   */\n  keccak256\n    /* \"#utility.yul\":3935:3961   */\n  swap1\n  pop\n    /* \"#utility.yul\":3827:3968   */\n  swap2\n  swap1\n  pop\n  jump\t// out\n    /* \"#utility.yul\":3974:4067   */\ntag_68:\n    /* \"#utility.yul\":4011:4017   */\n  0x00\n    /* \"#utility.yul\":4058:4060   */\n  0x20\n    /* \"#utility.yul\":4053:4055   */\n  0x1f\n    /* \"#utility.yul\":4046:4051   */\n  dup4\n    /* \"#utility.yul\":4042:4056   */\n  add\n    /* \"#utility.yul\":4038:4061   */\n  div\n    /* \"#utility.yul\":4028:4061   */\n  swap1\n  pop\n    /* \"#utility.yul\":3974:4067   */\n  swap2\n  swap1\n  pop\n  jump\t// out\n    /* \"#utility.yul\":4073:4180   */\ntag_69:\n    /* \"#utility.yul\":4117:4125   */\n  0x00\n    /* \"#utility.yul\":4167:4172   */\n  dup3\n    /* \"#utility.yul\":4161:4165   */\n  dup3\n    /* \"#utility.yul\":4157:4173   */\n  shl\n    /* \"#utility.yul\":4136:4173   */\n  swap1\n  pop\n    /* \"#utility.yul\":4073:4180   */\n  swap3\n  swap2\n  pop\n  pop\n  jump\t// out\n    /* \"#utility.yul\":4186:4579   */\ntag_70:\n    /* \"#utility.yul\":4255:4261   */\n  0x00\n    /* \"#utility.yul\":4305:4306   */\n  0x08\n    /* \"#utility.yul\":4293:4303   */\n  dup4\n    /* \"#utility.yul\":4289:4307   */\n  mul\n    /* \"#utility.yul\":4328:4425   */\n  tag_138\n    /* \"#utility.yul\":4358:4424   */\n  0xffffffffffffffffffffffffffffffffffffffffffffffffffffffffffffffff\n    /* \"#utility.yul\":4347:4356   */\n  dup3\n    /* \"#utility.yul\":4328:4425   */\n  tag_69\n  jump\t// in\ntag_138:\n    /* \"#utility.yul\":4446:4485   */\n  tag_139\n    /* \"#utility.yul\":4476:4484   */\n  dup7\n    /* \"#utility.yul\":4465:4474   */\n  dup4\n    /* \"#utility.yul\":4446:4485   */\n  tag_69\n  jump\t// in\ntag_139:\n    /* \"#utility.yul\":4434:4485   */\n  swap6\n  pop\n    /* \"#utility.yul\":4518:4522   */\n  dup1\n    /* \"#utility.yul\":4514:4523   */\n  not\n    /* \"#utility.yul\":4507:4512   */\n  dup5\n    /* \"#utility.yul\":4503:4524   */\n  and\n    /* \"#utility.yul\":4494:4524   */\n  swap4\n  pop\n    /* \"#utility.yul\":4567:4571   */\n  dup1\n    /* \"#utility.yul\":4557:4565   */\n  dup7\n    /* \"#utility.yul\":4553:4572   */\n  and\n    /* \"#utility.yul\":4546:4551   */\n  dup5\n    /* \"#utility.yul\":4543:4573   */\n  or\n    /* \"#utility.yul\":4533:4573   */\n  swap3\n  pop\n    /* \"#utility.yul\":4262:4579   */\n  pop\n  pop\n    /* \"#utility.yul\":4186:4579   */\n  swap4\n  swap3\n  pop\n  pop\n  pop\n  jump\t// out\n    /* \"#utility.yul\":4585:4645   */\ntag_71:\n    /* \"#utility.yul\":4613:4616   */\n  0x00\n    /* \"#utility.yul\":4634:4639   */\n  dup2\n    /* \"#utility.yul\":4627:4639   */\n  swap1\n  pop\n    /* \"#utility.yul\":4585:4645   */\n  swap2\n  swap1\n  pop\n  jump\t// out\n    /* \"#utility.yul\":4651:4793   */\ntag_72:\n    /* \"#utility.yul\":4701:4710   */\n  0x00\n    /* \"#utility.yul\":4734:4787   */\n  tag_142\n    /* \"#utility.yul\":4752:4786   */\n  tag_143\n    /* \"#utility.yul\":4761:4785   */\n  tag_144\n    /* \"#utility.yul\":4779:4784   */\n  dup5\n    /* \"#utility.yul\":4761:4785   */\n  tag_62\n  jump\t// in\ntag_144:\n    /* \"#utility.yul\":4752:4786   */\n  tag_71\n  jump\t// in\ntag_143:\n    /* \"#utility.yul\":4734:4787   */\n  tag_62\n  jump\t// in\ntag_142:\n    /* \"#utility.yul\":4721:4787   */\n  swap1\n  pop\n    /* \"#utility.yul\":4651:4793   */\n  swap2\n  swap1\n  pop\n  jump\t// out\n    /* \"#utility.yul\":4799:4874   */\ntag_73:\n    /* \"#utility.yul\":4842:4845   */\n  0x00\n    /* \"#utility.yul\":4863:4868   */\n  dup2\n    /* \"#utility.yul\":4856:4868   */\n  swap1\n  pop\n    /* \"#utility.yul\":4799:4874   */\n  swap2\n  swap1\n  pop\n  jump\t// out\n    /* \"#utility.yul\":4880:5149   */\ntag_74:\n    /* \"#utility.yul\":4990:5029   */\n  tag_147\n    /* \"#utility.yul\":5021:5028   */\n  dup4\n    /* \"#utility.yul\":4990:5029   */\n  tag_72\n  jump\t// in\ntag_147:\n    /* \"#utility.yul\":5051:5142   */\n  tag_148\n    /* \"#utility.yul\":5100:5141   */\n  tag_149\n    /* \"#utility.yul\":5124:5140   */\n  dup3\n    /* \"#utility.yul\":5100:5141   */\n  tag_73\n  jump\t// in\ntag_149:\n    /* \"#utility.yul\":5092:5098   */\n  dup5\n    /* \"#utility.yul\":5085:5089   */\n  dup5\n    /* \"#utility.yul\":5079:5090   */\n  sload\n    /* \"#utility.yul\":5051:5142   */\n  tag_70\n  jump\t// in\ntag_148:\n    /* \"#utility.yul\":5045:5049   */\n  dup3\n    /* \"#utility.yul\":5038:5143   */\n  sstore\n    /* \"#utility.yul\":4956:5149   */\n  pop\n    /* \"#utility.yul\":4880:5149   */\n  pop\n  pop\n  pop\n  jump\t// out\n    /* \"#utility.yul\":5155:5228   */\ntag_75:\n    /* \"#utility.yul\":5200:5203   */\n  0x00\n    /* \"#utility.yul\":5155:5228   */\n  swap1\n  jump\t// out\n    /* \"#utility.yul\":5234:5423   */\ntag_76:\n    /* \"#utility.yul\":5311:5343   */\n  tag_152\n  tag_75\n  jump\t// in\ntag_152:\n    /* \"#utility.yul\":5352:5417   */\n  tag_153\n    /* \"#utility.yul\":5410:5416   */\n  dup2\n    /* \"#utility.yul\":5402:5408   */\n  dup5\n    /* \"#utility.yul\":5396:5400   */\n  dup5\n    /* \"#utility.yul\":5352:5417   */\n  tag_74\n  jump\t// in\ntag_153:\n    /* \"#utility.yul\":5287:5423   */\n  pop\n    /* \"#utility.yul\":5234:5423   */\n  pop\n  pop\n  jump\t// out\n    /* \"#utility.yul\":5429:5615   */\ntag_77:\n    /* \"#utility.yul\":5489:5609   */\ntag_155:\n    /* \"#utility.yul\":5506:5509   */\n  dup2\n    /* \"#utility.yul\":5499:5504   */\n  dup2\n    /* \"#utility.yul\":5496:5510   */\n  lt\n    /* \"#utility.yul\":5489:5609   */\n  iszero\n  tag_157\n  jumpi\n    /* \"#utility.yul\":5560:5599   */\n  tag_158\n    /* \"#utility.yul\":5597:5598   */\n  0x00\n    /* \"#utility.yul\":5590:5595   */\n  dup3\n    /* \"#utility.yul\":5560:5599   */\n  tag_76\n  jump\t// in\ntag_158:\n    /* \"#utility.yul\":5533:5534   */\n  0x01\n    /* \"#utility.yul\":5526:5531   */\n  dup2\n    /* \"#utility.yul\":5522:5535   */\n  add\n    /* \"#utility.yul\":5513:5535   */\n  swap1\n  pop\n    /* \"#utility.yul\":5489:5609   */\n  jump(tag_155)\ntag_157:\n    /* \"#utility.yul\":5429:5615   */\n  pop\n  pop\n  jump\t// out\n    /* \"#utility.yul\":5621:6164   */\ntag_78:\n    /* \"#utility.yul\":5722:5724   */\n  0x1f\n    /* \"#utility.yul\":5717:5720   */\n  dup3\n    /* \"#utility.yul\":5714:5725   */\n  gt\n    /* \"#utility.yul\":5711:6157   */\n  iszero\n  tag_160\n  jumpi\n    /* \"#utility.yul\":5756:5794   */\n  tag_161\n    /* \"#utility.yul\":5788:5793   */\n  dup2\n    /* \"#utility.yul\":5756:5794   */\n  tag_67\n  jump\t// in\ntag_161:\n    /* \"#utility.yul\":5840:5869   */\n  tag_162\n    /* \"#utility.yul\":5858:5868   */\n  dup5\n    /* \"#utility.yul\":5840:5869   */\n  tag_68\n  jump\t// in\ntag_162:\n    /* \"#utility.yul\":5830:5838   */\n  dup2\n    /* \"#utility.yul\":5826:5870   */\n  add\n    /* \"#utility.yul\":6023:6025   */\n  0x20\n    /* \"#utility.yul\":6011:6021   */\n  dup6\n    /* \"#utility.yul\":6008:6026   */\n  lt\n    /* \"#utility.yul\":6005:6054   */\n  iszero\n  tag_163\n  jumpi\n    /* \"#utility.yul\":6044:6052   */\n  dup2\n    /* \"#utility.yul\":6029:6052   */\n  swap1\n  pop\n    /* \"#utility.yul\":6005:6054   */\ntag_163:\n    /* \"#utility.yul\":6067:6147   */\n  tag_164\n    /* \"#utility.yul\":6123:6145   */\n  tag_165\n    /* \"#utility.yul\":6141:6144   */\n  dup6\n    /* \"#utility.yul\":6123:6145   */\n  tag_68\n  jump\t// in\ntag_165:\n    /* \"#utility.yul\":6113:6121   */\n  dup4\n    /* \"#utility.yul\":6109:6146   */\n  add\n    /* \"#utility.yul\":6096:6107   */\n  dup3\n    /* \"#utility.yul\":6067:6147   */\n  tag_77\n  jump\t// in\ntag_164:\n    /* \"#utility.yul\":5726:6157   */\n  pop\n  pop\n    /* \"#utility.yul\":5711:6157   */\ntag_160:\n    /* \"#utility.yul\":5621:6164   */\n  pop\n  pop\n  pop\n  jump\t// out\n    /* \"#utility.yul\":6170:6287   */\ntag_79:\n    /* \"#utility.yul\":6224:6232   */\n  0x00\n    /* \"#utility.yul\":6274:6279   */\n  dup3\n    /* \"#utility.yul\":6268:6272   */\n  dup3\n    /* \"#utility.yul\":6264:6280   */\n  shr\n    /* \"#utility.yul\":6243:6280   */\n  swap1\n  pop\n    /* \"#utility.yul\":6170:6287   */\n  swap3\n  swap2\n  pop\n  pop\n  jump\t// out\n    /* \"#utility.yul\":6293:6462   */\ntag_80:\n    /* \"#utility.yul\":6337:6343   */\n  0x00\n    /* \"#utility.yul\":6370:6421   */\n  tag_168\n    /* \"#utility.yul\":6418:6419   */\n  0x00\n    /* \"#utility.yul\":6414:6420   */\n  not\n    /* \"#utility.yul\":6406:6411   */\n  dup5\n    /* \"#utility.yul\":6403:6404   */\n  0x08\n    /* \"#utility.yul\":6399:6412   */\n  mul\n    /* \"#utility.yul\":6370:6421   */\n  tag_79\n  jump\t// in\ntag_168:\n    /* \"#utility.yul\":6366:6422   */\n  not\n    /* \"#utility.yul\":6451:6455   */\n  dup1\n    /* \"#utility.yul\":6445:6449   */\n  dup4\n    /* \"#utility.yul\":6441:6456   */\n  and\n    /* \"#utility.yul\":6431:6456   */\n  swap2\n  pop\n    /* \"#utility.yul\":6344:6462   */\n  pop\n    /* \"#utility.yul\":6293:6462   */\n  swap3\n  swap2\n  pop\n  pop\n  jump\t// out\n    /* \"#utility.yul\":6467:6762   */\ntag_81:\n    /* \"#utility.yul\":6543:6547   */\n  0x00\n    /* \"#utility.yul\":6689:6718   */\n  tag_170\n    /* \"#utility.yul\":6714:6717   */\n  dup4\n    /* \"#utility.yul\":6708:6712   */\n  dup4\n    /* \"#utility.yul\":6689:6718   */\n  tag_80\n  jump\t// in\ntag_170:\n    /* \"#utility.yul\":6681:6718   */\n  swap2\n  pop\n    /* \"#utility.yul\":6751:6754   */\n  dup3\n    /* \"#utility.yul\":6748:6749   */\n  0x02\n    /* \"#utility.yul\":6744:6755   */\n  mul\n    /* \"#utility.yul\":6738:6742   */\n  dup3\n    /* \"#utility.yul\":6735:6756   */\n  or\n    /* \"#utility.yul\":6727:6756   */\n  swap1\n  pop\n    /* \"#utility.yul\":6467:6762   */\n  swap3\n  swap2\n  pop\n  pop\n  jump\t// out\n    /* \"#utility.yul\":6767:8162   */\ntag_13:\n    /* \"#utility.yul\":6884:6921   */\n  tag_172\n    /* \"#utility.yul\":6917:6920   */\n  dup3\n    /* \"#utility.yul\":6884:6921   */\n  tag_63\n  jump\t// in\ntag_172:\n    /* \"#utility.yul\":6986:7004   */\n  0xffffffffffffffff\n    /* \"#utility.yul\":6978:6984   */\n  dup2\n    /* \"#utility.yul\":6975:7005   */\n  gt\n    /* \"#utility.yul\":6972:7028   */\n  iszero\n  tag_173\n  jumpi\n    /* \"#utility.yul\":7008:7026   */\n  tag_174\n  tag_64\n  jump\t// in\ntag_174:\n    /* \"#utility.yul\":6972:7028   */\ntag_173:\n    /* \"#utility.yul\":7052:7090   */\n  tag_175\n    /* \"#utility.yul\":7084:7088   */\n  dup3\n    /* \"#utility.yul\":7078:7089   */\n  sload\n    /* \"#utility.yul\":7052:7090   */\n  tag_66\n  jump\t// in\ntag_175:\n    /* \"#utility.yul\":7137:7204   */\n  tag_176\n    /* \"#utility.yul\":7197:7203   */\n  dup3\n    /* \"#utility.yul\":7189:7195   */\n  dup3\n    /* \"#utility.yul\":7183:7187   */\n  dup6\n    /* \"#utility.yul\":7137:7204   */\n  tag_78\n  jump\t// in\ntag_176:\n    /* \"#utility.yul\":7231:7232   */\n  0x00\n    /* \"#utility.yul\":7255:7259   */\n  0x20\n    /* \"#utility.yul\":7242:7259   */\n  swap1\n  pop\n    /* \"#utility.yul\":7287:7289   */\n  0x1f\n    /* \"#utility.yul\":7279:7285   */\n  dup4\n    /* \"#utility.yul\":7276:7290   */\n  gt\n    /* \"#utility.yul\":7304:7305   */\n  0x01\n    /* \"#utility.yul\":7299:7917   */\n  dup2\n  eq\n  tag_178\n  jumpi\n    /* \"#utility.yul\":7961:7962   */\n  0x00\n    /* \"#utility.yul\":7978:7984   */\n  dup5\n    /* \"#utility.yul\":7975:8052   */\n  iszero\n  tag_179\n  jumpi\n    /* \"#utility.yul\":8027:8036   */\n  dup3\n    /* \"#utility.yul\":8022:8025   */\n  dup8\n    /* \"#utility.yul\":8018:8037   */\n  add\n    /* \"#utility.yul\":8012:8038   */\n  mload\n    /* \"#utility.yul\":8003:8038   */\n  swap1\n  pop\n    /* \"#utility.yul\":7975:8052   */\ntag_179:\n    /* \"#utility.yul\":8078:8145   */\n  tag_180\n    /* \"#utility.yul\":8138:8144   */\n  dup6\n    /* \"#utility.yul\":8131:8136   */\n  dup3\n    /* \"#utility.yul\":8078:8145   */\n  tag_81\n  jump\t// in\ntag_180:\n    /* \"#utility.yul\":8072:8076   */\n  dup7\n    /* \"#utility.yul\":8065:8146   */\n  sstore\n    /* \"#utility.yul\":7934:8156   */\n  pop\n    /* \"#utility.yul\":7269:8156   */\n  jump(tag_177)\n    /* \"#utility.yul\":7299:7917   */\ntag_178:\n    /* \"#utility.yul\":7351:7355   */\n  0x1f\n    /* \"#utility.yul\":7347:7356   */\n  not\n    /* \"#utility.yul\":7339:7345   */\n  dup5\n    /* \"#utility.yul\":7335:7357   */\n  and\n    /* \"#utility.yul\":7385:7422   */\n  tag_181\n    /* \"#utility.yul\":7417:7421   */\n  dup7\n    /* \"#utility.yul\":7385:7422   */\n  tag_67\n  jump\t// in\ntag_181:\n    /* \"#utility.yul\":7444:7445   */\n  0x00\n    /* \"#utility.yul\":7458:7666   */\ntag_182:\n    /* \"#utility.yul\":7472:7479   */\n  dup3\n    /* \"#utility.yul\":7469:7470   */\n  dup2\n    /* \"#utility.yul\":7466:7480   */\n  lt\n    /* \"#utility.yul\":7458:7666   */\n  iszero\n  tag_184\n  jumpi\n    /* \"#utility.yul\":7551:7560   */\n  dup5\n    /* \"#utility.yul\":7546:7549   */\n  dup10\n    /* \"#utility.yul\":7542:7561   */\n  add\n    /* \"#utility.yul\":7536:7562   */\n  mload\n    /* \"#utility.yul\":7528:7534   */\n  dup3\n    /* \"#utility.yul\":7521:7563   */\n  sstore\n    /* \"#utility.yul\":7602:7603   */\n  0x01\n    /* \"#utility.yul\":7594:7600   */\n  dup3\n    /* \"#utility.yul\":7590:7604   */\n  add\n    /* \"#utility.yul\":7580:7604   */\n  swap2\n  pop\n    /* \"#utility.yul\":7649:7651   */\n  0x20\n    /* \"#utility.yul\":7638:7647   */\n  dup6\n    /* \"#utility.yul\":7634:7652   */\n  add\n    /* \"#utility.yul\":7621:7652   */\n  swap5\n  pop\n    /* \"#utility.yul\":7495:7499   */\n  0x20\n    /* \"#utility.yul\":7492:7493   */\n  dup2\n    /* \"#utility.yul\":7488:7500   */\n  add\n    /* \"#utility.yul\":7483:7500   */\n  swap1\n  pop\n    /* \"#utility.yul\":7458:7666   */\n  jump(tag_182)\ntag_184:\n    /* \"#utility.yul\":7694:7700   */\n  dup7\n    /* \"#utility.yul\":7685:7692   */\n  dup4\n    /* \"#utility.yul\":7682:7701   */\n  lt\n    /* \"#utility.yul\":7679:7858   */\n  iszero\n  tag_185\n  jumpi\n    /* \"#utility.yul\":7752:7761   */\n  dup5\n    /* \"#utility.yul\":7747:7750   */\n  dup10\n    /* \"#utility.yul\":7743:7762   */\n  add\n    /* \"#utility.yul\":7737:7763   */\n  mload\n    /* \"#utility.yul\":7795:7843   */\n  tag_186\n    /* \"#utility.yul\":7837:7841   */\n  0x1f\n    /* \"#utility.yul\":7829:7835   */\n  dup10\n    /* \"#utility.yul\":7825:7842   */\n  and\n    /* \"#utility.yul\":7814:7823   */\n  dup3\n    /* \"#utility.yul\":7795:7843   */\n  tag_80\n  jump\t// in\ntag_186:\n    /* \"#utility.yul\":7787:7793   */\n  dup4\n    /* \"#utility.yul\":7780:7844   */\n  sstore\n    /* \"#utility.yul\":7702:7858   */\n  pop\n    /* \"#utility.yul\":7679:7858   */\ntag_185:\n    /* \"#utility.yul\":7904:7905   */\n  0x01\n    /* \"#utility.yul\":7900:7901   */\n  0x02\n    /* \"#utility.yul\":7892:7898   */\n  dup9\n    /* \"#utility.yul\":7888:7902   */\n  mul\n    /* \"#utility.yul\":7884:7906   */\n  add\n    /* \"#utility.yul\":7878:7882   */\n  dup9\n    /* \"#utility.yul\":7871:7907   */\n  sstore\n    /* \"#utility.yul\":7306:7917   */\n  pop\n  pop\n  pop\n    /* \"#utility.yul\":7269:8156   */\ntag_177:\n  pop\n    /* \"#utility.yul\":6859:8162   */\n  pop\n  pop\n  pop\n    /* \"#utility.yul\":6767:8162   */\n  pop\n  pop\n  jump\t// out\n    /* \"#utility.yul\":8168:8253   */\ntag_82:\n    /* \"#utility.yul\":8213:8220   */\n  0x00\n    /* \"#utility.yul\":8242:8247   */\n  dup2\n    /* \"#utility.yul\":8231:8247   */\n  swap1\n  pop\n    /* \"#utility.yul\":8168:8253   */\n  swap2\n  swap1\n  pop\n  jump\t// out\n    /* \"#utility.yul\":8259:8417   */\ntag_83:\n    /* \"#utility.yul\":8317:8326   */\n  0x00\n    /* \"#utility.yul\":8350:8411   */\n  tag_189\n    /* \"#utility.yul\":8368:8410   */\n  tag_190\n    /* \"#utility.yul\":8377:8409   */\n  tag_191\n    /* \"#utility.yul\":8403:8408   */\n  dup5\n    /* \"#utility.yul\":8377:8409   */\n  tag_82\n  jump\t// in\ntag_191:\n    /* \"#utility.yul\":8368:8410   */\n  tag_71\n  jump\t// in\ntag_190:\n    /* \"#utility.yul\":8350:8411   */\n  tag_62\n  jump\t// in\ntag_189:\n    /* \"#utility.yul\":8337:8411   */\n  swap1\n  pop\n    /* \"#utility.yul\":8259:8417   */\n  swap2\n  swap1\n  pop\n  jump\t// out\n    /* \"#utility.yul\":8423:8570   */\ntag_84:\n    /* \"#utility.yul\":8518:8563   */\n  tag_193\n    /* \"#utility.yul\":8557:8562   */\n  dup2\n    /* \"#utility.yul\":8518:8563   */\n  tag_83\n  jump\t// in\ntag_193:\n    /* \"#utility.yul\":8513:8516   */\n  dup3\n    /* \"#utility.yul\":8506:8564   */\n  mstore\n    /* \"#utility.yul\":8423:8570   */\n  pop\n  pop\n  jump\t// out\n    /* \"#utility.yul\":8576:8814   */\ntag_18:\n    /* \"#utility.yul\":8677:8681   */\n  0x00\n    /* \"#utility.yul\":8715:8717   */\n  0x20\n    /* \"#utility.yul\":8704:8713   */\n  dup3\n    /* \"#utility.yul\":8700:8718   */\n  add\n    /* \"#utility.yul\":8692:8718   */\n  swap1\n  pop\n    /* \"#utility.yul\":8728:8807   */\n  tag_195\n    /* \"#utility.yul\":8804:8805   */\n  0x00\n    /* \"#utility.yul\":8793:8802   */\n  dup4\n    /* \"#utility.yul\":8789:8806   */\n  add\n    /* \"#utility.yul\":8780:8786   */\n  dup5\n    /* \"#utility.yul\":8728:8807   */\n  tag_84\n  jump\t// in\ntag_195:\n    /* \"#utility.yul\":8576:8814   */\n  swap3\n  swap2\n  pop\n  pop\n  jump\t// out\n    /* \"#utility.yul\":8820:8946   */\ntag_85:\n    /* \"#utility.yul\":8857:8864   */\n  0x00\n    /* \"#utility.yul\":8897:8939   */\n  0xffffffffffffffffffffffffffffffffffffffff\n    /* \"#utility.yul\":8890:8895   */\n  dup3\n    /* \"#utility.yul\":8886:8940   */\n  and\n    /* \"#utility.yul\":8875:8940   */\n  swap1\n  pop\n    /* \"#utility.yul\":8820:8946   */\n  swap2\n  swap1\n  pop\n  jump\t// out\n    /* \"#utility.yul\":8952:9048   */\ntag_86:\n    /* \"#utility.yul\":8989:8996   */\n  0x00\n    /* \"#utility.yul\":9018:9042   */\n  tag_198\n    /* \"#utility.yul\":9036:9041   */\n  dup3\n    /* \"#utility.yul\":9018:9042   */\n  tag_85\n  jump\t// in\ntag_198:\n    /* \"#utility.yul\":9007:9042   */\n  swap1\n  pop\n    /* \"#utility.yul\":8952:9048   */\n  swap2\n  swap1\n  pop\n  jump\t// out\n    /* \"#utility.yul\":9054:9172   */\ntag_87:\n    /* \"#utility.yul\":9141:9165   */\n  tag_200\n    /* \"#utility.yul\":9159:9164   */\n  dup2\n    /* \"#utility.yul\":9141:9165   */\n  tag_86\n  jump\t// in\ntag_200:\n    /* \"#utility.yul\":9136:9139   */\n  dup3\n    /* \"#utility.yul\":9129:9166   */\n  mstore\n    /* \"#utility.yul\":9054:9172   */\n  pop\n  pop\n  jump\t// out\n    /* \"#utility.yul\":9178:9400   */\ntag_30:\n    /* \"#utility.yul\":9271:9275   */\n  0x00\n    /* \"#utility.yul\":9309:9311   */\n  0x20\n    /* \"#utility.yul\":9298:9307   */\n  dup3\n    /* \"#utility.yul\":9294:9312   */\n  add\n    /* \"#utility.yul\":9286:9312   */\n  swap1\n  pop\n    /* \"#utility.yul\":9322:9393   */\n  tag_202\n    /* \"#utility.yul\":9390:9391   */\n  0x00\n    /* \"#utility.yul\":9379:9388   */\n  dup4\n    /* \"#utility.yul\":9375:9392   */\n  add\n    /* \"#utility.yul\":9366:9372   */\n  dup5\n    /* \"#utility.yul\":9322:9393   */\n  tag_87\n  jump\t// in\ntag_202:\n    /* \"#utility.yul\":9178:9400   */\n  swap3\n  swap2\n  pop\n  pop\n  jump\t// out\n    /* \"#utility.yul\":9406:9524   */\ntag_88:\n    /* \"#utility.yul\":9493:9517   */\n  tag_204\n    /* \"#utility.yul\":9511:9516   */\n  dup2\n    /* \"#utility.yul\":9493:9517   */\n  tag_62\n  jump\t// in\ntag_204:\n    /* \"#utility.yul\":9488:9491   */\n  dup3\n    /* \"#utility.yul\":9481:9518   */\n  mstore\n    /* \"#utility.yul\":9406:9524   */\n  pop\n  pop\n  jump\t// out\n    /* \"#utility.yul\":9530:9862   */\ntag_43:\n    /* \"#utility.yul\":9651:9655   */\n  0x00\n    /* \"#utility.yul\":9689:9691   */\n  0x40\n    /* \"#utility.yul\":9678:9687   */\n  dup3\n    /* \"#utility.yul\":9674:9692   */\n  add\n    /* \"#utility.yul\":9666:9692   */\n  swap1\n  pop\n    /* \"#utility.yul\":9702:9773   */\n  tag_206\n    /* \"#utility.yul\":9770:9771   */\n  0x00\n    /* \"#utility.yul\":9759:9768   */\n  dup4\n    /* \"#utility.yul\":9755:9772   */\n  add\n    /* \"#utility.yul\":9746:9752   */\n  dup6\n    /* \"#utility.yul\":9702:9773   */\n  tag_88\n  jump\t// in\ntag_206:\n    /* \"#utility.yul\":9783:9855   */\n  tag_207\n    /* \"#utility.yul\":9851:9853   */\n  0x20\n    /* \"#utility.yul\":9840:9849   */\n  dup4\n    /* \"#utility.yul\":9836:9854   */\n  add\n    /* \"#utility.yul\":9827:9833   */\n  dup5\n    /* \"#utility.yul\":9783:9855   */\n  tag_88\n  jump\t// in\ntag_207:\n    /* \"#utility.yul\":9530:9862   */\n  swap4\n  swap3\n  pop\n  pop\n  pop\n  jump\t// out\n    /* \"#utility.yul\":9868:10059   */\ntag_47:\n    /* \"#utility.yul\":9908:9911   */\n  0x00\n    /* \"#utility.yul\":9927:9947   */\n  tag_209\n    /* \"#utility.yul\":9945:9946   */\n  dup3\n    /* \"#utility.yul\":9927:9947   */\n  tag_62\n  jump\t// in\ntag_209:\n    /* \"#utility.yul\":9922:9947   */\n  swap2\n  pop\n    /* \"#utility.yul\":9961:9981   */\n  tag_210\n    /* \"#utility.yul\":9979:9980   */\n  dup4\n    /* \"#utility.yul\":9961:9981   */\n  tag_62\n  jump\t// in\ntag_210:\n    /* \"#utility.yul\":9956:9981   */\n  swap3\n  pop\n    /* \"#utility.yul\":10004:10005   */\n  dup3\n    /* \"#utility.yul\":10001:10002   */\n  dup3\n    /* \"#utility.yul\":9997:10006   */\n  add\n    /* \"#utility.yul\":9990:10006   */\n  swap1\n  pop\n    /* \"#utility.yul\":10025:10028   */\n  dup1\n    /* \"#utility.yul\":10022:10023   */\n  dup3\n    /* \"#utility.yul\":10019:10029   */\n  gt\n    /* \"#utility.yul\":10016:10052   */\n  iszero\n  tag_211\n  jumpi\n    /* \"#utility.yul\":10032:10050   */\n  tag_212\n  tag_58\n  jump\t// in\ntag_212:\n    /* \"#utility.yul\":10016:10052   */\ntag_211:\n    /* \"#utility.yul\":9868:10059   */\n  swap3\n  swap2\n  pop\n  pop\n  jump\t// out\n    /* \"#utility.yul\":10065:10507   */\ntag_51:\n    /* \"#utility.yul\":10214:10218   */\n  0x00\n    /* \"#utility.yul\":10252:10254   */\n  0x60\n    /* \"#utility.yul\":10241:10250   */\n  dup3\n    /* \"#utility.yul\":10237:10255   */\n  add\n    /* \"#utility.yul\":10229:10255   */\n  swap1\n  pop\n    /* \"#utility.yul\":10265:10336   */\n  tag_214\n    /* \"#utility.yul\":10333:10334   */\n  0x00\n    /* \"#utility.yul\":10322:10331   */\n  dup4\n    /* \"#utility.yul\":10318:10335   */\n  add\n    /* \"#utility.yul\":10309:10315   */\n  dup7\n    /* \"#utility.yul\":10265:10336   */\n  tag_87\n  jump\t// in\ntag_214:\n    /* \"#utility.yul\":10346:10418   */\n  tag_215\n    /* \"#utility.yul\":10414:10416   */\n  0x20\n    /* \"#utility.yul\":10403:10412   */\n  dup4\n    /* \"#utility.yul\":10399:10417   */\n  add\n    /* \"#utility.yul\":10390:10396   */\n  dup6\n    /* \"#utility.yul\":10346:10418   */\n  tag_88\n  jump\t// in\ntag_215:\n    /* \"#utility.yul\":10428:10500   */\n  tag_216\n    /* \"#utility.yul\":10496:10498   */\n  0x40\n    /* \"#utility.yul\":10485:10494   */\n  dup4\n    /* \"#utility.yul\":10481:10499   */\n  add\n    /* \"#utility.yul\":10472:10478   */\n  dup5\n    /* \"#utility.yul\":10428:10500   */\n  tag_88\n  jump\t// in\ntag_216:\n    /* \"#utility.yul\":10065:10507   */\n  swap5\n  swap4\n  pop\n  pop\n  pop\n  pop\n  jump\t// out\n    /* \"#utility.yul\":10513:10735   */\ntag_55:\n    /* \"#utility.yul\":10606:10610   */\n  0x00\n    /* \"#utility.yul\":10644:10646   */\n  0x20\n    /* \"#utility.yul\":10633:10642   */\n  dup3\n    /* \"#utility.yul\":10629:10647   */\n  add\n    /* \"#utility.yul\":10621:10647   */\n  swap1\n  pop\n    /* \"#utility.yul\":10657:10728   */\n  tag_218\n    /* \"#utility.yul\":10725:10726   */\n  0x00\n    /* \"#utility.yul\":10714:10723   */\n  dup4\n    /* \"#utility.yul\":10710:10727   */\n  add\n    /* \"#utility.yul\":10701:10707   */\n  dup5\n    /* \"#utility.yul\":10657:10728   */\n  tag_88\n  jump\t// in\ntag_218:\n    /* \"#utility.yul\":10513:10735   */\n  swap3\n  swap2\n  pop\n  pop\n  jump\t// out\n    /* \"contracts/MNT_Mumai_2.sol\":380:4398  contract MNT is ERC20Capped... */\ntag_25:\n  mload(0x80)\n  codecopy(0x00, dataOffset(sub_0), dataSize(sub_0))\n  0x00\n  assignImmutable(\"0x3ef4406067f3f2b83779fd8c58e51154fe5e1675c0d17583dd1aac1409fbf9d7\")\n  return(0x00, dataSize(sub_0))\nstop\n\nsub_0: assembly {\n        /* \"contracts/MNT_Mumai_2.sol\":380:4398  contract MNT is ERC20Capped... */\n      mstore(0x40, 0x80)\n      jumpi(tag_1, lt(calldatasize, 0x04))\n      shr(0xe0, calldataload(0x00))\n      dup1\n      0x6a73bf53\n      gt\n      tag_20\n      jumpi\n      dup1\n      0xa9059cbb\n      gt\n      tag_21\n      jumpi\n      dup1\n      0xa9059cbb\n      eq\n      tag_15\n      jumpi\n      dup1\n      0xc0e3daf5\n      eq\n      tag_16\n      jumpi\n      dup1\n      0xce606ee0\n      eq\n      tag_17\n      jumpi\n      dup1\n      0xdd62ed3e\n      eq\n      tag_18\n      jumpi\n      dup1\n      0xea6ecb08\n      eq\n      tag_19\n      jumpi\n      jump(tag_1)\n    tag_21:\n      dup1\n      0x6a73bf53\n      eq\n      tag_11\n      jumpi\n      dup1\n      0x70a08231\n      eq\n      tag_12\n      jumpi\n      dup1\n      0x8a20d00c\n      eq\n      tag_13\n      jumpi\n      dup1\n      0x95d89b41\n      eq\n      tag_14\n      jumpi\n      jump(tag_1)\n    tag_20:\n      dup1\n      0x23b872dd\n      gt\n      tag_22\n      jumpi\n      dup1\n      0x23b872dd\n      eq\n      tag_6\n      jumpi\n      dup1\n      0x2bc67da0\n      eq\n      tag_7\n      jumpi\n      dup1\n      0x313ce567\n      eq\n      tag_8\n      jumpi\n      dup1\n      0x355274ea\n      eq\n      tag_9\n      jumpi\n      dup1\n      0x655ab927\n      eq\n      tag_10\n      jumpi\n      jump(tag_1)\n    tag_22:\n      dup1\n      0x06fdde03\n      eq\n      tag_2\n      jumpi\n      dup1\n      0x095ea7b3\n      eq\n      tag_3\n      jumpi\n      dup1\n      0x18160ddd\n      eq\n      tag_4\n      jumpi\n      dup1\n      0x23100f36\n      eq\n      tag_5\n      jumpi\n    tag_1:\n      0x00\n      dup1\n      revert\n        /* \"@openzeppelin/contracts/token/ERC20/ERC20.sol\":2074:2163  function name() public view virtual returns (string memory) {... */\n    tag_2:\n      callvalue\n      dup1\n      iszero\n      tag_23\n      jumpi\n      0x00\n      dup1\n      revert\n    tag_23:\n      pop\n      tag_24\n      tag_25\n      jump\t// in\n    tag_24:\n      mload(0x40)\n      tag_26\n      swap2\n      swap1\n      tag_27\n      jump\t// in\n    tag_26:\n      mload(0x40)\n      dup1\n      swap2\n      sub\n      swap1\n      return\n        /* \"@openzeppelin/contracts/token/ERC20/ERC20.sol\":4293:4479  function approve(address spender, uint256 value) public virtual returns (bool) {... */\n    tag_3:\n      callvalue\n      dup1\n      iszero\n      tag_28\n      jumpi\n      0x00\n      dup1\n      revert\n    tag_28:\n      pop\n      tag_29\n      0x04\n      dup1\n      calldatasize\n      sub\n      dup2\n      add\n      swap1\n      tag_30\n      swap2\n      swap1\n      tag_31\n      jump\t// in\n    tag_30:\n      tag_32\n      jump\t// in\n    tag_29:\n      mload(0x40)\n      tag_33\n      swap2\n      swap1\n      tag_34\n      jump\t// in\n    tag_33:\n      mload(0x40)\n      dup1\n      swap2\n      sub\n      swap1\n      return\n        /* \"@openzeppelin/contracts/token/ERC20/ERC20.sol\":3144:3241  function totalSupply() public view virtual returns (uint256) {... */\n    tag_4:\n      callvalue\n      dup1\n      iszero\n      tag_35\n      jumpi\n      0x00\n      dup1\n      revert\n    tag_35:\n      pop\n      tag_36\n      tag_37\n      jump\t// in\n    tag_36:\n      mload(0x40)\n      tag_38\n      swap2\n      swap1\n      tag_39\n      jump\t// in\n    tag_38:\n      mload(0x40)\n      dup1\n      swap2\n      sub\n      swap1\n      return\n        /* \"contracts/MNT_Mumai_2.sol\":3975:4123  function priceOf_N_TokensInWei(uint256 numberOfTokens) public view returns(uint256)... */\n    tag_5:\n      callvalue\n      dup1\n      iszero\n      tag_40\n      jumpi\n      0x00\n      dup1\n      revert\n    tag_40:\n      pop\n      tag_41\n      0x04\n      dup1\n      calldatasize\n      sub\n      dup2\n      add\n      swap1\n      tag_42\n      swap2\n      swap1\n      tag_43\n      jump\t// in\n    tag_42:\n      tag_44\n      jump\t// in\n    tag_41:\n      mload(0x40)\n      tag_45\n      swap2\n      swap1\n      tag_39\n      jump\t// in\n    tag_45:\n      mload(0x40)\n      dup1\n      swap2\n      sub\n      swap1\n      return\n        /* \"@openzeppelin/contracts/token/ERC20/ERC20.sol\":5039:5283  function transferFrom(address from, address to, uint256 value) public virtual returns (bool) {... */\n    tag_6:\n      callvalue\n      dup1\n      iszero\n      tag_46\n      jumpi\n      0x00\n      dup1\n      revert\n    tag_46:\n      pop\n      tag_47\n      0x04\n      dup1\n      calldatasize\n      sub\n      dup2\n      add\n      swap1\n      tag_48\n      swap2\n      swap1\n      tag_49\n      jump\t// in\n    tag_48:\n      tag_50\n      jump\t// in\n    tag_47:\n      mload(0x40)\n      tag_51\n      swap2\n      swap1\n      tag_34\n      jump\t// in\n    tag_51:\n      mload(0x40)\n      dup1\n      swap2\n      sub\n      swap1\n      return\n        /* \"contracts/MNT_Mumai_2.sol\":554:587  uint256 public capPerAccount=5000 */\n    tag_7:\n      callvalue\n      dup1\n      iszero\n      tag_52\n      jumpi\n      0x00\n      dup1\n      revert\n    tag_52:\n      pop\n      tag_53\n      tag_54\n      jump\t// in\n    tag_53:\n      mload(0x40)\n      tag_55\n      swap2\n      swap1\n      tag_39\n      jump\t// in\n    tag_55:\n      mload(0x40)\n      dup1\n      swap2\n      sub\n      swap1\n      return\n        /* \"@openzeppelin/contracts/token/ERC20/ERC20.sol\":3002:3084  function decimals() public view virtual returns (uint8) {... */\n    tag_8:\n      callvalue\n      dup1\n      iszero\n      tag_56\n      jumpi\n      0x00\n      dup1\n      revert\n    tag_56:\n      pop\n      tag_57\n      tag_58\n      jump\t// in\n    tag_57:\n      mload(0x40)\n      tag_59\n      swap2\n      swap1\n      tag_60\n      jump\t// in\n    tag_59:\n      mload(0x40)\n      dup1\n      swap2\n      sub\n      swap1\n      return\n        /* \"@openzeppelin/contracts/token/ERC20/extensions/ERC20Capped.sol\":923:1004  function cap() public view virtual returns (uint256) {... */\n    tag_9:\n      callvalue\n      dup1\n      iszero\n      tag_61\n      jumpi\n      0x00\n      dup1\n      revert\n    tag_61:\n      pop\n      tag_62\n      tag_63\n      jump\t// in\n    tag_62:\n      mload(0x40)\n      tag_64\n      swap2\n      swap1\n      tag_39\n      jump\t// in\n    tag_64:\n      mload(0x40)\n      dup1\n      swap2\n      sub\n      swap1\n      return\n        /* \"contracts/MNT_Mumai_2.sol\":4131:4395  function WithdrawMintingFees() external onlyOwner... */\n    tag_10:\n      callvalue\n      dup1\n      iszero\n      tag_65\n      jumpi\n      0x00\n      dup1\n      revert\n    tag_65:\n      pop\n      tag_66\n      tag_67\n      jump\t// in\n    tag_66:\n      stop\n        /* \"contracts/MNT_Mumai_2.sol\":2354:2577  function updateCapPerAccount(uint newCap) public onlyOwner... */\n    tag_11:\n      callvalue\n      dup1\n      iszero\n      tag_68\n      jumpi\n      0x00\n      dup1\n      revert\n    tag_68:\n      pop\n      tag_69\n      0x04\n      dup1\n      calldatasize\n      sub\n      dup2\n      add\n      swap1\n      tag_70\n      swap2\n      swap1\n      tag_43\n      jump\t// in\n    tag_70:\n      tag_71\n      jump\t// in\n    tag_69:\n      stop\n        /* \"@openzeppelin/contracts/token/ERC20/ERC20.sol\":3299:3415  function balanceOf(address account) public view virtual returns (uint256) {... */\n    tag_12:\n      callvalue\n      dup1\n      iszero\n      tag_72\n      jumpi\n      0x00\n      dup1\n      revert\n    tag_72:\n      pop\n      tag_73\n      0x04\n      dup1\n      calldatasize\n      sub\n      dup2\n      add\n      swap1\n      tag_74\n      swap2\n      swap1\n      tag_75\n      jump\t// in\n    tag_74:\n      tag_76\n      jump\t// in\n    tag_73:\n      mload(0x40)\n      tag_77\n      swap2\n      swap1\n      tag_39\n      jump\t// in\n    tag_77:\n      mload(0x40)\n      dup1\n      swap2\n      sub\n      swap1\n      return\n        /* \"contracts/MNT_Mumai_2.sol\":1640:2346  function buyTokensFromContract(uint256 amount) external payable... */\n    tag_13:\n      tag_78\n      0x04\n      dup1\n      calldatasize\n      sub\n      dup2\n      add\n      swap1\n      tag_79\n      swap2\n      swap1\n      tag_43\n      jump\t// in\n    tag_79:\n      tag_80\n      jump\t// in\n    tag_78:\n      stop\n        /* \"@openzeppelin/contracts/token/ERC20/ERC20.sol\":2276:2369  function symbol() public view virtual returns (string memory) {... */\n    tag_14:\n      callvalue\n      dup1\n      iszero\n      tag_81\n      jumpi\n      0x00\n      dup1\n      revert\n    tag_81:\n      pop\n      tag_82\n      tag_83\n      jump\t// in\n    tag_82:\n      mload(0x40)\n      tag_84\n      swap2\n      swap1\n      tag_27\n      jump\t// in\n    tag_84:\n      mload(0x40)\n      dup1\n      swap2\n      sub\n      swap1\n      return\n        /* \"@openzeppelin/contracts/token/ERC20/ERC20.sol\":3610:3788  function transfer(address to, uint256 value) public virtual returns (bool) {... */\n    tag_15:\n      callvalue\n      dup1\n      iszero\n      tag_85\n      jumpi\n      0x00\n      dup1\n      revert\n    tag_85:\n      pop\n      tag_86\n      0x04\n      dup1\n      calldatasize\n      sub\n      dup2\n      add\n      swap1\n      tag_87\n      swap2\n      swap1\n      tag_31\n      jump\t// in\n    tag_87:\n      tag_88\n      jump\t// in\n    tag_86:\n      mload(0x40)\n      tag_89\n      swap2\n      swap1\n      tag_34\n      jump\t// in\n    tag_89:\n      mload(0x40)\n      dup1\n      swap2\n      sub\n      swap1\n      return\n        /* \"contracts/MNT_Mumai_2.sol\":3657:3967  function zTokenPriceInWei() public view returns (uint256)... */\n    tag_16:\n      callvalue\n      dup1\n      iszero\n      tag_90\n      jumpi\n      0x00\n      dup1\n      revert\n    tag_90:\n      pop\n      tag_91\n      tag_92\n      jump\t// in\n    tag_91:\n      mload(0x40)\n      tag_93\n      swap2\n      swap1\n      tag_39\n      jump\t// in\n    tag_93:\n      mload(0x40)\n      dup1\n      swap2\n      sub\n      swap1\n      return\n        /* \"contracts/MNT_Mumai_2.sol\":464:492  address public contractOwner */\n    tag_17:\n      callvalue\n      dup1\n      iszero\n      tag_94\n      jumpi\n      0x00\n      dup1\n      revert\n    tag_94:\n      pop\n      tag_95\n      tag_96\n      jump\t// in\n    tag_95:\n      mload(0x40)\n      tag_97\n      swap2\n      swap1\n      tag_98\n      jump\t// in\n    tag_97:\n      mload(0x40)\n      dup1\n      swap2\n      sub\n      swap1\n      return\n        /* \"@openzeppelin/contracts/token/ERC20/ERC20.sol\":3846:3986  function allowance(address owner, address spender) public view virtual returns (uint256) {... */\n    tag_18:\n      callvalue\n      dup1\n      iszero\n      tag_99\n      jumpi\n      0x00\n      dup1\n      revert\n    tag_99:\n      pop\n      tag_100\n      0x04\n      dup1\n      calldatasize\n      sub\n      dup2\n      add\n      swap1\n      tag_101\n      swap2\n      swap1\n      tag_102\n      jump\t// in\n    tag_101:\n      tag_103\n      jump\t// in\n    tag_100:\n      mload(0x40)\n      tag_104\n      swap2\n      swap1\n      tag_39\n      jump\t// in\n    tag_104:\n      mload(0x40)\n      dup1\n      swap2\n      sub\n      swap1\n      return\n        /* \"contracts/MNT_Mumai_2.sol\":2585:3649  function OneMATICInCents() public view returns (int)... */\n    tag_19:\n      callvalue\n      dup1\n      iszero\n      tag_105\n      jumpi\n      0x00\n      dup1\n      revert\n    tag_105:\n      pop\n      tag_106\n      tag_107\n      jump\t// in\n    tag_106:\n      mload(0x40)\n      tag_108\n      swap2\n      swap1\n      tag_109\n      jump\t// in\n    tag_108:\n      mload(0x40)\n      dup1\n      swap2\n      sub\n      swap1\n      return\n        /* \"@openzeppelin/contracts/token/ERC20/ERC20.sol\":2074:2163  function name() public view virtual returns (string memory) {... */\n    tag_25:\n        /* \"@openzeppelin/contracts/token/ERC20/ERC20.sol\":2119:2132  string memory */\n      0x60\n        /* \"@openzeppelin/contracts/token/ERC20/ERC20.sol\":2151:2156  _name */\n      0x03\n        /* \"@openzeppelin/contracts/token/ERC20/ERC20.sol\":2144:2156  return _name */\n      dup1\n      sload\n      tag_111\n      swap1\n      tag_112\n      jump\t// in\n    tag_111:\n      dup1\n      0x1f\n      add\n      0x20\n      dup1\n      swap2\n      div\n      mul\n      0x20\n      add\n      mload(0x40)\n      swap1\n      dup2\n      add\n      0x40\n      mstore\n      dup1\n      swap3\n      swap2\n      swap1\n      dup2\n      dup2\n      mstore\n      0x20\n      add\n      dup3\n      dup1\n      sload\n      tag_113\n      swap1\n      tag_112\n      jump\t// in\n    tag_113:\n      dup1\n      iszero\n      tag_114\n      jumpi\n      dup1\n      0x1f\n      lt\n      tag_115\n      jumpi\n      0x0100\n      dup1\n      dup4\n      sload\n      div\n      mul\n      dup4\n      mstore\n      swap2\n      0x20\n      add\n      swap2\n      jump(tag_114)\n    tag_115:\n      dup3\n      add\n      swap2\n      swap1\n      0x00\n      mstore\n      keccak256(0x00, 0x20)\n      swap1\n    tag_116:\n      dup2\n      sload\n      dup2\n      mstore\n      swap1\n      0x01\n      add\n      swap1\n      0x20\n      add\n      dup1\n      dup4\n      gt\n      tag_116\n      jumpi\n      dup3\n      swap1\n      sub\n      0x1f\n      and\n      dup3\n      add\n      swap2\n    tag_114:\n      pop\n      pop\n      pop\n      pop\n      pop\n      swap1\n      pop\n        /* \"@openzeppelin/contracts/token/ERC20/ERC20.sol\":2074:2163  function name() public view virtual returns (string memory) {... */\n      swap1\n      jump\t// out\n        /* \"@openzeppelin/contracts/token/ERC20/ERC20.sol\":4293:4479  function approve(address spender, uint256 value) public virtual returns (bool) {... */\n    tag_32:\n        /* \"@openzeppelin/contracts/token/ERC20/ERC20.sol\":4366:4370  bool */\n      0x00\n        /* \"@openzeppelin/contracts/token/ERC20/ERC20.sol\":4382:4395  address owner */\n      dup1\n        /* \"@openzeppelin/contracts/token/ERC20/ERC20.sol\":4398:4410  _msgSender() */\n      tag_118\n        /* \"@openzeppelin/contracts/token/ERC20/ERC20.sol\":4398:4408  _msgSender */\n      tag_119\n        /* \"@openzeppelin/contracts/token/ERC20/ERC20.sol\":4398:4410  _msgSender() */\n      jump\t// in\n    tag_118:\n        /* \"@openzeppelin/contracts/token/ERC20/ERC20.sol\":4382:4410  address owner = _msgSender() */\n      swap1\n      pop\n        /* \"@openzeppelin/contracts/token/ERC20/ERC20.sol\":4420:4451  _approve(owner, spender, value) */\n      tag_120\n        /* \"@openzeppelin/contracts/token/ERC20/ERC20.sol\":4429:4434  owner */\n      dup2\n        /* \"@openzeppelin/contracts/token/ERC20/ERC20.sol\":4436:4443  spender */\n      dup6\n        /* \"@openzeppelin/contracts/token/ERC20/ERC20.sol\":4445:4450  value */\n      dup6\n        /* \"@openzeppelin/contracts/token/ERC20/ERC20.sol\":4420:4428  _approve */\n      tag_121\n        /* \"@openzeppelin/contracts/token/ERC20/ERC20.sol\":4420:4451  _approve(owner, spender, value) */\n      jump\t// in\n    tag_120:\n        /* \"@openzeppelin/contracts/token/ERC20/ERC20.sol\":4468:4472  true */\n      0x01\n        /* \"@openzeppelin/contracts/token/ERC20/ERC20.sol\":4461:4472  return true */\n      swap2\n      pop\n      pop\n        /* \"@openzeppelin/contracts/token/ERC20/ERC20.sol\":4293:4479  function approve(address spender, uint256 value) public virtual returns (bool) {... */\n      swap3\n      swap2\n      pop\n      pop\n      jump\t// out\n        /* \"@openzeppelin/contracts/token/ERC20/ERC20.sol\":3144:3241  function totalSupply() public view virtual returns (uint256) {... */\n    tag_37:\n        /* \"@openzeppelin/contracts/token/ERC20/ERC20.sol\":3196:3203  uint256 */\n      0x00\n        /* \"@openzeppelin/contracts/token/ERC20/ERC20.sol\":3222:3234  _totalSupply */\n      sload(0x02)\n        /* \"@openzeppelin/contracts/token/ERC20/ERC20.sol\":3215:3234  return _totalSupply */\n      swap1\n      pop\n        /* \"@openzeppelin/contracts/token/ERC20/ERC20.sol\":3144:3241  function totalSupply() public view virtual returns (uint256) {... */\n      swap1\n      jump\t// out\n        /* \"contracts/MNT_Mumai_2.sol\":3975:4123  function priceOf_N_TokensInWei(uint256 numberOfTokens) public view returns(uint256)... */\n    tag_44:\n        /* \"contracts/MNT_Mumai_2.sol\":4050:4057  uint256 */\n      0x00\n        /* \"contracts/MNT_Mumai_2.sol\":4097:4115  zTokenPriceInWei() */\n      tag_124\n        /* \"contracts/MNT_Mumai_2.sol\":4097:4113  zTokenPriceInWei */\n      tag_92\n        /* \"contracts/MNT_Mumai_2.sol\":4097:4115  zTokenPriceInWei() */\n      jump\t// in\n    tag_124:\n        /* \"contracts/MNT_Mumai_2.sol\":4082:4096  numberOfTokens */\n      dup3\n        /* \"contracts/MNT_Mumai_2.sol\":4082:4115  numberOfTokens*zTokenPriceInWei() */\n      tag_125\n      swap2\n      swap1\n      tag_126\n      jump\t// in\n    tag_125:\n        /* \"contracts/MNT_Mumai_2.sol\":4075:4115  return numberOfTokens*zTokenPriceInWei() */\n      swap1\n      pop\n        /* \"contracts/MNT_Mumai_2.sol\":3975:4123  function priceOf_N_TokensInWei(uint256 numberOfTokens) public view returns(uint256)... */\n      swap2\n      swap1\n      pop\n      jump\t// out\n        /* \"@openzeppelin/contracts/token/ERC20/ERC20.sol\":5039:5283  function transferFrom(address from, address to, uint256 value) public virtual returns (bool) {... */\n    tag_50:\n        /* \"@openzeppelin/contracts/token/ERC20/ERC20.sol\":5126:5130  bool */\n      0x00\n        /* \"@openzeppelin/contracts/token/ERC20/ERC20.sol\":5142:5157  address spender */\n      dup1\n        /* \"@openzeppelin/contracts/token/ERC20/ERC20.sol\":5160:5172  _msgSender() */\n      tag_128\n        /* \"@openzeppelin/contracts/token/ERC20/ERC20.sol\":5160:5170  _msgSender */\n      tag_119\n        /* \"@openzeppelin/contracts/token/ERC20/ERC20.sol\":5160:5172  _msgSender() */\n      jump\t// in\n    tag_128:\n        /* \"@openzeppelin/contracts/token/ERC20/ERC20.sol\":5142:5172  address spender = _msgSender() */\n      swap1\n      pop\n        /* \"@openzeppelin/contracts/token/ERC20/ERC20.sol\":5182:5219  _spendAllowance(from, spender, value) */\n      tag_129\n        /* \"@openzeppelin/contracts/token/ERC20/ERC20.sol\":5198:5202  from */\n      dup6\n        /* \"@openzeppelin/contracts/token/ERC20/ERC20.sol\":5204:5211  spender */\n      dup3\n        /* \"@openzeppelin/contracts/token/ERC20/ERC20.sol\":5213:5218  value */\n      dup6\n        /* \"@openzeppelin/contracts/token/ERC20/ERC20.sol\":5182:5197  _spendAllowance */\n      tag_130\n        /* \"@openzeppelin/contracts/token/ERC20/ERC20.sol\":5182:5219  _spendAllowance(from, spender, value) */\n      jump\t// in\n    tag_129:\n        /* \"@openzeppelin/contracts/token/ERC20/ERC20.sol\":5229:5255  _transfer(from, to, value) */\n      tag_131\n        /* \"@openzeppelin/contracts/token/ERC20/ERC20.sol\":5239:5243  from */\n      dup6\n        /* \"@openzeppelin/contracts/token/ERC20/ERC20.sol\":5245:5247  to */\n      dup6\n        /* \"@openzeppelin/contracts/token/ERC20/ERC20.sol\":5249:5254  value */\n      dup6\n        /* \"@openzeppelin/contracts/token/ERC20/ERC20.sol\":5229:5238  _transfer */\n      tag_132\n        /* \"@openzeppelin/contracts/token/ERC20/ERC20.sol\":5229:5255  _transfer(from, to, value) */\n      jump\t// in\n    tag_131:\n        /* \"@openzeppelin/contracts/token/ERC20/ERC20.sol\":5272:5276  true */\n      0x01\n        /* \"@openzeppelin/contracts/token/ERC20/ERC20.sol\":5265:5276  return true */\n      swap2\n      pop\n      pop\n        /* \"@openzeppelin/contracts/token/ERC20/ERC20.sol\":5039:5283  function transferFrom(address from, address to, uint256 value) public virtual returns (bool) {... */\n      swap4\n      swap3\n      pop\n      pop\n      pop\n      jump\t// out\n        /* \"contracts/MNT_Mumai_2.sol\":554:587  uint256 public capPerAccount=5000 */\n    tag_54:\n      sload(0x08)\n      dup2\n      jump\t// out\n        /* \"@openzeppelin/contracts/token/ERC20/ERC20.sol\":3002:3084  function decimals() public view virtual returns (uint8) {... */\n    tag_58:\n        /* \"@openzeppelin/contracts/token/ERC20/ERC20.sol\":3051:3056  uint8 */\n      0x00\n        /* \"@openzeppelin/contracts/token/ERC20/ERC20.sol\":3075:3077  18 */\n      0x12\n        /* \"@openzeppelin/contracts/token/ERC20/ERC20.sol\":3068:3077  return 18 */\n      swap1\n      pop\n        /* \"@openzeppelin/contracts/token/ERC20/ERC20.sol\":3002:3084  function decimals() public view virtual returns (uint8) {... */\n      swap1\n      jump\t// out\n        /* \"@openzeppelin/contracts/token/ERC20/extensions/ERC20Capped.sol\":923:1004  function cap() public view virtual returns (uint256) {... */\n    tag_63:\n        /* \"@openzeppelin/contracts/token/ERC20/extensions/ERC20Capped.sol\":967:974  uint256 */\n      0x00\n        /* \"@openzeppelin/contracts/token/ERC20/extensions/ERC20Capped.sol\":993:997  _cap */\n      immutable(\"0x3ef4406067f3f2b83779fd8c58e51154fe5e1675c0d17583dd1aac1409fbf9d7\")\n        /* \"@openzeppelin/contracts/token/ERC20/extensions/ERC20Capped.sol\":986:997  return _cap */\n      swap1\n      pop\n        /* \"@openzeppelin/contracts/token/ERC20/extensions/ERC20Capped.sol\":923:1004  function cap() public view virtual returns (uint256) {... */\n      swap1\n      jump\t// out\n        /* \"contracts/MNT_Mumai_2.sol\":4131:4395  function WithdrawMintingFees() external onlyOwner... */\n    tag_67:\n        /* \"contracts/MNT_Mumai_2.sol\":1564:1577  contractOwner */\n      0x06\n      0x00\n      swap1\n      sload\n      swap1\n      0x0100\n      exp\n      swap1\n      div\n      0xffffffffffffffffffffffffffffffffffffffff\n      and\n        /* \"contracts/MNT_Mumai_2.sol\":1550:1577  msg.sender == contractOwner */\n      0xffffffffffffffffffffffffffffffffffffffff\n      and\n        /* \"contracts/MNT_Mumai_2.sol\":1550:1560  msg.sender */\n      caller\n        /* \"contracts/MNT_Mumai_2.sol\":1550:1577  msg.sender == contractOwner */\n      0xffffffffffffffffffffffffffffffffffffffff\n      and\n      eq\n        /* \"contracts/MNT_Mumai_2.sol\":1542:1612  require(msg.sender == contractOwner, \"Error-MNT_MUMBAI_2.sol-Ownable\") */\n      tag_136\n      jumpi\n      mload(0x40)\n      0x08c379a000000000000000000000000000000000000000000000000000000000\n      dup2\n      mstore\n      0x04\n      add\n      tag_137\n      swap1\n      tag_138\n      jump\t// in\n    tag_137:\n      mload(0x40)\n      dup1\n      swap2\n      sub\n      swap1\n      revert\n    tag_136:\n        /* \"contracts/MNT_Mumai_2.sol\":4197:4209  uint256 fees */\n      0x00\n        /* \"contracts/MNT_Mumai_2.sol\":4212:4233  address(this).balance */\n      selfbalance\n        /* \"contracts/MNT_Mumai_2.sol\":4197:4233  uint256 fees = address(this).balance */\n      swap1\n      pop\n        /* \"contracts/MNT_Mumai_2.sol\":4299:4312  contractOwner */\n      0x06\n      0x00\n      swap1\n      sload\n      swap1\n      0x0100\n      exp\n      swap1\n      div\n      0xffffffffffffffffffffffffffffffffffffffff\n      and\n        /* \"contracts/MNT_Mumai_2.sol\":4291:4322  payable(contractOwner).transfer */\n      0xffffffffffffffffffffffffffffffffffffffff\n      and\n        /* \"contracts/MNT_Mumai_2.sol\":4291:4328  payable(contractOwner).transfer(fees) */\n      0x08fc\n        /* \"contracts/MNT_Mumai_2.sol\":4323:4327  fees */\n      dup3\n        /* \"contracts/MNT_Mumai_2.sol\":4291:4328  payable(contractOwner).transfer(fees) */\n      swap1\n      dup2\n      iszero\n      mul\n      swap1\n      mload(0x40)\n      0x00\n      mload(0x40)\n      dup1\n      dup4\n      sub\n      dup2\n      dup6\n      dup9\n      dup9\n      call\n      swap4\n      pop\n      pop\n      pop\n      pop\n      iszero\n      dup1\n      iszero\n      tag_141\n      jumpi\n      returndatasize\n      0x00\n      dup1\n      returndatacopy\n      revert(0x00, returndatasize)\n    tag_141:\n      pop\n        /* \"contracts/MNT_Mumai_2.sol\":4344:4387  MintingFeesWithdrawn(fees, block.timestamp) */\n      0xf39edbeb800007582021719f876f29eb42aa5171248e3df79a3bf120a4e91416\n        /* \"contracts/MNT_Mumai_2.sol\":4365:4369  fees */\n      dup2\n        /* \"contracts/MNT_Mumai_2.sol\":4371:4386  block.timestamp */\n      timestamp\n        /* \"contracts/MNT_Mumai_2.sol\":4344:4387  MintingFeesWithdrawn(fees, block.timestamp) */\n      mload(0x40)\n      tag_142\n      swap3\n      swap2\n      swap1\n      tag_143\n      jump\t// in\n    tag_142:\n      mload(0x40)\n      dup1\n      swap2\n      sub\n      swap1\n      log1\n        /* \"contracts/MNT_Mumai_2.sol\":4186:4395  {... */\n      pop\n        /* \"contracts/MNT_Mumai_2.sol\":4131:4395  function WithdrawMintingFees() external onlyOwner... */\n      jump\t// out\n        /* \"contracts/MNT_Mumai_2.sol\":2354:2577  function updateCapPerAccount(uint newCap) public onlyOwner... */\n    tag_71:\n        /* \"contracts/MNT_Mumai_2.sol\":1564:1577  contractOwner */\n      0x06\n      0x00\n      swap1\n      sload\n      swap1\n      0x0100\n      exp\n      swap1\n      div\n      0xffffffffffffffffffffffffffffffffffffffff\n      and\n        /* \"contracts/MNT_Mumai_2.sol\":1550:1577  msg.sender == contractOwner */\n      0xffffffffffffffffffffffffffffffffffffffff\n      and\n        /* \"contracts/MNT_Mumai_2.sol\":1550:1560  msg.sender */\n      caller\n        /* \"contracts/MNT_Mumai_2.sol\":1550:1577  msg.sender == contractOwner */\n      0xffffffffffffffffffffffffffffffffffffffff\n      and\n      eq\n        /* \"contracts/MNT_Mumai_2.sol\":1542:1612  require(msg.sender == contractOwner, \"Error-MNT_MUMBAI_2.sol-Ownable\") */\n      tag_145\n      jumpi\n      mload(0x40)\n      0x08c379a000000000000000000000000000000000000000000000000000000000\n      dup2\n      mstore\n      0x04\n      add\n      tag_146\n      swap1\n      tag_138\n      jump\t// in\n    tag_146:\n      mload(0x40)\n      dup1\n      swap2\n      sub\n      swap1\n      revert\n    tag_145:\n        /* \"contracts/MNT_Mumai_2.sol\":2429:2448  uint256 previousCap */\n      0x00\n        /* \"contracts/MNT_Mumai_2.sol\":2451:2464  capPerAccount */\n      sload(0x08)\n        /* \"contracts/MNT_Mumai_2.sol\":2429:2464  uint256 previousCap = capPerAccount */\n      swap1\n      pop\n        /* \"contracts/MNT_Mumai_2.sol\":2489:2495  newCap */\n      dup2\n        /* \"contracts/MNT_Mumai_2.sol\":2475:2488  capPerAccount */\n      0x08\n        /* \"contracts/MNT_Mumai_2.sol\":2475:2495  capPerAccount=newCap */\n      dup2\n      swap1\n      sstore\n      pop\n        /* \"contracts/MNT_Mumai_2.sol\":2511:2569  CapPerAccountUpdated(previousCap, newCap, block.timestamp) */\n      0x4c2d858a88357e20c1b14c12b9674497934a744bb8118d4d3f2dce8ded4989be\n        /* \"contracts/MNT_Mumai_2.sol\":2532:2543  previousCap */\n      dup2\n        /* \"contracts/MNT_Mumai_2.sol\":2545:2551  newCap */\n      dup4\n        /* \"contracts/MNT_Mumai_2.sol\":2553:2568  block.timestamp */\n      timestamp\n        /* \"contracts/MNT_Mumai_2.sol\":2511:2569  CapPerAccountUpdated(previousCap, newCap, block.timestamp) */\n      mload(0x40)\n      tag_148\n      swap4\n      swap3\n      swap2\n      swap1\n      tag_149\n      jump\t// in\n    tag_148:\n      mload(0x40)\n      dup1\n      swap2\n      sub\n      swap1\n      log1\n        /* \"contracts/MNT_Mumai_2.sol\":2418:2577  {... */\n      pop\n        /* \"contracts/MNT_Mumai_2.sol\":2354:2577  function updateCapPerAccount(uint newCap) public onlyOwner... */\n      pop\n      jump\t// out\n        /* \"@openzeppelin/contracts/token/ERC20/ERC20.sol\":3299:3415  function balanceOf(address account) public view virtual returns (uint256) {... */\n    tag_76:\n        /* \"@openzeppelin/contracts/token/ERC20/ERC20.sol\":3364:3371  uint256 */\n      0x00\n        /* \"@openzeppelin/contracts/token/ERC20/ERC20.sol\":3390:3399  _balances */\n      dup1\n        /* \"@openzeppelin/contracts/token/ERC20/ERC20.sol\":3390:3408  _balances[account] */\n      0x00\n        /* \"@openzeppelin/contracts/token/ERC20/ERC20.sol\":3400:3407  account */\n      dup4\n        /* \"@openzeppelin/contracts/token/ERC20/ERC20.sol\":3390:3408  _balances[account] */\n      0xffffffffffffffffffffffffffffffffffffffff\n      and\n      0xffffffffffffffffffffffffffffffffffffffff\n      and\n      dup2\n      mstore\n      0x20\n      add\n      swap1\n      dup2\n      mstore\n      0x20\n      add\n      0x00\n      keccak256\n      sload\n        /* \"@openzeppelin/contracts/token/ERC20/ERC20.sol\":3383:3408  return _balances[account] */\n      swap1\n      pop\n        /* \"@openzeppelin/contracts/token/ERC20/ERC20.sol\":3299:3415  function balanceOf(address account) public view virtual returns (uint256) {... */\n      swap2\n      swap1\n      pop\n      jump\t// out\n        /* \"contracts/MNT_Mumai_2.sol\":1640:2346  function buyTokensFromContract(uint256 amount) external payable... */\n    tag_80:\n        /* \"contracts/MNT_Mumai_2.sol\":1741:1770  priceOf_N_TokensInWei(amount) */\n      tag_152\n        /* \"contracts/MNT_Mumai_2.sol\":1763:1769  amount */\n      dup2\n        /* \"contracts/MNT_Mumai_2.sol\":1741:1762  priceOf_N_TokensInWei */\n      tag_44\n        /* \"contracts/MNT_Mumai_2.sol\":1741:1770  priceOf_N_TokensInWei(amount) */\n      jump\t// in\n    tag_152:\n        /* \"contracts/MNT_Mumai_2.sol\":1728:1737  msg.value */\n      callvalue\n        /* \"contracts/MNT_Mumai_2.sol\":1728:1770  msg.value >= priceOf_N_TokensInWei(amount) */\n      lt\n      iszero\n        /* \"contracts/MNT_Mumai_2.sol\":1720:1818  require(msg.value >= priceOf_N_TokensInWei(amount),\"Error-MNT_MUMBAI_2.sol-Valueless_Transaction\") */\n      tag_153\n      jumpi\n      mload(0x40)\n      0x08c379a000000000000000000000000000000000000000000000000000000000\n      dup2\n      mstore\n      0x04\n      add\n      tag_154\n      swap1\n      tag_155\n      jump\t// in\n    tag_154:\n      mload(0x40)\n      dup1\n      swap2\n      sub\n      swap1\n      revert\n    tag_153:\n        /* \"contracts/MNT_Mumai_2.sol\":1880:1900  uint256 tokensToMint */\n      0x00\n        /* \"contracts/MNT_Mumai_2.sol\":1937:1955  zTokenPriceInWei() */\n      tag_156\n        /* \"contracts/MNT_Mumai_2.sol\":1937:1953  zTokenPriceInWei */\n      tag_92\n        /* \"contracts/MNT_Mumai_2.sol\":1937:1955  zTokenPriceInWei() */\n      jump\t// in\n    tag_156:\n        /* \"contracts/MNT_Mumai_2.sol\":1924:1934  decimals() */\n      tag_157\n        /* \"contracts/MNT_Mumai_2.sol\":1924:1932  decimals */\n      tag_58\n        /* \"contracts/MNT_Mumai_2.sol\":1924:1934  decimals() */\n      jump\t// in\n    tag_157:\n        /* \"contracts/MNT_Mumai_2.sol\":1916:1935  uint256(decimals()) */\n      0xff\n      and\n        /* \"contracts/MNT_Mumai_2.sol\":1912:1914  10 */\n      0x0a\n        /* \"contracts/MNT_Mumai_2.sol\":1912:1935  10**uint256(decimals()) */\n      tag_158\n      swap2\n      swap1\n      tag_159\n      jump\t// in\n    tag_158:\n        /* \"contracts/MNT_Mumai_2.sol\":1901:1910  msg.value */\n      callvalue\n        /* \"contracts/MNT_Mumai_2.sol\":1901:1936  msg.value*(10**uint256(decimals())) */\n      tag_160\n      swap2\n      swap1\n      tag_126\n      jump\t// in\n    tag_160:\n        /* \"contracts/MNT_Mumai_2.sol\":1901:1955  msg.value*(10**uint256(decimals()))/zTokenPriceInWei() */\n      tag_161\n      swap2\n      swap1\n      tag_162\n      jump\t// in\n    tag_161:\n        /* \"contracts/MNT_Mumai_2.sol\":1880:1955  uint256 tokensToMint=msg.value*(10**uint256(decimals()))/zTokenPriceInWei() */\n      swap1\n      pop\n        /* \"contracts/MNT_Mumai_2.sol\":1993:2006  contractOwner */\n      0x06\n      0x00\n      swap1\n      sload\n      swap1\n      0x0100\n      exp\n      swap1\n      div\n      0xffffffffffffffffffffffffffffffffffffffff\n      and\n        /* \"contracts/MNT_Mumai_2.sol\":1981:2006  msg.sender!=contractOwner */\n      0xffffffffffffffffffffffffffffffffffffffff\n      and\n        /* \"contracts/MNT_Mumai_2.sol\":1981:1991  msg.sender */\n      caller\n        /* \"contracts/MNT_Mumai_2.sol\":1981:2006  msg.sender!=contractOwner */\n      0xffffffffffffffffffffffffffffffffffffffff\n      and\n      eq\n        /* \"contracts/MNT_Mumai_2.sol\":1977:2180  if (msg.sender!=contractOwner)... */\n      tag_163\n      jumpi\n        /* \"contracts/MNT_Mumai_2.sol\":2109:2119  decimals() */\n      tag_164\n        /* \"contracts/MNT_Mumai_2.sol\":2109:2117  decimals */\n      tag_58\n        /* \"contracts/MNT_Mumai_2.sol\":2109:2119  decimals() */\n      jump\t// in\n    tag_164:\n        /* \"contracts/MNT_Mumai_2.sol\":2101:2120  uint256(decimals()) */\n      0xff\n      and\n        /* \"contracts/MNT_Mumai_2.sol\":2097:2099  10 */\n      0x0a\n        /* \"contracts/MNT_Mumai_2.sol\":2097:2120  10**uint256(decimals()) */\n      tag_165\n      swap2\n      swap1\n      tag_159\n      jump\t// in\n    tag_165:\n        /* \"contracts/MNT_Mumai_2.sol\":2080:2093  capPerAccount */\n      sload(0x08)\n        /* \"contracts/MNT_Mumai_2.sol\":2080:2121  capPerAccount * (10**uint256(decimals())) */\n      tag_166\n      swap2\n      swap1\n      tag_126\n      jump\t// in\n    tag_166:\n        /* \"contracts/MNT_Mumai_2.sol\":2064:2076  tokensToMint */\n      dup2\n        /* \"contracts/MNT_Mumai_2.sol\":2040:2061  balanceOf(msg.sender) */\n      tag_167\n        /* \"contracts/MNT_Mumai_2.sol\":2050:2060  msg.sender */\n      caller\n        /* \"contracts/MNT_Mumai_2.sol\":2040:2049  balanceOf */\n      tag_76\n        /* \"contracts/MNT_Mumai_2.sol\":2040:2061  balanceOf(msg.sender) */\n      jump\t// in\n    tag_167:\n        /* \"contracts/MNT_Mumai_2.sol\":2040:2076  balanceOf(msg.sender) + tokensToMint */\n      tag_168\n      swap2\n      swap1\n      tag_169\n      jump\t// in\n    tag_168:\n        /* \"contracts/MNT_Mumai_2.sol\":2040:2121  balanceOf(msg.sender) + tokensToMint <= capPerAccount * (10**uint256(decimals())) */\n      gt\n      iszero\n        /* \"contracts/MNT_Mumai_2.sol\":2032:2168  require(balanceOf(msg.sender) + tokensToMint <= capPerAccount * (10**uint256(decimals())), \"Error-MNT_MUMBAI_2.sol-Exceeds_Max_Balance\") */\n      tag_170\n      jumpi\n      mload(0x40)\n      0x08c379a000000000000000000000000000000000000000000000000000000000\n      dup2\n      mstore\n      0x04\n      add\n      tag_171\n      swap1\n      tag_172\n      jump\t// in\n    tag_171:\n      mload(0x40)\n      dup1\n      swap2\n      sub\n      swap1\n      revert\n    tag_170:\n        /* \"contracts/MNT_Mumai_2.sol\":1977:2180  if (msg.sender!=contractOwner)... */\n    tag_163:\n        /* \"contracts/MNT_Mumai_2.sol\":2200:2230  _mint(msg.sender,tokensToMint) */\n      tag_173\n        /* \"contracts/MNT_Mumai_2.sol\":2206:2216  msg.sender */\n      caller\n        /* \"contracts/MNT_Mumai_2.sol\":2217:2229  tokensToMint */\n      dup3\n        /* \"contracts/MNT_Mumai_2.sol\":2200:2205  _mint */\n      tag_174\n        /* \"contracts/MNT_Mumai_2.sol\":2200:2230  _mint(msg.sender,tokensToMint) */\n      jump\t// in\n    tag_173:\n        /* \"contracts/MNT_Mumai_2.sol\":2262:2272  msg.sender */\n      caller\n        /* \"contracts/MNT_Mumai_2.sol\":2246:2338  TokensPurchased(msg.sender, tokensToMint, msg.value, block.timestamp, balanceOf(msg.sender)) */\n      0xffffffffffffffffffffffffffffffffffffffff\n      and\n      0x34987d73948b60cfba9beeb35760c345a3be430f3540605113911ead78a0830e\n        /* \"contracts/MNT_Mumai_2.sol\":2274:2286  tokensToMint */\n      dup3\n        /* \"contracts/MNT_Mumai_2.sol\":2288:2297  msg.value */\n      callvalue\n        /* \"contracts/MNT_Mumai_2.sol\":2299:2314  block.timestamp */\n      timestamp\n        /* \"contracts/MNT_Mumai_2.sol\":2316:2337  balanceOf(msg.sender) */\n      tag_175\n        /* \"contracts/MNT_Mumai_2.sol\":2326:2336  msg.sender */\n      caller\n        /* \"contracts/MNT_Mumai_2.sol\":2316:2325  balanceOf */\n      tag_76\n        /* \"contracts/MNT_Mumai_2.sol\":2316:2337  balanceOf(msg.sender) */\n      jump\t// in\n    tag_175:\n        /* \"contracts/MNT_Mumai_2.sol\":2246:2338  TokensPurchased(msg.sender, tokensToMint, msg.value, block.timestamp, balanceOf(msg.sender)) */\n      mload(0x40)\n      tag_176\n      swap5\n      swap4\n      swap3\n      swap2\n      swap1\n      tag_177\n      jump\t// in\n    tag_176:\n      mload(0x40)\n      dup1\n      swap2\n      sub\n      swap1\n      log2\n        /* \"contracts/MNT_Mumai_2.sol\":1709:2346  {... */\n      pop\n        /* \"contracts/MNT_Mumai_2.sol\":1640:2346  function buyTokensFromContract(uint256 amount) external payable... */\n      pop\n      jump\t// out\n        /* \"@openzeppelin/contracts/token/ERC20/ERC20.sol\":2276:2369  function symbol() public view virtual returns (string memory) {... */\n    tag_83:\n        /* \"@openzeppelin/contracts/token/ERC20/ERC20.sol\":2323:2336  string memory */\n      0x60\n        /* \"@openzeppelin/contracts/token/ERC20/ERC20.sol\":2355:2362  _symbol */\n      0x04\n        /* \"@openzeppelin/contracts/token/ERC20/ERC20.sol\":2348:2362  return _symbol */\n      dup1\n      sload\n      tag_179\n      swap1\n      tag_112\n      jump\t// in\n    tag_179:\n      dup1\n      0x1f\n      add\n      0x20\n      dup1\n      swap2\n      div\n      mul\n      0x20\n      add\n      mload(0x40)\n      swap1\n      dup2\n      add\n      0x40\n      mstore\n      dup1\n      swap3\n      swap2\n      swap1\n      dup2\n      dup2\n      mstore\n      0x20\n      add\n      dup3\n      dup1\n      sload\n      tag_180\n      swap1\n      tag_112\n      jump\t// in\n    tag_180:\n      dup1\n      iszero\n      tag_181\n      jumpi\n      dup1\n      0x1f\n      lt\n      tag_182\n      jumpi\n      0x0100\n      dup1\n      dup4\n      sload\n      div\n      mul\n      dup4\n      mstore\n      swap2\n      0x20\n      add\n      swap2\n      jump(tag_181)\n    tag_182:\n      dup3\n      add\n      swap2\n      swap1\n      0x00\n      mstore\n      keccak256(0x00, 0x20)\n      swap1\n    tag_183:\n      dup2\n      sload\n      dup2\n      mstore\n      swap1\n      0x01\n      add\n      swap1\n      0x20\n      add\n      dup1\n      dup4\n      gt\n      tag_183\n      jumpi\n      dup3\n      swap1\n      sub\n      0x1f\n      and\n      dup3\n      add\n      swap2\n    tag_181:\n      pop\n      pop\n      pop\n      pop\n      pop\n      swap1\n      pop\n        /* \"@openzeppelin/contracts/token/ERC20/ERC20.sol\":2276:2369  function symbol() public view virtual returns (string memory) {... */\n      swap1\n      jump\t// out\n        /* \"@openzeppelin/contracts/token/ERC20/ERC20.sol\":3610:3788  function transfer(address to, uint256 value) public virtual returns (bool) {... */\n    tag_88:\n        /* \"@openzeppelin/contracts/token/ERC20/ERC20.sol\":3679:3683  bool */\n      0x00\n        /* \"@openzeppelin/contracts/token/ERC20/ERC20.sol\":3695:3708  address owner */\n      dup1\n        /* \"@openzeppelin/contracts/token/ERC20/ERC20.sol\":3711:3723  _msgSender() */\n      tag_185\n        /* \"@openzeppelin/contracts/token/ERC20/ERC20.sol\":3711:3721  _msgSender */\n      tag_119\n        /* \"@openzeppelin/contracts/token/ERC20/ERC20.sol\":3711:3723  _msgSender() */\n      jump\t// in\n    tag_185:\n        /* \"@openzeppelin/contracts/token/ERC20/ERC20.sol\":3695:3723  address owner = _msgSender() */\n      swap1\n      pop\n        /* \"@openzeppelin/contracts/token/ERC20/ERC20.sol\":3733:3760  _transfer(owner, to, value) */\n      tag_186\n        /* \"@openzeppelin/contracts/token/ERC20/ERC20.sol\":3743:3748  owner */\n      dup2\n        /* \"@openzeppelin/contracts/token/ERC20/ERC20.sol\":3750:3752  to */\n      dup6\n        /* \"@openzeppelin/contracts/token/ERC20/ERC20.sol\":3754:3759  value */\n      dup6\n        /* \"@openzeppelin/contracts/token/ERC20/ERC20.sol\":3733:3742  _transfer */\n      tag_132\n        /* \"@openzeppelin/contracts/token/ERC20/ERC20.sol\":3733:3760  _transfer(owner, to, value) */\n      jump\t// in\n    tag_186:\n        /* \"@openzeppelin/contracts/token/ERC20/ERC20.sol\":3777:3781  true */\n      0x01\n        /* \"@openzeppelin/contracts/token/ERC20/ERC20.sol\":3770:3781  return true */\n      swap2\n      pop\n      pop\n        /* \"@openzeppelin/contracts/token/ERC20/ERC20.sol\":3610:3788  function transfer(address to, uint256 value) public virtual returns (bool) {... */\n      swap3\n      swap2\n      pop\n      pop\n      jump\t// out\n        /* \"contracts/MNT_Mumai_2.sol\":3657:3967  function zTokenPriceInWei() public view returns (uint256)... */\n    tag_92:\n        /* \"contracts/MNT_Mumai_2.sol\":3706:3713  uint256 */\n      0x00\n        /* \"contracts/MNT_Mumai_2.sol\":3941:3958  OneMATICInCents() */\n      tag_188\n        /* \"contracts/MNT_Mumai_2.sol\":3941:3956  OneMATICInCents */\n      tag_107\n        /* \"contracts/MNT_Mumai_2.sol\":3941:3958  OneMATICInCents() */\n      jump\t// in\n    tag_188:\n        /* \"contracts/MNT_Mumai_2.sol\":3921:3931  2*(10**18) */\n      0x1bc16d674ec80000\n        /* \"contracts/MNT_Mumai_2.sol\":3913:3959  uint256(2*(10**18))/uint256(OneMATICInCents()) */\n      tag_189\n      swap2\n      swap1\n      tag_162\n      jump\t// in\n    tag_189:\n        /* \"contracts/MNT_Mumai_2.sol\":3906:3959  return uint256(2*(10**18))/uint256(OneMATICInCents()) */\n      swap1\n      pop\n        /* \"contracts/MNT_Mumai_2.sol\":3657:3967  function zTokenPriceInWei() public view returns (uint256)... */\n      swap1\n      jump\t// out\n        /* \"contracts/MNT_Mumai_2.sol\":464:492  address public contractOwner */\n    tag_96:\n      0x06\n      0x00\n      swap1\n      sload\n      swap1\n      0x0100\n      exp\n      swap1\n      div\n      0xffffffffffffffffffffffffffffffffffffffff\n      and\n      dup2\n      jump\t// out\n        /* \"@openzeppelin/contracts/token/ERC20/ERC20.sol\":3846:3986  function allowance(address owner, address spender) public view virtual returns (uint256) {... */\n    tag_103:\n        /* \"@openzeppelin/contracts/token/ERC20/ERC20.sol\":3926:3933  uint256 */\n      0x00\n        /* \"@openzeppelin/contracts/token/ERC20/ERC20.sol\":3952:3963  _allowances */\n      0x01\n        /* \"@openzeppelin/contracts/token/ERC20/ERC20.sol\":3952:3970  _allowances[owner] */\n      0x00\n        /* \"@openzeppelin/contracts/token/ERC20/ERC20.sol\":3964:3969  owner */\n      dup5\n        /* \"@openzeppelin/contracts/token/ERC20/ERC20.sol\":3952:3970  _allowances[owner] */\n      0xffffffffffffffffffffffffffffffffffffffff\n      and\n      0xffffffffffffffffffffffffffffffffffffffff\n      and\n      dup2\n      mstore\n      0x20\n      add\n      swap1\n      dup2\n      mstore\n      0x20\n      add\n      0x00\n      keccak256\n        /* \"@openzeppelin/contracts/token/ERC20/ERC20.sol\":3952:3979  _allowances[owner][spender] */\n      0x00\n        /* \"@openzeppelin/contracts/token/ERC20/ERC20.sol\":3971:3978  spender */\n      dup4\n        /* \"@openzeppelin/contracts/token/ERC20/ERC20.sol\":3952:3979  _allowances[owner][spender] */\n      0xffffffffffffffffffffffffffffffffffffffff\n      and\n      0xffffffffffffffffffffffffffffffffffffffff\n      and\n      dup2\n      mstore\n      0x20\n      add\n      swap1\n      dup2\n      mstore\n      0x20\n      add\n      0x00\n      keccak256\n      sload\n        /* \"@openzeppelin/contracts/token/ERC20/ERC20.sol\":3945:3979  return _allowances[owner][spender] */\n      swap1\n      pop\n        /* \"@openzeppelin/contracts/token/ERC20/ERC20.sol\":3846:3986  function allowance(address owner, address spender) public view virtual returns (uint256) {... */\n      swap3\n      swap2\n      pop\n      pop\n      jump\t// out\n        /* \"contracts/MNT_Mumai_2.sol\":2585:3649  function OneMATICInCents() public view returns (int)... */\n    tag_107:\n        /* \"contracts/MNT_Mumai_2.sol\":2633:2636  int */\n      0x00\n        /* \"contracts/MNT_Mumai_2.sol\":2656:2666  int answer */\n      dup1\n        /* \"contracts/MNT_Mumai_2.sol\":2673:2681  dataFeed */\n      0x05\n      0x00\n      swap1\n      sload\n      swap1\n      0x0100\n      exp\n      swap1\n      div\n      0xffffffffffffffffffffffffffffffffffffffff\n      and\n        /* \"contracts/MNT_Mumai_2.sol\":2673:2697  dataFeed.latestRoundData */\n      0xffffffffffffffffffffffffffffffffffffffff\n      and\n      0xfeaf968c\n        /* \"contracts/MNT_Mumai_2.sol\":2673:2699  dataFeed.latestRoundData() */\n      mload(0x40)\n      dup2\n      0xffffffff\n      and\n      0xe0\n      shl\n      dup2\n      mstore\n      0x04\n      add\n      0xa0\n      mload(0x40)\n      dup1\n      dup4\n      sub\n      dup2\n      dup7\n      gas\n      staticcall\n      iszero\n      dup1\n      iszero\n      tag_193\n      jumpi\n      returndatasize\n      0x00\n      dup1\n      returndatacopy\n      revert(0x00, returndatasize)\n    tag_193:\n      pop\n      pop\n      pop\n      pop\n      mload(0x40)\n      returndatasize\n      not(0x1f)\n      0x1f\n      dup3\n      add\n      and\n      dup3\n      add\n      dup1\n      0x40\n      mstore\n      pop\n      dup2\n      add\n      swap1\n      tag_194\n      swap2\n      swap1\n      tag_195\n      jump\t// in\n    tag_194:\n        /* \"contracts/MNT_Mumai_2.sol\":2654:2699  (,int answer,,,) = dataFeed.latestRoundData() */\n      pop\n      pop\n      pop\n      swap2\n      pop\n      pop\n        /* \"contracts/MNT_Mumai_2.sol\":3452:3459  1000000 */\n      0x0f4240\n        /* \"contracts/MNT_Mumai_2.sol\":3445:3451  answer */\n      dup2\n        /* \"contracts/MNT_Mumai_2.sol\":3445:3459  answer/1000000 */\n      tag_196\n      swap2\n      swap1\n      tag_197\n      jump\t// in\n    tag_196:\n        /* \"contracts/MNT_Mumai_2.sol\":3438:3459  return answer/1000000 */\n      swap2\n      pop\n      pop\n        /* \"contracts/MNT_Mumai_2.sol\":2585:3649  function OneMATICInCents() public view returns (int)... */\n      swap1\n      jump\t// out\n        /* \"@openzeppelin/contracts/utils/Context.sol\":656:752  function _msgSender() internal view virtual returns (address) {... */\n    tag_119:\n        /* \"@openzeppelin/contracts/utils/Context.sol\":709:716  address */\n      0x00\n        /* \"@openzeppelin/contracts/utils/Context.sol\":735:745  msg.sender */\n      caller\n        /* \"@openzeppelin/contracts/utils/Context.sol\":728:745  return msg.sender */\n      swap1\n      pop\n        /* \"@openzeppelin/contracts/utils/Context.sol\":656:752  function _msgSender() internal view virtual returns (address) {... */\n      swap1\n      jump\t// out\n        /* \"@openzeppelin/contracts/token/ERC20/ERC20.sol\":8989:9117  function _approve(address owner, address spender, uint256 value) internal {... */\n    tag_121:\n        /* \"@openzeppelin/contracts/token/ERC20/ERC20.sol\":9073:9110  _approve(owner, spender, value, true) */\n      tag_200\n        /* \"@openzeppelin/contracts/token/ERC20/ERC20.sol\":9082:9087  owner */\n      dup4\n        /* \"@openzeppelin/contracts/token/ERC20/ERC20.sol\":9089:9096  spender */\n      dup4\n        /* \"@openzeppelin/contracts/token/ERC20/ERC20.sol\":9098:9103  value */\n      dup4\n        /* \"@openzeppelin/contracts/token/ERC20/ERC20.sol\":9105:9109  true */\n      0x01\n        /* \"@openzeppelin/contracts/token/ERC20/ERC20.sol\":9073:9081  _approve */\n      tag_201\n        /* \"@openzeppelin/contracts/token/ERC20/ERC20.sol\":9073:9110  _approve(owner, spender, value, true) */\n      jump\t// in\n    tag_200:\n        /* \"@openzeppelin/contracts/token/ERC20/ERC20.sol\":8989:9117  function _approve(address owner, address spender, uint256 value) internal {... */\n      pop\n      pop\n      pop\n      jump\t// out\n        /* \"@openzeppelin/contracts/token/ERC20/ERC20.sol\":10663:11140  function _spendAllowance(address owner, address spender, uint256 value) internal virtual {... */\n    tag_130:\n        /* \"@openzeppelin/contracts/token/ERC20/ERC20.sol\":10762:10786  uint256 currentAllowance */\n      0x00\n        /* \"@openzeppelin/contracts/token/ERC20/ERC20.sol\":10789:10814  allowance(owner, spender) */\n      tag_203\n        /* \"@openzeppelin/contracts/token/ERC20/ERC20.sol\":10799:10804  owner */\n      dup5\n        /* \"@openzeppelin/contracts/token/ERC20/ERC20.sol\":10806:10813  spender */\n      dup5\n        /* \"@openzeppelin/contracts/token/ERC20/ERC20.sol\":10789:10798  allowance */\n      tag_103\n        /* \"@openzeppelin/contracts/token/ERC20/ERC20.sol\":10789:10814  allowance(owner, spender) */\n      jump\t// in\n    tag_203:\n        /* \"@openzeppelin/contracts/token/ERC20/ERC20.sol\":10762:10814  uint256 currentAllowance = allowance(owner, spender) */\n      swap1\n      pop\n        /* \"@openzeppelin/contracts/token/ERC20/ERC20.sol\":10848:10865  type(uint256).max */\n      0xffffffffffffffffffffffffffffffffffffffffffffffffffffffffffffffff\n        /* \"@openzeppelin/contracts/token/ERC20/ERC20.sol\":10828:10844  currentAllowance */\n      dup2\n        /* \"@openzeppelin/contracts/token/ERC20/ERC20.sol\":10828:10865  currentAllowance != type(uint256).max */\n      eq\n        /* \"@openzeppelin/contracts/token/ERC20/ERC20.sol\":10824:11134  if (currentAllowance != type(uint256).max) {... */\n      tag_204\n      jumpi\n        /* \"@openzeppelin/contracts/token/ERC20/ERC20.sol\":10904:10909  value */\n      dup2\n        /* \"@openzeppelin/contracts/token/ERC20/ERC20.sol\":10885:10901  currentAllowance */\n      dup2\n        /* \"@openzeppelin/contracts/token/ERC20/ERC20.sol\":10885:10909  currentAllowance < value */\n      lt\n        /* \"@openzeppelin/contracts/token/ERC20/ERC20.sol\":10881:11011  if (currentAllowance < value) {... */\n      iszero\n      tag_205\n      jumpi\n        /* \"@openzeppelin/contracts/token/ERC20/ERC20.sol\":10963:10970  spender */\n      dup3\n        /* \"@openzeppelin/contracts/token/ERC20/ERC20.sol\":10972:10988  currentAllowance */\n      dup2\n        /* \"@openzeppelin/contracts/token/ERC20/ERC20.sol\":10990:10995  value */\n      dup4\n        /* \"@openzeppelin/contracts/token/ERC20/ERC20.sol\":10936:10996  ERC20InsufficientAllowance(spender, currentAllowance, value) */\n      mload(0x40)\n      0xfb8f41b200000000000000000000000000000000000000000000000000000000\n      dup2\n      mstore\n      0x04\n      add\n      tag_206\n      swap4\n      swap3\n      swap2\n      swap1\n      tag_207\n      jump\t// in\n    tag_206:\n      mload(0x40)\n      dup1\n      swap2\n      sub\n      swap1\n      revert\n        /* \"@openzeppelin/contracts/token/ERC20/ERC20.sol\":10881:11011  if (currentAllowance < value) {... */\n    tag_205:\n        /* \"@openzeppelin/contracts/token/ERC20/ERC20.sol\":11052:11109  _approve(owner, spender, currentAllowance - value, false) */\n      tag_208\n        /* \"@openzeppelin/contracts/token/ERC20/ERC20.sol\":11061:11066  owner */\n      dup5\n        /* \"@openzeppelin/contracts/token/ERC20/ERC20.sol\":11068:11075  spender */\n      dup5\n        /* \"@openzeppelin/contracts/token/ERC20/ERC20.sol\":11096:11101  value */\n      dup5\n        /* \"@openzeppelin/contracts/token/ERC20/ERC20.sol\":11077:11093  currentAllowance */\n      dup5\n        /* \"@openzeppelin/contracts/token/ERC20/ERC20.sol\":11077:11101  currentAllowance - value */\n      sub\n        /* \"@openzeppelin/contracts/token/ERC20/ERC20.sol\":11103:11108  false */\n      0x00\n        /* \"@openzeppelin/contracts/token/ERC20/ERC20.sol\":11052:11060  _approve */\n      tag_201\n        /* \"@openzeppelin/contracts/token/ERC20/ERC20.sol\":11052:11109  _approve(owner, spender, currentAllowance - value, false) */\n      jump\t// in\n    tag_208:\n        /* \"@openzeppelin/contracts/token/ERC20/ERC20.sol\":10824:11134  if (currentAllowance != type(uint256).max) {... */\n    tag_204:\n        /* \"@openzeppelin/contracts/token/ERC20/ERC20.sol\":10752:11140  {... */\n      pop\n        /* \"@openzeppelin/contracts/token/ERC20/ERC20.sol\":10663:11140  function _spendAllowance(address owner, address spender, uint256 value) internal virtual {... */\n      pop\n      pop\n      pop\n      jump\t// out\n        /* \"@openzeppelin/contracts/token/ERC20/ERC20.sol\":5656:5956  function _transfer(address from, address to, uint256 value) internal {... */\n    tag_132:\n        /* \"@openzeppelin/contracts/token/ERC20/ERC20.sol\":5755:5756  0 */\n      0x00\n        /* \"@openzeppelin/contracts/token/ERC20/ERC20.sol\":5739:5757  from == address(0) */\n      0xffffffffffffffffffffffffffffffffffffffff\n      and\n        /* \"@openzeppelin/contracts/token/ERC20/ERC20.sol\":5739:5743  from */\n      dup4\n        /* \"@openzeppelin/contracts/token/ERC20/ERC20.sol\":5739:5757  from == address(0) */\n      0xffffffffffffffffffffffffffffffffffffffff\n      and\n      sub\n        /* \"@openzeppelin/contracts/token/ERC20/ERC20.sol\":5735:5821  if (from == address(0)) {... */\n      tag_210\n      jumpi\n        /* \"@openzeppelin/contracts/token/ERC20/ERC20.sol\":5807:5808  0 */\n      0x00\n        /* \"@openzeppelin/contracts/token/ERC20/ERC20.sol\":5780:5810  ERC20InvalidSender(address(0)) */\n      mload(0x40)\n      0x96c6fd1e00000000000000000000000000000000000000000000000000000000\n      dup2\n      mstore\n      0x04\n      add\n      tag_211\n      swap2\n      swap1\n      tag_98\n      jump\t// in\n    tag_211:\n      mload(0x40)\n      dup1\n      swap2\n      sub\n      swap1\n      revert\n        /* \"@openzeppelin/contracts/token/ERC20/ERC20.sol\":5735:5821  if (from == address(0)) {... */\n    tag_210:\n        /* \"@openzeppelin/contracts/token/ERC20/ERC20.sol\":5848:5849  0 */\n      0x00\n        /* \"@openzeppelin/contracts/token/ERC20/ERC20.sol\":5834:5850  to == address(0) */\n      0xffffffffffffffffffffffffffffffffffffffff\n      and\n        /* \"@openzeppelin/contracts/token/ERC20/ERC20.sol\":5834:5836  to */\n      dup3\n        /* \"@openzeppelin/contracts/token/ERC20/ERC20.sol\":5834:5850  to == address(0) */\n      0xffffffffffffffffffffffffffffffffffffffff\n      and\n      sub\n        /* \"@openzeppelin/contracts/token/ERC20/ERC20.sol\":5830:5916  if (to == address(0)) {... */\n      tag_212\n      jumpi\n        /* \"@openzeppelin/contracts/token/ERC20/ERC20.sol\":5902:5903  0 */\n      0x00\n        /* \"@openzeppelin/contracts/token/ERC20/ERC20.sol\":5873:5905  ERC20InvalidReceiver(address(0)) */\n      mload(0x40)\n      0xec442f0500000000000000000000000000000000000000000000000000000000\n      dup2\n      mstore\n      0x04\n      add\n      tag_213\n      swap2\n      swap1\n      tag_98\n      jump\t// in\n    tag_213:\n      mload(0x40)\n      dup1\n      swap2\n      sub\n      swap1\n      revert\n        /* \"@openzeppelin/contracts/token/ERC20/ERC20.sol\":5830:5916  if (to == address(0)) {... */\n    tag_212:\n        /* \"@openzeppelin/contracts/token/ERC20/ERC20.sol\":5925:5949  _update(from, to, value) */\n      tag_214\n        /* \"@openzeppelin/contracts/token/ERC20/ERC20.sol\":5933:5937  from */\n      dup4\n        /* \"@openzeppelin/contracts/token/ERC20/ERC20.sol\":5939:5941  to */\n      dup4\n        /* \"@openzeppelin/contracts/token/ERC20/ERC20.sol\":5943:5948  value */\n      dup4\n        /* \"@openzeppelin/contracts/token/ERC20/ERC20.sol\":5925:5932  _update */\n      tag_215\n        /* \"@openzeppelin/contracts/token/ERC20/ERC20.sol\":5925:5949  _update(from, to, value) */\n      jump\t// in\n    tag_214:\n        /* \"@openzeppelin/contracts/token/ERC20/ERC20.sol\":5656:5956  function _transfer(address from, address to, uint256 value) internal {... */\n      pop\n      pop\n      pop\n      jump\t// out\n        /* \"@openzeppelin/contracts/token/ERC20/ERC20.sol\":7721:7929  function _mint(address account, uint256 value) internal {... */\n    tag_174:\n        /* \"@openzeppelin/contracts/token/ERC20/ERC20.sol\":7810:7811  0 */\n      0x00\n        /* \"@openzeppelin/contracts/token/ERC20/ERC20.sol\":7791:7812  account == address(0) */\n      0xffffffffffffffffffffffffffffffffffffffff\n      and\n        /* \"@openzeppelin/contracts/token/ERC20/ERC20.sol\":7791:7798  account */\n      dup3\n        /* \"@openzeppelin/contracts/token/ERC20/ERC20.sol\":7791:7812  account == address(0) */\n      0xffffffffffffffffffffffffffffffffffffffff\n      and\n      sub\n        /* \"@openzeppelin/contracts/token/ERC20/ERC20.sol\":7787:7878  if (account == address(0)) {... */\n      tag_217\n      jumpi\n        /* \"@openzeppelin/contracts/token/ERC20/ERC20.sol\":7864:7865  0 */\n      0x00\n        /* \"@openzeppelin/contracts/token/ERC20/ERC20.sol\":7835:7867  ERC20InvalidReceiver(address(0)) */\n      mload(0x40)\n      0xec442f0500000000000000000000000000000000000000000000000000000000\n      dup2\n      mstore\n      0x04\n      add\n      tag_218\n      swap2\n      swap1\n      tag_98\n      jump\t// in\n    tag_218:\n      mload(0x40)\n      dup1\n      swap2\n      sub\n      swap1\n      revert\n        /* \"@openzeppelin/contracts/token/ERC20/ERC20.sol\":7787:7878  if (account == address(0)) {... */\n    tag_217:\n        /* \"@openzeppelin/contracts/token/ERC20/ERC20.sol\":7887:7922  _update(address(0), account, value) */\n      tag_219\n        /* \"@openzeppelin/contracts/token/ERC20/ERC20.sol\":7903:7904  0 */\n      0x00\n        /* \"@openzeppelin/contracts/token/ERC20/ERC20.sol\":7907:7914  account */\n      dup4\n        /* \"@openzeppelin/contracts/token/ERC20/ERC20.sol\":7916:7921  value */\n      dup4\n        /* \"@openzeppelin/contracts/token/ERC20/ERC20.sol\":7887:7894  _update */\n      tag_215\n        /* \"@openzeppelin/contracts/token/ERC20/ERC20.sol\":7887:7922  _update(address(0), account, value) */\n      jump\t// in\n    tag_219:\n        /* \"@openzeppelin/contracts/token/ERC20/ERC20.sol\":7721:7929  function _mint(address account, uint256 value) internal {... */\n      pop\n      pop\n      jump\t// out\n        /* \"@openzeppelin/contracts/token/ERC20/ERC20.sol\":9949:10381  function _approve(address owner, address spender, uint256 value, bool emitEvent) internal virtual {... */\n    tag_201:\n        /* \"@openzeppelin/contracts/token/ERC20/ERC20.sol\":10078:10079  0 */\n      0x00\n        /* \"@openzeppelin/contracts/token/ERC20/ERC20.sol\":10061:10080  owner == address(0) */\n      0xffffffffffffffffffffffffffffffffffffffff\n      and\n        /* \"@openzeppelin/contracts/token/ERC20/ERC20.sol\":10061:10066  owner */\n      dup5\n        /* \"@openzeppelin/contracts/token/ERC20/ERC20.sol\":10061:10080  owner == address(0) */\n      0xffffffffffffffffffffffffffffffffffffffff\n      and\n      sub\n        /* \"@openzeppelin/contracts/token/ERC20/ERC20.sol\":10057:10146  if (owner == address(0)) {... */\n      tag_221\n      jumpi\n        /* \"@openzeppelin/contracts/token/ERC20/ERC20.sol\":10132:10133  0 */\n      0x00\n        /* \"@openzeppelin/contracts/token/ERC20/ERC20.sol\":10103:10135  ERC20InvalidApprover(address(0)) */\n      mload(0x40)\n      0xe602df0500000000000000000000000000000000000000000000000000000000\n      dup2\n      mstore\n      0x04\n      add\n      tag_222\n      swap2\n      swap1\n      tag_98\n      jump\t// in\n    tag_222:\n      mload(0x40)\n      dup1\n      swap2\n      sub\n      swap1\n      revert\n        /* \"@openzeppelin/contracts/token/ERC20/ERC20.sol\":10057:10146  if (owner == address(0)) {... */\n    tag_221:\n        /* \"@openzeppelin/contracts/token/ERC20/ERC20.sol\":10178:10179  0 */\n      0x00\n        /* \"@openzeppelin/contracts/token/ERC20/ERC20.sol\":10159:10180  spender == address(0) */\n      0xffffffffffffffffffffffffffffffffffffffff\n      and\n        /* \"@openzeppelin/contracts/token/ERC20/ERC20.sol\":10159:10166  spender */\n      dup4\n        /* \"@openzeppelin/contracts/token/ERC20/ERC20.sol\":10159:10180  spender == address(0) */\n      0xffffffffffffffffffffffffffffffffffffffff\n      and\n      sub\n        /* \"@openzeppelin/contracts/token/ERC20/ERC20.sol\":10155:10245  if (spender == address(0)) {... */\n      tag_223\n      jumpi\n        /* \"@openzeppelin/contracts/token/ERC20/ERC20.sol\":10231:10232  0 */\n      0x00\n        /* \"@openzeppelin/contracts/token/ERC20/ERC20.sol\":10203:10234  ERC20InvalidSpender(address(0)) */\n      mload(0x40)\n      0x94280d6200000000000000000000000000000000000000000000000000000000\n      dup2\n      mstore\n      0x04\n      add\n      tag_224\n      swap2\n      swap1\n      tag_98\n      jump\t// in\n    tag_224:\n      mload(0x40)\n      dup1\n      swap2\n      sub\n      swap1\n      revert\n        /* \"@openzeppelin/contracts/token/ERC20/ERC20.sol\":10155:10245  if (spender == address(0)) {... */\n    tag_223:\n        /* \"@openzeppelin/contracts/token/ERC20/ERC20.sol\":10284:10289  value */\n      dup2\n        /* \"@openzeppelin/contracts/token/ERC20/ERC20.sol\":10254:10265  _allowances */\n      0x01\n        /* \"@openzeppelin/contracts/token/ERC20/ERC20.sol\":10254:10272  _allowances[owner] */\n      0x00\n        /* \"@openzeppelin/contracts/token/ERC20/ERC20.sol\":10266:10271  owner */\n      dup7\n        /* \"@openzeppelin/contracts/token/ERC20/ERC20.sol\":10254:10272  _allowances[owner] */\n      0xffffffffffffffffffffffffffffffffffffffff\n      and\n      0xffffffffffffffffffffffffffffffffffffffff\n      and\n      dup2\n      mstore\n      0x20\n      add\n      swap1\n      dup2\n      mstore\n      0x20\n      add\n      0x00\n      keccak256\n        /* \"@openzeppelin/contracts/token/ERC20/ERC20.sol\":10254:10281  _allowances[owner][spender] */\n      0x00\n        /* \"@openzeppelin/contracts/token/ERC20/ERC20.sol\":10273:10280  spender */\n      dup6\n        /* \"@openzeppelin/contracts/token/ERC20/ERC20.sol\":10254:10281  _allowances[owner][spender] */\n      0xffffffffffffffffffffffffffffffffffffffff\n      and\n      0xffffffffffffffffffffffffffffffffffffffff\n      and\n      dup2\n      mstore\n      0x20\n      add\n      swap1\n      dup2\n      mstore\n      0x20\n      add\n      0x00\n      keccak256\n        /* \"@openzeppelin/contracts/token/ERC20/ERC20.sol\":10254:10289  _allowances[owner][spender] = value */\n      dup2\n      swap1\n      sstore\n      pop\n        /* \"@openzeppelin/contracts/token/ERC20/ERC20.sol\":10303:10312  emitEvent */\n      dup1\n        /* \"@openzeppelin/contracts/token/ERC20/ERC20.sol\":10299:10375  if (emitEvent) {... */\n      iszero\n      tag_225\n      jumpi\n        /* \"@openzeppelin/contracts/token/ERC20/ERC20.sol\":10349:10356  spender */\n      dup3\n        /* \"@openzeppelin/contracts/token/ERC20/ERC20.sol\":10333:10364  Approval(owner, spender, value) */\n      0xffffffffffffffffffffffffffffffffffffffff\n      and\n        /* \"@openzeppelin/contracts/token/ERC20/ERC20.sol\":10342:10347  owner */\n      dup5\n        /* \"@openzeppelin/contracts/token/ERC20/ERC20.sol\":10333:10364  Approval(owner, spender, value) */\n      0xffffffffffffffffffffffffffffffffffffffff\n      and\n      0x8c5be1e5ebec7d5bd14f71427d1e84f3dd0314c0f7b2291e5b200ac8c7c3b925\n        /* \"@openzeppelin/contracts/token/ERC20/ERC20.sol\":10358:10363  value */\n      dup5\n        /* \"@openzeppelin/contracts/token/ERC20/ERC20.sol\":10333:10364  Approval(owner, spender, value) */\n      mload(0x40)\n      tag_226\n      swap2\n      swap1\n      tag_39\n      jump\t// in\n    tag_226:\n      mload(0x40)\n      dup1\n      swap2\n      sub\n      swap1\n      log3\n        /* \"@openzeppelin/contracts/token/ERC20/ERC20.sol\":10299:10375  if (emitEvent) {... */\n    tag_225:\n        /* \"@openzeppelin/contracts/token/ERC20/ERC20.sol\":9949:10381  function _approve(address owner, address spender, uint256 value, bool emitEvent) internal virtual {... */\n      pop\n      pop\n      pop\n      pop\n      jump\t// out\n        /* \"@openzeppelin/contracts/token/ERC20/extensions/ERC20Capped.sol\":1059:1430  function _update(address from, address to, uint256 value) internal virtual override {... */\n    tag_215:\n        /* \"@openzeppelin/contracts/token/ERC20/extensions/ERC20Capped.sol\":1153:1183  super._update(from, to, value) */\n      tag_228\n        /* \"@openzeppelin/contracts/token/ERC20/extensions/ERC20Capped.sol\":1167:1171  from */\n      dup4\n        /* \"@openzeppelin/contracts/token/ERC20/extensions/ERC20Capped.sol\":1173:1175  to */\n      dup4\n        /* \"@openzeppelin/contracts/token/ERC20/extensions/ERC20Capped.sol\":1177:1182  value */\n      dup4\n        /* \"@openzeppelin/contracts/token/ERC20/extensions/ERC20Capped.sol\":1153:1166  super._update */\n      tag_229\n        /* \"@openzeppelin/contracts/token/ERC20/extensions/ERC20Capped.sol\":1153:1183  super._update(from, to, value) */\n      jump\t// in\n    tag_228:\n        /* \"@openzeppelin/contracts/token/ERC20/extensions/ERC20Capped.sol\":1214:1215  0 */\n      0x00\n        /* \"@openzeppelin/contracts/token/ERC20/extensions/ERC20Capped.sol\":1198:1216  from == address(0) */\n      0xffffffffffffffffffffffffffffffffffffffff\n      and\n        /* \"@openzeppelin/contracts/token/ERC20/extensions/ERC20Capped.sol\":1198:1202  from */\n      dup4\n        /* \"@openzeppelin/contracts/token/ERC20/extensions/ERC20Capped.sol\":1198:1216  from == address(0) */\n      0xffffffffffffffffffffffffffffffffffffffff\n      and\n      sub\n        /* \"@openzeppelin/contracts/token/ERC20/extensions/ERC20Capped.sol\":1194:1424  if (from == address(0)) {... */\n      tag_230\n      jumpi\n        /* \"@openzeppelin/contracts/token/ERC20/extensions/ERC20Capped.sol\":1232:1249  uint256 maxSupply */\n      0x00\n        /* \"@openzeppelin/contracts/token/ERC20/extensions/ERC20Capped.sol\":1252:1257  cap() */\n      tag_231\n        /* \"@openzeppelin/contracts/token/ERC20/extensions/ERC20Capped.sol\":1252:1255  cap */\n      tag_63\n        /* \"@openzeppelin/contracts/token/ERC20/extensions/ERC20Capped.sol\":1252:1257  cap() */\n      jump\t// in\n    tag_231:\n        /* \"@openzeppelin/contracts/token/ERC20/extensions/ERC20Capped.sol\":1232:1257  uint256 maxSupply = cap() */\n      swap1\n      pop\n        /* \"@openzeppelin/contracts/token/ERC20/extensions/ERC20Capped.sol\":1271:1285  uint256 supply */\n      0x00\n        /* \"@openzeppelin/contracts/token/ERC20/extensions/ERC20Capped.sol\":1288:1301  totalSupply() */\n      tag_232\n        /* \"@openzeppelin/contracts/token/ERC20/extensions/ERC20Capped.sol\":1288:1299  totalSupply */\n      tag_37\n        /* \"@openzeppelin/contracts/token/ERC20/extensions/ERC20Capped.sol\":1288:1301  totalSupply() */\n      jump\t// in\n    tag_232:\n        /* \"@openzeppelin/contracts/token/ERC20/extensions/ERC20Capped.sol\":1271:1301  uint256 supply = totalSupply() */\n      swap1\n      pop\n        /* \"@openzeppelin/contracts/token/ERC20/extensions/ERC20Capped.sol\":1328:1337  maxSupply */\n      dup2\n        /* \"@openzeppelin/contracts/token/ERC20/extensions/ERC20Capped.sol\":1319:1325  supply */\n      dup2\n        /* \"@openzeppelin/contracts/token/ERC20/extensions/ERC20Capped.sol\":1319:1337  supply > maxSupply */\n      gt\n        /* \"@openzeppelin/contracts/token/ERC20/extensions/ERC20Capped.sol\":1315:1414  if (supply > maxSupply) {... */\n      iszero\n      tag_233\n      jumpi\n        /* \"@openzeppelin/contracts/token/ERC20/extensions/ERC20Capped.sol\":1381:1387  supply */\n      dup1\n        /* \"@openzeppelin/contracts/token/ERC20/extensions/ERC20Capped.sol\":1389:1398  maxSupply */\n      dup3\n        /* \"@openzeppelin/contracts/token/ERC20/extensions/ERC20Capped.sol\":1364:1399  ERC20ExceededCap(supply, maxSupply) */\n      mload(0x40)\n      0x9e79f85400000000000000000000000000000000000000000000000000000000\n      dup2\n      mstore\n      0x04\n      add\n      tag_234\n      swap3\n      swap2\n      swap1\n      tag_143\n      jump\t// in\n    tag_234:\n      mload(0x40)\n      dup1\n      swap2\n      sub\n      swap1\n      revert\n        /* \"@openzeppelin/contracts/token/ERC20/extensions/ERC20Capped.sol\":1315:1414  if (supply > maxSupply) {... */\n    tag_233:\n        /* \"@openzeppelin/contracts/token/ERC20/extensions/ERC20Capped.sol\":1218:1424  {... */\n      pop\n      pop\n        /* \"@openzeppelin/contracts/token/ERC20/extensions/ERC20Capped.sol\":1194:1424  if (from == address(0)) {... */\n    tag_230:\n        /* \"@openzeppelin/contracts/token/ERC20/extensions/ERC20Capped.sol\":1059:1430  function _update(address from, address to, uint256 value) internal virtual override {... */\n      pop\n      pop\n      pop\n      jump\t// out\n        /* \"@openzeppelin/contracts/token/ERC20/ERC20.sol\":6271:7378  function _update(address from, address to, uint256 value) internal virtual {... */\n    tag_229:\n        /* \"@openzeppelin/contracts/token/ERC20/ERC20.sol\":6376:6377  0 */\n      0x00\n        /* \"@openzeppelin/contracts/token/ERC20/ERC20.sol\":6360:6378  from == address(0) */\n      0xffffffffffffffffffffffffffffffffffffffff\n      and\n        /* \"@openzeppelin/contracts/token/ERC20/ERC20.sol\":6360:6364  from */\n      dup4\n        /* \"@openzeppelin/contracts/token/ERC20/ERC20.sol\":6360:6378  from == address(0) */\n      0xffffffffffffffffffffffffffffffffffffffff\n      and\n      sub\n        /* \"@openzeppelin/contracts/token/ERC20/ERC20.sol\":6356:6896  if (from == address(0)) {... */\n      tag_236\n      jumpi\n        /* \"@openzeppelin/contracts/token/ERC20/ERC20.sol\":6512:6517  value */\n      dup1\n        /* \"@openzeppelin/contracts/token/ERC20/ERC20.sol\":6496:6508  _totalSupply */\n      0x02\n      0x00\n        /* \"@openzeppelin/contracts/token/ERC20/ERC20.sol\":6496:6517  _totalSupply += value */\n      dup3\n      dup3\n      sload\n      tag_237\n      swap2\n      swap1\n      tag_169\n      jump\t// in\n    tag_237:\n      swap3\n      pop\n      pop\n      dup2\n      swap1\n      sstore\n      pop\n        /* \"@openzeppelin/contracts/token/ERC20/ERC20.sol\":6356:6896  if (from == address(0)) {... */\n      jump(tag_238)\n    tag_236:\n        /* \"@openzeppelin/contracts/token/ERC20/ERC20.sol\":6548:6567  uint256 fromBalance */\n      0x00\n        /* \"@openzeppelin/contracts/token/ERC20/ERC20.sol\":6570:6579  _balances */\n      dup1\n        /* \"@openzeppelin/contracts/token/ERC20/ERC20.sol\":6570:6585  _balances[from] */\n      0x00\n        /* \"@openzeppelin/contracts/token/ERC20/ERC20.sol\":6580:6584  from */\n      dup6\n        /* \"@openzeppelin/contracts/token/ERC20/ERC20.sol\":6570:6585  _balances[from] */\n      0xffffffffffffffffffffffffffffffffffffffff\n      and\n      0xffffffffffffffffffffffffffffffffffffffff\n      and\n      dup2\n      mstore\n      0x20\n      add\n      swap1\n      dup2\n      mstore\n      0x20\n      add\n      0x00\n      keccak256\n      sload\n        /* \"@openzeppelin/contracts/token/ERC20/ERC20.sol\":6548:6585  uint256 fromBalance = _balances[from] */\n      swap1\n      pop\n        /* \"@openzeppelin/contracts/token/ERC20/ERC20.sol\":6617:6622  value */\n      dup2\n        /* \"@openzeppelin/contracts/token/ERC20/ERC20.sol\":6603:6614  fromBalance */\n      dup2\n        /* \"@openzeppelin/contracts/token/ERC20/ERC20.sol\":6603:6622  fromBalance < value */\n      lt\n        /* \"@openzeppelin/contracts/token/ERC20/ERC20.sol\":6599:6714  if (fromBalance < value) {... */\n      iszero\n      tag_239\n      jumpi\n        /* \"@openzeppelin/contracts/token/ERC20/ERC20.sol\":6674:6678  from */\n      dup4\n        /* \"@openzeppelin/contracts/token/ERC20/ERC20.sol\":6680:6691  fromBalance */\n      dup2\n        /* \"@openzeppelin/contracts/token/ERC20/ERC20.sol\":6693:6698  value */\n      dup4\n        /* \"@openzeppelin/contracts/token/ERC20/ERC20.sol\":6649:6699  ERC20InsufficientBalance(from, fromBalance, value) */\n      mload(0x40)\n      0xe450d38c00000000000000000000000000000000000000000000000000000000\n      dup2\n      mstore\n      0x04\n      add\n      tag_240\n      swap4\n      swap3\n      swap2\n      swap1\n      tag_207\n      jump\t// in\n    tag_240:\n      mload(0x40)\n      dup1\n      swap2\n      sub\n      swap1\n      revert\n        /* \"@openzeppelin/contracts/token/ERC20/ERC20.sol\":6599:6714  if (fromBalance < value) {... */\n    tag_239:\n        /* \"@openzeppelin/contracts/token/ERC20/ERC20.sol\":6866:6871  value */\n      dup2\n        /* \"@openzeppelin/contracts/token/ERC20/ERC20.sol\":6852:6863  fromBalance */\n      dup2\n        /* \"@openzeppelin/contracts/token/ERC20/ERC20.sol\":6852:6871  fromBalance - value */\n      sub\n        /* \"@openzeppelin/contracts/token/ERC20/ERC20.sol\":6834:6843  _balances */\n      0x00\n        /* \"@openzeppelin/contracts/token/ERC20/ERC20.sol\":6834:6849  _balances[from] */\n      dup1\n        /* \"@openzeppelin/contracts/token/ERC20/ERC20.sol\":6844:6848  from */\n      dup7\n        /* \"@openzeppelin/contracts/token/ERC20/ERC20.sol\":6834:6849  _balances[from] */\n      0xffffffffffffffffffffffffffffffffffffffff\n      and\n      0xffffffffffffffffffffffffffffffffffffffff\n      and\n      dup2\n      mstore\n      0x20\n      add\n      swap1\n      dup2\n      mstore\n      0x20\n      add\n      0x00\n      keccak256\n        /* \"@openzeppelin/contracts/token/ERC20/ERC20.sol\":6834:6871  _balances[from] = fromBalance - value */\n      dup2\n      swap1\n      sstore\n      pop\n        /* \"@openzeppelin/contracts/token/ERC20/ERC20.sol\":6534:6896  {... */\n      pop\n        /* \"@openzeppelin/contracts/token/ERC20/ERC20.sol\":6356:6896  if (from == address(0)) {... */\n    tag_238:\n        /* \"@openzeppelin/contracts/token/ERC20/ERC20.sol\":6924:6925  0 */\n      0x00\n        /* \"@openzeppelin/contracts/token/ERC20/ERC20.sol\":6910:6926  to == address(0) */\n      0xffffffffffffffffffffffffffffffffffffffff\n      and\n        /* \"@openzeppelin/contracts/token/ERC20/ERC20.sol\":6910:6912  to */\n      dup3\n        /* \"@openzeppelin/contracts/token/ERC20/ERC20.sol\":6910:6926  to == address(0) */\n      0xffffffffffffffffffffffffffffffffffffffff\n      and\n      sub\n        /* \"@openzeppelin/contracts/token/ERC20/ERC20.sol\":6906:7331  if (to == address(0)) {... */\n      tag_241\n      jumpi\n        /* \"@openzeppelin/contracts/token/ERC20/ERC20.sol\":7089:7094  value */\n      dup1\n        /* \"@openzeppelin/contracts/token/ERC20/ERC20.sol\":7073:7085  _totalSupply */\n      0x02\n      0x00\n        /* \"@openzeppelin/contracts/token/ERC20/ERC20.sol\":7073:7094  _totalSupply -= value */\n      dup3\n      dup3\n      sload\n      sub\n      swap3\n      pop\n      pop\n      dup2\n      swap1\n      sstore\n      pop\n        /* \"@openzeppelin/contracts/token/ERC20/ERC20.sol\":6906:7331  if (to == address(0)) {... */\n      jump(tag_242)\n    tag_241:\n        /* \"@openzeppelin/contracts/token/ERC20/ERC20.sol\":7301:7306  value */\n      dup1\n        /* \"@openzeppelin/contracts/token/ERC20/ERC20.sol\":7284:7293  _balances */\n      0x00\n        /* \"@openzeppelin/contracts/token/ERC20/ERC20.sol\":7284:7297  _balances[to] */\n      dup1\n        /* \"@openzeppelin/contracts/token/ERC20/ERC20.sol\":7294:7296  to */\n      dup5\n        /* \"@openzeppelin/contracts/token/ERC20/ERC20.sol\":7284:7297  _balances[to] */\n      0xffffffffffffffffffffffffffffffffffffffff\n      and\n      0xffffffffffffffffffffffffffffffffffffffff\n      and\n      dup2\n      mstore\n      0x20\n      add\n      swap1\n      dup2\n      mstore\n      0x20\n      add\n      0x00\n      keccak256\n      0x00\n        /* \"@openzeppelin/contracts/token/ERC20/ERC20.sol\":7284:7306  _balances[to] += value */\n      dup3\n      dup3\n      sload\n      add\n      swap3\n      pop\n      pop\n      dup2\n      swap1\n      sstore\n      pop\n        /* \"@openzeppelin/contracts/token/ERC20/ERC20.sol\":6906:7331  if (to == address(0)) {... */\n    tag_242:\n        /* \"@openzeppelin/contracts/token/ERC20/ERC20.sol\":7361:7363  to */\n      dup2\n        /* \"@openzeppelin/contracts/token/ERC20/ERC20.sol\":7346:7371  Transfer(from, to, value) */\n      0xffffffffffffffffffffffffffffffffffffffff\n      and\n        /* \"@openzeppelin/contracts/token/ERC20/ERC20.sol\":7355:7359  from */\n      dup4\n        /* \"@openzeppelin/contracts/token/ERC20/ERC20.sol\":7346:7371  Transfer(from, to, value) */\n      0xffffffffffffffffffffffffffffffffffffffff\n      and\n      0xddf252ad1be2c89b69c2b068fc378daa952ba7f163c4a11628f55a4df523b3ef\n        /* \"@openzeppelin/contracts/token/ERC20/ERC20.sol\":7365:7370  value */\n      dup4\n        /* \"@openzeppelin/contracts/token/ERC20/ERC20.sol\":7346:7371  Transfer(from, to, value) */\n      mload(0x40)\n      tag_243\n      swap2\n      swap1\n      tag_39\n      jump\t// in\n    tag_243:\n      mload(0x40)\n      dup1\n      swap2\n      sub\n      swap1\n      log3\n        /* \"@openzeppelin/contracts/token/ERC20/ERC20.sol\":6271:7378  function _update(address from, address to, uint256 value) internal virtual {... */\n      pop\n      pop\n      pop\n      jump\t// out\n        /* \"#utility.yul\":7:106   */\n    tag_244:\n        /* \"#utility.yul\":59:65   */\n      0x00\n        /* \"#utility.yul\":93:98   */\n      dup2\n        /* \"#utility.yul\":87:99   */\n      mload\n        /* \"#utility.yul\":77:99   */\n      swap1\n      pop\n        /* \"#utility.yul\":7:106   */\n      swap2\n      swap1\n      pop\n      jump\t// out\n        /* \"#utility.yul\":112:281   */\n    tag_245:\n        /* \"#utility.yul\":196:207   */\n      0x00\n        /* \"#utility.yul\":230:236   */\n      dup3\n        /* \"#utility.yul\":225:228   */\n      dup3\n        /* \"#utility.yul\":218:237   */\n      mstore\n        /* \"#utility.yul\":270:274   */\n      0x20\n        /* \"#utility.yul\":265:268   */\n      dup3\n        /* \"#utility.yul\":261:275   */\n      add\n        /* \"#utility.yul\":246:275   */\n      swap1\n      pop\n        /* \"#utility.yul\":112:281   */\n      swap3\n      swap2\n      pop\n      pop\n      jump\t// out\n        /* \"#utility.yul\":287:533   */\n    tag_246:\n        /* \"#utility.yul\":368:369   */\n      0x00\n        /* \"#utility.yul\":378:491   */\n    tag_289:\n        /* \"#utility.yul\":392:398   */\n      dup4\n        /* \"#utility.yul\":389:390   */\n      dup2\n        /* \"#utility.yul\":386:399   */\n      lt\n        /* \"#utility.yul\":378:491   */\n      iszero\n      tag_291\n      jumpi\n        /* \"#utility.yul\":477:478   */\n      dup1\n        /* \"#utility.yul\":472:475   */\n      dup3\n        /* \"#utility.yul\":468:479   */\n      add\n        /* \"#utility.yul\":462:480   */\n      mload\n        /* \"#utility.yul\":458:459   */\n      dup2\n        /* \"#utility.yul\":453:456   */\n      dup5\n        /* \"#utility.yul\":449:460   */\n      add\n        /* \"#utility.yul\":442:481   */\n      mstore\n        /* \"#utility.yul\":414:416   */\n      0x20\n        /* \"#utility.yul\":411:412   */\n      dup2\n        /* \"#utility.yul\":407:417   */\n      add\n        /* \"#utility.yul\":402:417   */\n      swap1\n      pop\n        /* \"#utility.yul\":378:491   */\n      jump(tag_289)\n    tag_291:\n        /* \"#utility.yul\":525:526   */\n      0x00\n        /* \"#utility.yul\":516:522   */\n      dup5\n        /* \"#utility.yul\":511:514   */\n      dup5\n        /* \"#utility.yul\":507:523   */\n      add\n        /* \"#utility.yul\":500:527   */\n      mstore\n        /* \"#utility.yul\":349:533   */\n      pop\n        /* \"#utility.yul\":287:533   */\n      pop\n      pop\n      pop\n      jump\t// out\n        /* \"#utility.yul\":539:641   */\n    tag_247:\n        /* \"#utility.yul\":580:586   */\n      0x00\n        /* \"#utility.yul\":631:633   */\n      0x1f\n        /* \"#utility.yul\":627:634   */\n      not\n        /* \"#utility.yul\":622:624   */\n      0x1f\n        /* \"#utility.yul\":615:620   */\n      dup4\n        /* \"#utility.yul\":611:625   */\n      add\n        /* \"#utility.yul\":607:635   */\n      and\n        /* \"#utility.yul\":597:635   */\n      swap1\n      pop\n        /* \"#utility.yul\":539:641   */\n      swap2\n      swap1\n      pop\n      jump\t// out\n        /* \"#utility.yul\":647:1024   */\n    tag_248:\n        /* \"#utility.yul\":735:738   */\n      0x00\n        /* \"#utility.yul\":763:802   */\n      tag_294\n        /* \"#utility.yul\":796:801   */\n      dup3\n        /* \"#utility.yul\":763:802   */\n      tag_244\n      jump\t// in\n    tag_294:\n        /* \"#utility.yul\":818:889   */\n      tag_295\n        /* \"#utility.yul\":882:888   */\n      dup2\n        /* \"#utility.yul\":877:880   */\n      dup6\n        /* \"#utility.yul\":818:889   */\n      tag_245\n      jump\t// in\n    tag_295:\n        /* \"#utility.yul\":811:889   */\n      swap4\n      pop\n        /* \"#utility.yul\":898:963   */\n      tag_296\n        /* \"#utility.yul\":956:962   */\n      dup2\n        /* \"#utility.yul\":951:954   */\n      dup6\n        /* \"#utility.yul\":944:948   */\n      0x20\n        /* \"#utility.yul\":937:942   */\n      dup7\n        /* \"#utility.yul\":933:949   */\n      add\n        /* \"#utility.yul\":898:963   */\n      tag_246\n      jump\t// in\n    tag_296:\n        /* \"#utility.yul\":988:1017   */\n      tag_297\n        /* \"#utility.yul\":1010:1016   */\n      dup2\n        /* \"#utility.yul\":988:1017   */\n      tag_247\n      jump\t// in\n    tag_297:\n        /* \"#utility.yul\":983:986   */\n      dup5\n        /* \"#utility.yul\":979:1018   */\n      add\n        /* \"#utility.yul\":972:1018   */\n      swap2\n      pop\n        /* \"#utility.yul\":739:1024   */\n      pop\n        /* \"#utility.yul\":647:1024   */\n      swap3\n      swap2\n      pop\n      pop\n      jump\t// out\n        /* \"#utility.yul\":1030:1343   */\n    tag_27:\n        /* \"#utility.yul\":1143:1147   */\n      0x00\n        /* \"#utility.yul\":1181:1183   */\n      0x20\n        /* \"#utility.yul\":1170:1179   */\n      dup3\n        /* \"#utility.yul\":1166:1184   */\n      add\n        /* \"#utility.yul\":1158:1184   */\n      swap1\n      pop\n        /* \"#utility.yul\":1230:1239   */\n      dup2\n        /* \"#utility.yul\":1224:1228   */\n      dup2\n        /* \"#utility.yul\":1220:1240   */\n      sub\n        /* \"#utility.yul\":1216:1217   */\n      0x00\n        /* \"#utility.yul\":1205:1214   */\n      dup4\n        /* \"#utility.yul\":1201:1218   */\n      add\n        /* \"#utility.yul\":1194:1241   */\n      mstore\n        /* \"#utility.yul\":1258:1336   */\n      tag_299\n        /* \"#utility.yul\":1331:1335   */\n      dup2\n        /* \"#utility.yul\":1322:1328   */\n      dup5\n        /* \"#utility.yul\":1258:1336   */\n      tag_248\n      jump\t// in\n    tag_299:\n        /* \"#utility.yul\":1250:1336   */\n      swap1\n      pop\n        /* \"#utility.yul\":1030:1343   */\n      swap3\n      swap2\n      pop\n      pop\n      jump\t// out\n        /* \"#utility.yul\":1430:1547   */\n    tag_250:\n        /* \"#utility.yul\":1539:1540   */\n      0x00\n        /* \"#utility.yul\":1536:1537   */\n      dup1\n        /* \"#utility.yul\":1529:1541   */\n      revert\n        /* \"#utility.yul\":1676:1802   */\n    tag_252:\n        /* \"#utility.yul\":1713:1720   */\n      0x00\n        /* \"#utility.yul\":1753:1795   */\n      0xffffffffffffffffffffffffffffffffffffffff\n        /* \"#utility.yul\":1746:1751   */\n      dup3\n        /* \"#utility.yul\":1742:1796   */\n      and\n        /* \"#utility.yul\":1731:1796   */\n      swap1\n      pop\n        /* \"#utility.yul\":1676:1802   */\n      swap2\n      swap1\n      pop\n      jump\t// out\n        /* \"#utility.yul\":1808:1904   */\n    tag_253:\n        /* \"#utility.yul\":1845:1852   */\n      0x00\n        /* \"#utility.yul\":1874:1898   */\n      tag_305\n        /* \"#utility.yul\":1892:1897   */\n      dup3\n        /* \"#utility.yul\":1874:1898   */\n      tag_252\n      jump\t// in\n    tag_305:\n        /* \"#utility.yul\":1863:1898   */\n      swap1\n      pop\n        /* \"#utility.yul\":1808:1904   */\n      swap2\n      swap1\n      pop\n      jump\t// out\n        /* \"#utility.yul\":1910:2032   */\n    tag_254:\n        /* \"#utility.yul\":1983:2007   */\n      tag_307\n        /* \"#utility.yul\":2001:2006   */\n      dup2\n        /* \"#utility.yul\":1983:2007   */\n      tag_253\n      jump\t// in\n    tag_307:\n        /* \"#utility.yul\":1976:1981   */\n      dup2\n        /* \"#utility.yul\":1973:2008   */\n      eq\n        /* \"#utility.yul\":1963:2026   */\n      tag_308\n      jumpi\n        /* \"#utility.yul\":2022:2023   */\n      0x00\n        /* \"#utility.yul\":2019:2020   */\n      dup1\n        /* \"#utility.yul\":2012:2024   */\n      revert\n        /* \"#utility.yul\":1963:2026   */\n    tag_308:\n        /* \"#utility.yul\":1910:2032   */\n      pop\n      jump\t// out\n        /* \"#utility.yul\":2038:2177   */\n    tag_255:\n        /* \"#utility.yul\":2084:2089   */\n      0x00\n        /* \"#utility.yul\":2122:2128   */\n      dup2\n        /* \"#utility.yul\":2109:2129   */\n      calldataload\n        /* \"#utility.yul\":2100:2129   */\n      swap1\n      pop\n        /* \"#utility.yul\":2138:2171   */\n      tag_310\n        /* \"#utility.yul\":2165:2170   */\n      dup2\n        /* \"#utility.yul\":2138:2171   */\n      tag_254\n      jump\t// in\n    tag_310:\n        /* \"#utility.yul\":2038:2177   */\n      swap3\n      swap2\n      pop\n      pop\n      jump\t// out\n        /* \"#utility.yul\":2183:2260   */\n    tag_256:\n        /* \"#utility.yul\":2220:2227   */\n      0x00\n        /* \"#utility.yul\":2249:2254   */\n      dup2\n        /* \"#utility.yul\":2238:2254   */\n      swap1\n      pop\n        /* \"#utility.yul\":2183:2260   */\n      swap2\n      swap1\n      pop\n      jump\t// out\n        /* \"#utility.yul\":2266:2388   */\n    tag_257:\n        /* \"#utility.yul\":2339:2363   */\n      tag_313\n        /* \"#utility.yul\":2357:2362   */\n      dup2\n        /* \"#utility.yul\":2339:2363   */\n      tag_256\n      jump\t// in\n    tag_313:\n        /* \"#utility.yul\":2332:2337   */\n      dup2\n        /* \"#utility.yul\":2329:2364   */\n      eq\n        /* \"#utility.yul\":2319:2382   */\n      tag_314\n      jumpi\n        /* \"#utility.yul\":2378:2379   */\n      0x00\n        /* \"#utility.yul\":2375:2376   */\n      dup1\n        /* \"#utility.yul\":2368:2380   */\n      revert\n        /* \"#utility.yul\":2319:2382   */\n    tag_314:\n        /* \"#utility.yul\":2266:2388   */\n      pop\n      jump\t// out\n        /* \"#utility.yul\":2394:2533   */\n    tag_258:\n        /* \"#utility.yul\":2440:2445   */\n      0x00\n        /* \"#utility.yul\":2478:2484   */\n      dup2\n        /* \"#utility.yul\":2465:2485   */\n      calldataload\n        /* \"#utility.yul\":2456:2485   */\n      swap1\n      pop\n        /* \"#utility.yul\":2494:2527   */\n      tag_316\n        /* \"#utility.yul\":2521:2526   */\n      dup2\n        /* \"#utility.yul\":2494:2527   */\n      tag_257\n      jump\t// in\n    tag_316:\n        /* \"#utility.yul\":2394:2533   */\n      swap3\n      swap2\n      pop\n      pop\n      jump\t// out\n        /* \"#utility.yul\":2539:3013   */\n    tag_31:\n        /* \"#utility.yul\":2607:2613   */\n      0x00\n        /* \"#utility.yul\":2615:2621   */\n      dup1\n        /* \"#utility.yul\":2664:2666   */\n      0x40\n        /* \"#utility.yul\":2652:2661   */\n      dup4\n        /* \"#utility.yul\":2643:2650   */\n      dup6\n        /* \"#utility.yul\":2639:2662   */\n      sub\n        /* \"#utility.yul\":2635:2667   */\n      slt\n        /* \"#utility.yul\":2632:2751   */\n      iszero\n      tag_318\n      jumpi\n        /* \"#utility.yul\":2670:2749   */\n      tag_319\n      tag_250\n      jump\t// in\n    tag_319:\n        /* \"#utility.yul\":2632:2751   */\n    tag_318:\n        /* \"#utility.yul\":2790:2791   */\n      0x00\n        /* \"#utility.yul\":2815:2868   */\n      tag_320\n        /* \"#utility.yul\":2860:2867   */\n      dup6\n        /* \"#utility.yul\":2851:2857   */\n      dup3\n        /* \"#utility.yul\":2840:2849   */\n      dup7\n        /* \"#utility.yul\":2836:2858   */\n      add\n        /* \"#utility.yul\":2815:2868   */\n      tag_255\n      jump\t// in\n    tag_320:\n        /* \"#utility.yul\":2805:2868   */\n      swap3\n      pop\n        /* \"#utility.yul\":2761:2878   */\n      pop\n        /* \"#utility.yul\":2917:2919   */\n      0x20\n        /* \"#utility.yul\":2943:2996   */\n      tag_321\n        /* \"#utility.yul\":2988:2995   */\n      dup6\n        /* \"#utility.yul\":2979:2985   */\n      dup3\n        /* \"#utility.yul\":2968:2977   */\n      dup7\n        /* \"#utility.yul\":2964:2986   */\n      add\n        /* \"#utility.yul\":2943:2996   */\n      tag_258\n      jump\t// in\n    tag_321:\n        /* \"#utility.yul\":2933:2996   */\n      swap2\n      pop\n        /* \"#utility.yul\":2888:3006   */\n      pop\n        /* \"#utility.yul\":2539:3013   */\n      swap3\n      pop\n      swap3\n      swap1\n      pop\n      jump\t// out\n        /* \"#utility.yul\":3019:3109   */\n    tag_259:\n        /* \"#utility.yul\":3053:3060   */\n      0x00\n        /* \"#utility.yul\":3096:3101   */\n      dup2\n        /* \"#utility.yul\":3089:3102   */\n      iszero\n        /* \"#utility.yul\":3082:3103   */\n      iszero\n        /* \"#utility.yul\":3071:3103   */\n      swap1\n      pop\n        /* \"#utility.yul\":3019:3109   */\n      swap2\n      swap1\n      pop\n      jump\t// out\n        /* \"#utility.yul\":3115:3224   */\n    tag_260:\n        /* \"#utility.yul\":3196:3217   */\n      tag_324\n        /* \"#utility.yul\":3211:3216   */\n      dup2\n        /* \"#utility.yul\":3196:3217   */\n      tag_259\n      jump\t// in\n    tag_324:\n        /* \"#utility.yul\":3191:3194   */\n      dup3\n        /* \"#utility.yul\":3184:3218   */\n      mstore\n        /* \"#utility.yul\":3115:3224   */\n      pop\n      pop\n      jump\t// out\n        /* \"#utility.yul\":3230:3440   */\n    tag_34:\n        /* \"#utility.yul\":3317:3321   */\n      0x00\n        /* \"#utility.yul\":3355:3357   */\n      0x20\n        /* \"#utility.yul\":3344:3353   */\n      dup3\n        /* \"#utility.yul\":3340:3358   */\n      add\n        /* \"#utility.yul\":3332:3358   */\n      swap1\n      pop\n        /* \"#utility.yul\":3368:3433   */\n      tag_326\n        /* \"#utility.yul\":3430:3431   */\n      0x00\n        /* \"#utility.yul\":3419:3428   */\n      dup4\n        /* \"#utility.yul\":3415:3432   */\n      add\n        /* \"#utility.yul\":3406:3412   */\n      dup5\n        /* \"#utility.yul\":3368:3433   */\n      tag_260\n      jump\t// in\n    tag_326:\n        /* \"#utility.yul\":3230:3440   */\n      swap3\n      swap2\n      pop\n      pop\n      jump\t// out\n        /* \"#utility.yul\":3446:3564   */\n    tag_261:\n        /* \"#utility.yul\":3533:3557   */\n      tag_328\n        /* \"#utility.yul\":3551:3556   */\n      dup2\n        /* \"#utility.yul\":3533:3557   */\n      tag_256\n      jump\t// in\n    tag_328:\n        /* \"#utility.yul\":3528:3531   */\n      dup3\n        /* \"#utility.yul\":3521:3558   */\n      mstore\n        /* \"#utility.yul\":3446:3564   */\n      pop\n      pop\n      jump\t// out\n        /* \"#utility.yul\":3570:3792   */\n    tag_39:\n        /* \"#utility.yul\":3663:3667   */\n      0x00\n        /* \"#utility.yul\":3701:3703   */\n      0x20\n        /* \"#utility.yul\":3690:3699   */\n      dup3\n        /* \"#utility.yul\":3686:3704   */\n      add\n        /* \"#utility.yul\":3678:3704   */\n      swap1\n      pop\n        /* \"#utility.yul\":3714:3785   */\n      tag_330\n        /* \"#utility.yul\":3782:3783   */\n      0x00\n        /* \"#utility.yul\":3771:3780   */\n      dup4\n        /* \"#utility.yul\":3767:3784   */\n      add\n        /* \"#utility.yul\":3758:3764   */\n      dup5\n        /* \"#utility.yul\":3714:3785   */\n      tag_261\n      jump\t// in\n    tag_330:\n        /* \"#utility.yul\":3570:3792   */\n      swap3\n      swap2\n      pop\n      pop\n      jump\t// out\n        /* \"#utility.yul\":3798:4127   */\n    tag_43:\n        /* \"#utility.yul\":3857:3863   */\n      0x00\n        /* \"#utility.yul\":3906:3908   */\n      0x20\n        /* \"#utility.yul\":3894:3903   */\n      dup3\n        /* \"#utility.yul\":3885:3892   */\n      dup5\n        /* \"#utility.yul\":3881:3904   */\n      sub\n        /* \"#utility.yul\":3877:3909   */\n      slt\n        /* \"#utility.yul\":3874:3993   */\n      iszero\n      tag_332\n      jumpi\n        /* \"#utility.yul\":3912:3991   */\n      tag_333\n      tag_250\n      jump\t// in\n    tag_333:\n        /* \"#utility.yul\":3874:3993   */\n    tag_332:\n        /* \"#utility.yul\":4032:4033   */\n      0x00\n        /* \"#utility.yul\":4057:4110   */\n      tag_334\n        /* \"#utility.yul\":4102:4109   */\n      dup5\n        /* \"#utility.yul\":4093:4099   */\n      dup3\n        /* \"#utility.yul\":4082:4091   */\n      dup6\n        /* \"#utility.yul\":4078:4100   */\n      add\n        /* \"#utility.yul\":4057:4110   */\n      tag_258\n      jump\t// in\n    tag_334:\n        /* \"#utility.yul\":4047:4110   */\n      swap2\n      pop\n        /* \"#utility.yul\":4003:4120   */\n      pop\n        /* \"#utility.yul\":3798:4127   */\n      swap3\n      swap2\n      pop\n      pop\n      jump\t// out\n        /* \"#utility.yul\":4133:4752   */\n    tag_49:\n        /* \"#utility.yul\":4210:4216   */\n      0x00\n        /* \"#utility.yul\":4218:4224   */\n      dup1\n        /* \"#utility.yul\":4226:4232   */\n      0x00\n        /* \"#utility.yul\":4275:4277   */\n      0x60\n        /* \"#utility.yul\":4263:4272   */\n      dup5\n        /* \"#utility.yul\":4254:4261   */\n      dup7\n        /* \"#utility.yul\":4250:4273   */\n      sub\n        /* \"#utility.yul\":4246:4278   */\n      slt\n        /* \"#utility.yul\":4243:4362   */\n      iszero\n      tag_336\n      jumpi\n        /* \"#utility.yul\":4281:4360   */\n      tag_337\n      tag_250\n      jump\t// in\n    tag_337:\n        /* \"#utility.yul\":4243:4362   */\n    tag_336:\n        /* \"#utility.yul\":4401:4402   */\n      0x00\n        /* \"#utility.yul\":4426:4479   */\n      tag_338\n        /* \"#utility.yul\":4471:4478   */\n      dup7\n        /* \"#utility.yul\":4462:4468   */\n      dup3\n        /* \"#utility.yul\":4451:4460   */\n      dup8\n        /* \"#utility.yul\":4447:4469   */\n      add\n        /* \"#utility.yul\":4426:4479   */\n      tag_255\n      jump\t// in\n    tag_338:\n        /* \"#utility.yul\":4416:4479   */\n      swap4\n      pop\n        /* \"#utility.yul\":4372:4489   */\n      pop\n        /* \"#utility.yul\":4528:4530   */\n      0x20\n        /* \"#utility.yul\":4554:4607   */\n      tag_339\n        /* \"#utility.yul\":4599:4606   */\n      dup7\n        /* \"#utility.yul\":4590:4596   */\n      dup3\n        /* \"#utility.yul\":4579:4588   */\n      dup8\n        /* \"#utility.yul\":4575:4597   */\n      add\n        /* \"#utility.yul\":4554:4607   */\n      tag_255\n      jump\t// in\n    tag_339:\n        /* \"#utility.yul\":4544:4607   */\n      swap3\n      pop\n        /* \"#utility.yul\":4499:4617   */\n      pop\n        /* \"#utility.yul\":4656:4658   */\n      0x40\n        /* \"#utility.yul\":4682:4735   */\n      tag_340\n        /* \"#utility.yul\":4727:4734   */\n      dup7\n        /* \"#utility.yul\":4718:4724   */\n      dup3\n        /* \"#utility.yul\":4707:4716   */\n      dup8\n        /* \"#utility.yul\":4703:4725   */\n      add\n        /* \"#utility.yul\":4682:4735   */\n      tag_258\n      jump\t// in\n    tag_340:\n        /* \"#utility.yul\":4672:4735   */\n      swap2\n      pop\n        /* \"#utility.yul\":4627:4745   */\n      pop\n        /* \"#utility.yul\":4133:4752   */\n      swap3\n      pop\n      swap3\n      pop\n      swap3\n      jump\t// out\n        /* \"#utility.yul\":4758:4844   */\n    tag_262:\n        /* \"#utility.yul\":4793:4800   */\n      0x00\n        /* \"#utility.yul\":4833:4837   */\n      0xff\n        /* \"#utility.yul\":4826:4831   */\n      dup3\n        /* \"#utility.yul\":4822:4838   */\n      and\n        /* \"#utility.yul\":4811:4838   */\n      swap1\n      pop\n        /* \"#utility.yul\":4758:4844   */\n      swap2\n      swap1\n      pop\n      jump\t// out\n        /* \"#utility.yul\":4850:4962   */\n    tag_263:\n        /* \"#utility.yul\":4933:4955   */\n      tag_343\n        /* \"#utility.yul\":4949:4954   */\n      dup2\n        /* \"#utility.yul\":4933:4955   */\n      tag_262\n      jump\t// in\n    tag_343:\n        /* \"#utility.yul\":4928:4931   */\n      dup3\n        /* \"#utility.yul\":4921:4956   */\n      mstore\n        /* \"#utility.yul\":4850:4962   */\n      pop\n      pop\n      jump\t// out\n        /* \"#utility.yul\":4968:5182   */\n    tag_60:\n        /* \"#utility.yul\":5057:5061   */\n      0x00\n        /* \"#utility.yul\":5095:5097   */\n      0x20\n        /* \"#utility.yul\":5084:5093   */\n      dup3\n        /* \"#utility.yul\":5080:5098   */\n      add\n        /* \"#utility.yul\":5072:5098   */\n      swap1\n      pop\n        /* \"#utility.yul\":5108:5175   */\n      tag_345\n        /* \"#utility.yul\":5172:5173   */\n      0x00\n        /* \"#utility.yul\":5161:5170   */\n      dup4\n        /* \"#utility.yul\":5157:5174   */\n      add\n        /* \"#utility.yul\":5148:5154   */\n      dup5\n        /* \"#utility.yul\":5108:5175   */\n      tag_263\n      jump\t// in\n    tag_345:\n        /* \"#utility.yul\":4968:5182   */\n      swap3\n      swap2\n      pop\n      pop\n      jump\t// out\n        /* \"#utility.yul\":5188:5517   */\n    tag_75:\n        /* \"#utility.yul\":5247:5253   */\n      0x00\n        /* \"#utility.yul\":5296:5298   */\n      0x20\n        /* \"#utility.yul\":5284:5293   */\n      dup3\n        /* \"#utility.yul\":5275:5282   */\n      dup5\n        /* \"#utility.yul\":5271:5294   */\n      sub\n        /* \"#utility.yul\":5267:5299   */\n      slt\n        /* \"#utility.yul\":5264:5383   */\n      iszero\n      tag_347\n      jumpi\n        /* \"#utility.yul\":5302:5381   */\n      tag_348\n      tag_250\n      jump\t// in\n    tag_348:\n        /* \"#utility.yul\":5264:5383   */\n    tag_347:\n        /* \"#utility.yul\":5422:5423   */\n      0x00\n        /* \"#utility.yul\":5447:5500   */\n      tag_349\n        /* \"#utility.yul\":5492:5499   */\n      dup5\n        /* \"#utility.yul\":5483:5489   */\n      dup3\n        /* \"#utility.yul\":5472:5481   */\n      dup6\n        /* \"#utility.yul\":5468:5490   */\n      add\n        /* \"#utility.yul\":5447:5500   */\n      tag_255\n      jump\t// in\n    tag_349:\n        /* \"#utility.yul\":5437:5500   */\n      swap2\n      pop\n        /* \"#utility.yul\":5393:5510   */\n      pop\n        /* \"#utility.yul\":5188:5517   */\n      swap3\n      swap2\n      pop\n      pop\n      jump\t// out\n        /* \"#utility.yul\":5523:5641   */\n    tag_264:\n        /* \"#utility.yul\":5610:5634   */\n      tag_351\n        /* \"#utility.yul\":5628:5633   */\n      dup2\n        /* \"#utility.yul\":5610:5634   */\n      tag_253\n      jump\t// in\n    tag_351:\n        /* \"#utility.yul\":5605:5608   */\n      dup3\n        /* \"#utility.yul\":5598:5635   */\n      mstore\n        /* \"#utility.yul\":5523:5641   */\n      pop\n      pop\n      jump\t// out\n        /* \"#utility.yul\":5647:5869   */\n    tag_98:\n        /* \"#utility.yul\":5740:5744   */\n      0x00\n        /* \"#utility.yul\":5778:5780   */\n      0x20\n        /* \"#utility.yul\":5767:5776   */\n      dup3\n        /* \"#utility.yul\":5763:5781   */\n      add\n        /* \"#utility.yul\":5755:5781   */\n      swap1\n      pop\n        /* \"#utility.yul\":5791:5862   */\n      tag_353\n        /* \"#utility.yul\":5859:5860   */\n      0x00\n        /* \"#utility.yul\":5848:5857   */\n      dup4\n        /* \"#utility.yul\":5844:5861   */\n      add\n        /* \"#utility.yul\":5835:5841   */\n      dup5\n        /* \"#utility.yul\":5791:5862   */\n      tag_264\n      jump\t// in\n    tag_353:\n        /* \"#utility.yul\":5647:5869   */\n      swap3\n      swap2\n      pop\n      pop\n      jump\t// out\n        /* \"#utility.yul\":5875:6349   */\n    tag_102:\n        /* \"#utility.yul\":5943:5949   */\n      0x00\n        /* \"#utility.yul\":5951:5957   */\n      dup1\n        /* \"#utility.yul\":6000:6002   */\n      0x40\n        /* \"#utility.yul\":5988:5997   */\n      dup4\n        /* \"#utility.yul\":5979:5986   */\n      dup6\n        /* \"#utility.yul\":5975:5998   */\n      sub\n        /* \"#utility.yul\":5971:6003   */\n      slt\n        /* \"#utility.yul\":5968:6087   */\n      iszero\n      tag_355\n      jumpi\n        /* \"#utility.yul\":6006:6085   */\n      tag_356\n      tag_250\n      jump\t// in\n    tag_356:\n        /* \"#utility.yul\":5968:6087   */\n    tag_355:\n        /* \"#utility.yul\":6126:6127   */\n      0x00\n        /* \"#utility.yul\":6151:6204   */\n      tag_357\n        /* \"#utility.yul\":6196:6203   */\n      dup6\n        /* \"#utility.yul\":6187:6193   */\n      dup3\n        /* \"#utility.yul\":6176:6185   */\n      dup7\n        /* \"#utility.yul\":6172:6194   */\n      add\n        /* \"#utility.yul\":6151:6204   */\n      tag_255\n      jump\t// in\n    tag_357:\n        /* \"#utility.yul\":6141:6204   */\n      swap3\n      pop\n        /* \"#utility.yul\":6097:6214   */\n      pop\n        /* \"#utility.yul\":6253:6255   */\n      0x20\n        /* \"#utility.yul\":6279:6332   */\n      tag_358\n        /* \"#utility.yul\":6324:6331   */\n      dup6\n        /* \"#utility.yul\":6315:6321   */\n      dup3\n        /* \"#utility.yul\":6304:6313   */\n      dup7\n        /* \"#utility.yul\":6300:6322   */\n      add\n        /* \"#utility.yul\":6279:6332   */\n      tag_255\n      jump\t// in\n    tag_358:\n        /* \"#utility.yul\":6269:6332   */\n      swap2\n      pop\n        /* \"#utility.yul\":6224:6342   */\n      pop\n        /* \"#utility.yul\":5875:6349   */\n      swap3\n      pop\n      swap3\n      swap1\n      pop\n      jump\t// out\n        /* \"#utility.yul\":6355:6431   */\n    tag_265:\n        /* \"#utility.yul\":6391:6398   */\n      0x00\n        /* \"#utility.yul\":6420:6425   */\n      dup2\n        /* \"#utility.yul\":6409:6425   */\n      swap1\n      pop\n        /* \"#utility.yul\":6355:6431   */\n      swap2\n      swap1\n      pop\n      jump\t// out\n        /* \"#utility.yul\":6437:6552   */\n    tag_266:\n        /* \"#utility.yul\":6522:6545   */\n      tag_361\n        /* \"#utility.yul\":6539:6544   */\n      dup2\n        /* \"#utility.yul\":6522:6545   */\n      tag_265\n      jump\t// in\n    tag_361:\n        /* \"#utility.yul\":6517:6520   */\n      dup3\n        /* \"#utility.yul\":6510:6546   */\n      mstore\n        /* \"#utility.yul\":6437:6552   */\n      pop\n      pop\n      jump\t// out\n        /* \"#utility.yul\":6558:6776   */\n    tag_109:\n        /* \"#utility.yul\":6649:6653   */\n      0x00\n        /* \"#utility.yul\":6687:6689   */\n      0x20\n        /* \"#utility.yul\":6676:6685   */\n      dup3\n        /* \"#utility.yul\":6672:6690   */\n      add\n        /* \"#utility.yul\":6664:6690   */\n      swap1\n      pop\n        /* \"#utility.yul\":6700:6769   */\n      tag_363\n        /* \"#utility.yul\":6766:6767   */\n      0x00\n        /* \"#utility.yul\":6755:6764   */\n      dup4\n        /* \"#utility.yul\":6751:6768   */\n      add\n        /* \"#utility.yul\":6742:6748   */\n      dup5\n        /* \"#utility.yul\":6700:6769   */\n      tag_266\n      jump\t// in\n    tag_363:\n        /* \"#utility.yul\":6558:6776   */\n      swap3\n      swap2\n      pop\n      pop\n      jump\t// out\n        /* \"#utility.yul\":6782:6962   */\n    tag_267:\n        /* \"#utility.yul\":6830:6907   */\n      0x4e487b7100000000000000000000000000000000000000000000000000000000\n        /* \"#utility.yul\":6827:6828   */\n      0x00\n        /* \"#utility.yul\":6820:6908   */\n      mstore\n        /* \"#utility.yul\":6927:6931   */\n      0x22\n        /* \"#utility.yul\":6924:6925   */\n      0x04\n        /* \"#utility.yul\":6917:6932   */\n      mstore\n        /* \"#utility.yul\":6951:6955   */\n      0x24\n        /* \"#utility.yul\":6948:6949   */\n      0x00\n        /* \"#utility.yul\":6941:6956   */\n      revert\n        /* \"#utility.yul\":6968:7288   */\n    tag_112:\n        /* \"#utility.yul\":7012:7018   */\n      0x00\n        /* \"#utility.yul\":7049:7050   */\n      0x02\n        /* \"#utility.yul\":7043:7047   */\n      dup3\n        /* \"#utility.yul\":7039:7051   */\n      div\n        /* \"#utility.yul\":7029:7051   */\n      swap1\n      pop\n        /* \"#utility.yul\":7096:7097   */\n      0x01\n        /* \"#utility.yul\":7090:7094   */\n      dup3\n        /* \"#utility.yul\":7086:7098   */\n      and\n        /* \"#utility.yul\":7117:7135   */\n      dup1\n        /* \"#utility.yul\":7107:7188   */\n      tag_366\n      jumpi\n        /* \"#utility.yul\":7173:7177   */\n      0x7f\n        /* \"#utility.yul\":7165:7171   */\n      dup3\n        /* \"#utility.yul\":7161:7178   */\n      and\n        /* \"#utility.yul\":7151:7178   */\n      swap2\n      pop\n        /* \"#utility.yul\":7107:7188   */\n    tag_366:\n        /* \"#utility.yul\":7235:7237   */\n      0x20\n        /* \"#utility.yul\":7227:7233   */\n      dup3\n        /* \"#utility.yul\":7224:7238   */\n      lt\n        /* \"#utility.yul\":7204:7222   */\n      dup2\n        /* \"#utility.yul\":7201:7239   */\n      sub\n        /* \"#utility.yul\":7198:7282   */\n      tag_367\n      jumpi\n        /* \"#utility.yul\":7254:7272   */\n      tag_368\n      tag_267\n      jump\t// in\n    tag_368:\n        /* \"#utility.yul\":7198:7282   */\n    tag_367:\n        /* \"#utility.yul\":7019:7288   */\n      pop\n        /* \"#utility.yul\":6968:7288   */\n      swap2\n      swap1\n      pop\n      jump\t// out\n        /* \"#utility.yul\":7294:7474   */\n    tag_268:\n        /* \"#utility.yul\":7342:7419   */\n      0x4e487b7100000000000000000000000000000000000000000000000000000000\n        /* \"#utility.yul\":7339:7340   */\n      0x00\n        /* \"#utility.yul\":7332:7420   */\n      mstore\n        /* \"#utility.yul\":7439:7443   */\n      0x11\n        /* \"#utility.yul\":7436:7437   */\n      0x04\n        /* \"#utility.yul\":7429:7444   */\n      mstore\n        /* \"#utility.yul\":7463:7467   */\n      0x24\n        /* \"#utility.yul\":7460:7461   */\n      0x00\n        /* \"#utility.yul\":7453:7468   */\n      revert\n        /* \"#utility.yul\":7480:7890   */\n    tag_126:\n        /* \"#utility.yul\":7520:7527   */\n      0x00\n        /* \"#utility.yul\":7543:7563   */\n      tag_371\n        /* \"#utility.yul\":7561:7562   */\n      dup3\n        /* \"#utility.yul\":7543:7563   */\n      tag_256\n      jump\t// in\n    tag_371:\n        /* \"#utility.yul\":7538:7563   */\n      swap2\n      pop\n        /* \"#utility.yul\":7577:7597   */\n      tag_372\n        /* \"#utility.yul\":7595:7596   */\n      dup4\n        /* \"#utility.yul\":7577:7597   */\n      tag_256\n      jump\t// in\n    tag_372:\n        /* \"#utility.yul\":7572:7597   */\n      swap3\n      pop\n        /* \"#utility.yul\":7632:7633   */\n      dup3\n        /* \"#utility.yul\":7629:7630   */\n      dup3\n        /* \"#utility.yul\":7625:7634   */\n      mul\n        /* \"#utility.yul\":7654:7684   */\n      tag_373\n        /* \"#utility.yul\":7672:7683   */\n      dup2\n        /* \"#utility.yul\":7654:7684   */\n      tag_256\n      jump\t// in\n    tag_373:\n        /* \"#utility.yul\":7643:7684   */\n      swap2\n      pop\n        /* \"#utility.yul\":7833:7834   */\n      dup3\n        /* \"#utility.yul\":7824:7831   */\n      dup3\n        /* \"#utility.yul\":7820:7835   */\n      div\n        /* \"#utility.yul\":7817:7818   */\n      dup5\n        /* \"#utility.yul\":7814:7836   */\n      eq\n        /* \"#utility.yul\":7794:7795   */\n      dup4\n        /* \"#utility.yul\":7787:7796   */\n      iszero\n        /* \"#utility.yul\":7767:7850   */\n      or\n        /* \"#utility.yul\":7744:7883   */\n      tag_374\n      jumpi\n        /* \"#utility.yul\":7863:7881   */\n      tag_375\n      tag_268\n      jump\t// in\n    tag_375:\n        /* \"#utility.yul\":7744:7883   */\n    tag_374:\n        /* \"#utility.yul\":7528:7890   */\n      pop\n        /* \"#utility.yul\":7480:7890   */\n      swap3\n      swap2\n      pop\n      pop\n      jump\t// out\n        /* \"#utility.yul\":7896:8076   */\n    tag_269:\n        /* \"#utility.yul\":8036:8068   */\n      0x4572726f722d4d4e545f4d554d4241495f322e736f6c2d4f776e61626c650000\n        /* \"#utility.yul\":8032:8033   */\n      0x00\n        /* \"#utility.yul\":8024:8030   */\n      dup3\n        /* \"#utility.yul\":8020:8034   */\n      add\n        /* \"#utility.yul\":8013:8069   */\n      mstore\n        /* \"#utility.yul\":7896:8076   */\n      pop\n      jump\t// out\n        /* \"#utility.yul\":8082:8448   */\n    tag_270:\n        /* \"#utility.yul\":8224:8227   */\n      0x00\n        /* \"#utility.yul\":8245:8312   */\n      tag_378\n        /* \"#utility.yul\":8309:8311   */\n      0x1e\n        /* \"#utility.yul\":8304:8307   */\n      dup4\n        /* \"#utility.yul\":8245:8312   */\n      tag_245\n      jump\t// in\n    tag_378:\n        /* \"#utility.yul\":8238:8312   */\n      swap2\n      pop\n        /* \"#utility.yul\":8321:8414   */\n      tag_379\n        /* \"#utility.yul\":8410:8413   */\n      dup3\n        /* \"#utility.yul\":8321:8414   */\n      tag_269\n      jump\t// in\n    tag_379:\n        /* \"#utility.yul\":8439:8441   */\n      0x20\n        /* \"#utility.yul\":8434:8437   */\n      dup3\n        /* \"#utility.yul\":8430:8442   */\n      add\n        /* \"#utility.yul\":8423:8442   */\n      swap1\n      pop\n        /* \"#utility.yul\":8082:8448   */\n      swap2\n      swap1\n      pop\n      jump\t// out\n        /* \"#utility.yul\":8454:8873   */\n    tag_138:\n        /* \"#utility.yul\":8620:8624   */\n      0x00\n        /* \"#utility.yul\":8658:8660   */\n      0x20\n        /* \"#utility.yul\":8647:8656   */\n      dup3\n        /* \"#utility.yul\":8643:8661   */\n      add\n        /* \"#utility.yul\":8635:8661   */\n      swap1\n      pop\n        /* \"#utility.yul\":8707:8716   */\n      dup2\n        /* \"#utility.yul\":8701:8705   */\n      dup2\n        /* \"#utility.yul\":8697:8717   */\n      sub\n        /* \"#utility.yul\":8693:8694   */\n      0x00\n        /* \"#utility.yul\":8682:8691   */\n      dup4\n        /* \"#utility.yul\":8678:8695   */\n      add\n        /* \"#utility.yul\":8671:8718   */\n      mstore\n        /* \"#utility.yul\":8735:8866   */\n      tag_381\n        /* \"#utility.yul\":8861:8865   */\n      dup2\n        /* \"#utility.yul\":8735:8866   */\n      tag_270\n      jump\t// in\n    tag_381:\n        /* \"#utility.yul\":8727:8866   */\n      swap1\n      pop\n        /* \"#utility.yul\":8454:8873   */\n      swap2\n      swap1\n      pop\n      jump\t// out\n        /* \"#utility.yul\":8879:9211   */\n    tag_143:\n        /* \"#utility.yul\":9000:9004   */\n      0x00\n        /* \"#utility.yul\":9038:9040   */\n      0x40\n        /* \"#utility.yul\":9027:9036   */\n      dup3\n        /* \"#utility.yul\":9023:9041   */\n      add\n        /* \"#utility.yul\":9015:9041   */\n      swap1\n      pop\n        /* \"#utility.yul\":9051:9122   */\n      tag_383\n        /* \"#utility.yul\":9119:9120   */\n      0x00\n        /* \"#utility.yul\":9108:9117   */\n      dup4\n        /* \"#utility.yul\":9104:9121   */\n      add\n        /* \"#utility.yul\":9095:9101   */\n      dup6\n        /* \"#utility.yul\":9051:9122   */\n      tag_261\n      jump\t// in\n    tag_383:\n        /* \"#utility.yul\":9132:9204   */\n      tag_384\n        /* \"#utility.yul\":9200:9202   */\n      0x20\n        /* \"#utility.yul\":9189:9198   */\n      dup4\n        /* \"#utility.yul\":9185:9203   */\n      add\n        /* \"#utility.yul\":9176:9182   */\n      dup5\n        /* \"#utility.yul\":9132:9204   */\n      tag_261\n      jump\t// in\n    tag_384:\n        /* \"#utility.yul\":8879:9211   */\n      swap4\n      swap3\n      pop\n      pop\n      pop\n      jump\t// out\n        /* \"#utility.yul\":9217:9659   */\n    tag_149:\n        /* \"#utility.yul\":9366:9370   */\n      0x00\n        /* \"#utility.yul\":9404:9406   */\n      0x60\n        /* \"#utility.yul\":9393:9402   */\n      dup3\n        /* \"#utility.yul\":9389:9407   */\n      add\n        /* \"#utility.yul\":9381:9407   */\n      swap1\n      pop\n        /* \"#utility.yul\":9417:9488   */\n      tag_386\n        /* \"#utility.yul\":9485:9486   */\n      0x00\n        /* \"#utility.yul\":9474:9483   */\n      dup4\n        /* \"#utility.yul\":9470:9487   */\n      add\n        /* \"#utility.yul\":9461:9467   */\n      dup7\n        /* \"#utility.yul\":9417:9488   */\n      tag_261\n      jump\t// in\n    tag_386:\n        /* \"#utility.yul\":9498:9570   */\n      tag_387\n        /* \"#utility.yul\":9566:9568   */\n      0x20\n        /* \"#utility.yul\":9555:9564   */\n      dup4\n        /* \"#utility.yul\":9551:9569   */\n      add\n        /* \"#utility.yul\":9542:9548   */\n      dup6\n        /* \"#utility.yul\":9498:9570   */\n      tag_261\n      jump\t// in\n    tag_387:\n        /* \"#utility.yul\":9580:9652   */\n      tag_388\n        /* \"#utility.yul\":9648:9650   */\n      0x40\n        /* \"#utility.yul\":9637:9646   */\n      dup4\n        /* \"#utility.yul\":9633:9651   */\n      add\n        /* \"#utility.yul\":9624:9630   */\n      dup5\n        /* \"#utility.yul\":9580:9652   */\n      tag_261\n      jump\t// in\n    tag_388:\n        /* \"#utility.yul\":9217:9659   */\n      swap5\n      swap4\n      pop\n      pop\n      pop\n      pop\n      jump\t// out\n        /* \"#utility.yul\":9665:9896   */\n    tag_271:\n        /* \"#utility.yul\":9805:9839   */\n      0x4572726f722d4d4e545f4d554d4241495f322e736f6c2d56616c75656c657373\n        /* \"#utility.yul\":9801:9802   */\n      0x00\n        /* \"#utility.yul\":9793:9799   */\n      dup3\n        /* \"#utility.yul\":9789:9803   */\n      add\n        /* \"#utility.yul\":9782:9840   */\n      mstore\n        /* \"#utility.yul\":9874:9888   */\n      0x5f5472616e73616374696f6e0000000000000000000000000000000000000000\n        /* \"#utility.yul\":9869:9871   */\n      0x20\n        /* \"#utility.yul\":9861:9867   */\n      dup3\n        /* \"#utility.yul\":9857:9872   */\n      add\n        /* \"#utility.yul\":9850:9889   */\n      mstore\n        /* \"#utility.yul\":9665:9896   */\n      pop\n      jump\t// out\n        /* \"#utility.yul\":9902:10268   */\n    tag_272:\n        /* \"#utility.yul\":10044:10047   */\n      0x00\n        /* \"#utility.yul\":10065:10132   */\n      tag_391\n        /* \"#utility.yul\":10129:10131   */\n      0x2c\n        /* \"#utility.yul\":10124:10127   */\n      dup4\n        /* \"#utility.yul\":10065:10132   */\n      tag_245\n      jump\t// in\n    tag_391:\n        /* \"#utility.yul\":10058:10132   */\n      swap2\n      pop\n        /* \"#utility.yul\":10141:10234   */\n      tag_392\n        /* \"#utility.yul\":10230:10233   */\n      dup3\n        /* \"#utility.yul\":10141:10234   */\n      tag_271\n      jump\t// in\n    tag_392:\n        /* \"#utility.yul\":10259:10261   */\n      0x40\n        /* \"#utility.yul\":10254:10257   */\n      dup3\n        /* \"#utility.yul\":10250:10262   */\n      add\n        /* \"#utility.yul\":10243:10262   */\n      swap1\n      pop\n        /* \"#utility.yul\":9902:10268   */\n      swap2\n      swap1\n      pop\n      jump\t// out\n        /* \"#utility.yul\":10274:10693   */\n    tag_155:\n        /* \"#utility.yul\":10440:10444   */\n      0x00\n        /* \"#utility.yul\":10478:10480   */\n      0x20\n        /* \"#utility.yul\":10467:10476   */\n      dup3\n        /* \"#utility.yul\":10463:10481   */\n      add\n        /* \"#utility.yul\":10455:10481   */\n      swap1\n      pop\n        /* \"#utility.yul\":10527:10536   */\n      dup2\n        /* \"#utility.yul\":10521:10525   */\n      dup2\n        /* \"#utility.yul\":10517:10537   */\n      sub\n        /* \"#utility.yul\":10513:10514   */\n      0x00\n        /* \"#utility.yul\":10502:10511   */\n      dup4\n        /* \"#utility.yul\":10498:10515   */\n      add\n        /* \"#utility.yul\":10491:10538   */\n      mstore\n        /* \"#utility.yul\":10555:10686   */\n      tag_394\n        /* \"#utility.yul\":10681:10685   */\n      dup2\n        /* \"#utility.yul\":10555:10686   */\n      tag_272\n      jump\t// in\n    tag_394:\n        /* \"#utility.yul\":10547:10686   */\n      swap1\n      pop\n        /* \"#utility.yul\":10274:10693   */\n      swap2\n      swap1\n      pop\n      jump\t// out\n        /* \"#utility.yul\":10699:10801   */\n    tag_273:\n        /* \"#utility.yul\":10741:10749   */\n      0x00\n        /* \"#utility.yul\":10788:10793   */\n      dup2\n        /* \"#utility.yul\":10785:10786   */\n      0x01\n        /* \"#utility.yul\":10781:10794   */\n      shr\n        /* \"#utility.yul\":10760:10794   */\n      swap1\n      pop\n        /* \"#utility.yul\":10699:10801   */\n      swap2\n      swap1\n      pop\n      jump\t// out\n        /* \"#utility.yul\":10807:11655   */\n    tag_274:\n        /* \"#utility.yul\":10868:10873   */\n      0x00\n        /* \"#utility.yul\":10875:10879   */\n      dup1\n        /* \"#utility.yul\":10899:10905   */\n      dup3\n        /* \"#utility.yul\":10890:10905   */\n      swap2\n      pop\n        /* \"#utility.yul\":10923:10928   */\n      dup4\n        /* \"#utility.yul\":10914:10928   */\n      swap1\n      pop\n        /* \"#utility.yul\":10937:11649   */\n    tag_397:\n        /* \"#utility.yul\":10958:10959   */\n      0x01\n        /* \"#utility.yul\":10948:10956   */\n      dup6\n        /* \"#utility.yul\":10945:10960   */\n      gt\n        /* \"#utility.yul\":10937:11649   */\n      iszero\n      tag_399\n      jumpi\n        /* \"#utility.yul\":11053:11057   */\n      dup1\n        /* \"#utility.yul\":11048:11051   */\n      dup7\n        /* \"#utility.yul\":11044:11058   */\n      div\n        /* \"#utility.yul\":11038:11042   */\n      dup2\n        /* \"#utility.yul\":11035:11059   */\n      gt\n        /* \"#utility.yul\":11032:11082   */\n      iszero\n      tag_400\n      jumpi\n        /* \"#utility.yul\":11062:11080   */\n      tag_401\n      tag_268\n      jump\t// in\n    tag_401:\n        /* \"#utility.yul\":11032:11082   */\n    tag_400:\n        /* \"#utility.yul\":11112:11113   */\n      0x01\n        /* \"#utility.yul\":11102:11110   */\n      dup6\n        /* \"#utility.yul\":11098:11114   */\n      and\n        /* \"#utility.yul\":11095:11546   */\n      iszero\n      tag_402\n      jumpi\n        /* \"#utility.yul\":11527:11531   */\n      dup1\n        /* \"#utility.yul\":11520:11525   */\n      dup3\n        /* \"#utility.yul\":11516:11532   */\n      mul\n        /* \"#utility.yul\":11507:11532   */\n      swap2\n      pop\n        /* \"#utility.yul\":11095:11546   */\n    tag_402:\n        /* \"#utility.yul\":11577:11581   */\n      dup1\n        /* \"#utility.yul\":11571:11575   */\n      dup2\n        /* \"#utility.yul\":11567:11582   */\n      mul\n        /* \"#utility.yul\":11559:11582   */\n      swap1\n      pop\n        /* \"#utility.yul\":11607:11639   */\n      tag_403\n        /* \"#utility.yul\":11630:11638   */\n      dup6\n        /* \"#utility.yul\":11607:11639   */\n      tag_273\n      jump\t// in\n    tag_403:\n        /* \"#utility.yul\":11595:11639   */\n      swap5\n      pop\n        /* \"#utility.yul\":10937:11649   */\n      jump(tag_397)\n    tag_399:\n        /* \"#utility.yul\":10807:11655   */\n      swap5\n      pop\n      swap5\n      swap3\n      pop\n      pop\n      pop\n      jump\t// out\n        /* \"#utility.yul\":11661:12734   */\n    tag_275:\n        /* \"#utility.yul\":11715:11720   */\n      0x00\n        /* \"#utility.yul\":11906:11914   */\n      dup3\n        /* \"#utility.yul\":11896:11936   */\n      tag_405\n      jumpi\n        /* \"#utility.yul\":11927:11928   */\n      0x01\n        /* \"#utility.yul\":11918:11928   */\n      swap1\n      pop\n        /* \"#utility.yul\":11929:11934   */\n      jump(tag_404)\n        /* \"#utility.yul\":11896:11936   */\n    tag_405:\n        /* \"#utility.yul\":11955:11959   */\n      dup2\n        /* \"#utility.yul\":11945:11981   */\n      tag_406\n      jumpi\n        /* \"#utility.yul\":11972:11973   */\n      0x00\n        /* \"#utility.yul\":11963:11973   */\n      swap1\n      pop\n        /* \"#utility.yul\":11974:11979   */\n      jump(tag_404)\n        /* \"#utility.yul\":11945:11981   */\n    tag_406:\n        /* \"#utility.yul\":12041:12045   */\n      dup2\n        /* \"#utility.yul\":12089:12090   */\n      0x01\n        /* \"#utility.yul\":12084:12111   */\n      dup2\n      eq\n      tag_408\n      jumpi\n        /* \"#utility.yul\":12125:12126   */\n      0x02\n        /* \"#utility.yul\":12120:12311   */\n      dup2\n      eq\n      tag_409\n      jumpi\n        /* \"#utility.yul\":12034:12311   */\n      jump(tag_407)\n        /* \"#utility.yul\":12084:12111   */\n    tag_408:\n        /* \"#utility.yul\":12102:12103   */\n      0x01\n        /* \"#utility.yul\":12093:12103   */\n      swap2\n      pop\n        /* \"#utility.yul\":12104:12109   */\n      pop\n      jump(tag_404)\n        /* \"#utility.yul\":12120:12311   */\n    tag_409:\n        /* \"#utility.yul\":12165:12168   */\n      0xff\n        /* \"#utility.yul\":12155:12163   */\n      dup5\n        /* \"#utility.yul\":12152:12169   */\n      gt\n        /* \"#utility.yul\":12149:12192   */\n      iszero\n      tag_410\n      jumpi\n        /* \"#utility.yul\":12172:12190   */\n      tag_411\n      tag_268\n      jump\t// in\n    tag_411:\n        /* \"#utility.yul\":12149:12192   */\n    tag_410:\n        /* \"#utility.yul\":12221:12229   */\n      dup4\n        /* \"#utility.yul\":12218:12219   */\n      0x02\n        /* \"#utility.yul\":12214:12230   */\n      exp\n        /* \"#utility.yul\":12205:12230   */\n      swap2\n      pop\n        /* \"#utility.yul\":12256:12259   */\n      dup5\n        /* \"#utility.yul\":12249:12254   */\n      dup3\n        /* \"#utility.yul\":12246:12260   */\n      gt\n        /* \"#utility.yul\":12243:12283   */\n      iszero\n      tag_412\n      jumpi\n        /* \"#utility.yul\":12263:12281   */\n      tag_413\n      tag_268\n      jump\t// in\n    tag_413:\n        /* \"#utility.yul\":12243:12283   */\n    tag_412:\n        /* \"#utility.yul\":12296:12301   */\n      pop\n      jump(tag_404)\n        /* \"#utility.yul\":12034:12311   */\n    tag_407:\n      pop\n        /* \"#utility.yul\":12420:12422   */\n      0x20\n        /* \"#utility.yul\":12410:12418   */\n      dup4\n        /* \"#utility.yul\":12407:12423   */\n      lt\n        /* \"#utility.yul\":12401:12404   */\n      0x0133\n        /* \"#utility.yul\":12395:12399   */\n      dup4\n        /* \"#utility.yul\":12392:12405   */\n      lt\n        /* \"#utility.yul\":12388:12424   */\n      and\n        /* \"#utility.yul\":12370:12372   */\n      0x4e\n        /* \"#utility.yul\":12360:12368   */\n      dup5\n        /* \"#utility.yul\":12357:12373   */\n      lt\n        /* \"#utility.yul\":12352:12354   */\n      0x0b\n        /* \"#utility.yul\":12346:12350   */\n      dup5\n        /* \"#utility.yul\":12343:12355   */\n      lt\n        /* \"#utility.yul\":12339:12374   */\n      and\n        /* \"#utility.yul\":12323:12434   */\n      or\n        /* \"#utility.yul\":12320:12566   */\n      iszero\n      tag_414\n      jumpi\n        /* \"#utility.yul\":12476:12484   */\n      dup3\n        /* \"#utility.yul\":12470:12474   */\n      dup3\n        /* \"#utility.yul\":12466:12485   */\n      exp\n        /* \"#utility.yul\":12457:12485   */\n      swap1\n      pop\n        /* \"#utility.yul\":12511:12514   */\n      dup4\n        /* \"#utility.yul\":12504:12509   */\n      dup2\n        /* \"#utility.yul\":12501:12515   */\n      gt\n        /* \"#utility.yul\":12498:12538   */\n      iszero\n      tag_415\n      jumpi\n        /* \"#utility.yul\":12518:12536   */\n      tag_416\n      tag_268\n      jump\t// in\n    tag_416:\n        /* \"#utility.yul\":12498:12538   */\n    tag_415:\n        /* \"#utility.yul\":12551:12556   */\n      jump(tag_404)\n        /* \"#utility.yul\":12320:12566   */\n    tag_414:\n        /* \"#utility.yul\":12591:12633   */\n      tag_417\n        /* \"#utility.yul\":12629:12632   */\n      dup5\n        /* \"#utility.yul\":12619:12627   */\n      dup5\n        /* \"#utility.yul\":12613:12617   */\n      dup5\n        /* \"#utility.yul\":12610:12611   */\n      0x01\n        /* \"#utility.yul\":12591:12633   */\n      tag_274\n      jump\t// in\n    tag_417:\n        /* \"#utility.yul\":12576:12633   */\n      swap3\n      pop\n      swap1\n      pop\n        /* \"#utility.yul\":12665:12669   */\n      dup2\n        /* \"#utility.yul\":12660:12663   */\n      dup5\n        /* \"#utility.yul\":12656:12670   */\n      div\n        /* \"#utility.yul\":12649:12654   */\n      dup2\n        /* \"#utility.yul\":12646:12671   */\n      gt\n        /* \"#utility.yul\":12643:12694   */\n      iszero\n      tag_418\n      jumpi\n        /* \"#utility.yul\":12674:12692   */\n      tag_419\n      tag_268\n      jump\t// in\n    tag_419:\n        /* \"#utility.yul\":12643:12694   */\n    tag_418:\n        /* \"#utility.yul\":12723:12727   */\n      dup2\n        /* \"#utility.yul\":12716:12721   */\n      dup2\n        /* \"#utility.yul\":12712:12728   */\n      mul\n        /* \"#utility.yul\":12703:12728   */\n      swap1\n      pop\n        /* \"#utility.yul\":11661:12734   */\n    tag_404:\n      swap4\n      swap3\n      pop\n      pop\n      pop\n      jump\t// out\n        /* \"#utility.yul\":12740:13025   */\n    tag_159:\n        /* \"#utility.yul\":12800:12805   */\n      0x00\n        /* \"#utility.yul\":12824:12847   */\n      tag_421\n        /* \"#utility.yul\":12842:12846   */\n      dup3\n        /* \"#utility.yul\":12824:12847   */\n      tag_256\n      jump\t// in\n    tag_421:\n        /* \"#utility.yul\":12816:12847   */\n      swap2\n      pop\n        /* \"#utility.yul\":12868:12895   */\n      tag_422\n        /* \"#utility.yul\":12886:12894   */\n      dup4\n        /* \"#utility.yul\":12868:12895   */\n      tag_256\n      jump\t// in\n    tag_422:\n        /* \"#utility.yul\":12856:12895   */\n      swap3\n      pop\n        /* \"#utility.yul\":12914:13018   */\n      tag_423\n        /* \"#utility.yul\":12951:13017   */\n      0xffffffffffffffffffffffffffffffffffffffffffffffffffffffffffffffff\n        /* \"#utility.yul\":12941:12949   */\n      dup5\n        /* \"#utility.yul\":12935:12939   */\n      dup5\n        /* \"#utility.yul\":12914:13018   */\n      tag_275\n      jump\t// in\n    tag_423:\n        /* \"#utility.yul\":12905:13018   */\n      swap1\n      pop\n        /* \"#utility.yul\":12740:13025   */\n      swap3\n      swap2\n      pop\n      pop\n      jump\t// out\n        /* \"#utility.yul\":13031:13211   */\n    tag_276:\n        /* \"#utility.yul\":13079:13156   */\n      0x4e487b7100000000000000000000000000000000000000000000000000000000\n        /* \"#utility.yul\":13076:13077   */\n      0x00\n        /* \"#utility.yul\":13069:13157   */\n      mstore\n        /* \"#utility.yul\":13176:13180   */\n      0x12\n        /* \"#utility.yul\":13173:13174   */\n      0x04\n        /* \"#utility.yul\":13166:13181   */\n      mstore\n        /* \"#utility.yul\":13200:13204   */\n      0x24\n        /* \"#utility.yul\":13197:13198   */\n      0x00\n        /* \"#utility.yul\":13190:13205   */\n      revert\n        /* \"#utility.yul\":13217:13402   */\n    tag_162:\n        /* \"#utility.yul\":13257:13258   */\n      0x00\n        /* \"#utility.yul\":13274:13294   */\n      tag_426\n        /* \"#utility.yul\":13292:13293   */\n      dup3\n        /* \"#utility.yul\":13274:13294   */\n      tag_256\n      jump\t// in\n    tag_426:\n        /* \"#utility.yul\":13269:13294   */\n      swap2\n      pop\n        /* \"#utility.yul\":13308:13328   */\n      tag_427\n        /* \"#utility.yul\":13326:13327   */\n      dup4\n        /* \"#utility.yul\":13308:13328   */\n      tag_256\n      jump\t// in\n    tag_427:\n        /* \"#utility.yul\":13303:13328   */\n      swap3\n      pop\n        /* \"#utility.yul\":13347:13348   */\n      dup3\n        /* \"#utility.yul\":13337:13372   */\n      tag_428\n      jumpi\n        /* \"#utility.yul\":13352:13370   */\n      tag_429\n      tag_276\n      jump\t// in\n    tag_429:\n        /* \"#utility.yul\":13337:13372   */\n    tag_428:\n        /* \"#utility.yul\":13394:13395   */\n      dup3\n        /* \"#utility.yul\":13391:13392   */\n      dup3\n        /* \"#utility.yul\":13387:13396   */\n      div\n        /* \"#utility.yul\":13382:13396   */\n      swap1\n      pop\n        /* \"#utility.yul\":13217:13402   */\n      swap3\n      swap2\n      pop\n      pop\n      jump\t// out\n        /* \"#utility.yul\":13408:13599   */\n    tag_169:\n        /* \"#utility.yul\":13448:13451   */\n      0x00\n        /* \"#utility.yul\":13467:13487   */\n      tag_431\n        /* \"#utility.yul\":13485:13486   */\n      dup3\n        /* \"#utility.yul\":13467:13487   */\n      tag_256\n      jump\t// in\n    tag_431:\n        /* \"#utility.yul\":13462:13487   */\n      swap2\n      pop\n        /* \"#utility.yul\":13501:13521   */\n      tag_432\n        /* \"#utility.yul\":13519:13520   */\n      dup4\n        /* \"#utility.yul\":13501:13521   */\n      tag_256\n      jump\t// in\n    tag_432:\n        /* \"#utility.yul\":13496:13521   */\n      swap3\n      pop\n        /* \"#utility.yul\":13544:13545   */\n      dup3\n        /* \"#utility.yul\":13541:13542   */\n      dup3\n        /* \"#utility.yul\":13537:13546   */\n      add\n        /* \"#utility.yul\":13530:13546   */\n      swap1\n      pop\n        /* \"#utility.yul\":13565:13568   */\n      dup1\n        /* \"#utility.yul\":13562:13563   */\n      dup3\n        /* \"#utility.yul\":13559:13569   */\n      gt\n        /* \"#utility.yul\":13556:13592   */\n      iszero\n      tag_433\n      jumpi\n        /* \"#utility.yul\":13572:13590   */\n      tag_434\n      tag_268\n      jump\t// in\n    tag_434:\n        /* \"#utility.yul\":13556:13592   */\n    tag_433:\n        /* \"#utility.yul\":13408:13599   */\n      swap3\n      swap2\n      pop\n      pop\n      jump\t// out\n        /* \"#utility.yul\":13605:13834   */\n    tag_277:\n        /* \"#utility.yul\":13745:13779   */\n      0x4572726f722d4d4e545f4d554d4241495f322e736f6c2d457863656564735f4d\n        /* \"#utility.yul\":13741:13742   */\n      0x00\n        /* \"#utility.yul\":13733:13739   */\n      dup3\n        /* \"#utility.yul\":13729:13743   */\n      add\n        /* \"#utility.yul\":13722:13780   */\n      mstore\n        /* \"#utility.yul\":13814:13826   */\n      0x61785f42616c616e636500000000000000000000000000000000000000000000\n        /* \"#utility.yul\":13809:13811   */\n      0x20\n        /* \"#utility.yul\":13801:13807   */\n      dup3\n        /* \"#utility.yul\":13797:13812   */\n      add\n        /* \"#utility.yul\":13790:13827   */\n      mstore\n        /* \"#utility.yul\":13605:13834   */\n      pop\n      jump\t// out\n        /* \"#utility.yul\":13840:14206   */\n    tag_278:\n        /* \"#utility.yul\":13982:13985   */\n      0x00\n        /* \"#utility.yul\":14003:14070   */\n      tag_437\n        /* \"#utility.yul\":14067:14069   */\n      0x2a\n        /* \"#utility.yul\":14062:14065   */\n      dup4\n        /* \"#utility.yul\":14003:14070   */\n      tag_245\n      jump\t// in\n    tag_437:\n        /* \"#utility.yul\":13996:14070   */\n      swap2\n      pop\n        /* \"#utility.yul\":14079:14172   */\n      tag_438\n        /* \"#utility.yul\":14168:14171   */\n      dup3\n        /* \"#utility.yul\":14079:14172   */\n      tag_277\n      jump\t// in\n    tag_438:\n        /* \"#utility.yul\":14197:14199   */\n      0x40\n        /* \"#utility.yul\":14192:14195   */\n      dup3\n        /* \"#utility.yul\":14188:14200   */\n      add\n        /* \"#utility.yul\":14181:14200   */\n      swap1\n      pop\n        /* \"#utility.yul\":13840:14206   */\n      swap2\n      swap1\n      pop\n      jump\t// out\n        /* \"#utility.yul\":14212:14631   */\n    tag_172:\n        /* \"#utility.yul\":14378:14382   */\n      0x00\n        /* \"#utility.yul\":14416:14418   */\n      0x20\n        /* \"#utility.yul\":14405:14414   */\n      dup3\n        /* \"#utility.yul\":14401:14419   */\n      add\n        /* \"#utility.yul\":14393:14419   */\n      swap1\n      pop\n        /* \"#utility.yul\":14465:14474   */\n      dup2\n        /* \"#utility.yul\":14459:14463   */\n      dup2\n        /* \"#utility.yul\":14455:14475   */\n      sub\n        /* \"#utility.yul\":14451:14452   */\n      0x00\n        /* \"#utility.yul\":14440:14449   */\n      dup4\n        /* \"#utility.yul\":14436:14453   */\n      add\n        /* \"#utility.yul\":14429:14476   */\n      mstore\n        /* \"#utility.yul\":14493:14624   */\n      tag_440\n        /* \"#utility.yul\":14619:14623   */\n      dup2\n        /* \"#utility.yul\":14493:14624   */\n      tag_278\n      jump\t// in\n    tag_440:\n        /* \"#utility.yul\":14485:14624   */\n      swap1\n      pop\n        /* \"#utility.yul\":14212:14631   */\n      swap2\n      swap1\n      pop\n      jump\t// out\n        /* \"#utility.yul\":14637:15190   */\n    tag_177:\n        /* \"#utility.yul\":14814:14818   */\n      0x00\n        /* \"#utility.yul\":14852:14855   */\n      0x80\n        /* \"#utility.yul\":14841:14850   */\n      dup3\n        /* \"#utility.yul\":14837:14856   */\n      add\n        /* \"#utility.yul\":14829:14856   */\n      swap1\n      pop\n        /* \"#utility.yul\":14866:14937   */\n      tag_442\n        /* \"#utility.yul\":14934:14935   */\n      0x00\n        /* \"#utility.yul\":14923:14932   */\n      dup4\n        /* \"#utility.yul\":14919:14936   */\n      add\n        /* \"#utility.yul\":14910:14916   */\n      dup8\n        /* \"#utility.yul\":14866:14937   */\n      tag_261\n      jump\t// in\n    tag_442:\n        /* \"#utility.yul\":14947:15019   */\n      tag_443\n        /* \"#utility.yul\":15015:15017   */\n      0x20\n        /* \"#utility.yul\":15004:15013   */\n      dup4\n        /* \"#utility.yul\":15000:15018   */\n      add\n        /* \"#utility.yul\":14991:14997   */\n      dup7\n        /* \"#utility.yul\":14947:15019   */\n      tag_261\n      jump\t// in\n    tag_443:\n        /* \"#utility.yul\":15029:15101   */\n      tag_444\n        /* \"#utility.yul\":15097:15099   */\n      0x40\n        /* \"#utility.yul\":15086:15095   */\n      dup4\n        /* \"#utility.yul\":15082:15100   */\n      add\n        /* \"#utility.yul\":15073:15079   */\n      dup6\n        /* \"#utility.yul\":15029:15101   */\n      tag_261\n      jump\t// in\n    tag_444:\n        /* \"#utility.yul\":15111:15183   */\n      tag_445\n        /* \"#utility.yul\":15179:15181   */\n      0x60\n        /* \"#utility.yul\":15168:15177   */\n      dup4\n        /* \"#utility.yul\":15164:15182   */\n      add\n        /* \"#utility.yul\":15155:15161   */\n      dup5\n        /* \"#utility.yul\":15111:15183   */\n      tag_261\n      jump\t// in\n    tag_445:\n        /* \"#utility.yul\":14637:15190   */\n      swap6\n      swap5\n      pop\n      pop\n      pop\n      pop\n      pop\n      jump\t// out\n        /* \"#utility.yul\":15196:15301   */\n    tag_279:\n        /* \"#utility.yul\":15232:15239   */\n      0x00\n        /* \"#utility.yul\":15272:15294   */\n      0xffffffffffffffffffff\n        /* \"#utility.yul\":15265:15270   */\n      dup3\n        /* \"#utility.yul\":15261:15295   */\n      and\n        /* \"#utility.yul\":15250:15295   */\n      swap1\n      pop\n        /* \"#utility.yul\":15196:15301   */\n      swap2\n      swap1\n      pop\n      jump\t// out\n        /* \"#utility.yul\":15307:15427   */\n    tag_280:\n        /* \"#utility.yul\":15379:15402   */\n      tag_448\n        /* \"#utility.yul\":15396:15401   */\n      dup2\n        /* \"#utility.yul\":15379:15402   */\n      tag_279\n      jump\t// in\n    tag_448:\n        /* \"#utility.yul\":15372:15377   */\n      dup2\n        /* \"#utility.yul\":15369:15403   */\n      eq\n        /* \"#utility.yul\":15359:15421   */\n      tag_449\n      jumpi\n        /* \"#utility.yul\":15417:15418   */\n      0x00\n        /* \"#utility.yul\":15414:15415   */\n      dup1\n        /* \"#utility.yul\":15407:15419   */\n      revert\n        /* \"#utility.yul\":15359:15421   */\n    tag_449:\n        /* \"#utility.yul\":15307:15427   */\n      pop\n      jump\t// out\n        /* \"#utility.yul\":15433:15574   */\n    tag_281:\n        /* \"#utility.yul\":15489:15494   */\n      0x00\n        /* \"#utility.yul\":15520:15526   */\n      dup2\n        /* \"#utility.yul\":15514:15527   */\n      mload\n        /* \"#utility.yul\":15505:15527   */\n      swap1\n      pop\n        /* \"#utility.yul\":15536:15568   */\n      tag_451\n        /* \"#utility.yul\":15562:15567   */\n      dup2\n        /* \"#utility.yul\":15536:15568   */\n      tag_280\n      jump\t// in\n    tag_451:\n        /* \"#utility.yul\":15433:15574   */\n      swap3\n      swap2\n      pop\n      pop\n      jump\t// out\n        /* \"#utility.yul\":15580:15700   */\n    tag_282:\n        /* \"#utility.yul\":15652:15675   */\n      tag_453\n        /* \"#utility.yul\":15669:15674   */\n      dup2\n        /* \"#utility.yul\":15652:15675   */\n      tag_265\n      jump\t// in\n    tag_453:\n        /* \"#utility.yul\":15645:15650   */\n      dup2\n        /* \"#utility.yul\":15642:15676   */\n      eq\n        /* \"#utility.yul\":15632:15694   */\n      tag_454\n      jumpi\n        /* \"#utility.yul\":15690:15691   */\n      0x00\n        /* \"#utility.yul\":15687:15688   */\n      dup1\n        /* \"#utility.yul\":15680:15692   */\n      revert\n        /* \"#utility.yul\":15632:15694   */\n    tag_454:\n        /* \"#utility.yul\":15580:15700   */\n      pop\n      jump\t// out\n        /* \"#utility.yul\":15706:15847   */\n    tag_283:\n        /* \"#utility.yul\":15762:15767   */\n      0x00\n        /* \"#utility.yul\":15793:15799   */\n      dup2\n        /* \"#utility.yul\":15787:15800   */\n      mload\n        /* \"#utility.yul\":15778:15800   */\n      swap1\n      pop\n        /* \"#utility.yul\":15809:15841   */\n      tag_456\n        /* \"#utility.yul\":15835:15840   */\n      dup2\n        /* \"#utility.yul\":15809:15841   */\n      tag_282\n      jump\t// in\n    tag_456:\n        /* \"#utility.yul\":15706:15847   */\n      swap3\n      swap2\n      pop\n      pop\n      jump\t// out\n        /* \"#utility.yul\":15853:15996   */\n    tag_284:\n        /* \"#utility.yul\":15910:15915   */\n      0x00\n        /* \"#utility.yul\":15941:15947   */\n      dup2\n        /* \"#utility.yul\":15935:15948   */\n      mload\n        /* \"#utility.yul\":15926:15948   */\n      swap1\n      pop\n        /* \"#utility.yul\":15957:15990   */\n      tag_458\n        /* \"#utility.yul\":15984:15989   */\n      dup2\n        /* \"#utility.yul\":15957:15990   */\n      tag_257\n      jump\t// in\n    tag_458:\n        /* \"#utility.yul\":15853:15996   */\n      swap3\n      swap2\n      pop\n      pop\n      jump\t// out\n        /* \"#utility.yul\":16002:16973   */\n    tag_195:\n        /* \"#utility.yul\":16105:16111   */\n      0x00\n        /* \"#utility.yul\":16113:16119   */\n      dup1\n        /* \"#utility.yul\":16121:16127   */\n      0x00\n        /* \"#utility.yul\":16129:16135   */\n      dup1\n        /* \"#utility.yul\":16137:16143   */\n      0x00\n        /* \"#utility.yul\":16186:16189   */\n      0xa0\n        /* \"#utility.yul\":16174:16183   */\n      dup7\n        /* \"#utility.yul\":16165:16172   */\n      dup9\n        /* \"#utility.yul\":16161:16184   */\n      sub\n        /* \"#utility.yul\":16157:16190   */\n      slt\n        /* \"#utility.yul\":16154:16274   */\n      iszero\n      tag_460\n      jumpi\n        /* \"#utility.yul\":16193:16272   */\n      tag_461\n      tag_250\n      jump\t// in\n    tag_461:\n        /* \"#utility.yul\":16154:16274   */\n    tag_460:\n        /* \"#utility.yul\":16313:16314   */\n      0x00\n        /* \"#utility.yul\":16338:16401   */\n      tag_462\n        /* \"#utility.yul\":16393:16400   */\n      dup9\n        /* \"#utility.yul\":16384:16390   */\n      dup3\n        /* \"#utility.yul\":16373:16382   */\n      dup10\n        /* \"#utility.yul\":16369:16391   */\n      add\n        /* \"#utility.yul\":16338:16401   */\n      tag_281\n      jump\t// in\n    tag_462:\n        /* \"#utility.yul\":16328:16401   */\n      swap6\n      pop\n        /* \"#utility.yul\":16284:16411   */\n      pop\n        /* \"#utility.yul\":16450:16452   */\n      0x20\n        /* \"#utility.yul\":16476:16539   */\n      tag_463\n        /* \"#utility.yul\":16531:16538   */\n      dup9\n        /* \"#utility.yul\":16522:16528   */\n      dup3\n        /* \"#utility.yul\":16511:16520   */\n      dup10\n        /* \"#utility.yul\":16507:16529   */\n      add\n        /* \"#utility.yul\":16476:16539   */\n      tag_283\n      jump\t// in\n    tag_463:\n        /* \"#utility.yul\":16466:16539   */\n      swap5\n      pop\n        /* \"#utility.yul\":16421:16549   */\n      pop\n        /* \"#utility.yul\":16588:16590   */\n      0x40\n        /* \"#utility.yul\":16614:16678   */\n      tag_464\n        /* \"#utility.yul\":16670:16677   */\n      dup9\n        /* \"#utility.yul\":16661:16667   */\n      dup3\n        /* \"#utility.yul\":16650:16659   */\n      dup10\n        /* \"#utility.yul\":16646:16668   */\n      add\n        /* \"#utility.yul\":16614:16678   */\n      tag_284\n      jump\t// in\n    tag_464:\n        /* \"#utility.yul\":16604:16678   */\n      swap4\n      pop\n        /* \"#utility.yul\":16559:16688   */\n      pop\n        /* \"#utility.yul\":16727:16729   */\n      0x60\n        /* \"#utility.yul\":16753:16817   */\n      tag_465\n        /* \"#utility.yul\":16809:16816   */\n      dup9\n        /* \"#utility.yul\":16800:16806   */\n      dup3\n        /* \"#utility.yul\":16789:16798   */\n      dup10\n        /* \"#utility.yul\":16785:16807   */\n      add\n        /* \"#utility.yul\":16753:16817   */\n      tag_284\n      jump\t// in\n    tag_465:\n        /* \"#utility.yul\":16743:16817   */\n      swap3\n      pop\n        /* \"#utility.yul\":16698:16827   */\n      pop\n        /* \"#utility.yul\":16866:16869   */\n      0x80\n        /* \"#utility.yul\":16893:16956   */\n      tag_466\n        /* \"#utility.yul\":16948:16955   */\n      dup9\n        /* \"#utility.yul\":16939:16945   */\n      dup3\n        /* \"#utility.yul\":16928:16937   */\n      dup10\n        /* \"#utility.yul\":16924:16946   */\n      add\n        /* \"#utility.yul\":16893:16956   */\n      tag_281\n      jump\t// in\n    tag_466:\n        /* \"#utility.yul\":16883:16956   */\n      swap2\n      pop\n        /* \"#utility.yul\":16837:16966   */\n      pop\n        /* \"#utility.yul\":16002:16973   */\n      swap3\n      swap6\n      pop\n      swap3\n      swap6\n      swap1\n      swap4\n      pop\n      jump\t// out\n        /* \"#utility.yul\":16979:17364   */\n    tag_197:\n        /* \"#utility.yul\":17018:17019   */\n      0x00\n        /* \"#utility.yul\":17035:17054   */\n      tag_468\n        /* \"#utility.yul\":17052:17053   */\n      dup3\n        /* \"#utility.yul\":17035:17054   */\n      tag_265\n      jump\t// in\n    tag_468:\n        /* \"#utility.yul\":17030:17054   */\n      swap2\n      pop\n        /* \"#utility.yul\":17068:17087   */\n      tag_469\n        /* \"#utility.yul\":17085:17086   */\n      dup4\n        /* \"#utility.yul\":17068:17087   */\n      tag_265\n      jump\t// in\n    tag_469:\n        /* \"#utility.yul\":17063:17087   */\n      swap3\n      pop\n        /* \"#utility.yul\":17106:17107   */\n      dup3\n        /* \"#utility.yul\":17096:17131   */\n      tag_470\n      jumpi\n        /* \"#utility.yul\":17111:17129   */\n      tag_471\n      tag_276\n      jump\t// in\n    tag_471:\n        /* \"#utility.yul\":17096:17131   */\n    tag_470:\n        /* \"#utility.yul\":17297:17298   */\n      0x01\n        /* \"#utility.yul\":17294:17295   */\n      0x00\n        /* \"#utility.yul\":17290:17299   */\n      sub\n        /* \"#utility.yul\":17287:17288   */\n      dup4\n        /* \"#utility.yul\":17284:17300   */\n      eq\n        /* \"#utility.yul\":17203:17269   */\n      0x8000000000000000000000000000000000000000000000000000000000000000\n        /* \"#utility.yul\":17200:17201   */\n      dup4\n        /* \"#utility.yul\":17197:17270   */\n      eq\n        /* \"#utility.yul\":17180:17310   */\n      and\n        /* \"#utility.yul\":17177:17333   */\n      iszero\n      tag_472\n      jumpi\n        /* \"#utility.yul\":17313:17331   */\n      tag_473\n      tag_268\n      jump\t// in\n    tag_473:\n        /* \"#utility.yul\":17177:17333   */\n    tag_472:\n        /* \"#utility.yul\":17356:17357   */\n      dup3\n        /* \"#utility.yul\":17353:17354   */\n      dup3\n        /* \"#utility.yul\":17348:17358   */\n      sdiv\n        /* \"#utility.yul\":17343:17358   */\n      swap1\n      pop\n        /* \"#utility.yul\":16979:17364   */\n      swap3\n      swap2\n      pop\n      pop\n      jump\t// out\n        /* \"#utility.yul\":17370:17812   */\n    tag_207:\n        /* \"#utility.yul\":17519:17523   */\n      0x00\n        /* \"#utility.yul\":17557:17559   */\n      0x60\n        /* \"#utility.yul\":17546:17555   */\n      dup3\n        /* \"#utility.yul\":17542:17560   */\n      add\n        /* \"#utility.yul\":17534:17560   */\n      swap1\n      pop\n        /* \"#utility.yul\":17570:17641   */\n      tag_475\n        /* \"#utility.yul\":17638:17639   */\n      0x00\n        /* \"#utility.yul\":17627:17636   */\n      dup4\n        /* \"#utility.yul\":17623:17640   */\n      add\n        /* \"#utility.yul\":17614:17620   */\n      dup7\n        /* \"#utility.yul\":17570:17641   */\n      tag_264\n      jump\t// in\n    tag_475:\n        /* \"#utility.yul\":17651:17723   */\n      tag_476\n        /* \"#utility.yul\":17719:17721   */\n      0x20\n        /* \"#utility.yul\":17708:17717   */\n      dup4\n        /* \"#utility.yul\":17704:17722   */\n      add\n        /* \"#utility.yul\":17695:17701   */\n      dup6\n        /* \"#utility.yul\":17651:17723   */\n      tag_261\n      jump\t// in\n    tag_476:\n        /* \"#utility.yul\":17733:17805   */\n      tag_477\n        /* \"#utility.yul\":17801:17803   */\n      0x40\n        /* \"#utility.yul\":17790:17799   */\n      dup4\n        /* \"#utility.yul\":17786:17804   */\n      add\n        /* \"#utility.yul\":17777:17783   */\n      dup5\n        /* \"#utility.yul\":17733:17805   */\n      tag_261\n      jump\t// in\n    tag_477:\n        /* \"#utility.yul\":17370:17812   */\n      swap5\n      swap4\n      pop\n      pop\n      pop\n      pop\n      jump\t// out\n\n    auxdata: 0xa2646970667358221220a36b2e17d8eb9bbae623c4e06ae6c5e8ef8016d6e775162411cff96caaffb8bb64736f6c63430008180033\n}\n",
				"bytecode": {
					"linkReferences": {},
					"object": "60a060405264012a05f2006007556113886008553480156200001f575f80fd5b50620000306200023060201b60201c565b60ff16600a6200004191906200073d565b6007546200005091906200078d565b6040518060400160405280600581526020017f4d6f6e65740000000000000000000000000000000000000000000000000000008152506040518060400160405280600381526020017f4d4e5400000000000000000000000000000000000000000000000000000000008152508160039081620000cd919062000a32565b508060049081620000df919062000a32565b5050505f810362000129575f6040517f392e1e2700000000000000000000000000000000000000000000000000000000815260040162000120919062000b57565b60405180910390fd5b8060808181525050503360065f6101000a81548173ffffffffffffffffffffffffffffffffffffffff021916908373ffffffffffffffffffffffffffffffffffffffff16021790555073d0d5e3db44de05e9f294bb0a3beeaf030de24ada60055f6101000a81548173ffffffffffffffffffffffffffffffffffffffff021916908373ffffffffffffffffffffffffffffffffffffffff1602179055506200022a60065f9054906101000a900473ffffffffffffffffffffffffffffffffffffffff16620001fc6200023060201b60201c565b60ff16600a6200020d91906200073d565b639502f9006200021e91906200078d565b6200023860201b60201c565b62000c9c565b5f6012905090565b5f73ffffffffffffffffffffffffffffffffffffffff168273ffffffffffffffffffffffffffffffffffffffff1603620002ab575f6040517fec442f05000000000000000000000000000000000000000000000000000000008152600401620002a2919062000bb5565b60405180910390fd5b620002be5f8383620002c260201b60201c565b5050565b620002d58383836200038160201b60201c565b5f73ffffffffffffffffffffffffffffffffffffffff168373ffffffffffffffffffffffffffffffffffffffff16036200037c575f6200031a620005a560201b60201c565b90505f6200032d620005ae60201b60201c565b905081811115620003795780826040517f9e79f8540000000000000000000000000000000000000000000000000000000081526004016200037092919062000be1565b60405180910390fd5b50505b505050565b5f73ffffffffffffffffffffffffffffffffffffffff168373ffffffffffffffffffffffffffffffffffffffff1603620003d5578060025f828254620003c8919062000c0c565b92505081905550620004a6565b5f805f8573ffffffffffffffffffffffffffffffffffffffff1673ffffffffffffffffffffffffffffffffffffffff1681526020019081526020015f205490508181101562000461578381836040517fe450d38c000000000000000000000000000000000000000000000000000000008152600401620004589392919062000c46565b60405180910390fd5b8181035f808673ffffffffffffffffffffffffffffffffffffffff1673ffffffffffffffffffffffffffffffffffffffff1681526020019081526020015f2081905550505b5f73ffffffffffffffffffffffffffffffffffffffff168273ffffffffffffffffffffffffffffffffffffffff1603620004ef578060025f828254039250508190555062000539565b805f808473ffffffffffffffffffffffffffffffffffffffff1673ffffffffffffffffffffffffffffffffffffffff1681526020019081526020015f205f82825401925050819055505b8173ffffffffffffffffffffffffffffffffffffffff168373ffffffffffffffffffffffffffffffffffffffff167fddf252ad1be2c89b69c2b068fc378daa952ba7f163c4a11628f55a4df523b3ef8360405162000598919062000c81565b60405180910390a3505050565b5f608051905090565b5f600254905090565b7f4e487b71000000000000000000000000000000000000000000000000000000005f52601160045260245ffd5b5f8160011c9050919050565b5f808291508390505b60018511156200064157808604811115620006195762000618620005b7565b5b6001851615620006295780820291505b80810290506200063985620005e4565b9450620005f9565b94509492505050565b5f826200065b57600190506200072d565b816200066a575f90506200072d565b81600181146200068357600281146200068e57620006c4565b60019150506200072d565b60ff841115620006a357620006a2620005b7565b5b8360020a915084821115620006bd57620006bc620005b7565b5b506200072d565b5060208310610133831016604e8410600b8410161715620006fe5782820a905083811115620006f857620006f7620005b7565b5b6200072d565b6200070d8484846001620005f0565b92509050818404811115620007275762000726620005b7565b5b81810290505b9392505050565b5f819050919050565b5f620007498262000734565b9150620007568362000734565b9250620007857fffffffffffffffffffffffffffffffffffffffffffffffffffffffffffffffff84846200064a565b905092915050565b5f620007998262000734565b9150620007a68362000734565b9250828202620007b68162000734565b91508282048414831517620007d057620007cf620005b7565b5b5092915050565b5f81519050919050565b7f4e487b71000000000000000000000000000000000000000000000000000000005f52604160045260245ffd5b7f4e487b71000000000000000000000000000000000000000000000000000000005f52602260045260245ffd5b5f60028204905060018216806200085357607f821691505b6020821081036200086957620008686200080e565b5b50919050565b5f819050815f5260205f209050919050565b5f6020601f8301049050919050565b5f82821b905092915050565b5f60088302620008cd7fffffffffffffffffffffffffffffffffffffffffffffffffffffffffffffffff8262000890565b620008d9868362000890565b95508019841693508086168417925050509392505050565b5f819050919050565b5f6200091a620009146200090e8462000734565b620008f1565b62000734565b9050919050565b5f819050919050565b6200093583620008fa565b6200094d620009448262000921565b8484546200089c565b825550505050565b5f90565b6200096362000955565b620009708184846200092a565b505050565b5b8181101562000997576200098b5f8262000959565b60018101905062000976565b5050565b601f821115620009e657620009b0816200086f565b620009bb8462000881565b81016020851015620009cb578190505b620009e3620009da8562000881565b83018262000975565b50505b505050565b5f82821c905092915050565b5f62000a085f1984600802620009eb565b1980831691505092915050565b5f62000a228383620009f7565b9150826002028217905092915050565b62000a3d82620007d7565b67ffffffffffffffff81111562000a595762000a58620007e1565b5b62000a6582546200083b565b62000a728282856200099b565b5f60209050601f83116001811462000aa8575f841562000a93578287015190505b62000a9f858262000a15565b86555062000b0e565b601f19841662000ab8866200086f565b5f5b8281101562000ae15784890151825560018201915060208501945060208101905062000aba565b8683101562000b01578489015162000afd601f891682620009f7565b8355505b6001600288020188555050505b505050505050565b5f819050919050565b5f62000b3f62000b3962000b338462000b16565b620008f1565b62000734565b9050919050565b62000b518162000b1f565b82525050565b5f60208201905062000b6c5f83018462000b46565b92915050565b5f73ffffffffffffffffffffffffffffffffffffffff82169050919050565b5f62000b9d8262000b72565b9050919050565b62000baf8162000b91565b82525050565b5f60208201905062000bca5f83018462000ba4565b92915050565b62000bdb8162000734565b82525050565b5f60408201905062000bf65f83018562000bd0565b62000c05602083018462000bd0565b9392505050565b5f62000c188262000734565b915062000c258362000734565b925082820190508082111562000c405762000c3f620005b7565b5b92915050565b5f60608201905062000c5b5f83018662000ba4565b62000c6a602083018562000bd0565b62000c79604083018462000bd0565b949350505050565b5f60208201905062000c965f83018462000bd0565b92915050565b608051611c5c62000cb55f395f61055d0152611c5c5ff3fe608060405260043610610108575f3560e01c80636a73bf5311610094578063a9059cbb11610063578063a9059cbb14610352578063c0e3daf51461038e578063ce606ee0146103b8578063dd62ed3e146103e2578063ea6ecb081461041e57610108565b80636a73bf53146102a857806370a08231146102d05780638a20d00c1461030c57806395d89b411461032857610108565b806323b872dd116100db57806323b872dd146101d85780632bc67da014610214578063313ce5671461023e578063355274ea14610268578063655ab9271461029257610108565b806306fdde031461010c578063095ea7b31461013657806318160ddd1461017257806323100f361461019c575b5f80fd5b348015610117575f80fd5b50610120610448565b60405161012d91906112e3565b60405180910390f35b348015610141575f80fd5b5061015c60048036038101906101579190611394565b6104d8565b60405161016991906113ec565b60405180910390f35b34801561017d575f80fd5b506101866104fa565b6040516101939190611414565b60405180910390f35b3480156101a7575f80fd5b506101c260048036038101906101bd919061142d565b610503565b6040516101cf9190611414565b60405180910390f35b3480156101e3575f80fd5b506101fe60048036038101906101f99190611458565b61051e565b60405161020b91906113ec565b60405180910390f35b34801561021f575f80fd5b5061022861054c565b6040516102359190611414565b60405180910390f35b348015610249575f80fd5b50610252610552565b60405161025f91906114c3565b60405180910390f35b348015610273575f80fd5b5061027c61055a565b6040516102899190611414565b60405180910390f35b34801561029d575f80fd5b506102a6610581565b005b3480156102b3575f80fd5b506102ce60048036038101906102c9919061142d565b6106b5565b005b3480156102db575f80fd5b506102f660048036038101906102f191906114dc565b610790565b6040516103039190611414565b60405180910390f35b6103266004803603810190610321919061142d565b6107d5565b005b348015610333575f80fd5b5061033c61098f565b60405161034991906112e3565b60405180910390f35b34801561035d575f80fd5b5061037860048036038101906103739190611394565b610a1f565b60405161038591906113ec565b60405180910390f35b348015610399575f80fd5b506103a2610a41565b6040516103af9190611414565b60405180910390f35b3480156103c3575f80fd5b506103cc610a62565b6040516103d99190611516565b60405180910390f35b3480156103ed575f80fd5b506104086004803603810190610403919061152f565b610a87565b6040516104159190611414565b60405180910390f35b348015610429575f80fd5b50610432610b09565b60405161043f9190611585565b60405180910390f35b606060038054610457906115cb565b80601f0160208091040260200160405190810160405280929190818152602001828054610483906115cb565b80156104ce5780601f106104a5576101008083540402835291602001916104ce565b820191905f5260205f20905b8154815290600101906020018083116104b157829003601f168201915b5050505050905090565b5f806104e2610bb4565b90506104ef818585610bbb565b600191505092915050565b5f600254905090565b5f61050c610a41565b826105179190611628565b9050919050565b5f80610528610bb4565b9050610535858285610bcd565b610540858585610c5f565b60019150509392505050565b60085481565b5f6012905090565b5f7f0000000000000000000000000000000000000000000000000000000000000000905090565b60065f9054906101000a900473ffffffffffffffffffffffffffffffffffffffff1673ffffffffffffffffffffffffffffffffffffffff163373ffffffffffffffffffffffffffffffffffffffff1614610610576040517f08c379a0000000000000000000000000000000000000000000000000000000008152600401610607906116b3565b60405180910390fd5b5f47905060065f9054906101000a900473ffffffffffffffffffffffffffffffffffffffff1673ffffffffffffffffffffffffffffffffffffffff166108fc8290811502906040515f60405180830381858888f19350505050158015610678573d5f803e3d5ffd5b507ff39edbeb800007582021719f876f29eb42aa5171248e3df79a3bf120a4e9141681426040516106aa9291906116d1565b60405180910390a150565b60065f9054906101000a900473ffffffffffffffffffffffffffffffffffffffff1673ffffffffffffffffffffffffffffffffffffffff163373ffffffffffffffffffffffffffffffffffffffff1614610744576040517f08c379a000000000000000000000000000000000000000000000000000000000815260040161073b906116b3565b60405180910390fd5b5f6008549050816008819055507f4c2d858a88357e20c1b14c12b9674497934a744bb8118d4d3f2dce8ded4989be818342604051610784939291906116f8565b60405180910390a15050565b5f805f8373ffffffffffffffffffffffffffffffffffffffff1673ffffffffffffffffffffffffffffffffffffffff1681526020019081526020015f20549050919050565b6107de81610503565b341015610820576040517f08c379a00000000000000000000000000000000000000000000000000000000081526004016108179061179d565b60405180910390fd5b5f610829610a41565b610831610552565b60ff16600a61084091906118ea565b3461084b9190611628565b6108559190611961565b905060065f9054906101000a900473ffffffffffffffffffffffffffffffffffffffff1673ffffffffffffffffffffffffffffffffffffffff163373ffffffffffffffffffffffffffffffffffffffff1614610925576108b3610552565b60ff16600a6108c291906118ea565b6008546108cf9190611628565b816108d933610790565b6108e39190611991565b1115610924576040517f08c379a000000000000000000000000000000000000000000000000000000000815260040161091b90611a34565b60405180910390fd5b5b61092f3382610d4f565b3373ffffffffffffffffffffffffffffffffffffffff167f34987d73948b60cfba9beeb35760c345a3be430f3540605113911ead78a0830e82344261097333610790565b6040516109839493929190611a52565b60405180910390a25050565b60606004805461099e906115cb565b80601f01602080910402602001604051908101604052809291908181526020018280546109ca906115cb565b8015610a155780601f106109ec57610100808354040283529160200191610a15565b820191905f5260205f20905b8154815290600101906020018083116109f857829003601f168201915b5050505050905090565b5f80610a29610bb4565b9050610a36818585610c5f565b600191505092915050565b5f610a4a610b09565b671bc16d674ec80000610a5d9190611961565b905090565b60065f9054906101000a900473ffffffffffffffffffffffffffffffffffffffff1681565b5f60015f8473ffffffffffffffffffffffffffffffffffffffff1673ffffffffffffffffffffffffffffffffffffffff1681526020019081526020015f205f8373ffffffffffffffffffffffffffffffffffffffff1673ffffffffffffffffffffffffffffffffffffffff1681526020019081526020015f2054905092915050565b5f8060055f9054906101000a900473ffffffffffffffffffffffffffffffffffffffff1673ffffffffffffffffffffffffffffffffffffffff1663feaf968c6040518163ffffffff1660e01b815260040160a060405180830381865afa158015610b75573d5f803e3d5ffd5b505050506040513d601f19601f82011682018060405250810190610b999190611b12565b505050915050620f424081610bae9190611b89565b91505090565b5f33905090565b610bc88383836001610dce565b505050565b5f610bd88484610a87565b90507fffffffffffffffffffffffffffffffffffffffffffffffffffffffffffffffff8114610c595781811015610c4a578281836040517ffb8f41b2000000000000000000000000000000000000000000000000000000008152600401610c4193929190611bf1565b60405180910390fd5b610c5884848484035f610dce565b5b50505050565b5f73ffffffffffffffffffffffffffffffffffffffff168373ffffffffffffffffffffffffffffffffffffffff1603610ccf575f6040517f96c6fd1e000000000000000000000000000000000000000000000000000000008152600401610cc69190611516565b60405180910390fd5b5f73ffffffffffffffffffffffffffffffffffffffff168273ffffffffffffffffffffffffffffffffffffffff1603610d3f575f6040517fec442f05000000000000000000000000000000000000000000000000000000008152600401610d369190611516565b60405180910390fd5b610d4a838383610f9d565b505050565b5f73ffffffffffffffffffffffffffffffffffffffff168273ffffffffffffffffffffffffffffffffffffffff1603610dbf575f6040517fec442f05000000000000000000000000000000000000000000000000000000008152600401610db69190611516565b60405180910390fd5b610dca5f8383610f9d565b5050565b5f73ffffffffffffffffffffffffffffffffffffffff168473ffffffffffffffffffffffffffffffffffffffff1603610e3e575f6040517fe602df05000000000000000000000000000000000000000000000000000000008152600401610e359190611516565b60405180910390fd5b5f73ffffffffffffffffffffffffffffffffffffffff168373ffffffffffffffffffffffffffffffffffffffff1603610eae575f6040517f94280d62000000000000000000000000000000000000000000000000000000008152600401610ea59190611516565b60405180910390fd5b8160015f8673ffffffffffffffffffffffffffffffffffffffff1673ffffffffffffffffffffffffffffffffffffffff1681526020019081526020015f205f8573ffffffffffffffffffffffffffffffffffffffff1673ffffffffffffffffffffffffffffffffffffffff1681526020019081526020015f20819055508015610f97578273ffffffffffffffffffffffffffffffffffffffff168473ffffffffffffffffffffffffffffffffffffffff167f8c5be1e5ebec7d5bd14f71427d1e84f3dd0314c0f7b2291e5b200ac8c7c3b92584604051610f8e9190611414565b60405180910390a35b50505050565b610fa8838383611040565b5f73ffffffffffffffffffffffffffffffffffffffff168373ffffffffffffffffffffffffffffffffffffffff160361103b575f610fe461055a565b90505f610fef6104fa565b9050818111156110385780826040517f9e79f85400000000000000000000000000000000000000000000000000000000815260040161102f9291906116d1565b60405180910390fd5b50505b505050565b5f73ffffffffffffffffffffffffffffffffffffffff168373ffffffffffffffffffffffffffffffffffffffff1603611090578060025f8282546110849190611991565b9250508190555061115e565b5f805f8573ffffffffffffffffffffffffffffffffffffffff1673ffffffffffffffffffffffffffffffffffffffff1681526020019081526020015f2054905081811015611119578381836040517fe450d38c00000000000000000000000000000000000000000000000000000000815260040161111093929190611bf1565b60405180910390fd5b8181035f808673ffffffffffffffffffffffffffffffffffffffff1673ffffffffffffffffffffffffffffffffffffffff1681526020019081526020015f2081905550505b5f73ffffffffffffffffffffffffffffffffffffffff168273ffffffffffffffffffffffffffffffffffffffff16036111a5578060025f82825403925050819055506111ef565b805f808473ffffffffffffffffffffffffffffffffffffffff1673ffffffffffffffffffffffffffffffffffffffff1681526020019081526020015f205f82825401925050819055505b8173ffffffffffffffffffffffffffffffffffffffff168373ffffffffffffffffffffffffffffffffffffffff167fddf252ad1be2c89b69c2b068fc378daa952ba7f163c4a11628f55a4df523b3ef8360405161124c9190611414565b60405180910390a3505050565b5f81519050919050565b5f82825260208201905092915050565b5f5b83811015611290578082015181840152602081019050611275565b5f8484015250505050565b5f601f19601f8301169050919050565b5f6112b582611259565b6112bf8185611263565b93506112cf818560208601611273565b6112d88161129b565b840191505092915050565b5f6020820190508181035f8301526112fb81846112ab565b905092915050565b5f80fd5b5f73ffffffffffffffffffffffffffffffffffffffff82169050919050565b5f61133082611307565b9050919050565b61134081611326565b811461134a575f80fd5b50565b5f8135905061135b81611337565b92915050565b5f819050919050565b61137381611361565b811461137d575f80fd5b50565b5f8135905061138e8161136a565b92915050565b5f80604083850312156113aa576113a9611303565b5b5f6113b78582860161134d565b92505060206113c885828601611380565b9150509250929050565b5f8115159050919050565b6113e6816113d2565b82525050565b5f6020820190506113ff5f8301846113dd565b92915050565b61140e81611361565b82525050565b5f6020820190506114275f830184611405565b92915050565b5f6020828403121561144257611441611303565b5b5f61144f84828501611380565b91505092915050565b5f805f6060848603121561146f5761146e611303565b5b5f61147c8682870161134d565b935050602061148d8682870161134d565b925050604061149e86828701611380565b9150509250925092565b5f60ff82169050919050565b6114bd816114a8565b82525050565b5f6020820190506114d65f8301846114b4565b92915050565b5f602082840312156114f1576114f0611303565b5b5f6114fe8482850161134d565b91505092915050565b61151081611326565b82525050565b5f6020820190506115295f830184611507565b92915050565b5f806040838503121561154557611544611303565b5b5f6115528582860161134d565b92505060206115638582860161134d565b9150509250929050565b5f819050919050565b61157f8161156d565b82525050565b5f6020820190506115985f830184611576565b92915050565b7f4e487b71000000000000000000000000000000000000000000000000000000005f52602260045260245ffd5b5f60028204905060018216806115e257607f821691505b6020821081036115f5576115f461159e565b5b50919050565b7f4e487b71000000000000000000000000000000000000000000000000000000005f52601160045260245ffd5b5f61163282611361565b915061163d83611361565b925082820261164b81611361565b91508282048414831517611662576116616115fb565b5b5092915050565b7f4572726f722d4d4e545f4d554d4241495f322e736f6c2d4f776e61626c6500005f82015250565b5f61169d601e83611263565b91506116a882611669565b602082019050919050565b5f6020820190508181035f8301526116ca81611691565b9050919050565b5f6040820190506116e45f830185611405565b6116f16020830184611405565b9392505050565b5f60608201905061170b5f830186611405565b6117186020830185611405565b6117256040830184611405565b949350505050565b7f4572726f722d4d4e545f4d554d4241495f322e736f6c2d56616c75656c6573735f8201527f5f5472616e73616374696f6e0000000000000000000000000000000000000000602082015250565b5f611787602c83611263565b91506117928261172d565b604082019050919050565b5f6020820190508181035f8301526117b48161177b565b9050919050565b5f8160011c9050919050565b5f808291508390505b6001851115611810578086048111156117ec576117eb6115fb565b5b60018516156117fb5780820291505b8081029050611809856117bb565b94506117d0565b94509492505050565b5f8261182857600190506118e3565b81611835575f90506118e3565b816001811461184b576002811461185557611884565b60019150506118e3565b60ff841115611867576118666115fb565b5b8360020a91508482111561187e5761187d6115fb565b5b506118e3565b5060208310610133831016604e8410600b84101617156118b95782820a9050838111156118b4576118b36115fb565b5b6118e3565b6118c684848460016117c7565b925090508184048111156118dd576118dc6115fb565b5b81810290505b9392505050565b5f6118f482611361565b91506118ff83611361565b925061192c7fffffffffffffffffffffffffffffffffffffffffffffffffffffffffffffffff8484611819565b905092915050565b7f4e487b71000000000000000000000000000000000000000000000000000000005f52601260045260245ffd5b5f61196b82611361565b915061197683611361565b92508261198657611985611934565b5b828204905092915050565b5f61199b82611361565b91506119a683611361565b92508282019050808211156119be576119bd6115fb565b5b92915050565b7f4572726f722d4d4e545f4d554d4241495f322e736f6c2d457863656564735f4d5f8201527f61785f42616c616e636500000000000000000000000000000000000000000000602082015250565b5f611a1e602a83611263565b9150611a29826119c4565b604082019050919050565b5f6020820190508181035f830152611a4b81611a12565b9050919050565b5f608082019050611a655f830187611405565b611a726020830186611405565b611a7f6040830185611405565b611a8c6060830184611405565b95945050505050565b5f69ffffffffffffffffffff82169050919050565b611ab381611a95565b8114611abd575f80fd5b50565b5f81519050611ace81611aaa565b92915050565b611add8161156d565b8114611ae7575f80fd5b50565b5f81519050611af881611ad4565b92915050565b5f81519050611b0c8161136a565b92915050565b5f805f805f60a08688031215611b2b57611b2a611303565b5b5f611b3888828901611ac0565b9550506020611b4988828901611aea565b9450506040611b5a88828901611afe565b9350506060611b6b88828901611afe565b9250506080611b7c88828901611ac0565b9150509295509295909350565b5f611b938261156d565b9150611b9e8361156d565b925082611bae57611bad611934565b5b60015f0383147f800000000000000000000000000000000000000000000000000000000000000083141615611be657611be56115fb565b5b828205905092915050565b5f606082019050611c045f830186611507565b611c116020830185611405565b611c1e6040830184611405565b94935050505056fea2646970667358221220a36b2e17d8eb9bbae623c4e06ae6c5e8ef8016d6e775162411cff96caaffb8bb64736f6c63430008180033",
					"opcodes": "PUSH1 0xA0 PUSH1 0x40 MSTORE PUSH5 0x12A05F200 PUSH1 0x7 SSTORE PUSH2 0x1388 PUSH1 0x8 SSTORE CALLVALUE DUP1 ISZERO PUSH3 0x1F JUMPI PUSH0 DUP1 REVERT JUMPDEST POP PUSH3 0x30 PUSH3 0x230 PUSH1 0x20 SHL PUSH1 0x20 SHR JUMP JUMPDEST PUSH1 0xFF AND PUSH1 0xA PUSH3 0x41 SWAP2 SWAP1 PUSH3 0x73D JUMP JUMPDEST PUSH1 0x7 SLOAD PUSH3 0x50 SWAP2 SWAP1 PUSH3 0x78D JUMP JUMPDEST PUSH1 0x40 MLOAD DUP1 PUSH1 0x40 ADD PUSH1 0x40 MSTORE DUP1 PUSH1 0x5 DUP2 MSTORE PUSH1 0x20 ADD PUSH32 0x4D6F6E6574000000000000000000000000000000000000000000000000000000 DUP2 MSTORE POP PUSH1 0x40 MLOAD DUP1 PUSH1 0x40 ADD PUSH1 0x40 MSTORE DUP1 PUSH1 0x3 DUP2 MSTORE PUSH1 0x20 ADD PUSH32 0x4D4E540000000000000000000000000000000000000000000000000000000000 DUP2 MSTORE POP DUP2 PUSH1 0x3 SWAP1 DUP2 PUSH3 0xCD SWAP2 SWAP1 PUSH3 0xA32 JUMP JUMPDEST POP DUP1 PUSH1 0x4 SWAP1 DUP2 PUSH3 0xDF SWAP2 SWAP1 PUSH3 0xA32 JUMP JUMPDEST POP POP POP PUSH0 DUP2 SUB PUSH3 0x129 JUMPI PUSH0 PUSH1 0x40 MLOAD PUSH32 0x392E1E2700000000000000000000000000000000000000000000000000000000 DUP2 MSTORE PUSH1 0x4 ADD PUSH3 0x120 SWAP2 SWAP1 PUSH3 0xB57 JUMP JUMPDEST PUSH1 0x40 MLOAD DUP1 SWAP2 SUB SWAP1 REVERT JUMPDEST DUP1 PUSH1 0x80 DUP2 DUP2 MSTORE POP POP POP CALLER PUSH1 0x6 PUSH0 PUSH2 0x100 EXP DUP2 SLOAD DUP2 PUSH20 0xFFFFFFFFFFFFFFFFFFFFFFFFFFFFFFFFFFFFFFFF MUL NOT AND SWAP1 DUP4 PUSH20 0xFFFFFFFFFFFFFFFFFFFFFFFFFFFFFFFFFFFFFFFF AND MUL OR SWAP1 SSTORE POP PUSH20 0xD0D5E3DB44DE05E9F294BB0A3BEEAF030DE24ADA PUSH1 0x5 PUSH0 PUSH2 0x100 EXP DUP2 SLOAD DUP2 PUSH20 0xFFFFFFFFFFFFFFFFFFFFFFFFFFFFFFFFFFFFFFFF MUL NOT AND SWAP1 DUP4 PUSH20 0xFFFFFFFFFFFFFFFFFFFFFFFFFFFFFFFFFFFFFFFF AND MUL OR SWAP1 SSTORE POP PUSH3 0x22A PUSH1 0x6 PUSH0 SWAP1 SLOAD SWAP1 PUSH2 0x100 EXP SWAP1 DIV PUSH20 0xFFFFFFFFFFFFFFFFFFFFFFFFFFFFFFFFFFFFFFFF AND PUSH3 0x1FC PUSH3 0x230 PUSH1 0x20 SHL PUSH1 0x20 SHR JUMP JUMPDEST PUSH1 0xFF AND PUSH1 0xA PUSH3 0x20D SWAP2 SWAP1 PUSH3 0x73D JUMP JUMPDEST PUSH4 0x9502F900 PUSH3 0x21E SWAP2 SWAP1 PUSH3 0x78D JUMP JUMPDEST PUSH3 0x238 PUSH1 0x20 SHL PUSH1 0x20 SHR JUMP JUMPDEST PUSH3 0xC9C JUMP JUMPDEST PUSH0 PUSH1 0x12 SWAP1 POP SWAP1 JUMP JUMPDEST PUSH0 PUSH20 0xFFFFFFFFFFFFFFFFFFFFFFFFFFFFFFFFFFFFFFFF AND DUP3 PUSH20 0xFFFFFFFFFFFFFFFFFFFFFFFFFFFFFFFFFFFFFFFF AND SUB PUSH3 0x2AB JUMPI PUSH0 PUSH1 0x40 MLOAD PUSH32 0xEC442F0500000000000000000000000000000000000000000000000000000000 DUP2 MSTORE PUSH1 0x4 ADD PUSH3 0x2A2 SWAP2 SWAP1 PUSH3 0xBB5 JUMP JUMPDEST PUSH1 0x40 MLOAD DUP1 SWAP2 SUB SWAP1 REVERT JUMPDEST PUSH3 0x2BE PUSH0 DUP4 DUP4 PUSH3 0x2C2 PUSH1 0x20 SHL PUSH1 0x20 SHR JUMP JUMPDEST POP POP JUMP JUMPDEST PUSH3 0x2D5 DUP4 DUP4 DUP4 PUSH3 0x381 PUSH1 0x20 SHL PUSH1 0x20 SHR JUMP JUMPDEST PUSH0 PUSH20 0xFFFFFFFFFFFFFFFFFFFFFFFFFFFFFFFFFFFFFFFF AND DUP4 PUSH20 0xFFFFFFFFFFFFFFFFFFFFFFFFFFFFFFFFFFFFFFFF AND SUB PUSH3 0x37C JUMPI PUSH0 PUSH3 0x31A PUSH3 0x5A5 PUSH1 0x20 SHL PUSH1 0x20 SHR JUMP JUMPDEST SWAP1 POP PUSH0 PUSH3 0x32D PUSH3 0x5AE PUSH1 0x20 SHL PUSH1 0x20 SHR JUMP JUMPDEST SWAP1 POP DUP2 DUP2 GT ISZERO PUSH3 0x379 JUMPI DUP1 DUP3 PUSH1 0x40 MLOAD PUSH32 0x9E79F85400000000000000000000000000000000000000000000000000000000 DUP2 MSTORE PUSH1 0x4 ADD PUSH3 0x370 SWAP3 SWAP2 SWAP1 PUSH3 0xBE1 JUMP JUMPDEST PUSH1 0x40 MLOAD DUP1 SWAP2 SUB SWAP1 REVERT JUMPDEST POP POP JUMPDEST POP POP POP JUMP JUMPDEST PUSH0 PUSH20 0xFFFFFFFFFFFFFFFFFFFFFFFFFFFFFFFFFFFFFFFF AND DUP4 PUSH20 0xFFFFFFFFFFFFFFFFFFFFFFFFFFFFFFFFFFFFFFFF AND SUB PUSH3 0x3D5 JUMPI DUP1 PUSH1 0x2 PUSH0 DUP3 DUP3 SLOAD PUSH3 0x3C8 SWAP2 SWAP1 PUSH3 0xC0C JUMP JUMPDEST SWAP3 POP POP DUP2 SWAP1 SSTORE POP PUSH3 0x4A6 JUMP JUMPDEST PUSH0 DUP1 PUSH0 DUP6 PUSH20 0xFFFFFFFFFFFFFFFFFFFFFFFFFFFFFFFFFFFFFFFF AND PUSH20 0xFFFFFFFFFFFFFFFFFFFFFFFFFFFFFFFFFFFFFFFF AND DUP2 MSTORE PUSH1 0x20 ADD SWAP1 DUP2 MSTORE PUSH1 0x20 ADD PUSH0 KECCAK256 SLOAD SWAP1 POP DUP2 DUP2 LT ISZERO PUSH3 0x461 JUMPI DUP4 DUP2 DUP4 PUSH1 0x40 MLOAD PUSH32 0xE450D38C00000000000000000000000000000000000000000000000000000000 DUP2 MSTORE PUSH1 0x4 ADD PUSH3 0x458 SWAP4 SWAP3 SWAP2 SWAP1 PUSH3 0xC46 JUMP JUMPDEST PUSH1 0x40 MLOAD DUP1 SWAP2 SUB SWAP1 REVERT JUMPDEST DUP2 DUP2 SUB PUSH0 DUP1 DUP7 PUSH20 0xFFFFFFFFFFFFFFFFFFFFFFFFFFFFFFFFFFFFFFFF AND PUSH20 0xFFFFFFFFFFFFFFFFFFFFFFFFFFFFFFFFFFFFFFFF AND DUP2 MSTORE PUSH1 0x20 ADD SWAP1 DUP2 MSTORE PUSH1 0x20 ADD PUSH0 KECCAK256 DUP2 SWAP1 SSTORE POP POP JUMPDEST PUSH0 PUSH20 0xFFFFFFFFFFFFFFFFFFFFFFFFFFFFFFFFFFFFFFFF AND DUP3 PUSH20 0xFFFFFFFFFFFFFFFFFFFFFFFFFFFFFFFFFFFFFFFF AND SUB PUSH3 0x4EF JUMPI DUP1 PUSH1 0x2 PUSH0 DUP3 DUP3 SLOAD SUB SWAP3 POP POP DUP2 SWAP1 SSTORE POP PUSH3 0x539 JUMP JUMPDEST DUP1 PUSH0 DUP1 DUP5 PUSH20 0xFFFFFFFFFFFFFFFFFFFFFFFFFFFFFFFFFFFFFFFF AND PUSH20 0xFFFFFFFFFFFFFFFFFFFFFFFFFFFFFFFFFFFFFFFF AND DUP2 MSTORE PUSH1 0x20 ADD SWAP1 DUP2 MSTORE PUSH1 0x20 ADD PUSH0 KECCAK256 PUSH0 DUP3 DUP3 SLOAD ADD SWAP3 POP POP DUP2 SWAP1 SSTORE POP JUMPDEST DUP2 PUSH20 0xFFFFFFFFFFFFFFFFFFFFFFFFFFFFFFFFFFFFFFFF AND DUP4 PUSH20 0xFFFFFFFFFFFFFFFFFFFFFFFFFFFFFFFFFFFFFFFF AND PUSH32 0xDDF252AD1BE2C89B69C2B068FC378DAA952BA7F163C4A11628F55A4DF523B3EF DUP4 PUSH1 0x40 MLOAD PUSH3 0x598 SWAP2 SWAP1 PUSH3 0xC81 JUMP JUMPDEST PUSH1 0x40 MLOAD DUP1 SWAP2 SUB SWAP1 LOG3 POP POP POP JUMP JUMPDEST PUSH0 PUSH1 0x80 MLOAD SWAP1 POP SWAP1 JUMP JUMPDEST PUSH0 PUSH1 0x2 SLOAD SWAP1 POP SWAP1 JUMP JUMPDEST PUSH32 0x4E487B7100000000000000000000000000000000000000000000000000000000 PUSH0 MSTORE PUSH1 0x11 PUSH1 0x4 MSTORE PUSH1 0x24 PUSH0 REVERT JUMPDEST PUSH0 DUP2 PUSH1 0x1 SHR SWAP1 POP SWAP2 SWAP1 POP JUMP JUMPDEST PUSH0 DUP1 DUP3 SWAP2 POP DUP4 SWAP1 POP JUMPDEST PUSH1 0x1 DUP6 GT ISZERO PUSH3 0x641 JUMPI DUP1 DUP7 DIV DUP2 GT ISZERO PUSH3 0x619 JUMPI PUSH3 0x618 PUSH3 0x5B7 JUMP JUMPDEST JUMPDEST PUSH1 0x1 DUP6 AND ISZERO PUSH3 0x629 JUMPI DUP1 DUP3 MUL SWAP2 POP JUMPDEST DUP1 DUP2 MUL SWAP1 POP PUSH3 0x639 DUP6 PUSH3 0x5E4 JUMP JUMPDEST SWAP5 POP PUSH3 0x5F9 JUMP JUMPDEST SWAP5 POP SWAP5 SWAP3 POP POP POP JUMP JUMPDEST PUSH0 DUP3 PUSH3 0x65B JUMPI PUSH1 0x1 SWAP1 POP PUSH3 0x72D JUMP JUMPDEST DUP2 PUSH3 0x66A JUMPI PUSH0 SWAP1 POP PUSH3 0x72D JUMP JUMPDEST DUP2 PUSH1 0x1 DUP2 EQ PUSH3 0x683 JUMPI PUSH1 0x2 DUP2 EQ PUSH3 0x68E JUMPI PUSH3 0x6C4 JUMP JUMPDEST PUSH1 0x1 SWAP2 POP POP PUSH3 0x72D JUMP JUMPDEST PUSH1 0xFF DUP5 GT ISZERO PUSH3 0x6A3 JUMPI PUSH3 0x6A2 PUSH3 0x5B7 JUMP JUMPDEST JUMPDEST DUP4 PUSH1 0x2 EXP SWAP2 POP DUP5 DUP3 GT ISZERO PUSH3 0x6BD JUMPI PUSH3 0x6BC PUSH3 0x5B7 JUMP JUMPDEST JUMPDEST POP PUSH3 0x72D JUMP JUMPDEST POP PUSH1 0x20 DUP4 LT PUSH2 0x133 DUP4 LT AND PUSH1 0x4E DUP5 LT PUSH1 0xB DUP5 LT AND OR ISZERO PUSH3 0x6FE JUMPI DUP3 DUP3 EXP SWAP1 POP DUP4 DUP2 GT ISZERO PUSH3 0x6F8 JUMPI PUSH3 0x6F7 PUSH3 0x5B7 JUMP JUMPDEST JUMPDEST PUSH3 0x72D JUMP JUMPDEST PUSH3 0x70D DUP5 DUP5 DUP5 PUSH1 0x1 PUSH3 0x5F0 JUMP JUMPDEST SWAP3 POP SWAP1 POP DUP2 DUP5 DIV DUP2 GT ISZERO PUSH3 0x727 JUMPI PUSH3 0x726 PUSH3 0x5B7 JUMP JUMPDEST JUMPDEST DUP2 DUP2 MUL SWAP1 POP JUMPDEST SWAP4 SWAP3 POP POP POP JUMP JUMPDEST PUSH0 DUP2 SWAP1 POP SWAP2 SWAP1 POP JUMP JUMPDEST PUSH0 PUSH3 0x749 DUP3 PUSH3 0x734 JUMP JUMPDEST SWAP2 POP PUSH3 0x756 DUP4 PUSH3 0x734 JUMP JUMPDEST SWAP3 POP PUSH3 0x785 PUSH32 0xFFFFFFFFFFFFFFFFFFFFFFFFFFFFFFFFFFFFFFFFFFFFFFFFFFFFFFFFFFFFFFFF DUP5 DUP5 PUSH3 0x64A JUMP JUMPDEST SWAP1 POP SWAP3 SWAP2 POP POP JUMP JUMPDEST PUSH0 PUSH3 0x799 DUP3 PUSH3 0x734 JUMP JUMPDEST SWAP2 POP PUSH3 0x7A6 DUP4 PUSH3 0x734 JUMP JUMPDEST SWAP3 POP DUP3 DUP3 MUL PUSH3 0x7B6 DUP2 PUSH3 0x734 JUMP JUMPDEST SWAP2 POP DUP3 DUP3 DIV DUP5 EQ DUP4 ISZERO OR PUSH3 0x7D0 JUMPI PUSH3 0x7CF PUSH3 0x5B7 JUMP JUMPDEST JUMPDEST POP SWAP3 SWAP2 POP POP JUMP JUMPDEST PUSH0 DUP2 MLOAD SWAP1 POP SWAP2 SWAP1 POP JUMP JUMPDEST PUSH32 0x4E487B7100000000000000000000000000000000000000000000000000000000 PUSH0 MSTORE PUSH1 0x41 PUSH1 0x4 MSTORE PUSH1 0x24 PUSH0 REVERT JUMPDEST PUSH32 0x4E487B7100000000000000000000000000000000000000000000000000000000 PUSH0 MSTORE PUSH1 0x22 PUSH1 0x4 MSTORE PUSH1 0x24 PUSH0 REVERT JUMPDEST PUSH0 PUSH1 0x2 DUP3 DIV SWAP1 POP PUSH1 0x1 DUP3 AND DUP1 PUSH3 0x853 JUMPI PUSH1 0x7F DUP3 AND SWAP2 POP JUMPDEST PUSH1 0x20 DUP3 LT DUP2 SUB PUSH3 0x869 JUMPI PUSH3 0x868 PUSH3 0x80E JUMP JUMPDEST JUMPDEST POP SWAP2 SWAP1 POP JUMP JUMPDEST PUSH0 DUP2 SWAP1 POP DUP2 PUSH0 MSTORE PUSH1 0x20 PUSH0 KECCAK256 SWAP1 POP SWAP2 SWAP1 POP JUMP JUMPDEST PUSH0 PUSH1 0x20 PUSH1 0x1F DUP4 ADD DIV SWAP1 POP SWAP2 SWAP1 POP JUMP JUMPDEST PUSH0 DUP3 DUP3 SHL SWAP1 POP SWAP3 SWAP2 POP POP JUMP JUMPDEST PUSH0 PUSH1 0x8 DUP4 MUL PUSH3 0x8CD PUSH32 0xFFFFFFFFFFFFFFFFFFFFFFFFFFFFFFFFFFFFFFFFFFFFFFFFFFFFFFFFFFFFFFFF DUP3 PUSH3 0x890 JUMP JUMPDEST PUSH3 0x8D9 DUP7 DUP4 PUSH3 0x890 JUMP JUMPDEST SWAP6 POP DUP1 NOT DUP5 AND SWAP4 POP DUP1 DUP7 AND DUP5 OR SWAP3 POP POP POP SWAP4 SWAP3 POP POP POP JUMP JUMPDEST PUSH0 DUP2 SWAP1 POP SWAP2 SWAP1 POP JUMP JUMPDEST PUSH0 PUSH3 0x91A PUSH3 0x914 PUSH3 0x90E DUP5 PUSH3 0x734 JUMP JUMPDEST PUSH3 0x8F1 JUMP JUMPDEST PUSH3 0x734 JUMP JUMPDEST SWAP1 POP SWAP2 SWAP1 POP JUMP JUMPDEST PUSH0 DUP2 SWAP1 POP SWAP2 SWAP1 POP JUMP JUMPDEST PUSH3 0x935 DUP4 PUSH3 0x8FA JUMP JUMPDEST PUSH3 0x94D PUSH3 0x944 DUP3 PUSH3 0x921 JUMP JUMPDEST DUP5 DUP5 SLOAD PUSH3 0x89C JUMP JUMPDEST DUP3 SSTORE POP POP POP POP JUMP JUMPDEST PUSH0 SWAP1 JUMP JUMPDEST PUSH3 0x963 PUSH3 0x955 JUMP JUMPDEST PUSH3 0x970 DUP2 DUP5 DUP5 PUSH3 0x92A JUMP JUMPDEST POP POP POP JUMP JUMPDEST JUMPDEST DUP2 DUP2 LT ISZERO PUSH3 0x997 JUMPI PUSH3 0x98B PUSH0 DUP3 PUSH3 0x959 JUMP JUMPDEST PUSH1 0x1 DUP2 ADD SWAP1 POP PUSH3 0x976 JUMP JUMPDEST POP POP JUMP JUMPDEST PUSH1 0x1F DUP3 GT ISZERO PUSH3 0x9E6 JUMPI PUSH3 0x9B0 DUP2 PUSH3 0x86F JUMP JUMPDEST PUSH3 0x9BB DUP5 PUSH3 0x881 JUMP JUMPDEST DUP2 ADD PUSH1 0x20 DUP6 LT ISZERO PUSH3 0x9CB JUMPI DUP2 SWAP1 POP JUMPDEST PUSH3 0x9E3 PUSH3 0x9DA DUP6 PUSH3 0x881 JUMP JUMPDEST DUP4 ADD DUP3 PUSH3 0x975 JUMP JUMPDEST POP POP JUMPDEST POP POP POP JUMP JUMPDEST PUSH0 DUP3 DUP3 SHR SWAP1 POP SWAP3 SWAP2 POP POP JUMP JUMPDEST PUSH0 PUSH3 0xA08 PUSH0 NOT DUP5 PUSH1 0x8 MUL PUSH3 0x9EB JUMP JUMPDEST NOT DUP1 DUP4 AND SWAP2 POP POP SWAP3 SWAP2 POP POP JUMP JUMPDEST PUSH0 PUSH3 0xA22 DUP4 DUP4 PUSH3 0x9F7 JUMP JUMPDEST SWAP2 POP DUP3 PUSH1 0x2 MUL DUP3 OR SWAP1 POP SWAP3 SWAP2 POP POP JUMP JUMPDEST PUSH3 0xA3D DUP3 PUSH3 0x7D7 JUMP JUMPDEST PUSH8 0xFFFFFFFFFFFFFFFF DUP2 GT ISZERO PUSH3 0xA59 JUMPI PUSH3 0xA58 PUSH3 0x7E1 JUMP JUMPDEST JUMPDEST PUSH3 0xA65 DUP3 SLOAD PUSH3 0x83B JUMP JUMPDEST PUSH3 0xA72 DUP3 DUP3 DUP6 PUSH3 0x99B JUMP JUMPDEST PUSH0 PUSH1 0x20 SWAP1 POP PUSH1 0x1F DUP4 GT PUSH1 0x1 DUP2 EQ PUSH3 0xAA8 JUMPI PUSH0 DUP5 ISZERO PUSH3 0xA93 JUMPI DUP3 DUP8 ADD MLOAD SWAP1 POP JUMPDEST PUSH3 0xA9F DUP6 DUP3 PUSH3 0xA15 JUMP JUMPDEST DUP7 SSTORE POP PUSH3 0xB0E JUMP JUMPDEST PUSH1 0x1F NOT DUP5 AND PUSH3 0xAB8 DUP7 PUSH3 0x86F JUMP JUMPDEST PUSH0 JUMPDEST DUP3 DUP2 LT ISZERO PUSH3 0xAE1 JUMPI DUP5 DUP10 ADD MLOAD DUP3 SSTORE PUSH1 0x1 DUP3 ADD SWAP2 POP PUSH1 0x20 DUP6 ADD SWAP5 POP PUSH1 0x20 DUP2 ADD SWAP1 POP PUSH3 0xABA JUMP JUMPDEST DUP7 DUP4 LT ISZERO PUSH3 0xB01 JUMPI DUP5 DUP10 ADD MLOAD PUSH3 0xAFD PUSH1 0x1F DUP10 AND DUP3 PUSH3 0x9F7 JUMP JUMPDEST DUP4 SSTORE POP JUMPDEST PUSH1 0x1 PUSH1 0x2 DUP9 MUL ADD DUP9 SSTORE POP POP POP JUMPDEST POP POP POP POP POP POP JUMP JUMPDEST PUSH0 DUP2 SWAP1 POP SWAP2 SWAP1 POP JUMP JUMPDEST PUSH0 PUSH3 0xB3F PUSH3 0xB39 PUSH3 0xB33 DUP5 PUSH3 0xB16 JUMP JUMPDEST PUSH3 0x8F1 JUMP JUMPDEST PUSH3 0x734 JUMP JUMPDEST SWAP1 POP SWAP2 SWAP1 POP JUMP JUMPDEST PUSH3 0xB51 DUP2 PUSH3 0xB1F JUMP JUMPDEST DUP3 MSTORE POP POP JUMP JUMPDEST PUSH0 PUSH1 0x20 DUP3 ADD SWAP1 POP PUSH3 0xB6C PUSH0 DUP4 ADD DUP5 PUSH3 0xB46 JUMP JUMPDEST SWAP3 SWAP2 POP POP JUMP JUMPDEST PUSH0 PUSH20 0xFFFFFFFFFFFFFFFFFFFFFFFFFFFFFFFFFFFFFFFF DUP3 AND SWAP1 POP SWAP2 SWAP1 POP JUMP JUMPDEST PUSH0 PUSH3 0xB9D DUP3 PUSH3 0xB72 JUMP JUMPDEST SWAP1 POP SWAP2 SWAP1 POP JUMP JUMPDEST PUSH3 0xBAF DUP2 PUSH3 0xB91 JUMP JUMPDEST DUP3 MSTORE POP POP JUMP JUMPDEST PUSH0 PUSH1 0x20 DUP3 ADD SWAP1 POP PUSH3 0xBCA PUSH0 DUP4 ADD DUP5 PUSH3 0xBA4 JUMP JUMPDEST SWAP3 SWAP2 POP POP JUMP JUMPDEST PUSH3 0xBDB DUP2 PUSH3 0x734 JUMP JUMPDEST DUP3 MSTORE POP POP JUMP JUMPDEST PUSH0 PUSH1 0x40 DUP3 ADD SWAP1 POP PUSH3 0xBF6 PUSH0 DUP4 ADD DUP6 PUSH3 0xBD0 JUMP JUMPDEST PUSH3 0xC05 PUSH1 0x20 DUP4 ADD DUP5 PUSH3 0xBD0 JUMP JUMPDEST SWAP4 SWAP3 POP POP POP JUMP JUMPDEST PUSH0 PUSH3 0xC18 DUP3 PUSH3 0x734 JUMP JUMPDEST SWAP2 POP PUSH3 0xC25 DUP4 PUSH3 0x734 JUMP JUMPDEST SWAP3 POP DUP3 DUP3 ADD SWAP1 POP DUP1 DUP3 GT ISZERO PUSH3 0xC40 JUMPI PUSH3 0xC3F PUSH3 0x5B7 JUMP JUMPDEST JUMPDEST SWAP3 SWAP2 POP POP JUMP JUMPDEST PUSH0 PUSH1 0x60 DUP3 ADD SWAP1 POP PUSH3 0xC5B PUSH0 DUP4 ADD DUP7 PUSH3 0xBA4 JUMP JUMPDEST PUSH3 0xC6A PUSH1 0x20 DUP4 ADD DUP6 PUSH3 0xBD0 JUMP JUMPDEST PUSH3 0xC79 PUSH1 0x40 DUP4 ADD DUP5 PUSH3 0xBD0 JUMP JUMPDEST SWAP5 SWAP4 POP POP POP POP JUMP JUMPDEST PUSH0 PUSH1 0x20 DUP3 ADD SWAP1 POP PUSH3 0xC96 PUSH0 DUP4 ADD DUP5 PUSH3 0xBD0 JUMP JUMPDEST SWAP3 SWAP2 POP POP JUMP JUMPDEST PUSH1 0x80 MLOAD PUSH2 0x1C5C PUSH3 0xCB5 PUSH0 CODECOPY PUSH0 PUSH2 0x55D ADD MSTORE PUSH2 0x1C5C PUSH0 RETURN INVALID PUSH1 0x80 PUSH1 0x40 MSTORE PUSH1 0x4 CALLDATASIZE LT PUSH2 0x108 JUMPI PUSH0 CALLDATALOAD PUSH1 0xE0 SHR DUP1 PUSH4 0x6A73BF53 GT PUSH2 0x94 JUMPI DUP1 PUSH4 0xA9059CBB GT PUSH2 0x63 JUMPI DUP1 PUSH4 0xA9059CBB EQ PUSH2 0x352 JUMPI DUP1 PUSH4 0xC0E3DAF5 EQ PUSH2 0x38E JUMPI DUP1 PUSH4 0xCE606EE0 EQ PUSH2 0x3B8 JUMPI DUP1 PUSH4 0xDD62ED3E EQ PUSH2 0x3E2 JUMPI DUP1 PUSH4 0xEA6ECB08 EQ PUSH2 0x41E JUMPI PUSH2 0x108 JUMP JUMPDEST DUP1 PUSH4 0x6A73BF53 EQ PUSH2 0x2A8 JUMPI DUP1 PUSH4 0x70A08231 EQ PUSH2 0x2D0 JUMPI DUP1 PUSH4 0x8A20D00C EQ PUSH2 0x30C JUMPI DUP1 PUSH4 0x95D89B41 EQ PUSH2 0x328 JUMPI PUSH2 0x108 JUMP JUMPDEST DUP1 PUSH4 0x23B872DD GT PUSH2 0xDB JUMPI DUP1 PUSH4 0x23B872DD EQ PUSH2 0x1D8 JUMPI DUP1 PUSH4 0x2BC67DA0 EQ PUSH2 0x214 JUMPI DUP1 PUSH4 0x313CE567 EQ PUSH2 0x23E JUMPI DUP1 PUSH4 0x355274EA EQ PUSH2 0x268 JUMPI DUP1 PUSH4 0x655AB927 EQ PUSH2 0x292 JUMPI PUSH2 0x108 JUMP JUMPDEST DUP1 PUSH4 0x6FDDE03 EQ PUSH2 0x10C JUMPI DUP1 PUSH4 0x95EA7B3 EQ PUSH2 0x136 JUMPI DUP1 PUSH4 0x18160DDD EQ PUSH2 0x172 JUMPI DUP1 PUSH4 0x23100F36 EQ PUSH2 0x19C JUMPI JUMPDEST PUSH0 DUP1 REVERT JUMPDEST CALLVALUE DUP1 ISZERO PUSH2 0x117 JUMPI PUSH0 DUP1 REVERT JUMPDEST POP PUSH2 0x120 PUSH2 0x448 JUMP JUMPDEST PUSH1 0x40 MLOAD PUSH2 0x12D SWAP2 SWAP1 PUSH2 0x12E3 JUMP JUMPDEST PUSH1 0x40 MLOAD DUP1 SWAP2 SUB SWAP1 RETURN JUMPDEST CALLVALUE DUP1 ISZERO PUSH2 0x141 JUMPI PUSH0 DUP1 REVERT JUMPDEST POP PUSH2 0x15C PUSH1 0x4 DUP1 CALLDATASIZE SUB DUP2 ADD SWAP1 PUSH2 0x157 SWAP2 SWAP1 PUSH2 0x1394 JUMP JUMPDEST PUSH2 0x4D8 JUMP JUMPDEST PUSH1 0x40 MLOAD PUSH2 0x169 SWAP2 SWAP1 PUSH2 0x13EC JUMP JUMPDEST PUSH1 0x40 MLOAD DUP1 SWAP2 SUB SWAP1 RETURN JUMPDEST CALLVALUE DUP1 ISZERO PUSH2 0x17D JUMPI PUSH0 DUP1 REVERT JUMPDEST POP PUSH2 0x186 PUSH2 0x4FA JUMP JUMPDEST PUSH1 0x40 MLOAD PUSH2 0x193 SWAP2 SWAP1 PUSH2 0x1414 JUMP JUMPDEST PUSH1 0x40 MLOAD DUP1 SWAP2 SUB SWAP1 RETURN JUMPDEST CALLVALUE DUP1 ISZERO PUSH2 0x1A7 JUMPI PUSH0 DUP1 REVERT JUMPDEST POP PUSH2 0x1C2 PUSH1 0x4 DUP1 CALLDATASIZE SUB DUP2 ADD SWAP1 PUSH2 0x1BD SWAP2 SWAP1 PUSH2 0x142D JUMP JUMPDEST PUSH2 0x503 JUMP JUMPDEST PUSH1 0x40 MLOAD PUSH2 0x1CF SWAP2 SWAP1 PUSH2 0x1414 JUMP JUMPDEST PUSH1 0x40 MLOAD DUP1 SWAP2 SUB SWAP1 RETURN JUMPDEST CALLVALUE DUP1 ISZERO PUSH2 0x1E3 JUMPI PUSH0 DUP1 REVERT JUMPDEST POP PUSH2 0x1FE PUSH1 0x4 DUP1 CALLDATASIZE SUB DUP2 ADD SWAP1 PUSH2 0x1F9 SWAP2 SWAP1 PUSH2 0x1458 JUMP JUMPDEST PUSH2 0x51E JUMP JUMPDEST PUSH1 0x40 MLOAD PUSH2 0x20B SWAP2 SWAP1 PUSH2 0x13EC JUMP JUMPDEST PUSH1 0x40 MLOAD DUP1 SWAP2 SUB SWAP1 RETURN JUMPDEST CALLVALUE DUP1 ISZERO PUSH2 0x21F JUMPI PUSH0 DUP1 REVERT JUMPDEST POP PUSH2 0x228 PUSH2 0x54C JUMP JUMPDEST PUSH1 0x40 MLOAD PUSH2 0x235 SWAP2 SWAP1 PUSH2 0x1414 JUMP JUMPDEST PUSH1 0x40 MLOAD DUP1 SWAP2 SUB SWAP1 RETURN JUMPDEST CALLVALUE DUP1 ISZERO PUSH2 0x249 JUMPI PUSH0 DUP1 REVERT JUMPDEST POP PUSH2 0x252 PUSH2 0x552 JUMP JUMPDEST PUSH1 0x40 MLOAD PUSH2 0x25F SWAP2 SWAP1 PUSH2 0x14C3 JUMP JUMPDEST PUSH1 0x40 MLOAD DUP1 SWAP2 SUB SWAP1 RETURN JUMPDEST CALLVALUE DUP1 ISZERO PUSH2 0x273 JUMPI PUSH0 DUP1 REVERT JUMPDEST POP PUSH2 0x27C PUSH2 0x55A JUMP JUMPDEST PUSH1 0x40 MLOAD PUSH2 0x289 SWAP2 SWAP1 PUSH2 0x1414 JUMP JUMPDEST PUSH1 0x40 MLOAD DUP1 SWAP2 SUB SWAP1 RETURN JUMPDEST CALLVALUE DUP1 ISZERO PUSH2 0x29D JUMPI PUSH0 DUP1 REVERT JUMPDEST POP PUSH2 0x2A6 PUSH2 0x581 JUMP JUMPDEST STOP JUMPDEST CALLVALUE DUP1 ISZERO PUSH2 0x2B3 JUMPI PUSH0 DUP1 REVERT JUMPDEST POP PUSH2 0x2CE PUSH1 0x4 DUP1 CALLDATASIZE SUB DUP2 ADD SWAP1 PUSH2 0x2C9 SWAP2 SWAP1 PUSH2 0x142D JUMP JUMPDEST PUSH2 0x6B5 JUMP JUMPDEST STOP JUMPDEST CALLVALUE DUP1 ISZERO PUSH2 0x2DB JUMPI PUSH0 DUP1 REVERT JUMPDEST POP PUSH2 0x2F6 PUSH1 0x4 DUP1 CALLDATASIZE SUB DUP2 ADD SWAP1 PUSH2 0x2F1 SWAP2 SWAP1 PUSH2 0x14DC JUMP JUMPDEST PUSH2 0x790 JUMP JUMPDEST PUSH1 0x40 MLOAD PUSH2 0x303 SWAP2 SWAP1 PUSH2 0x1414 JUMP JUMPDEST PUSH1 0x40 MLOAD DUP1 SWAP2 SUB SWAP1 RETURN JUMPDEST PUSH2 0x326 PUSH1 0x4 DUP1 CALLDATASIZE SUB DUP2 ADD SWAP1 PUSH2 0x321 SWAP2 SWAP1 PUSH2 0x142D JUMP JUMPDEST PUSH2 0x7D5 JUMP JUMPDEST STOP JUMPDEST CALLVALUE DUP1 ISZERO PUSH2 0x333 JUMPI PUSH0 DUP1 REVERT JUMPDEST POP PUSH2 0x33C PUSH2 0x98F JUMP JUMPDEST PUSH1 0x40 MLOAD PUSH2 0x349 SWAP2 SWAP1 PUSH2 0x12E3 JUMP JUMPDEST PUSH1 0x40 MLOAD DUP1 SWAP2 SUB SWAP1 RETURN JUMPDEST CALLVALUE DUP1 ISZERO PUSH2 0x35D JUMPI PUSH0 DUP1 REVERT JUMPDEST POP PUSH2 0x378 PUSH1 0x4 DUP1 CALLDATASIZE SUB DUP2 ADD SWAP1 PUSH2 0x373 SWAP2 SWAP1 PUSH2 0x1394 JUMP JUMPDEST PUSH2 0xA1F JUMP JUMPDEST PUSH1 0x40 MLOAD PUSH2 0x385 SWAP2 SWAP1 PUSH2 0x13EC JUMP JUMPDEST PUSH1 0x40 MLOAD DUP1 SWAP2 SUB SWAP1 RETURN JUMPDEST CALLVALUE DUP1 ISZERO PUSH2 0x399 JUMPI PUSH0 DUP1 REVERT JUMPDEST POP PUSH2 0x3A2 PUSH2 0xA41 JUMP JUMPDEST PUSH1 0x40 MLOAD PUSH2 0x3AF SWAP2 SWAP1 PUSH2 0x1414 JUMP JUMPDEST PUSH1 0x40 MLOAD DUP1 SWAP2 SUB SWAP1 RETURN JUMPDEST CALLVALUE DUP1 ISZERO PUSH2 0x3C3 JUMPI PUSH0 DUP1 REVERT JUMPDEST POP PUSH2 0x3CC PUSH2 0xA62 JUMP JUMPDEST PUSH1 0x40 MLOAD PUSH2 0x3D9 SWAP2 SWAP1 PUSH2 0x1516 JUMP JUMPDEST PUSH1 0x40 MLOAD DUP1 SWAP2 SUB SWAP1 RETURN JUMPDEST CALLVALUE DUP1 ISZERO PUSH2 0x3ED JUMPI PUSH0 DUP1 REVERT JUMPDEST POP PUSH2 0x408 PUSH1 0x4 DUP1 CALLDATASIZE SUB DUP2 ADD SWAP1 PUSH2 0x403 SWAP2 SWAP1 PUSH2 0x152F JUMP JUMPDEST PUSH2 0xA87 JUMP JUMPDEST PUSH1 0x40 MLOAD PUSH2 0x415 SWAP2 SWAP1 PUSH2 0x1414 JUMP JUMPDEST PUSH1 0x40 MLOAD DUP1 SWAP2 SUB SWAP1 RETURN JUMPDEST CALLVALUE DUP1 ISZERO PUSH2 0x429 JUMPI PUSH0 DUP1 REVERT JUMPDEST POP PUSH2 0x432 PUSH2 0xB09 JUMP JUMPDEST PUSH1 0x40 MLOAD PUSH2 0x43F SWAP2 SWAP1 PUSH2 0x1585 JUMP JUMPDEST PUSH1 0x40 MLOAD DUP1 SWAP2 SUB SWAP1 RETURN JUMPDEST PUSH1 0x60 PUSH1 0x3 DUP1 SLOAD PUSH2 0x457 SWAP1 PUSH2 0x15CB JUMP JUMPDEST DUP1 PUSH1 0x1F ADD PUSH1 0x20 DUP1 SWAP2 DIV MUL PUSH1 0x20 ADD PUSH1 0x40 MLOAD SWAP1 DUP2 ADD PUSH1 0x40 MSTORE DUP1 SWAP3 SWAP2 SWAP1 DUP2 DUP2 MSTORE PUSH1 0x20 ADD DUP3 DUP1 SLOAD PUSH2 0x483 SWAP1 PUSH2 0x15CB JUMP JUMPDEST DUP1 ISZERO PUSH2 0x4CE JUMPI DUP1 PUSH1 0x1F LT PUSH2 0x4A5 JUMPI PUSH2 0x100 DUP1 DUP4 SLOAD DIV MUL DUP4 MSTORE SWAP2 PUSH1 0x20 ADD SWAP2 PUSH2 0x4CE JUMP JUMPDEST DUP3 ADD SWAP2 SWAP1 PUSH0 MSTORE PUSH1 0x20 PUSH0 KECCAK256 SWAP1 JUMPDEST DUP2 SLOAD DUP2 MSTORE SWAP1 PUSH1 0x1 ADD SWAP1 PUSH1 0x20 ADD DUP1 DUP4 GT PUSH2 0x4B1 JUMPI DUP3 SWAP1 SUB PUSH1 0x1F AND DUP3 ADD SWAP2 JUMPDEST POP POP POP POP POP SWAP1 POP SWAP1 JUMP JUMPDEST PUSH0 DUP1 PUSH2 0x4E2 PUSH2 0xBB4 JUMP JUMPDEST SWAP1 POP PUSH2 0x4EF DUP2 DUP6 DUP6 PUSH2 0xBBB JUMP JUMPDEST PUSH1 0x1 SWAP2 POP POP SWAP3 SWAP2 POP POP JUMP JUMPDEST PUSH0 PUSH1 0x2 SLOAD SWAP1 POP SWAP1 JUMP JUMPDEST PUSH0 PUSH2 0x50C PUSH2 0xA41 JUMP JUMPDEST DUP3 PUSH2 0x517 SWAP2 SWAP1 PUSH2 0x1628 JUMP JUMPDEST SWAP1 POP SWAP2 SWAP1 POP JUMP JUMPDEST PUSH0 DUP1 PUSH2 0x528 PUSH2 0xBB4 JUMP JUMPDEST SWAP1 POP PUSH2 0x535 DUP6 DUP3 DUP6 PUSH2 0xBCD JUMP JUMPDEST PUSH2 0x540 DUP6 DUP6 DUP6 PUSH2 0xC5F JUMP JUMPDEST PUSH1 0x1 SWAP2 POP POP SWAP4 SWAP3 POP POP POP JUMP JUMPDEST PUSH1 0x8 SLOAD DUP2 JUMP JUMPDEST PUSH0 PUSH1 0x12 SWAP1 POP SWAP1 JUMP JUMPDEST PUSH0 PUSH32 0x0 SWAP1 POP SWAP1 JUMP JUMPDEST PUSH1 0x6 PUSH0 SWAP1 SLOAD SWAP1 PUSH2 0x100 EXP SWAP1 DIV PUSH20 0xFFFFFFFFFFFFFFFFFFFFFFFFFFFFFFFFFFFFFFFF AND PUSH20 0xFFFFFFFFFFFFFFFFFFFFFFFFFFFFFFFFFFFFFFFF AND CALLER PUSH20 0xFFFFFFFFFFFFFFFFFFFFFFFFFFFFFFFFFFFFFFFF AND EQ PUSH2 0x610 JUMPI PUSH1 0x40 MLOAD PUSH32 0x8C379A000000000000000000000000000000000000000000000000000000000 DUP2 MSTORE PUSH1 0x4 ADD PUSH2 0x607 SWAP1 PUSH2 0x16B3 JUMP JUMPDEST PUSH1 0x40 MLOAD DUP1 SWAP2 SUB SWAP1 REVERT JUMPDEST PUSH0 SELFBALANCE SWAP1 POP PUSH1 0x6 PUSH0 SWAP1 SLOAD SWAP1 PUSH2 0x100 EXP SWAP1 DIV PUSH20 0xFFFFFFFFFFFFFFFFFFFFFFFFFFFFFFFFFFFFFFFF AND PUSH20 0xFFFFFFFFFFFFFFFFFFFFFFFFFFFFFFFFFFFFFFFF AND PUSH2 0x8FC DUP3 SWAP1 DUP2 ISZERO MUL SWAP1 PUSH1 0x40 MLOAD PUSH0 PUSH1 0x40 MLOAD DUP1 DUP4 SUB DUP2 DUP6 DUP9 DUP9 CALL SWAP4 POP POP POP POP ISZERO DUP1 ISZERO PUSH2 0x678 JUMPI RETURNDATASIZE PUSH0 DUP1 RETURNDATACOPY RETURNDATASIZE PUSH0 REVERT JUMPDEST POP PUSH32 0xF39EDBEB800007582021719F876F29EB42AA5171248E3DF79A3BF120A4E91416 DUP2 TIMESTAMP PUSH1 0x40 MLOAD PUSH2 0x6AA SWAP3 SWAP2 SWAP1 PUSH2 0x16D1 JUMP JUMPDEST PUSH1 0x40 MLOAD DUP1 SWAP2 SUB SWAP1 LOG1 POP JUMP JUMPDEST PUSH1 0x6 PUSH0 SWAP1 SLOAD SWAP1 PUSH2 0x100 EXP SWAP1 DIV PUSH20 0xFFFFFFFFFFFFFFFFFFFFFFFFFFFFFFFFFFFFFFFF AND PUSH20 0xFFFFFFFFFFFFFFFFFFFFFFFFFFFFFFFFFFFFFFFF AND CALLER PUSH20 0xFFFFFFFFFFFFFFFFFFFFFFFFFFFFFFFFFFFFFFFF AND EQ PUSH2 0x744 JUMPI PUSH1 0x40 MLOAD PUSH32 0x8C379A000000000000000000000000000000000000000000000000000000000 DUP2 MSTORE PUSH1 0x4 ADD PUSH2 0x73B SWAP1 PUSH2 0x16B3 JUMP JUMPDEST PUSH1 0x40 MLOAD DUP1 SWAP2 SUB SWAP1 REVERT JUMPDEST PUSH0 PUSH1 0x8 SLOAD SWAP1 POP DUP2 PUSH1 0x8 DUP2 SWAP1 SSTORE POP PUSH32 0x4C2D858A88357E20C1B14C12B9674497934A744BB8118D4D3F2DCE8DED4989BE DUP2 DUP4 TIMESTAMP PUSH1 0x40 MLOAD PUSH2 0x784 SWAP4 SWAP3 SWAP2 SWAP1 PUSH2 0x16F8 JUMP JUMPDEST PUSH1 0x40 MLOAD DUP1 SWAP2 SUB SWAP1 LOG1 POP POP JUMP JUMPDEST PUSH0 DUP1 PUSH0 DUP4 PUSH20 0xFFFFFFFFFFFFFFFFFFFFFFFFFFFFFFFFFFFFFFFF AND PUSH20 0xFFFFFFFFFFFFFFFFFFFFFFFFFFFFFFFFFFFFFFFF AND DUP2 MSTORE PUSH1 0x20 ADD SWAP1 DUP2 MSTORE PUSH1 0x20 ADD PUSH0 KECCAK256 SLOAD SWAP1 POP SWAP2 SWAP1 POP JUMP JUMPDEST PUSH2 0x7DE DUP2 PUSH2 0x503 JUMP JUMPDEST CALLVALUE LT ISZERO PUSH2 0x820 JUMPI PUSH1 0x40 MLOAD PUSH32 0x8C379A000000000000000000000000000000000000000000000000000000000 DUP2 MSTORE PUSH1 0x4 ADD PUSH2 0x817 SWAP1 PUSH2 0x179D JUMP JUMPDEST PUSH1 0x40 MLOAD DUP1 SWAP2 SUB SWAP1 REVERT JUMPDEST PUSH0 PUSH2 0x829 PUSH2 0xA41 JUMP JUMPDEST PUSH2 0x831 PUSH2 0x552 JUMP JUMPDEST PUSH1 0xFF AND PUSH1 0xA PUSH2 0x840 SWAP2 SWAP1 PUSH2 0x18EA JUMP JUMPDEST CALLVALUE PUSH2 0x84B SWAP2 SWAP1 PUSH2 0x1628 JUMP JUMPDEST PUSH2 0x855 SWAP2 SWAP1 PUSH2 0x1961 JUMP JUMPDEST SWAP1 POP PUSH1 0x6 PUSH0 SWAP1 SLOAD SWAP1 PUSH2 0x100 EXP SWAP1 DIV PUSH20 0xFFFFFFFFFFFFFFFFFFFFFFFFFFFFFFFFFFFFFFFF AND PUSH20 0xFFFFFFFFFFFFFFFFFFFFFFFFFFFFFFFFFFFFFFFF AND CALLER PUSH20 0xFFFFFFFFFFFFFFFFFFFFFFFFFFFFFFFFFFFFFFFF AND EQ PUSH2 0x925 JUMPI PUSH2 0x8B3 PUSH2 0x552 JUMP JUMPDEST PUSH1 0xFF AND PUSH1 0xA PUSH2 0x8C2 SWAP2 SWAP1 PUSH2 0x18EA JUMP JUMPDEST PUSH1 0x8 SLOAD PUSH2 0x8CF SWAP2 SWAP1 PUSH2 0x1628 JUMP JUMPDEST DUP2 PUSH2 0x8D9 CALLER PUSH2 0x790 JUMP JUMPDEST PUSH2 0x8E3 SWAP2 SWAP1 PUSH2 0x1991 JUMP JUMPDEST GT ISZERO PUSH2 0x924 JUMPI PUSH1 0x40 MLOAD PUSH32 0x8C379A000000000000000000000000000000000000000000000000000000000 DUP2 MSTORE PUSH1 0x4 ADD PUSH2 0x91B SWAP1 PUSH2 0x1A34 JUMP JUMPDEST PUSH1 0x40 MLOAD DUP1 SWAP2 SUB SWAP1 REVERT JUMPDEST JUMPDEST PUSH2 0x92F CALLER DUP3 PUSH2 0xD4F JUMP JUMPDEST CALLER PUSH20 0xFFFFFFFFFFFFFFFFFFFFFFFFFFFFFFFFFFFFFFFF AND PUSH32 0x34987D73948B60CFBA9BEEB35760C345A3BE430F3540605113911EAD78A0830E DUP3 CALLVALUE TIMESTAMP PUSH2 0x973 CALLER PUSH2 0x790 JUMP JUMPDEST PUSH1 0x40 MLOAD PUSH2 0x983 SWAP5 SWAP4 SWAP3 SWAP2 SWAP1 PUSH2 0x1A52 JUMP JUMPDEST PUSH1 0x40 MLOAD DUP1 SWAP2 SUB SWAP1 LOG2 POP POP JUMP JUMPDEST PUSH1 0x60 PUSH1 0x4 DUP1 SLOAD PUSH2 0x99E SWAP1 PUSH2 0x15CB JUMP JUMPDEST DUP1 PUSH1 0x1F ADD PUSH1 0x20 DUP1 SWAP2 DIV MUL PUSH1 0x20 ADD PUSH1 0x40 MLOAD SWAP1 DUP2 ADD PUSH1 0x40 MSTORE DUP1 SWAP3 SWAP2 SWAP1 DUP2 DUP2 MSTORE PUSH1 0x20 ADD DUP3 DUP1 SLOAD PUSH2 0x9CA SWAP1 PUSH2 0x15CB JUMP JUMPDEST DUP1 ISZERO PUSH2 0xA15 JUMPI DUP1 PUSH1 0x1F LT PUSH2 0x9EC JUMPI PUSH2 0x100 DUP1 DUP4 SLOAD DIV MUL DUP4 MSTORE SWAP2 PUSH1 0x20 ADD SWAP2 PUSH2 0xA15 JUMP JUMPDEST DUP3 ADD SWAP2 SWAP1 PUSH0 MSTORE PUSH1 0x20 PUSH0 KECCAK256 SWAP1 JUMPDEST DUP2 SLOAD DUP2 MSTORE SWAP1 PUSH1 0x1 ADD SWAP1 PUSH1 0x20 ADD DUP1 DUP4 GT PUSH2 0x9F8 JUMPI DUP3 SWAP1 SUB PUSH1 0x1F AND DUP3 ADD SWAP2 JUMPDEST POP POP POP POP POP SWAP1 POP SWAP1 JUMP JUMPDEST PUSH0 DUP1 PUSH2 0xA29 PUSH2 0xBB4 JUMP JUMPDEST SWAP1 POP PUSH2 0xA36 DUP2 DUP6 DUP6 PUSH2 0xC5F JUMP JUMPDEST PUSH1 0x1 SWAP2 POP POP SWAP3 SWAP2 POP POP JUMP JUMPDEST PUSH0 PUSH2 0xA4A PUSH2 0xB09 JUMP JUMPDEST PUSH8 0x1BC16D674EC80000 PUSH2 0xA5D SWAP2 SWAP1 PUSH2 0x1961 JUMP JUMPDEST SWAP1 POP SWAP1 JUMP JUMPDEST PUSH1 0x6 PUSH0 SWAP1 SLOAD SWAP1 PUSH2 0x100 EXP SWAP1 DIV PUSH20 0xFFFFFFFFFFFFFFFFFFFFFFFFFFFFFFFFFFFFFFFF AND DUP2 JUMP JUMPDEST PUSH0 PUSH1 0x1 PUSH0 DUP5 PUSH20 0xFFFFFFFFFFFFFFFFFFFFFFFFFFFFFFFFFFFFFFFF AND PUSH20 0xFFFFFFFFFFFFFFFFFFFFFFFFFFFFFFFFFFFFFFFF AND DUP2 MSTORE PUSH1 0x20 ADD SWAP1 DUP2 MSTORE PUSH1 0x20 ADD PUSH0 KECCAK256 PUSH0 DUP4 PUSH20 0xFFFFFFFFFFFFFFFFFFFFFFFFFFFFFFFFFFFFFFFF AND PUSH20 0xFFFFFFFFFFFFFFFFFFFFFFFFFFFFFFFFFFFFFFFF AND DUP2 MSTORE PUSH1 0x20 ADD SWAP1 DUP2 MSTORE PUSH1 0x20 ADD PUSH0 KECCAK256 SLOAD SWAP1 POP SWAP3 SWAP2 POP POP JUMP JUMPDEST PUSH0 DUP1 PUSH1 0x5 PUSH0 SWAP1 SLOAD SWAP1 PUSH2 0x100 EXP SWAP1 DIV PUSH20 0xFFFFFFFFFFFFFFFFFFFFFFFFFFFFFFFFFFFFFFFF AND PUSH20 0xFFFFFFFFFFFFFFFFFFFFFFFFFFFFFFFFFFFFFFFF AND PUSH4 0xFEAF968C PUSH1 0x40 MLOAD DUP2 PUSH4 0xFFFFFFFF AND PUSH1 0xE0 SHL DUP2 MSTORE PUSH1 0x4 ADD PUSH1 0xA0 PUSH1 0x40 MLOAD DUP1 DUP4 SUB DUP2 DUP7 GAS STATICCALL ISZERO DUP1 ISZERO PUSH2 0xB75 JUMPI RETURNDATASIZE PUSH0 DUP1 RETURNDATACOPY RETURNDATASIZE PUSH0 REVERT JUMPDEST POP POP POP POP PUSH1 0x40 MLOAD RETURNDATASIZE PUSH1 0x1F NOT PUSH1 0x1F DUP3 ADD AND DUP3 ADD DUP1 PUSH1 0x40 MSTORE POP DUP2 ADD SWAP1 PUSH2 0xB99 SWAP2 SWAP1 PUSH2 0x1B12 JUMP JUMPDEST POP POP POP SWAP2 POP POP PUSH3 0xF4240 DUP2 PUSH2 0xBAE SWAP2 SWAP1 PUSH2 0x1B89 JUMP JUMPDEST SWAP2 POP POP SWAP1 JUMP JUMPDEST PUSH0 CALLER SWAP1 POP SWAP1 JUMP JUMPDEST PUSH2 0xBC8 DUP4 DUP4 DUP4 PUSH1 0x1 PUSH2 0xDCE JUMP JUMPDEST POP POP POP JUMP JUMPDEST PUSH0 PUSH2 0xBD8 DUP5 DUP5 PUSH2 0xA87 JUMP JUMPDEST SWAP1 POP PUSH32 0xFFFFFFFFFFFFFFFFFFFFFFFFFFFFFFFFFFFFFFFFFFFFFFFFFFFFFFFFFFFFFFFF DUP2 EQ PUSH2 0xC59 JUMPI DUP2 DUP2 LT ISZERO PUSH2 0xC4A JUMPI DUP3 DUP2 DUP4 PUSH1 0x40 MLOAD PUSH32 0xFB8F41B200000000000000000000000000000000000000000000000000000000 DUP2 MSTORE PUSH1 0x4 ADD PUSH2 0xC41 SWAP4 SWAP3 SWAP2 SWAP1 PUSH2 0x1BF1 JUMP JUMPDEST PUSH1 0x40 MLOAD DUP1 SWAP2 SUB SWAP1 REVERT JUMPDEST PUSH2 0xC58 DUP5 DUP5 DUP5 DUP5 SUB PUSH0 PUSH2 0xDCE JUMP JUMPDEST JUMPDEST POP POP POP POP JUMP JUMPDEST PUSH0 PUSH20 0xFFFFFFFFFFFFFFFFFFFFFFFFFFFFFFFFFFFFFFFF AND DUP4 PUSH20 0xFFFFFFFFFFFFFFFFFFFFFFFFFFFFFFFFFFFFFFFF AND SUB PUSH2 0xCCF JUMPI PUSH0 PUSH1 0x40 MLOAD PUSH32 0x96C6FD1E00000000000000000000000000000000000000000000000000000000 DUP2 MSTORE PUSH1 0x4 ADD PUSH2 0xCC6 SWAP2 SWAP1 PUSH2 0x1516 JUMP JUMPDEST PUSH1 0x40 MLOAD DUP1 SWAP2 SUB SWAP1 REVERT JUMPDEST PUSH0 PUSH20 0xFFFFFFFFFFFFFFFFFFFFFFFFFFFFFFFFFFFFFFFF AND DUP3 PUSH20 0xFFFFFFFFFFFFFFFFFFFFFFFFFFFFFFFFFFFFFFFF AND SUB PUSH2 0xD3F JUMPI PUSH0 PUSH1 0x40 MLOAD PUSH32 0xEC442F0500000000000000000000000000000000000000000000000000000000 DUP2 MSTORE PUSH1 0x4 ADD PUSH2 0xD36 SWAP2 SWAP1 PUSH2 0x1516 JUMP JUMPDEST PUSH1 0x40 MLOAD DUP1 SWAP2 SUB SWAP1 REVERT JUMPDEST PUSH2 0xD4A DUP4 DUP4 DUP4 PUSH2 0xF9D JUMP JUMPDEST POP POP POP JUMP JUMPDEST PUSH0 PUSH20 0xFFFFFFFFFFFFFFFFFFFFFFFFFFFFFFFFFFFFFFFF AND DUP3 PUSH20 0xFFFFFFFFFFFFFFFFFFFFFFFFFFFFFFFFFFFFFFFF AND SUB PUSH2 0xDBF JUMPI PUSH0 PUSH1 0x40 MLOAD PUSH32 0xEC442F0500000000000000000000000000000000000000000000000000000000 DUP2 MSTORE PUSH1 0x4 ADD PUSH2 0xDB6 SWAP2 SWAP1 PUSH2 0x1516 JUMP JUMPDEST PUSH1 0x40 MLOAD DUP1 SWAP2 SUB SWAP1 REVERT JUMPDEST PUSH2 0xDCA PUSH0 DUP4 DUP4 PUSH2 0xF9D JUMP JUMPDEST POP POP JUMP JUMPDEST PUSH0 PUSH20 0xFFFFFFFFFFFFFFFFFFFFFFFFFFFFFFFFFFFFFFFF AND DUP5 PUSH20 0xFFFFFFFFFFFFFFFFFFFFFFFFFFFFFFFFFFFFFFFF AND SUB PUSH2 0xE3E JUMPI PUSH0 PUSH1 0x40 MLOAD PUSH32 0xE602DF0500000000000000000000000000000000000000000000000000000000 DUP2 MSTORE PUSH1 0x4 ADD PUSH2 0xE35 SWAP2 SWAP1 PUSH2 0x1516 JUMP JUMPDEST PUSH1 0x40 MLOAD DUP1 SWAP2 SUB SWAP1 REVERT JUMPDEST PUSH0 PUSH20 0xFFFFFFFFFFFFFFFFFFFFFFFFFFFFFFFFFFFFFFFF AND DUP4 PUSH20 0xFFFFFFFFFFFFFFFFFFFFFFFFFFFFFFFFFFFFFFFF AND SUB PUSH2 0xEAE JUMPI PUSH0 PUSH1 0x40 MLOAD PUSH32 0x94280D6200000000000000000000000000000000000000000000000000000000 DUP2 MSTORE PUSH1 0x4 ADD PUSH2 0xEA5 SWAP2 SWAP1 PUSH2 0x1516 JUMP JUMPDEST PUSH1 0x40 MLOAD DUP1 SWAP2 SUB SWAP1 REVERT JUMPDEST DUP2 PUSH1 0x1 PUSH0 DUP7 PUSH20 0xFFFFFFFFFFFFFFFFFFFFFFFFFFFFFFFFFFFFFFFF AND PUSH20 0xFFFFFFFFFFFFFFFFFFFFFFFFFFFFFFFFFFFFFFFF AND DUP2 MSTORE PUSH1 0x20 ADD SWAP1 DUP2 MSTORE PUSH1 0x20 ADD PUSH0 KECCAK256 PUSH0 DUP6 PUSH20 0xFFFFFFFFFFFFFFFFFFFFFFFFFFFFFFFFFFFFFFFF AND PUSH20 0xFFFFFFFFFFFFFFFFFFFFFFFFFFFFFFFFFFFFFFFF AND DUP2 MSTORE PUSH1 0x20 ADD SWAP1 DUP2 MSTORE PUSH1 0x20 ADD PUSH0 KECCAK256 DUP2 SWAP1 SSTORE POP DUP1 ISZERO PUSH2 0xF97 JUMPI DUP3 PUSH20 0xFFFFFFFFFFFFFFFFFFFFFFFFFFFFFFFFFFFFFFFF AND DUP5 PUSH20 0xFFFFFFFFFFFFFFFFFFFFFFFFFFFFFFFFFFFFFFFF AND PUSH32 0x8C5BE1E5EBEC7D5BD14F71427D1E84F3DD0314C0F7B2291E5B200AC8C7C3B925 DUP5 PUSH1 0x40 MLOAD PUSH2 0xF8E SWAP2 SWAP1 PUSH2 0x1414 JUMP JUMPDEST PUSH1 0x40 MLOAD DUP1 SWAP2 SUB SWAP1 LOG3 JUMPDEST POP POP POP POP JUMP JUMPDEST PUSH2 0xFA8 DUP4 DUP4 DUP4 PUSH2 0x1040 JUMP JUMPDEST PUSH0 PUSH20 0xFFFFFFFFFFFFFFFFFFFFFFFFFFFFFFFFFFFFFFFF AND DUP4 PUSH20 0xFFFFFFFFFFFFFFFFFFFFFFFFFFFFFFFFFFFFFFFF AND SUB PUSH2 0x103B JUMPI PUSH0 PUSH2 0xFE4 PUSH2 0x55A JUMP JUMPDEST SWAP1 POP PUSH0 PUSH2 0xFEF PUSH2 0x4FA JUMP JUMPDEST SWAP1 POP DUP2 DUP2 GT ISZERO PUSH2 0x1038 JUMPI DUP1 DUP3 PUSH1 0x40 MLOAD PUSH32 0x9E79F85400000000000000000000000000000000000000000000000000000000 DUP2 MSTORE PUSH1 0x4 ADD PUSH2 0x102F SWAP3 SWAP2 SWAP1 PUSH2 0x16D1 JUMP JUMPDEST PUSH1 0x40 MLOAD DUP1 SWAP2 SUB SWAP1 REVERT JUMPDEST POP POP JUMPDEST POP POP POP JUMP JUMPDEST PUSH0 PUSH20 0xFFFFFFFFFFFFFFFFFFFFFFFFFFFFFFFFFFFFFFFF AND DUP4 PUSH20 0xFFFFFFFFFFFFFFFFFFFFFFFFFFFFFFFFFFFFFFFF AND SUB PUSH2 0x1090 JUMPI DUP1 PUSH1 0x2 PUSH0 DUP3 DUP3 SLOAD PUSH2 0x1084 SWAP2 SWAP1 PUSH2 0x1991 JUMP JUMPDEST SWAP3 POP POP DUP2 SWAP1 SSTORE POP PUSH2 0x115E JUMP JUMPDEST PUSH0 DUP1 PUSH0 DUP6 PUSH20 0xFFFFFFFFFFFFFFFFFFFFFFFFFFFFFFFFFFFFFFFF AND PUSH20 0xFFFFFFFFFFFFFFFFFFFFFFFFFFFFFFFFFFFFFFFF AND DUP2 MSTORE PUSH1 0x20 ADD SWAP1 DUP2 MSTORE PUSH1 0x20 ADD PUSH0 KECCAK256 SLOAD SWAP1 POP DUP2 DUP2 LT ISZERO PUSH2 0x1119 JUMPI DUP4 DUP2 DUP4 PUSH1 0x40 MLOAD PUSH32 0xE450D38C00000000000000000000000000000000000000000000000000000000 DUP2 MSTORE PUSH1 0x4 ADD PUSH2 0x1110 SWAP4 SWAP3 SWAP2 SWAP1 PUSH2 0x1BF1 JUMP JUMPDEST PUSH1 0x40 MLOAD DUP1 SWAP2 SUB SWAP1 REVERT JUMPDEST DUP2 DUP2 SUB PUSH0 DUP1 DUP7 PUSH20 0xFFFFFFFFFFFFFFFFFFFFFFFFFFFFFFFFFFFFFFFF AND PUSH20 0xFFFFFFFFFFFFFFFFFFFFFFFFFFFFFFFFFFFFFFFF AND DUP2 MSTORE PUSH1 0x20 ADD SWAP1 DUP2 MSTORE PUSH1 0x20 ADD PUSH0 KECCAK256 DUP2 SWAP1 SSTORE POP POP JUMPDEST PUSH0 PUSH20 0xFFFFFFFFFFFFFFFFFFFFFFFFFFFFFFFFFFFFFFFF AND DUP3 PUSH20 0xFFFFFFFFFFFFFFFFFFFFFFFFFFFFFFFFFFFFFFFF AND SUB PUSH2 0x11A5 JUMPI DUP1 PUSH1 0x2 PUSH0 DUP3 DUP3 SLOAD SUB SWAP3 POP POP DUP2 SWAP1 SSTORE POP PUSH2 0x11EF JUMP JUMPDEST DUP1 PUSH0 DUP1 DUP5 PUSH20 0xFFFFFFFFFFFFFFFFFFFFFFFFFFFFFFFFFFFFFFFF AND PUSH20 0xFFFFFFFFFFFFFFFFFFFFFFFFFFFFFFFFFFFFFFFF AND DUP2 MSTORE PUSH1 0x20 ADD SWAP1 DUP2 MSTORE PUSH1 0x20 ADD PUSH0 KECCAK256 PUSH0 DUP3 DUP3 SLOAD ADD SWAP3 POP POP DUP2 SWAP1 SSTORE POP JUMPDEST DUP2 PUSH20 0xFFFFFFFFFFFFFFFFFFFFFFFFFFFFFFFFFFFFFFFF AND DUP4 PUSH20 0xFFFFFFFFFFFFFFFFFFFFFFFFFFFFFFFFFFFFFFFF AND PUSH32 0xDDF252AD1BE2C89B69C2B068FC378DAA952BA7F163C4A11628F55A4DF523B3EF DUP4 PUSH1 0x40 MLOAD PUSH2 0x124C SWAP2 SWAP1 PUSH2 0x1414 JUMP JUMPDEST PUSH1 0x40 MLOAD DUP1 SWAP2 SUB SWAP1 LOG3 POP POP POP JUMP JUMPDEST PUSH0 DUP2 MLOAD SWAP1 POP SWAP2 SWAP1 POP JUMP JUMPDEST PUSH0 DUP3 DUP3 MSTORE PUSH1 0x20 DUP3 ADD SWAP1 POP SWAP3 SWAP2 POP POP JUMP JUMPDEST PUSH0 JUMPDEST DUP4 DUP2 LT ISZERO PUSH2 0x1290 JUMPI DUP1 DUP3 ADD MLOAD DUP2 DUP5 ADD MSTORE PUSH1 0x20 DUP2 ADD SWAP1 POP PUSH2 0x1275 JUMP JUMPDEST PUSH0 DUP5 DUP5 ADD MSTORE POP POP POP POP JUMP JUMPDEST PUSH0 PUSH1 0x1F NOT PUSH1 0x1F DUP4 ADD AND SWAP1 POP SWAP2 SWAP1 POP JUMP JUMPDEST PUSH0 PUSH2 0x12B5 DUP3 PUSH2 0x1259 JUMP JUMPDEST PUSH2 0x12BF DUP2 DUP6 PUSH2 0x1263 JUMP JUMPDEST SWAP4 POP PUSH2 0x12CF DUP2 DUP6 PUSH1 0x20 DUP7 ADD PUSH2 0x1273 JUMP JUMPDEST PUSH2 0x12D8 DUP2 PUSH2 0x129B JUMP JUMPDEST DUP5 ADD SWAP2 POP POP SWAP3 SWAP2 POP POP JUMP JUMPDEST PUSH0 PUSH1 0x20 DUP3 ADD SWAP1 POP DUP2 DUP2 SUB PUSH0 DUP4 ADD MSTORE PUSH2 0x12FB DUP2 DUP5 PUSH2 0x12AB JUMP JUMPDEST SWAP1 POP SWAP3 SWAP2 POP POP JUMP JUMPDEST PUSH0 DUP1 REVERT JUMPDEST PUSH0 PUSH20 0xFFFFFFFFFFFFFFFFFFFFFFFFFFFFFFFFFFFFFFFF DUP3 AND SWAP1 POP SWAP2 SWAP1 POP JUMP JUMPDEST PUSH0 PUSH2 0x1330 DUP3 PUSH2 0x1307 JUMP JUMPDEST SWAP1 POP SWAP2 SWAP1 POP JUMP JUMPDEST PUSH2 0x1340 DUP2 PUSH2 0x1326 JUMP JUMPDEST DUP2 EQ PUSH2 0x134A JUMPI PUSH0 DUP1 REVERT JUMPDEST POP JUMP JUMPDEST PUSH0 DUP2 CALLDATALOAD SWAP1 POP PUSH2 0x135B DUP2 PUSH2 0x1337 JUMP JUMPDEST SWAP3 SWAP2 POP POP JUMP JUMPDEST PUSH0 DUP2 SWAP1 POP SWAP2 SWAP1 POP JUMP JUMPDEST PUSH2 0x1373 DUP2 PUSH2 0x1361 JUMP JUMPDEST DUP2 EQ PUSH2 0x137D JUMPI PUSH0 DUP1 REVERT JUMPDEST POP JUMP JUMPDEST PUSH0 DUP2 CALLDATALOAD SWAP1 POP PUSH2 0x138E DUP2 PUSH2 0x136A JUMP JUMPDEST SWAP3 SWAP2 POP POP JUMP JUMPDEST PUSH0 DUP1 PUSH1 0x40 DUP4 DUP6 SUB SLT ISZERO PUSH2 0x13AA JUMPI PUSH2 0x13A9 PUSH2 0x1303 JUMP JUMPDEST JUMPDEST PUSH0 PUSH2 0x13B7 DUP6 DUP3 DUP7 ADD PUSH2 0x134D JUMP JUMPDEST SWAP3 POP POP PUSH1 0x20 PUSH2 0x13C8 DUP6 DUP3 DUP7 ADD PUSH2 0x1380 JUMP JUMPDEST SWAP2 POP POP SWAP3 POP SWAP3 SWAP1 POP JUMP JUMPDEST PUSH0 DUP2 ISZERO ISZERO SWAP1 POP SWAP2 SWAP1 POP JUMP JUMPDEST PUSH2 0x13E6 DUP2 PUSH2 0x13D2 JUMP JUMPDEST DUP3 MSTORE POP POP JUMP JUMPDEST PUSH0 PUSH1 0x20 DUP3 ADD SWAP1 POP PUSH2 0x13FF PUSH0 DUP4 ADD DUP5 PUSH2 0x13DD JUMP JUMPDEST SWAP3 SWAP2 POP POP JUMP JUMPDEST PUSH2 0x140E DUP2 PUSH2 0x1361 JUMP JUMPDEST DUP3 MSTORE POP POP JUMP JUMPDEST PUSH0 PUSH1 0x20 DUP3 ADD SWAP1 POP PUSH2 0x1427 PUSH0 DUP4 ADD DUP5 PUSH2 0x1405 JUMP JUMPDEST SWAP3 SWAP2 POP POP JUMP JUMPDEST PUSH0 PUSH1 0x20 DUP3 DUP5 SUB SLT ISZERO PUSH2 0x1442 JUMPI PUSH2 0x1441 PUSH2 0x1303 JUMP JUMPDEST JUMPDEST PUSH0 PUSH2 0x144F DUP5 DUP3 DUP6 ADD PUSH2 0x1380 JUMP JUMPDEST SWAP2 POP POP SWAP3 SWAP2 POP POP JUMP JUMPDEST PUSH0 DUP1 PUSH0 PUSH1 0x60 DUP5 DUP7 SUB SLT ISZERO PUSH2 0x146F JUMPI PUSH2 0x146E PUSH2 0x1303 JUMP JUMPDEST JUMPDEST PUSH0 PUSH2 0x147C DUP7 DUP3 DUP8 ADD PUSH2 0x134D JUMP JUMPDEST SWAP4 POP POP PUSH1 0x20 PUSH2 0x148D DUP7 DUP3 DUP8 ADD PUSH2 0x134D JUMP JUMPDEST SWAP3 POP POP PUSH1 0x40 PUSH2 0x149E DUP7 DUP3 DUP8 ADD PUSH2 0x1380 JUMP JUMPDEST SWAP2 POP POP SWAP3 POP SWAP3 POP SWAP3 JUMP JUMPDEST PUSH0 PUSH1 0xFF DUP3 AND SWAP1 POP SWAP2 SWAP1 POP JUMP JUMPDEST PUSH2 0x14BD DUP2 PUSH2 0x14A8 JUMP JUMPDEST DUP3 MSTORE POP POP JUMP JUMPDEST PUSH0 PUSH1 0x20 DUP3 ADD SWAP1 POP PUSH2 0x14D6 PUSH0 DUP4 ADD DUP5 PUSH2 0x14B4 JUMP JUMPDEST SWAP3 SWAP2 POP POP JUMP JUMPDEST PUSH0 PUSH1 0x20 DUP3 DUP5 SUB SLT ISZERO PUSH2 0x14F1 JUMPI PUSH2 0x14F0 PUSH2 0x1303 JUMP JUMPDEST JUMPDEST PUSH0 PUSH2 0x14FE DUP5 DUP3 DUP6 ADD PUSH2 0x134D JUMP JUMPDEST SWAP2 POP POP SWAP3 SWAP2 POP POP JUMP JUMPDEST PUSH2 0x1510 DUP2 PUSH2 0x1326 JUMP JUMPDEST DUP3 MSTORE POP POP JUMP JUMPDEST PUSH0 PUSH1 0x20 DUP3 ADD SWAP1 POP PUSH2 0x1529 PUSH0 DUP4 ADD DUP5 PUSH2 0x1507 JUMP JUMPDEST SWAP3 SWAP2 POP POP JUMP JUMPDEST PUSH0 DUP1 PUSH1 0x40 DUP4 DUP6 SUB SLT ISZERO PUSH2 0x1545 JUMPI PUSH2 0x1544 PUSH2 0x1303 JUMP JUMPDEST JUMPDEST PUSH0 PUSH2 0x1552 DUP6 DUP3 DUP7 ADD PUSH2 0x134D JUMP JUMPDEST SWAP3 POP POP PUSH1 0x20 PUSH2 0x1563 DUP6 DUP3 DUP7 ADD PUSH2 0x134D JUMP JUMPDEST SWAP2 POP POP SWAP3 POP SWAP3 SWAP1 POP JUMP JUMPDEST PUSH0 DUP2 SWAP1 POP SWAP2 SWAP1 POP JUMP JUMPDEST PUSH2 0x157F DUP2 PUSH2 0x156D JUMP JUMPDEST DUP3 MSTORE POP POP JUMP JUMPDEST PUSH0 PUSH1 0x20 DUP3 ADD SWAP1 POP PUSH2 0x1598 PUSH0 DUP4 ADD DUP5 PUSH2 0x1576 JUMP JUMPDEST SWAP3 SWAP2 POP POP JUMP JUMPDEST PUSH32 0x4E487B7100000000000000000000000000000000000000000000000000000000 PUSH0 MSTORE PUSH1 0x22 PUSH1 0x4 MSTORE PUSH1 0x24 PUSH0 REVERT JUMPDEST PUSH0 PUSH1 0x2 DUP3 DIV SWAP1 POP PUSH1 0x1 DUP3 AND DUP1 PUSH2 0x15E2 JUMPI PUSH1 0x7F DUP3 AND SWAP2 POP JUMPDEST PUSH1 0x20 DUP3 LT DUP2 SUB PUSH2 0x15F5 JUMPI PUSH2 0x15F4 PUSH2 0x159E JUMP JUMPDEST JUMPDEST POP SWAP2 SWAP1 POP JUMP JUMPDEST PUSH32 0x4E487B7100000000000000000000000000000000000000000000000000000000 PUSH0 MSTORE PUSH1 0x11 PUSH1 0x4 MSTORE PUSH1 0x24 PUSH0 REVERT JUMPDEST PUSH0 PUSH2 0x1632 DUP3 PUSH2 0x1361 JUMP JUMPDEST SWAP2 POP PUSH2 0x163D DUP4 PUSH2 0x1361 JUMP JUMPDEST SWAP3 POP DUP3 DUP3 MUL PUSH2 0x164B DUP2 PUSH2 0x1361 JUMP JUMPDEST SWAP2 POP DUP3 DUP3 DIV DUP5 EQ DUP4 ISZERO OR PUSH2 0x1662 JUMPI PUSH2 0x1661 PUSH2 0x15FB JUMP JUMPDEST JUMPDEST POP SWAP3 SWAP2 POP POP JUMP JUMPDEST PUSH32 0x4572726F722D4D4E545F4D554D4241495F322E736F6C2D4F776E61626C650000 PUSH0 DUP3 ADD MSTORE POP JUMP JUMPDEST PUSH0 PUSH2 0x169D PUSH1 0x1E DUP4 PUSH2 0x1263 JUMP JUMPDEST SWAP2 POP PUSH2 0x16A8 DUP3 PUSH2 0x1669 JUMP JUMPDEST PUSH1 0x20 DUP3 ADD SWAP1 POP SWAP2 SWAP1 POP JUMP JUMPDEST PUSH0 PUSH1 0x20 DUP3 ADD SWAP1 POP DUP2 DUP2 SUB PUSH0 DUP4 ADD MSTORE PUSH2 0x16CA DUP2 PUSH2 0x1691 JUMP JUMPDEST SWAP1 POP SWAP2 SWAP1 POP JUMP JUMPDEST PUSH0 PUSH1 0x40 DUP3 ADD SWAP1 POP PUSH2 0x16E4 PUSH0 DUP4 ADD DUP6 PUSH2 0x1405 JUMP JUMPDEST PUSH2 0x16F1 PUSH1 0x20 DUP4 ADD DUP5 PUSH2 0x1405 JUMP JUMPDEST SWAP4 SWAP3 POP POP POP JUMP JUMPDEST PUSH0 PUSH1 0x60 DUP3 ADD SWAP1 POP PUSH2 0x170B PUSH0 DUP4 ADD DUP7 PUSH2 0x1405 JUMP JUMPDEST PUSH2 0x1718 PUSH1 0x20 DUP4 ADD DUP6 PUSH2 0x1405 JUMP JUMPDEST PUSH2 0x1725 PUSH1 0x40 DUP4 ADD DUP5 PUSH2 0x1405 JUMP JUMPDEST SWAP5 SWAP4 POP POP POP POP JUMP JUMPDEST PUSH32 0x4572726F722D4D4E545F4D554D4241495F322E736F6C2D56616C75656C657373 PUSH0 DUP3 ADD MSTORE PUSH32 0x5F5472616E73616374696F6E0000000000000000000000000000000000000000 PUSH1 0x20 DUP3 ADD MSTORE POP JUMP JUMPDEST PUSH0 PUSH2 0x1787 PUSH1 0x2C DUP4 PUSH2 0x1263 JUMP JUMPDEST SWAP2 POP PUSH2 0x1792 DUP3 PUSH2 0x172D JUMP JUMPDEST PUSH1 0x40 DUP3 ADD SWAP1 POP SWAP2 SWAP1 POP JUMP JUMPDEST PUSH0 PUSH1 0x20 DUP3 ADD SWAP1 POP DUP2 DUP2 SUB PUSH0 DUP4 ADD MSTORE PUSH2 0x17B4 DUP2 PUSH2 0x177B JUMP JUMPDEST SWAP1 POP SWAP2 SWAP1 POP JUMP JUMPDEST PUSH0 DUP2 PUSH1 0x1 SHR SWAP1 POP SWAP2 SWAP1 POP JUMP JUMPDEST PUSH0 DUP1 DUP3 SWAP2 POP DUP4 SWAP1 POP JUMPDEST PUSH1 0x1 DUP6 GT ISZERO PUSH2 0x1810 JUMPI DUP1 DUP7 DIV DUP2 GT ISZERO PUSH2 0x17EC JUMPI PUSH2 0x17EB PUSH2 0x15FB JUMP JUMPDEST JUMPDEST PUSH1 0x1 DUP6 AND ISZERO PUSH2 0x17FB JUMPI DUP1 DUP3 MUL SWAP2 POP JUMPDEST DUP1 DUP2 MUL SWAP1 POP PUSH2 0x1809 DUP6 PUSH2 0x17BB JUMP JUMPDEST SWAP5 POP PUSH2 0x17D0 JUMP JUMPDEST SWAP5 POP SWAP5 SWAP3 POP POP POP JUMP JUMPDEST PUSH0 DUP3 PUSH2 0x1828 JUMPI PUSH1 0x1 SWAP1 POP PUSH2 0x18E3 JUMP JUMPDEST DUP2 PUSH2 0x1835 JUMPI PUSH0 SWAP1 POP PUSH2 0x18E3 JUMP JUMPDEST DUP2 PUSH1 0x1 DUP2 EQ PUSH2 0x184B JUMPI PUSH1 0x2 DUP2 EQ PUSH2 0x1855 JUMPI PUSH2 0x1884 JUMP JUMPDEST PUSH1 0x1 SWAP2 POP POP PUSH2 0x18E3 JUMP JUMPDEST PUSH1 0xFF DUP5 GT ISZERO PUSH2 0x1867 JUMPI PUSH2 0x1866 PUSH2 0x15FB JUMP JUMPDEST JUMPDEST DUP4 PUSH1 0x2 EXP SWAP2 POP DUP5 DUP3 GT ISZERO PUSH2 0x187E JUMPI PUSH2 0x187D PUSH2 0x15FB JUMP JUMPDEST JUMPDEST POP PUSH2 0x18E3 JUMP JUMPDEST POP PUSH1 0x20 DUP4 LT PUSH2 0x133 DUP4 LT AND PUSH1 0x4E DUP5 LT PUSH1 0xB DUP5 LT AND OR ISZERO PUSH2 0x18B9 JUMPI DUP3 DUP3 EXP SWAP1 POP DUP4 DUP2 GT ISZERO PUSH2 0x18B4 JUMPI PUSH2 0x18B3 PUSH2 0x15FB JUMP JUMPDEST JUMPDEST PUSH2 0x18E3 JUMP JUMPDEST PUSH2 0x18C6 DUP5 DUP5 DUP5 PUSH1 0x1 PUSH2 0x17C7 JUMP JUMPDEST SWAP3 POP SWAP1 POP DUP2 DUP5 DIV DUP2 GT ISZERO PUSH2 0x18DD JUMPI PUSH2 0x18DC PUSH2 0x15FB JUMP JUMPDEST JUMPDEST DUP2 DUP2 MUL SWAP1 POP JUMPDEST SWAP4 SWAP3 POP POP POP JUMP JUMPDEST PUSH0 PUSH2 0x18F4 DUP3 PUSH2 0x1361 JUMP JUMPDEST SWAP2 POP PUSH2 0x18FF DUP4 PUSH2 0x1361 JUMP JUMPDEST SWAP3 POP PUSH2 0x192C PUSH32 0xFFFFFFFFFFFFFFFFFFFFFFFFFFFFFFFFFFFFFFFFFFFFFFFFFFFFFFFFFFFFFFFF DUP5 DUP5 PUSH2 0x1819 JUMP JUMPDEST SWAP1 POP SWAP3 SWAP2 POP POP JUMP JUMPDEST PUSH32 0x4E487B7100000000000000000000000000000000000000000000000000000000 PUSH0 MSTORE PUSH1 0x12 PUSH1 0x4 MSTORE PUSH1 0x24 PUSH0 REVERT JUMPDEST PUSH0 PUSH2 0x196B DUP3 PUSH2 0x1361 JUMP JUMPDEST SWAP2 POP PUSH2 0x1976 DUP4 PUSH2 0x1361 JUMP JUMPDEST SWAP3 POP DUP3 PUSH2 0x1986 JUMPI PUSH2 0x1985 PUSH2 0x1934 JUMP JUMPDEST JUMPDEST DUP3 DUP3 DIV SWAP1 POP SWAP3 SWAP2 POP POP JUMP JUMPDEST PUSH0 PUSH2 0x199B DUP3 PUSH2 0x1361 JUMP JUMPDEST SWAP2 POP PUSH2 0x19A6 DUP4 PUSH2 0x1361 JUMP JUMPDEST SWAP3 POP DUP3 DUP3 ADD SWAP1 POP DUP1 DUP3 GT ISZERO PUSH2 0x19BE JUMPI PUSH2 0x19BD PUSH2 0x15FB JUMP JUMPDEST JUMPDEST SWAP3 SWAP2 POP POP JUMP JUMPDEST PUSH32 0x4572726F722D4D4E545F4D554D4241495F322E736F6C2D457863656564735F4D PUSH0 DUP3 ADD MSTORE PUSH32 0x61785F42616C616E636500000000000000000000000000000000000000000000 PUSH1 0x20 DUP3 ADD MSTORE POP JUMP JUMPDEST PUSH0 PUSH2 0x1A1E PUSH1 0x2A DUP4 PUSH2 0x1263 JUMP JUMPDEST SWAP2 POP PUSH2 0x1A29 DUP3 PUSH2 0x19C4 JUMP JUMPDEST PUSH1 0x40 DUP3 ADD SWAP1 POP SWAP2 SWAP1 POP JUMP JUMPDEST PUSH0 PUSH1 0x20 DUP3 ADD SWAP1 POP DUP2 DUP2 SUB PUSH0 DUP4 ADD MSTORE PUSH2 0x1A4B DUP2 PUSH2 0x1A12 JUMP JUMPDEST SWAP1 POP SWAP2 SWAP1 POP JUMP JUMPDEST PUSH0 PUSH1 0x80 DUP3 ADD SWAP1 POP PUSH2 0x1A65 PUSH0 DUP4 ADD DUP8 PUSH2 0x1405 JUMP JUMPDEST PUSH2 0x1A72 PUSH1 0x20 DUP4 ADD DUP7 PUSH2 0x1405 JUMP JUMPDEST PUSH2 0x1A7F PUSH1 0x40 DUP4 ADD DUP6 PUSH2 0x1405 JUMP JUMPDEST PUSH2 0x1A8C PUSH1 0x60 DUP4 ADD DUP5 PUSH2 0x1405 JUMP JUMPDEST SWAP6 SWAP5 POP POP POP POP POP JUMP JUMPDEST PUSH0 PUSH10 0xFFFFFFFFFFFFFFFFFFFF DUP3 AND SWAP1 POP SWAP2 SWAP1 POP JUMP JUMPDEST PUSH2 0x1AB3 DUP2 PUSH2 0x1A95 JUMP JUMPDEST DUP2 EQ PUSH2 0x1ABD JUMPI PUSH0 DUP1 REVERT JUMPDEST POP JUMP JUMPDEST PUSH0 DUP2 MLOAD SWAP1 POP PUSH2 0x1ACE DUP2 PUSH2 0x1AAA JUMP JUMPDEST SWAP3 SWAP2 POP POP JUMP JUMPDEST PUSH2 0x1ADD DUP2 PUSH2 0x156D JUMP JUMPDEST DUP2 EQ PUSH2 0x1AE7 JUMPI PUSH0 DUP1 REVERT JUMPDEST POP JUMP JUMPDEST PUSH0 DUP2 MLOAD SWAP1 POP PUSH2 0x1AF8 DUP2 PUSH2 0x1AD4 JUMP JUMPDEST SWAP3 SWAP2 POP POP JUMP JUMPDEST PUSH0 DUP2 MLOAD SWAP1 POP PUSH2 0x1B0C DUP2 PUSH2 0x136A JUMP JUMPDEST SWAP3 SWAP2 POP POP JUMP JUMPDEST PUSH0 DUP1 PUSH0 DUP1 PUSH0 PUSH1 0xA0 DUP7 DUP9 SUB SLT ISZERO PUSH2 0x1B2B JUMPI PUSH2 0x1B2A PUSH2 0x1303 JUMP JUMPDEST JUMPDEST PUSH0 PUSH2 0x1B38 DUP9 DUP3 DUP10 ADD PUSH2 0x1AC0 JUMP JUMPDEST SWAP6 POP POP PUSH1 0x20 PUSH2 0x1B49 DUP9 DUP3 DUP10 ADD PUSH2 0x1AEA JUMP JUMPDEST SWAP5 POP POP PUSH1 0x40 PUSH2 0x1B5A DUP9 DUP3 DUP10 ADD PUSH2 0x1AFE JUMP JUMPDEST SWAP4 POP POP PUSH1 0x60 PUSH2 0x1B6B DUP9 DUP3 DUP10 ADD PUSH2 0x1AFE JUMP JUMPDEST SWAP3 POP POP PUSH1 0x80 PUSH2 0x1B7C DUP9 DUP3 DUP10 ADD PUSH2 0x1AC0 JUMP JUMPDEST SWAP2 POP POP SWAP3 SWAP6 POP SWAP3 SWAP6 SWAP1 SWAP4 POP JUMP JUMPDEST PUSH0 PUSH2 0x1B93 DUP3 PUSH2 0x156D JUMP JUMPDEST SWAP2 POP PUSH2 0x1B9E DUP4 PUSH2 0x156D JUMP JUMPDEST SWAP3 POP DUP3 PUSH2 0x1BAE JUMPI PUSH2 0x1BAD PUSH2 0x1934 JUMP JUMPDEST JUMPDEST PUSH1 0x1 PUSH0 SUB DUP4 EQ PUSH32 0x8000000000000000000000000000000000000000000000000000000000000000 DUP4 EQ AND ISZERO PUSH2 0x1BE6 JUMPI PUSH2 0x1BE5 PUSH2 0x15FB JUMP JUMPDEST JUMPDEST DUP3 DUP3 SDIV SWAP1 POP SWAP3 SWAP2 POP POP JUMP JUMPDEST PUSH0 PUSH1 0x60 DUP3 ADD SWAP1 POP PUSH2 0x1C04 PUSH0 DUP4 ADD DUP7 PUSH2 0x1507 JUMP JUMPDEST PUSH2 0x1C11 PUSH1 0x20 DUP4 ADD DUP6 PUSH2 0x1405 JUMP JUMPDEST PUSH2 0x1C1E PUSH1 0x40 DUP4 ADD DUP5 PUSH2 0x1405 JUMP JUMPDEST SWAP5 SWAP4 POP POP POP POP JUMP INVALID LOG2 PUSH5 0x6970667358 0x22 SLT KECCAK256 LOG3 PUSH12 0x2E17D8EB9BBAE623C4E06AE6 0xC5 0xE8 0xEF DUP1 AND 0xD6 0xE7 PUSH22 0x162411CFF96CAAFFB8BB64736F6C6343000818003300 "
				},
				"gasEstimates": {
					"creation": {
						"codeDepositCost": "1452000",
						"executionCost": "infinite",
						"totalCost": "infinite"
					},
					"external": {
						"OneMATICInCents()": "infinite",
						"WithdrawMintingFees()": "infinite",
						"allowance(address,address)": "infinite",
						"approve(address,uint256)": "infinite",
						"balanceOf(address)": "2874",
						"buyTokensFromContract(uint256)": "infinite",
						"cap()": "infinite",
						"capPerAccount()": "2470",
						"contractOwner()": "2574",
						"decimals()": "405",
						"name()": "infinite",
						"priceOf_N_TokensInWei(uint256)": "infinite",
						"symbol()": "infinite",
						"totalSupply()": "2500",
						"transfer(address,uint256)": "infinite",
						"transferFrom(address,address,uint256)": "infinite",
						"updateCapPerAccount(uint256)": "infinite",
						"zTokenPriceInWei()": "infinite"
					}
				},
				"methodIdentifiers": {
					"OneMATICInCents()": "ea6ecb08",
					"WithdrawMintingFees()": "655ab927",
					"allowance(address,address)": "dd62ed3e",
					"approve(address,uint256)": "095ea7b3",
					"balanceOf(address)": "70a08231",
					"buyTokensFromContract(uint256)": "8a20d00c",
					"cap()": "355274ea",
					"capPerAccount()": "2bc67da0",
					"contractOwner()": "ce606ee0",
					"decimals()": "313ce567",
					"name()": "06fdde03",
					"priceOf_N_TokensInWei(uint256)": "23100f36",
					"symbol()": "95d89b41",
					"totalSupply()": "18160ddd",
					"transfer(address,uint256)": "a9059cbb",
					"transferFrom(address,address,uint256)": "23b872dd",
					"updateCapPerAccount(uint256)": "6a73bf53",
					"zTokenPriceInWei()": "c0e3daf5"
				}
			},
			"storageLayout": {
				"storage": [
					{
						"astId": 205,
						"contract": "contracts/MNT_Mumai_2.sol:MNT",
						"label": "_balances",
						"offset": 0,
						"slot": "0",
						"type": "t_mapping(t_address,t_uint256)"
					},
					{
						"astId": 211,
						"contract": "contracts/MNT_Mumai_2.sol:MNT",
						"label": "_allowances",
						"offset": 0,
						"slot": "1",
						"type": "t_mapping(t_address,t_mapping(t_address,t_uint256))"
					},
					{
						"astId": 213,
						"contract": "contracts/MNT_Mumai_2.sol:MNT",
						"label": "_totalSupply",
						"offset": 0,
						"slot": "2",
						"type": "t_uint256"
					},
					{
						"astId": 215,
						"contract": "contracts/MNT_Mumai_2.sol:MNT",
						"label": "_name",
						"offset": 0,
						"slot": "3",
						"type": "t_string_storage"
					},
					{
						"astId": 217,
						"contract": "contracts/MNT_Mumai_2.sol:MNT",
						"label": "_symbol",
						"offset": 0,
						"slot": "4",
						"type": "t_string_storage"
					},
					{
						"astId": 940,
						"contract": "contracts/MNT_Mumai_2.sol:MNT",
						"label": "dataFeed",
						"offset": 0,
						"slot": "5",
						"type": "t_contract(AggregatorV3Interface)45"
					},
					{
						"astId": 942,
						"contract": "contracts/MNT_Mumai_2.sol:MNT",
						"label": "contractOwner",
						"offset": 0,
						"slot": "6",
						"type": "t_address"
					},
					{
						"astId": 945,
						"contract": "contracts/MNT_Mumai_2.sol:MNT",
						"label": "ourCap",
						"offset": 0,
						"slot": "7",
						"type": "t_uint256"
					},
					{
						"astId": 948,
						"contract": "contracts/MNT_Mumai_2.sol:MNT",
						"label": "capPerAccount",
						"offset": 0,
						"slot": "8",
						"type": "t_uint256"
					}
				],
				"types": {
					"t_address": {
						"encoding": "inplace",
						"label": "address",
						"numberOfBytes": "20"
					},
					"t_contract(AggregatorV3Interface)45": {
						"encoding": "inplace",
						"label": "contract AggregatorV3Interface",
						"numberOfBytes": "20"
					},
					"t_mapping(t_address,t_mapping(t_address,t_uint256))": {
						"encoding": "mapping",
						"key": "t_address",
						"label": "mapping(address => mapping(address => uint256))",
						"numberOfBytes": "32",
						"value": "t_mapping(t_address,t_uint256)"
					},
					"t_mapping(t_address,t_uint256)": {
						"encoding": "mapping",
						"key": "t_address",
						"label": "mapping(address => uint256)",
						"numberOfBytes": "32",
						"value": "t_uint256"
					},
					"t_string_storage": {
						"encoding": "bytes",
						"label": "string",
						"numberOfBytes": "32"
					},
					"t_uint256": {
						"encoding": "inplace",
						"label": "uint256",
						"numberOfBytes": "32"
					}
				}
			},
			"userdoc": {
				"kind": "user",
				"methods": {},
				"version": 1
			}
		}
	}
}