{
	"contracts/MNT_Mumbai.sol": {
		"MNT": {
			"abi": [
				{
					"inputs": [],
					"stateMutability": "nonpayable",
					"type": "constructor"
				},
				{
					"inputs": [
						{
							"internalType": "uint256",
							"name": "increasedSupply",
							"type": "uint256"
						},
						{
							"internalType": "uint256",
							"name": "cap",
							"type": "uint256"
						}
					],
					"name": "ERC20ExceededCap",
					"type": "error"
				},
				{
					"inputs": [
						{
							"internalType": "address",
							"name": "spender",
							"type": "address"
						},
						{
							"internalType": "uint256",
							"name": "allowance",
							"type": "uint256"
						},
						{
							"internalType": "uint256",
							"name": "needed",
							"type": "uint256"
						}
					],
					"name": "ERC20InsufficientAllowance",
					"type": "error"
				},
				{
					"inputs": [
						{
							"internalType": "address",
							"name": "sender",
							"type": "address"
						},
						{
							"internalType": "uint256",
							"name": "balance",
							"type": "uint256"
						},
						{
							"internalType": "uint256",
							"name": "needed",
							"type": "uint256"
						}
					],
					"name": "ERC20InsufficientBalance",
					"type": "error"
				},
				{
					"inputs": [
						{
							"internalType": "address",
							"name": "approver",
							"type": "address"
						}
					],
					"name": "ERC20InvalidApprover",
					"type": "error"
				},
				{
					"inputs": [
						{
							"internalType": "uint256",
							"name": "cap",
							"type": "uint256"
						}
					],
					"name": "ERC20InvalidCap",
					"type": "error"
				},
				{
					"inputs": [
						{
							"internalType": "address",
							"name": "receiver",
							"type": "address"
						}
					],
					"name": "ERC20InvalidReceiver",
					"type": "error"
				},
				{
					"inputs": [
						{
							"internalType": "address",
							"name": "sender",
							"type": "address"
						}
					],
					"name": "ERC20InvalidSender",
					"type": "error"
				},
				{
					"inputs": [
						{
							"internalType": "address",
							"name": "spender",
							"type": "address"
						}
					],
					"name": "ERC20InvalidSpender",
					"type": "error"
				},
				{
					"anonymous": false,
					"inputs": [
						{
							"indexed": true,
							"internalType": "address",
							"name": "owner",
							"type": "address"
						},
						{
							"indexed": true,
							"internalType": "address",
							"name": "spender",
							"type": "address"
						},
						{
							"indexed": false,
							"internalType": "uint256",
							"name": "value",
							"type": "uint256"
						}
					],
					"name": "Approval",
					"type": "event"
				},
				{
					"anonymous": false,
					"inputs": [
						{
							"indexed": false,
							"internalType": "uint256",
							"name": "previousCap",
							"type": "uint256"
						},
						{
							"indexed": false,
							"internalType": "uint256",
							"name": "newCap",
							"type": "uint256"
						},
						{
							"indexed": false,
							"internalType": "uint256",
							"name": "timestamp",
							"type": "uint256"
						}
					],
					"name": "CapPerAccountUpdated",
					"type": "event"
				},
				{
					"anonymous": false,
					"inputs": [
						{
							"indexed": false,
							"internalType": "uint256",
							"name": "amount",
							"type": "uint256"
						},
						{
							"indexed": false,
							"internalType": "uint256",
							"name": "timestamp",
							"type": "uint256"
						}
					],
					"name": "MintingFeesWithdrawn",
					"type": "event"
				},
				{
					"anonymous": false,
					"inputs": [
						{
							"indexed": true,
							"internalType": "address",
							"name": "buyer",
							"type": "address"
						},
						{
							"indexed": false,
							"internalType": "uint256",
							"name": "tokensMinted",
							"type": "uint256"
						},
						{
							"indexed": false,
							"internalType": "uint256",
							"name": "weiPaid",
							"type": "uint256"
						},
						{
							"indexed": false,
							"internalType": "uint256",
							"name": "timestamp",
							"type": "uint256"
						},
						{
							"indexed": false,
							"internalType": "uint256",
							"name": "balance",
							"type": "uint256"
						}
					],
					"name": "TokensPurchased",
					"type": "event"
				},
				{
					"anonymous": false,
					"inputs": [
						{
							"indexed": true,
							"internalType": "address",
							"name": "from",
							"type": "address"
						},
						{
							"indexed": true,
							"internalType": "address",
							"name": "to",
							"type": "address"
						},
						{
							"indexed": false,
							"internalType": "uint256",
							"name": "value",
							"type": "uint256"
						}
					],
					"name": "Transfer",
					"type": "event"
				},
				{
					"inputs": [],
					"name": "OneMATICInCents",
					"outputs": [
						{
							"internalType": "int256",
							"name": "",
							"type": "int256"
						}
					],
					"stateMutability": "view",
					"type": "function"
				},
				{
					"inputs": [],
					"name": "WithdrawMintingFees",
					"outputs": [],
					"stateMutability": "nonpayable",
					"type": "function"
				},
				{
					"inputs": [
						{
							"internalType": "address",
							"name": "owner",
							"type": "address"
						},
						{
							"internalType": "address",
							"name": "spender",
							"type": "address"
						}
					],
					"name": "allowance",
					"outputs": [
						{
							"internalType": "uint256",
							"name": "",
							"type": "uint256"
						}
					],
					"stateMutability": "view",
					"type": "function"
				},
				{
					"inputs": [
						{
							"internalType": "address",
							"name": "spender",
							"type": "address"
						},
						{
							"internalType": "uint256",
							"name": "value",
							"type": "uint256"
						}
					],
					"name": "approve",
					"outputs": [
						{
							"internalType": "bool",
							"name": "",
							"type": "bool"
						}
					],
					"stateMutability": "nonpayable",
					"type": "function"
				},
				{
					"inputs": [
						{
							"internalType": "address",
							"name": "account",
							"type": "address"
						}
					],
					"name": "balanceOf",
					"outputs": [
						{
							"internalType": "uint256",
							"name": "",
							"type": "uint256"
						}
					],
					"stateMutability": "view",
					"type": "function"
				},
				{
					"inputs": [],
					"name": "buyTokensFromContract",
					"outputs": [],
					"stateMutability": "payable",
					"type": "function"
				},
				{
					"inputs": [],
					"name": "cap",
					"outputs": [
						{
							"internalType": "uint256",
							"name": "",
							"type": "uint256"
						}
					],
					"stateMutability": "view",
					"type": "function"
				},
				{
					"inputs": [],
					"name": "capPerAccount",
					"outputs": [
						{
							"internalType": "uint256",
							"name": "",
							"type": "uint256"
						}
					],
					"stateMutability": "view",
					"type": "function"
				},
				{
					"inputs": [],
					"name": "contractOwner",
					"outputs": [
						{
							"internalType": "address",
							"name": "",
							"type": "address"
						}
					],
					"stateMutability": "view",
					"type": "function"
				},
				{
					"inputs": [],
					"name": "decimals",
					"outputs": [
						{
							"internalType": "uint8",
							"name": "",
							"type": "uint8"
						}
					],
					"stateMutability": "view",
					"type": "function"
				},
				{
					"inputs": [],
					"name": "name",
					"outputs": [
						{
							"internalType": "string",
							"name": "",
							"type": "string"
						}
					],
					"stateMutability": "view",
					"type": "function"
				},
				{
					"inputs": [],
					"name": "symbol",
					"outputs": [
						{
							"internalType": "string",
							"name": "",
							"type": "string"
						}
					],
					"stateMutability": "view",
					"type": "function"
				},
				{
					"inputs": [],
					"name": "totalSupply",
					"outputs": [
						{
							"internalType": "uint256",
							"name": "",
							"type": "uint256"
						}
					],
					"stateMutability": "view",
					"type": "function"
				},
				{
					"inputs": [
						{
							"internalType": "address",
							"name": "to",
							"type": "address"
						},
						{
							"internalType": "uint256",
							"name": "value",
							"type": "uint256"
						}
					],
					"name": "transfer",
					"outputs": [
						{
							"internalType": "bool",
							"name": "",
							"type": "bool"
						}
					],
					"stateMutability": "nonpayable",
					"type": "function"
				},
				{
					"inputs": [
						{
							"internalType": "address",
							"name": "from",
							"type": "address"
						},
						{
							"internalType": "address",
							"name": "to",
							"type": "address"
						},
						{
							"internalType": "uint256",
							"name": "value",
							"type": "uint256"
						}
					],
					"name": "transferFrom",
					"outputs": [
						{
							"internalType": "bool",
							"name": "",
							"type": "bool"
						}
					],
					"stateMutability": "nonpayable",
					"type": "function"
				},
				{
					"inputs": [
						{
							"internalType": "uint256",
							"name": "newCap",
							"type": "uint256"
						}
					],
					"name": "updateCapPerAccount",
					"outputs": [],
					"stateMutability": "nonpayable",
					"type": "function"
				},
				{
					"inputs": [],
					"name": "zTokenPriceInWei",
					"outputs": [
						{
							"internalType": "uint256",
							"name": "",
							"type": "uint256"
						}
					],
					"stateMutability": "view",
					"type": "function"
				}
			],
			"devdoc": {
				"errors": {
					"ERC20ExceededCap(uint256,uint256)": [
						{
							"details": "Total supply cap has been exceeded."
						}
					],
					"ERC20InsufficientAllowance(address,uint256,uint256)": [
						{
							"details": "Indicates a failure with the `spender`’s `allowance`. Used in transfers.",
							"params": {
								"allowance": "Amount of tokens a `spender` is allowed to operate with.",
								"needed": "Minimum amount required to perform a transfer.",
								"spender": "Address that may be allowed to operate on tokens without being their owner."
							}
						}
					],
					"ERC20InsufficientBalance(address,uint256,uint256)": [
						{
							"details": "Indicates an error related to the current `balance` of a `sender`. Used in transfers.",
							"params": {
								"balance": "Current balance for the interacting account.",
								"needed": "Minimum amount required to perform a transfer.",
								"sender": "Address whose tokens are being transferred."
							}
						}
					],
					"ERC20InvalidApprover(address)": [
						{
							"details": "Indicates a failure with the `approver` of a token to be approved. Used in approvals.",
							"params": {
								"approver": "Address initiating an approval operation."
							}
						}
					],
					"ERC20InvalidCap(uint256)": [
						{
							"details": "The supplied cap is not a valid cap."
						}
					],
					"ERC20InvalidReceiver(address)": [
						{
							"details": "Indicates a failure with the token `receiver`. Used in transfers.",
							"params": {
								"receiver": "Address to which tokens are being transferred."
							}
						}
					],
					"ERC20InvalidSender(address)": [
						{
							"details": "Indicates a failure with the token `sender`. Used in transfers.",
							"params": {
								"sender": "Address whose tokens are being transferred."
							}
						}
					],
					"ERC20InvalidSpender(address)": [
						{
							"details": "Indicates a failure with the `spender` to be approved. Used in approvals.",
							"params": {
								"spender": "Address that may be allowed to operate on tokens without being their owner."
							}
						}
					]
				},
				"events": {
					"Approval(address,address,uint256)": {
						"details": "Emitted when the allowance of a `spender` for an `owner` is set by a call to {approve}. `value` is the new allowance."
					},
					"Transfer(address,address,uint256)": {
						"details": "Emitted when `value` tokens are moved from one account (`from`) to another (`to`). Note that `value` may be zero."
					}
				},
				"kind": "dev",
				"methods": {
					"allowance(address,address)": {
						"details": "See {IERC20-allowance}."
					},
					"approve(address,uint256)": {
						"details": "See {IERC20-approve}. NOTE: If `value` is the maximum `uint256`, the allowance is not updated on `transferFrom`. This is semantically equivalent to an infinite approval. Requirements: - `spender` cannot be the zero address."
					},
					"balanceOf(address)": {
						"details": "See {IERC20-balanceOf}."
					},
					"cap()": {
						"details": "Returns the cap on the token's total supply."
					},
					"decimals()": {
						"details": "Returns the number of decimals used to get its user representation. For example, if `decimals` equals `2`, a balance of `505` tokens should be displayed to a user as `5.05` (`505 / 10 ** 2`). Tokens usually opt for a value of 18, imitating the relationship between Ether and Wei. This is the default value returned by this function, unless it's overridden. NOTE: This information is only used for _display_ purposes: it in no way affects any of the arithmetic of the contract, including {IERC20-balanceOf} and {IERC20-transfer}."
					},
					"name()": {
						"details": "Returns the name of the token."
					},
					"symbol()": {
						"details": "Returns the symbol of the token, usually a shorter version of the name."
					},
					"totalSupply()": {
						"details": "See {IERC20-totalSupply}."
					},
					"transfer(address,uint256)": {
						"details": "See {IERC20-transfer}. Requirements: - `to` cannot be the zero address. - the caller must have a balance of at least `value`."
					},
					"transferFrom(address,address,uint256)": {
						"details": "See {IERC20-transferFrom}. Emits an {Approval} event indicating the updated allowance. This is not required by the EIP. See the note at the beginning of {ERC20}. NOTE: Does not update the allowance if the current allowance is the maximum `uint256`. Requirements: - `from` and `to` cannot be the zero address. - `from` must have a balance of at least `value`. - the caller must have allowance for ``from``'s tokens of at least `value`."
					}
				},
				"version": 1
			},
			"evm": {
				"assembly": "    /* \"contracts/MNT_Mumbai.sol\":380:4289  contract MNT is ERC20Capped... */\n  mstore(0x40, 0xa0)\n    /* \"contracts/MNT_Mumbai.sol\":514:524  5000000000 */\n  0x012a05f200\n    /* \"contracts/MNT_Mumbai.sol\":499:524  uint256 ourCap=5000000000 */\n  0x07\n  sstore\n    /* \"contracts/MNT_Mumbai.sol\":583:587  5000 */\n  0x1388\n    /* \"contracts/MNT_Mumbai.sol\":554:587  uint256 public capPerAccount=5000 */\n  0x08\n  sstore\n    /* \"contracts/MNT_Mumbai.sol\":1140:1497  constructor() ERC20(\"Monet\",\"MNT\")  ERC20Capped(ourCap*(10**uint256(decimals())))... */\n  callvalue\n  dup1\n  iszero\n  tag_1\n  jumpi\n  0x00\n  dup1\n  revert\ntag_1:\n  pop\n    /* \"contracts/MNT_Mumbai.sol\":1208:1218  decimals() */\n  tag_3\n    /* \"contracts/MNT_Mumbai.sol\":1208:1216  decimals */\n  shl(0x20, tag_4)\n    /* \"contracts/MNT_Mumbai.sol\":1208:1218  decimals() */\n  0x20\n  shr\n  jump\t// in\ntag_3:\n    /* \"contracts/MNT_Mumbai.sol\":1200:1219  uint256(decimals()) */\n  0xff\n  and\n    /* \"contracts/MNT_Mumbai.sol\":1196:1198  10 */\n  0x0a\n    /* \"contracts/MNT_Mumbai.sol\":1196:1219  10**uint256(decimals()) */\n  tag_5\n  swap2\n  swap1\n  tag_6\n  jump\t// in\ntag_5:\n    /* \"contracts/MNT_Mumbai.sol\":1188:1194  ourCap */\n  sload(0x07)\n    /* \"contracts/MNT_Mumbai.sol\":1188:1220  ourCap*(10**uint256(decimals())) */\n  tag_7\n  swap2\n  swap1\n  tag_8\n  jump\t// in\ntag_7:\n    /* \"@openzeppelin/contracts/token/ERC20/ERC20.sol\":1896:2009  constructor(string memory name_, string memory symbol_) {... */\n  mload(0x40)\n  dup1\n  0x40\n  add\n  0x40\n  mstore\n  dup1\n  0x05\n  dup2\n  mstore\n  0x20\n  add\n  0x4d6f6e6574000000000000000000000000000000000000000000000000000000\n  dup2\n  mstore\n  pop\n  mload(0x40)\n  dup1\n  0x40\n  add\n  0x40\n  mstore\n  dup1\n  0x03\n  dup2\n  mstore\n  0x20\n  add\n  0x4d4e540000000000000000000000000000000000000000000000000000000000\n  dup2\n  mstore\n  pop\n    /* \"@openzeppelin/contracts/token/ERC20/ERC20.sol\":1970:1975  name_ */\n  dup2\n    /* \"@openzeppelin/contracts/token/ERC20/ERC20.sol\":1962:1967  _name */\n  0x03\n    /* \"@openzeppelin/contracts/token/ERC20/ERC20.sol\":1962:1975  _name = name_ */\n  swap1\n  dup2\n  tag_12\n  swap2\n  swap1\n  tag_13\n  jump\t// in\ntag_12:\n  pop\n    /* \"@openzeppelin/contracts/token/ERC20/ERC20.sol\":1995:2002  symbol_ */\n  dup1\n    /* \"@openzeppelin/contracts/token/ERC20/ERC20.sol\":1985:1992  _symbol */\n  0x04\n    /* \"@openzeppelin/contracts/token/ERC20/ERC20.sol\":1985:2002  _symbol = symbol_ */\n  swap1\n  dup2\n  tag_14\n  swap2\n  swap1\n  tag_13\n  jump\t// in\ntag_14:\n  pop\n    /* \"@openzeppelin/contracts/token/ERC20/ERC20.sol\":1896:2009  constructor(string memory name_, string memory symbol_) {... */\n  pop\n  pop\n    /* \"@openzeppelin/contracts/token/ERC20/extensions/ERC20Capped.sol\":764:765  0 */\n  0x00\n    /* \"@openzeppelin/contracts/token/ERC20/extensions/ERC20Capped.sol\":756:760  cap_ */\n  dup2\n    /* \"@openzeppelin/contracts/token/ERC20/extensions/ERC20Capped.sol\":756:765  cap_ == 0 */\n  sub\n    /* \"@openzeppelin/contracts/token/ERC20/extensions/ERC20Capped.sol\":752:817  if (cap_ == 0) {... */\n  tag_16\n  jumpi\n    /* \"@openzeppelin/contracts/token/ERC20/extensions/ERC20Capped.sol\":804:805  0 */\n  0x00\n    /* \"@openzeppelin/contracts/token/ERC20/extensions/ERC20Capped.sol\":788:806  ERC20InvalidCap(0) */\n  mload(0x40)\n  0x392e1e2700000000000000000000000000000000000000000000000000000000\n  dup2\n  mstore\n  0x04\n  add\n  tag_17\n  swap2\n  swap1\n  tag_18\n  jump\t// in\ntag_17:\n  mload(0x40)\n  dup1\n  swap2\n  sub\n  swap1\n  revert\n    /* \"@openzeppelin/contracts/token/ERC20/extensions/ERC20Capped.sol\":752:817  if (cap_ == 0) {... */\ntag_16:\n    /* \"@openzeppelin/contracts/token/ERC20/extensions/ERC20Capped.sol\":833:837  cap_ */\n  dup1\n    /* \"@openzeppelin/contracts/token/ERC20/extensions/ERC20Capped.sol\":826:837  _cap = cap_ */\n  0x80\n  dup2\n  dup2\n  mstore\n  pop\n  pop\n    /* \"@openzeppelin/contracts/token/ERC20/extensions/ERC20Capped.sol\":716:844  constructor(uint256 cap_) {... */\n  pop\n    /* \"contracts/MNT_Mumbai.sol\":1252:1262  msg.sender */\n  caller\n    /* \"contracts/MNT_Mumbai.sol\":1238:1251  contractOwner */\n  0x06\n  0x00\n    /* \"contracts/MNT_Mumbai.sol\":1238:1262  contractOwner=msg.sender */\n  0x0100\n  exp\n  dup2\n  sload\n  dup2\n  0xffffffffffffffffffffffffffffffffffffffff\n  mul\n  not\n  and\n  swap1\n  dup4\n  0xffffffffffffffffffffffffffffffffffffffff\n  and\n  mul\n  or\n  swap1\n  sstore\n  pop\n    /* \"contracts/MNT_Mumbai.sol\":1306:1348  0xd0D5e3DB44DE05E9F294BB0a3bEEaF030DE24Ada */\n  0xd0d5e3db44de05e9f294bb0a3beeaf030de24ada\n    /* \"contracts/MNT_Mumbai.sol\":1273:1281  dataFeed */\n  0x05\n  0x00\n    /* \"contracts/MNT_Mumbai.sol\":1273:1349  dataFeed = AggregatorV3Interface(0xd0D5e3DB44DE05E9F294BB0a3bEEaF030DE24Ada) */\n  0x0100\n  exp\n  dup2\n  sload\n  dup2\n  0xffffffffffffffffffffffffffffffffffffffff\n  mul\n  not\n  and\n  swap1\n  dup4\n  0xffffffffffffffffffffffffffffffffffffffff\n  and\n  mul\n  or\n  swap1\n  sstore\n  pop\n    /* \"contracts/MNT_Mumbai.sol\":1432:1489  _mint(contractOwner,2500000000*(10**uint256(decimals()))) */\n  tag_20\n    /* \"contracts/MNT_Mumbai.sol\":1438:1451  contractOwner */\n  0x06\n  0x00\n  swap1\n  sload\n  swap1\n  0x0100\n  exp\n  swap1\n  div\n  0xffffffffffffffffffffffffffffffffffffffff\n  and\n    /* \"contracts/MNT_Mumbai.sol\":1476:1486  decimals() */\n  tag_21\n    /* \"contracts/MNT_Mumbai.sol\":1476:1484  decimals */\n  shl(0x20, tag_4)\n    /* \"contracts/MNT_Mumbai.sol\":1476:1486  decimals() */\n  0x20\n  shr\n  jump\t// in\ntag_21:\n    /* \"contracts/MNT_Mumbai.sol\":1468:1487  uint256(decimals()) */\n  0xff\n  and\n    /* \"contracts/MNT_Mumbai.sol\":1464:1466  10 */\n  0x0a\n    /* \"contracts/MNT_Mumbai.sol\":1464:1487  10**uint256(decimals()) */\n  tag_22\n  swap2\n  swap1\n  tag_6\n  jump\t// in\ntag_22:\n    /* \"contracts/MNT_Mumbai.sol\":1452:1462  2500000000 */\n  0x9502f900\n    /* \"contracts/MNT_Mumbai.sol\":1452:1488  2500000000*(10**uint256(decimals())) */\n  tag_23\n  swap2\n  swap1\n  tag_8\n  jump\t// in\ntag_23:\n    /* \"contracts/MNT_Mumbai.sol\":1432:1437  _mint */\n  shl(0x20, tag_24)\n    /* \"contracts/MNT_Mumbai.sol\":1432:1489  _mint(contractOwner,2500000000*(10**uint256(decimals()))) */\n  0x20\n  shr\n  jump\t// in\ntag_20:\n    /* \"contracts/MNT_Mumbai.sol\":380:4289  contract MNT is ERC20Capped... */\n  jump(tag_25)\n    /* \"@openzeppelin/contracts/token/ERC20/ERC20.sol\":3002:3084  function decimals() public view virtual returns (uint8) {... */\ntag_4:\n    /* \"@openzeppelin/contracts/token/ERC20/ERC20.sol\":3051:3056  uint8 */\n  0x00\n    /* \"@openzeppelin/contracts/token/ERC20/ERC20.sol\":3075:3077  18 */\n  0x12\n    /* \"@openzeppelin/contracts/token/ERC20/ERC20.sol\":3068:3077  return 18 */\n  swap1\n  pop\n    /* \"@openzeppelin/contracts/token/ERC20/ERC20.sol\":3002:3084  function decimals() public view virtual returns (uint8) {... */\n  swap1\n  jump\t// out\n    /* \"@openzeppelin/contracts/token/ERC20/ERC20.sol\":7721:7929  function _mint(address account, uint256 value) internal {... */\ntag_24:\n    /* \"@openzeppelin/contracts/token/ERC20/ERC20.sol\":7810:7811  0 */\n  0x00\n    /* \"@openzeppelin/contracts/token/ERC20/ERC20.sol\":7791:7812  account == address(0) */\n  0xffffffffffffffffffffffffffffffffffffffff\n  and\n    /* \"@openzeppelin/contracts/token/ERC20/ERC20.sol\":7791:7798  account */\n  dup3\n    /* \"@openzeppelin/contracts/token/ERC20/ERC20.sol\":7791:7812  account == address(0) */\n  0xffffffffffffffffffffffffffffffffffffffff\n  and\n  sub\n    /* \"@openzeppelin/contracts/token/ERC20/ERC20.sol\":7787:7878  if (account == address(0)) {... */\n  tag_28\n  jumpi\n    /* \"@openzeppelin/contracts/token/ERC20/ERC20.sol\":7864:7865  0 */\n  0x00\n    /* \"@openzeppelin/contracts/token/ERC20/ERC20.sol\":7835:7867  ERC20InvalidReceiver(address(0)) */\n  mload(0x40)\n  0xec442f0500000000000000000000000000000000000000000000000000000000\n  dup2\n  mstore\n  0x04\n  add\n  tag_29\n  swap2\n  swap1\n  tag_30\n  jump\t// in\ntag_29:\n  mload(0x40)\n  dup1\n  swap2\n  sub\n  swap1\n  revert\n    /* \"@openzeppelin/contracts/token/ERC20/ERC20.sol\":7787:7878  if (account == address(0)) {... */\ntag_28:\n    /* \"@openzeppelin/contracts/token/ERC20/ERC20.sol\":7887:7922  _update(address(0), account, value) */\n  tag_31\n    /* \"@openzeppelin/contracts/token/ERC20/ERC20.sol\":7903:7904  0 */\n  0x00\n    /* \"@openzeppelin/contracts/token/ERC20/ERC20.sol\":7907:7914  account */\n  dup4\n    /* \"@openzeppelin/contracts/token/ERC20/ERC20.sol\":7916:7921  value */\n  dup4\n    /* \"@openzeppelin/contracts/token/ERC20/ERC20.sol\":7887:7894  _update */\n  shl(0x20, tag_32)\n    /* \"@openzeppelin/contracts/token/ERC20/ERC20.sol\":7887:7922  _update(address(0), account, value) */\n  0x20\n  shr\n  jump\t// in\ntag_31:\n    /* \"@openzeppelin/contracts/token/ERC20/ERC20.sol\":7721:7929  function _mint(address account, uint256 value) internal {... */\n  pop\n  pop\n  jump\t// out\n    /* \"@openzeppelin/contracts/token/ERC20/extensions/ERC20Capped.sol\":1059:1430  function _update(address from, address to, uint256 value) internal virtual override {... */\ntag_32:\n    /* \"@openzeppelin/contracts/token/ERC20/extensions/ERC20Capped.sol\":1153:1183  super._update(from, to, value) */\n  tag_34\n    /* \"@openzeppelin/contracts/token/ERC20/extensions/ERC20Capped.sol\":1167:1171  from */\n  dup4\n    /* \"@openzeppelin/contracts/token/ERC20/extensions/ERC20Capped.sol\":1173:1175  to */\n  dup4\n    /* \"@openzeppelin/contracts/token/ERC20/extensions/ERC20Capped.sol\":1177:1182  value */\n  dup4\n    /* \"@openzeppelin/contracts/token/ERC20/extensions/ERC20Capped.sol\":1153:1166  super._update */\n  shl(0x20, tag_35)\n    /* \"@openzeppelin/contracts/token/ERC20/extensions/ERC20Capped.sol\":1153:1183  super._update(from, to, value) */\n  0x20\n  shr\n  jump\t// in\ntag_34:\n    /* \"@openzeppelin/contracts/token/ERC20/extensions/ERC20Capped.sol\":1214:1215  0 */\n  0x00\n    /* \"@openzeppelin/contracts/token/ERC20/extensions/ERC20Capped.sol\":1198:1216  from == address(0) */\n  0xffffffffffffffffffffffffffffffffffffffff\n  and\n    /* \"@openzeppelin/contracts/token/ERC20/extensions/ERC20Capped.sol\":1198:1202  from */\n  dup4\n    /* \"@openzeppelin/contracts/token/ERC20/extensions/ERC20Capped.sol\":1198:1216  from == address(0) */\n  0xffffffffffffffffffffffffffffffffffffffff\n  and\n  sub\n    /* \"@openzeppelin/contracts/token/ERC20/extensions/ERC20Capped.sol\":1194:1424  if (from == address(0)) {... */\n  tag_36\n  jumpi\n    /* \"@openzeppelin/contracts/token/ERC20/extensions/ERC20Capped.sol\":1232:1249  uint256 maxSupply */\n  0x00\n    /* \"@openzeppelin/contracts/token/ERC20/extensions/ERC20Capped.sol\":1252:1257  cap() */\n  tag_37\n    /* \"@openzeppelin/contracts/token/ERC20/extensions/ERC20Capped.sol\":1252:1255  cap */\n  shl(0x20, tag_38)\n    /* \"@openzeppelin/contracts/token/ERC20/extensions/ERC20Capped.sol\":1252:1257  cap() */\n  0x20\n  shr\n  jump\t// in\ntag_37:\n    /* \"@openzeppelin/contracts/token/ERC20/extensions/ERC20Capped.sol\":1232:1257  uint256 maxSupply = cap() */\n  swap1\n  pop\n    /* \"@openzeppelin/contracts/token/ERC20/extensions/ERC20Capped.sol\":1271:1285  uint256 supply */\n  0x00\n    /* \"@openzeppelin/contracts/token/ERC20/extensions/ERC20Capped.sol\":1288:1301  totalSupply() */\n  tag_39\n    /* \"@openzeppelin/contracts/token/ERC20/extensions/ERC20Capped.sol\":1288:1299  totalSupply */\n  shl(0x20, tag_40)\n    /* \"@openzeppelin/contracts/token/ERC20/extensions/ERC20Capped.sol\":1288:1301  totalSupply() */\n  0x20\n  shr\n  jump\t// in\ntag_39:\n    /* \"@openzeppelin/contracts/token/ERC20/extensions/ERC20Capped.sol\":1271:1301  uint256 supply = totalSupply() */\n  swap1\n  pop\n    /* \"@openzeppelin/contracts/token/ERC20/extensions/ERC20Capped.sol\":1328:1337  maxSupply */\n  dup2\n    /* \"@openzeppelin/contracts/token/ERC20/extensions/ERC20Capped.sol\":1319:1325  supply */\n  dup2\n    /* \"@openzeppelin/contracts/token/ERC20/extensions/ERC20Capped.sol\":1319:1337  supply > maxSupply */\n  gt\n    /* \"@openzeppelin/contracts/token/ERC20/extensions/ERC20Capped.sol\":1315:1414  if (supply > maxSupply) {... */\n  iszero\n  tag_41\n  jumpi\n    /* \"@openzeppelin/contracts/token/ERC20/extensions/ERC20Capped.sol\":1381:1387  supply */\n  dup1\n    /* \"@openzeppelin/contracts/token/ERC20/extensions/ERC20Capped.sol\":1389:1398  maxSupply */\n  dup3\n    /* \"@openzeppelin/contracts/token/ERC20/extensions/ERC20Capped.sol\":1364:1399  ERC20ExceededCap(supply, maxSupply) */\n  mload(0x40)\n  0x9e79f85400000000000000000000000000000000000000000000000000000000\n  dup2\n  mstore\n  0x04\n  add\n  tag_42\n  swap3\n  swap2\n  swap1\n  tag_43\n  jump\t// in\ntag_42:\n  mload(0x40)\n  dup1\n  swap2\n  sub\n  swap1\n  revert\n    /* \"@openzeppelin/contracts/token/ERC20/extensions/ERC20Capped.sol\":1315:1414  if (supply > maxSupply) {... */\ntag_41:\n    /* \"@openzeppelin/contracts/token/ERC20/extensions/ERC20Capped.sol\":1218:1424  {... */\n  pop\n  pop\n    /* \"@openzeppelin/contracts/token/ERC20/extensions/ERC20Capped.sol\":1194:1424  if (from == address(0)) {... */\ntag_36:\n    /* \"@openzeppelin/contracts/token/ERC20/extensions/ERC20Capped.sol\":1059:1430  function _update(address from, address to, uint256 value) internal virtual override {... */\n  pop\n  pop\n  pop\n  jump\t// out\n    /* \"@openzeppelin/contracts/token/ERC20/ERC20.sol\":6271:7378  function _update(address from, address to, uint256 value) internal virtual {... */\ntag_35:\n    /* \"@openzeppelin/contracts/token/ERC20/ERC20.sol\":6376:6377  0 */\n  0x00\n    /* \"@openzeppelin/contracts/token/ERC20/ERC20.sol\":6360:6378  from == address(0) */\n  0xffffffffffffffffffffffffffffffffffffffff\n  and\n    /* \"@openzeppelin/contracts/token/ERC20/ERC20.sol\":6360:6364  from */\n  dup4\n    /* \"@openzeppelin/contracts/token/ERC20/ERC20.sol\":6360:6378  from == address(0) */\n  0xffffffffffffffffffffffffffffffffffffffff\n  and\n  sub\n    /* \"@openzeppelin/contracts/token/ERC20/ERC20.sol\":6356:6896  if (from == address(0)) {... */\n  tag_45\n  jumpi\n    /* \"@openzeppelin/contracts/token/ERC20/ERC20.sol\":6512:6517  value */\n  dup1\n    /* \"@openzeppelin/contracts/token/ERC20/ERC20.sol\":6496:6508  _totalSupply */\n  0x02\n  0x00\n    /* \"@openzeppelin/contracts/token/ERC20/ERC20.sol\":6496:6517  _totalSupply += value */\n  dup3\n  dup3\n  sload\n  tag_46\n  swap2\n  swap1\n  tag_47\n  jump\t// in\ntag_46:\n  swap3\n  pop\n  pop\n  dup2\n  swap1\n  sstore\n  pop\n    /* \"@openzeppelin/contracts/token/ERC20/ERC20.sol\":6356:6896  if (from == address(0)) {... */\n  jump(tag_48)\ntag_45:\n    /* \"@openzeppelin/contracts/token/ERC20/ERC20.sol\":6548:6567  uint256 fromBalance */\n  0x00\n    /* \"@openzeppelin/contracts/token/ERC20/ERC20.sol\":6570:6579  _balances */\n  dup1\n    /* \"@openzeppelin/contracts/token/ERC20/ERC20.sol\":6570:6585  _balances[from] */\n  0x00\n    /* \"@openzeppelin/contracts/token/ERC20/ERC20.sol\":6580:6584  from */\n  dup6\n    /* \"@openzeppelin/contracts/token/ERC20/ERC20.sol\":6570:6585  _balances[from] */\n  0xffffffffffffffffffffffffffffffffffffffff\n  and\n  0xffffffffffffffffffffffffffffffffffffffff\n  and\n  dup2\n  mstore\n  0x20\n  add\n  swap1\n  dup2\n  mstore\n  0x20\n  add\n  0x00\n  keccak256\n  sload\n    /* \"@openzeppelin/contracts/token/ERC20/ERC20.sol\":6548:6585  uint256 fromBalance = _balances[from] */\n  swap1\n  pop\n    /* \"@openzeppelin/contracts/token/ERC20/ERC20.sol\":6617:6622  value */\n  dup2\n    /* \"@openzeppelin/contracts/token/ERC20/ERC20.sol\":6603:6614  fromBalance */\n  dup2\n    /* \"@openzeppelin/contracts/token/ERC20/ERC20.sol\":6603:6622  fromBalance < value */\n  lt\n    /* \"@openzeppelin/contracts/token/ERC20/ERC20.sol\":6599:6714  if (fromBalance < value) {... */\n  iszero\n  tag_49\n  jumpi\n    /* \"@openzeppelin/contracts/token/ERC20/ERC20.sol\":6674:6678  from */\n  dup4\n    /* \"@openzeppelin/contracts/token/ERC20/ERC20.sol\":6680:6691  fromBalance */\n  dup2\n    /* \"@openzeppelin/contracts/token/ERC20/ERC20.sol\":6693:6698  value */\n  dup4\n    /* \"@openzeppelin/contracts/token/ERC20/ERC20.sol\":6649:6699  ERC20InsufficientBalance(from, fromBalance, value) */\n  mload(0x40)\n  0xe450d38c00000000000000000000000000000000000000000000000000000000\n  dup2\n  mstore\n  0x04\n  add\n  tag_50\n  swap4\n  swap3\n  swap2\n  swap1\n  tag_51\n  jump\t// in\ntag_50:\n  mload(0x40)\n  dup1\n  swap2\n  sub\n  swap1\n  revert\n    /* \"@openzeppelin/contracts/token/ERC20/ERC20.sol\":6599:6714  if (fromBalance < value) {... */\ntag_49:\n    /* \"@openzeppelin/contracts/token/ERC20/ERC20.sol\":6866:6871  value */\n  dup2\n    /* \"@openzeppelin/contracts/token/ERC20/ERC20.sol\":6852:6863  fromBalance */\n  dup2\n    /* \"@openzeppelin/contracts/token/ERC20/ERC20.sol\":6852:6871  fromBalance - value */\n  sub\n    /* \"@openzeppelin/contracts/token/ERC20/ERC20.sol\":6834:6843  _balances */\n  0x00\n    /* \"@openzeppelin/contracts/token/ERC20/ERC20.sol\":6834:6849  _balances[from] */\n  dup1\n    /* \"@openzeppelin/contracts/token/ERC20/ERC20.sol\":6844:6848  from */\n  dup7\n    /* \"@openzeppelin/contracts/token/ERC20/ERC20.sol\":6834:6849  _balances[from] */\n  0xffffffffffffffffffffffffffffffffffffffff\n  and\n  0xffffffffffffffffffffffffffffffffffffffff\n  and\n  dup2\n  mstore\n  0x20\n  add\n  swap1\n  dup2\n  mstore\n  0x20\n  add\n  0x00\n  keccak256\n    /* \"@openzeppelin/contracts/token/ERC20/ERC20.sol\":6834:6871  _balances[from] = fromBalance - value */\n  dup2\n  swap1\n  sstore\n  pop\n    /* \"@openzeppelin/contracts/token/ERC20/ERC20.sol\":6534:6896  {... */\n  pop\n    /* \"@openzeppelin/contracts/token/ERC20/ERC20.sol\":6356:6896  if (from == address(0)) {... */\ntag_48:\n    /* \"@openzeppelin/contracts/token/ERC20/ERC20.sol\":6924:6925  0 */\n  0x00\n    /* \"@openzeppelin/contracts/token/ERC20/ERC20.sol\":6910:6926  to == address(0) */\n  0xffffffffffffffffffffffffffffffffffffffff\n  and\n    /* \"@openzeppelin/contracts/token/ERC20/ERC20.sol\":6910:6912  to */\n  dup3\n    /* \"@openzeppelin/contracts/token/ERC20/ERC20.sol\":6910:6926  to == address(0) */\n  0xffffffffffffffffffffffffffffffffffffffff\n  and\n  sub\n    /* \"@openzeppelin/contracts/token/ERC20/ERC20.sol\":6906:7331  if (to == address(0)) {... */\n  tag_52\n  jumpi\n    /* \"@openzeppelin/contracts/token/ERC20/ERC20.sol\":7089:7094  value */\n  dup1\n    /* \"@openzeppelin/contracts/token/ERC20/ERC20.sol\":7073:7085  _totalSupply */\n  0x02\n  0x00\n    /* \"@openzeppelin/contracts/token/ERC20/ERC20.sol\":7073:7094  _totalSupply -= value */\n  dup3\n  dup3\n  sload\n  sub\n  swap3\n  pop\n  pop\n  dup2\n  swap1\n  sstore\n  pop\n    /* \"@openzeppelin/contracts/token/ERC20/ERC20.sol\":6906:7331  if (to == address(0)) {... */\n  jump(tag_53)\ntag_52:\n    /* \"@openzeppelin/contracts/token/ERC20/ERC20.sol\":7301:7306  value */\n  dup1\n    /* \"@openzeppelin/contracts/token/ERC20/ERC20.sol\":7284:7293  _balances */\n  0x00\n    /* \"@openzeppelin/contracts/token/ERC20/ERC20.sol\":7284:7297  _balances[to] */\n  dup1\n    /* \"@openzeppelin/contracts/token/ERC20/ERC20.sol\":7294:7296  to */\n  dup5\n    /* \"@openzeppelin/contracts/token/ERC20/ERC20.sol\":7284:7297  _balances[to] */\n  0xffffffffffffffffffffffffffffffffffffffff\n  and\n  0xffffffffffffffffffffffffffffffffffffffff\n  and\n  dup2\n  mstore\n  0x20\n  add\n  swap1\n  dup2\n  mstore\n  0x20\n  add\n  0x00\n  keccak256\n  0x00\n    /* \"@openzeppelin/contracts/token/ERC20/ERC20.sol\":7284:7306  _balances[to] += value */\n  dup3\n  dup3\n  sload\n  add\n  swap3\n  pop\n  pop\n  dup2\n  swap1\n  sstore\n  pop\n    /* \"@openzeppelin/contracts/token/ERC20/ERC20.sol\":6906:7331  if (to == address(0)) {... */\ntag_53:\n    /* \"@openzeppelin/contracts/token/ERC20/ERC20.sol\":7361:7363  to */\n  dup2\n    /* \"@openzeppelin/contracts/token/ERC20/ERC20.sol\":7346:7371  Transfer(from, to, value) */\n  0xffffffffffffffffffffffffffffffffffffffff\n  and\n    /* \"@openzeppelin/contracts/token/ERC20/ERC20.sol\":7355:7359  from */\n  dup4\n    /* \"@openzeppelin/contracts/token/ERC20/ERC20.sol\":7346:7371  Transfer(from, to, value) */\n  0xffffffffffffffffffffffffffffffffffffffff\n  and\n  0xddf252ad1be2c89b69c2b068fc378daa952ba7f163c4a11628f55a4df523b3ef\n    /* \"@openzeppelin/contracts/token/ERC20/ERC20.sol\":7365:7370  value */\n  dup4\n    /* \"@openzeppelin/contracts/token/ERC20/ERC20.sol\":7346:7371  Transfer(from, to, value) */\n  mload(0x40)\n  tag_54\n  swap2\n  swap1\n  tag_55\n  jump\t// in\ntag_54:\n  mload(0x40)\n  dup1\n  swap2\n  sub\n  swap1\n  log3\n    /* \"@openzeppelin/contracts/token/ERC20/ERC20.sol\":6271:7378  function _update(address from, address to, uint256 value) internal virtual {... */\n  pop\n  pop\n  pop\n  jump\t// out\n    /* \"@openzeppelin/contracts/token/ERC20/extensions/ERC20Capped.sol\":923:1004  function cap() public view virtual returns (uint256) {... */\ntag_38:\n    /* \"@openzeppelin/contracts/token/ERC20/extensions/ERC20Capped.sol\":967:974  uint256 */\n  0x00\n    /* \"@openzeppelin/contracts/token/ERC20/extensions/ERC20Capped.sol\":993:997  _cap */\n  mload(0x80)\n    /* \"@openzeppelin/contracts/token/ERC20/extensions/ERC20Capped.sol\":986:997  return _cap */\n  swap1\n  pop\n    /* \"@openzeppelin/contracts/token/ERC20/extensions/ERC20Capped.sol\":923:1004  function cap() public view virtual returns (uint256) {... */\n  swap1\n  jump\t// out\n    /* \"@openzeppelin/contracts/token/ERC20/ERC20.sol\":3144:3241  function totalSupply() public view virtual returns (uint256) {... */\ntag_40:\n    /* \"@openzeppelin/contracts/token/ERC20/ERC20.sol\":3196:3203  uint256 */\n  0x00\n    /* \"@openzeppelin/contracts/token/ERC20/ERC20.sol\":3222:3234  _totalSupply */\n  sload(0x02)\n    /* \"@openzeppelin/contracts/token/ERC20/ERC20.sol\":3215:3234  return _totalSupply */\n  swap1\n  pop\n    /* \"@openzeppelin/contracts/token/ERC20/ERC20.sol\":3144:3241  function totalSupply() public view virtual returns (uint256) {... */\n  swap1\n  jump\t// out\n    /* \"#utility.yul\":7:187   */\ntag_58:\n    /* \"#utility.yul\":55:132   */\n  0x4e487b7100000000000000000000000000000000000000000000000000000000\n    /* \"#utility.yul\":52:53   */\n  0x00\n    /* \"#utility.yul\":45:133   */\n  mstore\n    /* \"#utility.yul\":152:156   */\n  0x11\n    /* \"#utility.yul\":149:150   */\n  0x04\n    /* \"#utility.yul\":142:157   */\n  mstore\n    /* \"#utility.yul\":176:180   */\n  0x24\n    /* \"#utility.yul\":173:174   */\n  0x00\n    /* \"#utility.yul\":166:181   */\n  revert\n    /* \"#utility.yul\":193:295   */\ntag_59:\n    /* \"#utility.yul\":235:243   */\n  0x00\n    /* \"#utility.yul\":282:287   */\n  dup2\n    /* \"#utility.yul\":279:280   */\n  0x01\n    /* \"#utility.yul\":275:288   */\n  shr\n    /* \"#utility.yul\":254:288   */\n  swap1\n  pop\n    /* \"#utility.yul\":193:295   */\n  swap2\n  swap1\n  pop\n  jump\t// out\n    /* \"#utility.yul\":301:1149   */\ntag_60:\n    /* \"#utility.yul\":362:367   */\n  0x00\n    /* \"#utility.yul\":369:373   */\n  dup1\n    /* \"#utility.yul\":393:399   */\n  dup3\n    /* \"#utility.yul\":384:399   */\n  swap2\n  pop\n    /* \"#utility.yul\":417:422   */\n  dup4\n    /* \"#utility.yul\":408:422   */\n  swap1\n  pop\n    /* \"#utility.yul\":431:1143   */\ntag_93:\n    /* \"#utility.yul\":452:453   */\n  0x01\n    /* \"#utility.yul\":442:450   */\n  dup6\n    /* \"#utility.yul\":439:454   */\n  gt\n    /* \"#utility.yul\":431:1143   */\n  iszero\n  tag_95\n  jumpi\n    /* \"#utility.yul\":547:551   */\n  dup1\n    /* \"#utility.yul\":542:545   */\n  dup7\n    /* \"#utility.yul\":538:552   */\n  div\n    /* \"#utility.yul\":532:536   */\n  dup2\n    /* \"#utility.yul\":529:553   */\n  gt\n    /* \"#utility.yul\":526:576   */\n  iszero\n  tag_96\n  jumpi\n    /* \"#utility.yul\":556:574   */\n  tag_97\n  tag_58\n  jump\t// in\ntag_97:\n    /* \"#utility.yul\":526:576   */\ntag_96:\n    /* \"#utility.yul\":606:607   */\n  0x01\n    /* \"#utility.yul\":596:604   */\n  dup6\n    /* \"#utility.yul\":592:608   */\n  and\n    /* \"#utility.yul\":589:1040   */\n  iszero\n  tag_98\n  jumpi\n    /* \"#utility.yul\":1021:1025   */\n  dup1\n    /* \"#utility.yul\":1014:1019   */\n  dup3\n    /* \"#utility.yul\":1010:1026   */\n  mul\n    /* \"#utility.yul\":1001:1026   */\n  swap2\n  pop\n    /* \"#utility.yul\":589:1040   */\ntag_98:\n    /* \"#utility.yul\":1071:1075   */\n  dup1\n    /* \"#utility.yul\":1065:1069   */\n  dup2\n    /* \"#utility.yul\":1061:1076   */\n  mul\n    /* \"#utility.yul\":1053:1076   */\n  swap1\n  pop\n    /* \"#utility.yul\":1101:1133   */\n  tag_99\n    /* \"#utility.yul\":1124:1132   */\n  dup6\n    /* \"#utility.yul\":1101:1133   */\n  tag_59\n  jump\t// in\ntag_99:\n    /* \"#utility.yul\":1089:1133   */\n  swap5\n  pop\n    /* \"#utility.yul\":431:1143   */\n  jump(tag_93)\ntag_95:\n    /* \"#utility.yul\":301:1149   */\n  swap5\n  pop\n  swap5\n  swap3\n  pop\n  pop\n  pop\n  jump\t// out\n    /* \"#utility.yul\":1155:2228   */\ntag_61:\n    /* \"#utility.yul\":1209:1214   */\n  0x00\n    /* \"#utility.yul\":1400:1408   */\n  dup3\n    /* \"#utility.yul\":1390:1430   */\n  tag_101\n  jumpi\n    /* \"#utility.yul\":1421:1422   */\n  0x01\n    /* \"#utility.yul\":1412:1422   */\n  swap1\n  pop\n    /* \"#utility.yul\":1423:1428   */\n  jump(tag_100)\n    /* \"#utility.yul\":1390:1430   */\ntag_101:\n    /* \"#utility.yul\":1449:1453   */\n  dup2\n    /* \"#utility.yul\":1439:1475   */\n  tag_102\n  jumpi\n    /* \"#utility.yul\":1466:1467   */\n  0x00\n    /* \"#utility.yul\":1457:1467   */\n  swap1\n  pop\n    /* \"#utility.yul\":1468:1473   */\n  jump(tag_100)\n    /* \"#utility.yul\":1439:1475   */\ntag_102:\n    /* \"#utility.yul\":1535:1539   */\n  dup2\n    /* \"#utility.yul\":1583:1584   */\n  0x01\n    /* \"#utility.yul\":1578:1605   */\n  dup2\n  eq\n  tag_104\n  jumpi\n    /* \"#utility.yul\":1619:1620   */\n  0x02\n    /* \"#utility.yul\":1614:1805   */\n  dup2\n  eq\n  tag_105\n  jumpi\n    /* \"#utility.yul\":1528:1805   */\n  jump(tag_103)\n    /* \"#utility.yul\":1578:1605   */\ntag_104:\n    /* \"#utility.yul\":1596:1597   */\n  0x01\n    /* \"#utility.yul\":1587:1597   */\n  swap2\n  pop\n    /* \"#utility.yul\":1598:1603   */\n  pop\n  jump(tag_100)\n    /* \"#utility.yul\":1614:1805   */\ntag_105:\n    /* \"#utility.yul\":1659:1662   */\n  0xff\n    /* \"#utility.yul\":1649:1657   */\n  dup5\n    /* \"#utility.yul\":1646:1663   */\n  gt\n    /* \"#utility.yul\":1643:1686   */\n  iszero\n  tag_106\n  jumpi\n    /* \"#utility.yul\":1666:1684   */\n  tag_107\n  tag_58\n  jump\t// in\ntag_107:\n    /* \"#utility.yul\":1643:1686   */\ntag_106:\n    /* \"#utility.yul\":1715:1723   */\n  dup4\n    /* \"#utility.yul\":1712:1713   */\n  0x02\n    /* \"#utility.yul\":1708:1724   */\n  exp\n    /* \"#utility.yul\":1699:1724   */\n  swap2\n  pop\n    /* \"#utility.yul\":1750:1753   */\n  dup5\n    /* \"#utility.yul\":1743:1748   */\n  dup3\n    /* \"#utility.yul\":1740:1754   */\n  gt\n    /* \"#utility.yul\":1737:1777   */\n  iszero\n  tag_108\n  jumpi\n    /* \"#utility.yul\":1757:1775   */\n  tag_109\n  tag_58\n  jump\t// in\ntag_109:\n    /* \"#utility.yul\":1737:1777   */\ntag_108:\n    /* \"#utility.yul\":1790:1795   */\n  pop\n  jump(tag_100)\n    /* \"#utility.yul\":1528:1805   */\ntag_103:\n  pop\n    /* \"#utility.yul\":1914:1916   */\n  0x20\n    /* \"#utility.yul\":1904:1912   */\n  dup4\n    /* \"#utility.yul\":1901:1917   */\n  lt\n    /* \"#utility.yul\":1895:1898   */\n  0x0133\n    /* \"#utility.yul\":1889:1893   */\n  dup4\n    /* \"#utility.yul\":1886:1899   */\n  lt\n    /* \"#utility.yul\":1882:1918   */\n  and\n    /* \"#utility.yul\":1864:1866   */\n  0x4e\n    /* \"#utility.yul\":1854:1862   */\n  dup5\n    /* \"#utility.yul\":1851:1867   */\n  lt\n    /* \"#utility.yul\":1846:1848   */\n  0x0b\n    /* \"#utility.yul\":1840:1844   */\n  dup5\n    /* \"#utility.yul\":1837:1849   */\n  lt\n    /* \"#utility.yul\":1833:1868   */\n  and\n    /* \"#utility.yul\":1817:1928   */\n  or\n    /* \"#utility.yul\":1814:2060   */\n  iszero\n  tag_110\n  jumpi\n    /* \"#utility.yul\":1970:1978   */\n  dup3\n    /* \"#utility.yul\":1964:1968   */\n  dup3\n    /* \"#utility.yul\":1960:1979   */\n  exp\n    /* \"#utility.yul\":1951:1979   */\n  swap1\n  pop\n    /* \"#utility.yul\":2005:2008   */\n  dup4\n    /* \"#utility.yul\":1998:2003   */\n  dup2\n    /* \"#utility.yul\":1995:2009   */\n  gt\n    /* \"#utility.yul\":1992:2032   */\n  iszero\n  tag_111\n  jumpi\n    /* \"#utility.yul\":2012:2030   */\n  tag_112\n  tag_58\n  jump\t// in\ntag_112:\n    /* \"#utility.yul\":1992:2032   */\ntag_111:\n    /* \"#utility.yul\":2045:2050   */\n  jump(tag_100)\n    /* \"#utility.yul\":1814:2060   */\ntag_110:\n    /* \"#utility.yul\":2085:2127   */\n  tag_113\n    /* \"#utility.yul\":2123:2126   */\n  dup5\n    /* \"#utility.yul\":2113:2121   */\n  dup5\n    /* \"#utility.yul\":2107:2111   */\n  dup5\n    /* \"#utility.yul\":2104:2105   */\n  0x01\n    /* \"#utility.yul\":2085:2127   */\n  tag_60\n  jump\t// in\ntag_113:\n    /* \"#utility.yul\":2070:2127   */\n  swap3\n  pop\n  swap1\n  pop\n    /* \"#utility.yul\":2159:2163   */\n  dup2\n    /* \"#utility.yul\":2154:2157   */\n  dup5\n    /* \"#utility.yul\":2150:2164   */\n  div\n    /* \"#utility.yul\":2143:2148   */\n  dup2\n    /* \"#utility.yul\":2140:2165   */\n  gt\n    /* \"#utility.yul\":2137:2188   */\n  iszero\n  tag_114\n  jumpi\n    /* \"#utility.yul\":2168:2186   */\n  tag_115\n  tag_58\n  jump\t// in\ntag_115:\n    /* \"#utility.yul\":2137:2188   */\ntag_114:\n    /* \"#utility.yul\":2217:2221   */\n  dup2\n    /* \"#utility.yul\":2210:2215   */\n  dup2\n    /* \"#utility.yul\":2206:2222   */\n  mul\n    /* \"#utility.yul\":2197:2222   */\n  swap1\n  pop\n    /* \"#utility.yul\":1155:2228   */\ntag_100:\n  swap4\n  swap3\n  pop\n  pop\n  pop\n  jump\t// out\n    /* \"#utility.yul\":2234:2311   */\ntag_62:\n    /* \"#utility.yul\":2271:2278   */\n  0x00\n    /* \"#utility.yul\":2300:2305   */\n  dup2\n    /* \"#utility.yul\":2289:2305   */\n  swap1\n  pop\n    /* \"#utility.yul\":2234:2311   */\n  swap2\n  swap1\n  pop\n  jump\t// out\n    /* \"#utility.yul\":2317:2602   */\ntag_6:\n    /* \"#utility.yul\":2377:2382   */\n  0x00\n    /* \"#utility.yul\":2401:2424   */\n  tag_118\n    /* \"#utility.yul\":2419:2423   */\n  dup3\n    /* \"#utility.yul\":2401:2424   */\n  tag_62\n  jump\t// in\ntag_118:\n    /* \"#utility.yul\":2393:2424   */\n  swap2\n  pop\n    /* \"#utility.yul\":2445:2472   */\n  tag_119\n    /* \"#utility.yul\":2463:2471   */\n  dup4\n    /* \"#utility.yul\":2445:2472   */\n  tag_62\n  jump\t// in\ntag_119:\n    /* \"#utility.yul\":2433:2472   */\n  swap3\n  pop\n    /* \"#utility.yul\":2491:2595   */\n  tag_120\n    /* \"#utility.yul\":2528:2594   */\n  0xffffffffffffffffffffffffffffffffffffffffffffffffffffffffffffffff\n    /* \"#utility.yul\":2518:2526   */\n  dup5\n    /* \"#utility.yul\":2512:2516   */\n  dup5\n    /* \"#utility.yul\":2491:2595   */\n  tag_61\n  jump\t// in\ntag_120:\n    /* \"#utility.yul\":2482:2595   */\n  swap1\n  pop\n    /* \"#utility.yul\":2317:2602   */\n  swap3\n  swap2\n  pop\n  pop\n  jump\t// out\n    /* \"#utility.yul\":2608:3018   */\ntag_8:\n    /* \"#utility.yul\":2648:2655   */\n  0x00\n    /* \"#utility.yul\":2671:2691   */\n  tag_122\n    /* \"#utility.yul\":2689:2690   */\n  dup3\n    /* \"#utility.yul\":2671:2691   */\n  tag_62\n  jump\t// in\ntag_122:\n    /* \"#utility.yul\":2666:2691   */\n  swap2\n  pop\n    /* \"#utility.yul\":2705:2725   */\n  tag_123\n    /* \"#utility.yul\":2723:2724   */\n  dup4\n    /* \"#utility.yul\":2705:2725   */\n  tag_62\n  jump\t// in\ntag_123:\n    /* \"#utility.yul\":2700:2725   */\n  swap3\n  pop\n    /* \"#utility.yul\":2760:2761   */\n  dup3\n    /* \"#utility.yul\":2757:2758   */\n  dup3\n    /* \"#utility.yul\":2753:2762   */\n  mul\n    /* \"#utility.yul\":2782:2812   */\n  tag_124\n    /* \"#utility.yul\":2800:2811   */\n  dup2\n    /* \"#utility.yul\":2782:2812   */\n  tag_62\n  jump\t// in\ntag_124:\n    /* \"#utility.yul\":2771:2812   */\n  swap2\n  pop\n    /* \"#utility.yul\":2961:2962   */\n  dup3\n    /* \"#utility.yul\":2952:2959   */\n  dup3\n    /* \"#utility.yul\":2948:2963   */\n  div\n    /* \"#utility.yul\":2945:2946   */\n  dup5\n    /* \"#utility.yul\":2942:2964   */\n  eq\n    /* \"#utility.yul\":2922:2923   */\n  dup4\n    /* \"#utility.yul\":2915:2924   */\n  iszero\n    /* \"#utility.yul\":2895:2978   */\n  or\n    /* \"#utility.yul\":2872:3011   */\n  tag_125\n  jumpi\n    /* \"#utility.yul\":2991:3009   */\n  tag_126\n  tag_58\n  jump\t// in\ntag_126:\n    /* \"#utility.yul\":2872:3011   */\ntag_125:\n    /* \"#utility.yul\":2656:3018   */\n  pop\n    /* \"#utility.yul\":2608:3018   */\n  swap3\n  swap2\n  pop\n  pop\n  jump\t// out\n    /* \"#utility.yul\":3024:3123   */\ntag_63:\n    /* \"#utility.yul\":3076:3082   */\n  0x00\n    /* \"#utility.yul\":3110:3115   */\n  dup2\n    /* \"#utility.yul\":3104:3116   */\n  mload\n    /* \"#utility.yul\":3094:3116   */\n  swap1\n  pop\n    /* \"#utility.yul\":3024:3123   */\n  swap2\n  swap1\n  pop\n  jump\t// out\n    /* \"#utility.yul\":3129:3309   */\ntag_64:\n    /* \"#utility.yul\":3177:3254   */\n  0x4e487b7100000000000000000000000000000000000000000000000000000000\n    /* \"#utility.yul\":3174:3175   */\n  0x00\n    /* \"#utility.yul\":3167:3255   */\n  mstore\n    /* \"#utility.yul\":3274:3278   */\n  0x41\n    /* \"#utility.yul\":3271:3272   */\n  0x04\n    /* \"#utility.yul\":3264:3279   */\n  mstore\n    /* \"#utility.yul\":3298:3302   */\n  0x24\n    /* \"#utility.yul\":3295:3296   */\n  0x00\n    /* \"#utility.yul\":3288:3303   */\n  revert\n    /* \"#utility.yul\":3315:3495   */\ntag_65:\n    /* \"#utility.yul\":3363:3440   */\n  0x4e487b7100000000000000000000000000000000000000000000000000000000\n    /* \"#utility.yul\":3360:3361   */\n  0x00\n    /* \"#utility.yul\":3353:3441   */\n  mstore\n    /* \"#utility.yul\":3460:3464   */\n  0x22\n    /* \"#utility.yul\":3457:3458   */\n  0x04\n    /* \"#utility.yul\":3450:3465   */\n  mstore\n    /* \"#utility.yul\":3484:3488   */\n  0x24\n    /* \"#utility.yul\":3481:3482   */\n  0x00\n    /* \"#utility.yul\":3474:3489   */\n  revert\n    /* \"#utility.yul\":3501:3821   */\ntag_66:\n    /* \"#utility.yul\":3545:3551   */\n  0x00\n    /* \"#utility.yul\":3582:3583   */\n  0x02\n    /* \"#utility.yul\":3576:3580   */\n  dup3\n    /* \"#utility.yul\":3572:3584   */\n  div\n    /* \"#utility.yul\":3562:3584   */\n  swap1\n  pop\n    /* \"#utility.yul\":3629:3630   */\n  0x01\n    /* \"#utility.yul\":3623:3627   */\n  dup3\n    /* \"#utility.yul\":3619:3631   */\n  and\n    /* \"#utility.yul\":3650:3668   */\n  dup1\n    /* \"#utility.yul\":3640:3721   */\n  tag_131\n  jumpi\n    /* \"#utility.yul\":3706:3710   */\n  0x7f\n    /* \"#utility.yul\":3698:3704   */\n  dup3\n    /* \"#utility.yul\":3694:3711   */\n  and\n    /* \"#utility.yul\":3684:3711   */\n  swap2\n  pop\n    /* \"#utility.yul\":3640:3721   */\ntag_131:\n    /* \"#utility.yul\":3768:3770   */\n  0x20\n    /* \"#utility.yul\":3760:3766   */\n  dup3\n    /* \"#utility.yul\":3757:3771   */\n  lt\n    /* \"#utility.yul\":3737:3755   */\n  dup2\n    /* \"#utility.yul\":3734:3772   */\n  sub\n    /* \"#utility.yul\":3731:3815   */\n  tag_132\n  jumpi\n    /* \"#utility.yul\":3787:3805   */\n  tag_133\n  tag_65\n  jump\t// in\ntag_133:\n    /* \"#utility.yul\":3731:3815   */\ntag_132:\n    /* \"#utility.yul\":3552:3821   */\n  pop\n    /* \"#utility.yul\":3501:3821   */\n  swap2\n  swap1\n  pop\n  jump\t// out\n    /* \"#utility.yul\":3827:3968   */\ntag_67:\n    /* \"#utility.yul\":3876:3880   */\n  0x00\n    /* \"#utility.yul\":3899:3902   */\n  dup2\n    /* \"#utility.yul\":3891:3902   */\n  swap1\n  pop\n    /* \"#utility.yul\":3922:3925   */\n  dup2\n    /* \"#utility.yul\":3919:3920   */\n  0x00\n    /* \"#utility.yul\":3912:3926   */\n  mstore\n    /* \"#utility.yul\":3956:3960   */\n  0x20\n    /* \"#utility.yul\":3953:3954   */\n  0x00\n    /* \"#utility.yul\":3943:3961   */\n  keccak256\n    /* \"#utility.yul\":3935:3961   */\n  swap1\n  pop\n    /* \"#utility.yul\":3827:3968   */\n  swap2\n  swap1\n  pop\n  jump\t// out\n    /* \"#utility.yul\":3974:4067   */\ntag_68:\n    /* \"#utility.yul\":4011:4017   */\n  0x00\n    /* \"#utility.yul\":4058:4060   */\n  0x20\n    /* \"#utility.yul\":4053:4055   */\n  0x1f\n    /* \"#utility.yul\":4046:4051   */\n  dup4\n    /* \"#utility.yul\":4042:4056   */\n  add\n    /* \"#utility.yul\":4038:4061   */\n  div\n    /* \"#utility.yul\":4028:4061   */\n  swap1\n  pop\n    /* \"#utility.yul\":3974:4067   */\n  swap2\n  swap1\n  pop\n  jump\t// out\n    /* \"#utility.yul\":4073:4180   */\ntag_69:\n    /* \"#utility.yul\":4117:4125   */\n  0x00\n    /* \"#utility.yul\":4167:4172   */\n  dup3\n    /* \"#utility.yul\":4161:4165   */\n  dup3\n    /* \"#utility.yul\":4157:4173   */\n  shl\n    /* \"#utility.yul\":4136:4173   */\n  swap1\n  pop\n    /* \"#utility.yul\":4073:4180   */\n  swap3\n  swap2\n  pop\n  pop\n  jump\t// out\n    /* \"#utility.yul\":4186:4579   */\ntag_70:\n    /* \"#utility.yul\":4255:4261   */\n  0x00\n    /* \"#utility.yul\":4305:4306   */\n  0x08\n    /* \"#utility.yul\":4293:4303   */\n  dup4\n    /* \"#utility.yul\":4289:4307   */\n  mul\n    /* \"#utility.yul\":4328:4425   */\n  tag_138\n    /* \"#utility.yul\":4358:4424   */\n  0xffffffffffffffffffffffffffffffffffffffffffffffffffffffffffffffff\n    /* \"#utility.yul\":4347:4356   */\n  dup3\n    /* \"#utility.yul\":4328:4425   */\n  tag_69\n  jump\t// in\ntag_138:\n    /* \"#utility.yul\":4446:4485   */\n  tag_139\n    /* \"#utility.yul\":4476:4484   */\n  dup7\n    /* \"#utility.yul\":4465:4474   */\n  dup4\n    /* \"#utility.yul\":4446:4485   */\n  tag_69\n  jump\t// in\ntag_139:\n    /* \"#utility.yul\":4434:4485   */\n  swap6\n  pop\n    /* \"#utility.yul\":4518:4522   */\n  dup1\n    /* \"#utility.yul\":4514:4523   */\n  not\n    /* \"#utility.yul\":4507:4512   */\n  dup5\n    /* \"#utility.yul\":4503:4524   */\n  and\n    /* \"#utility.yul\":4494:4524   */\n  swap4\n  pop\n    /* \"#utility.yul\":4567:4571   */\n  dup1\n    /* \"#utility.yul\":4557:4565   */\n  dup7\n    /* \"#utility.yul\":4553:4572   */\n  and\n    /* \"#utility.yul\":4546:4551   */\n  dup5\n    /* \"#utility.yul\":4543:4573   */\n  or\n    /* \"#utility.yul\":4533:4573   */\n  swap3\n  pop\n    /* \"#utility.yul\":4262:4579   */\n  pop\n  pop\n    /* \"#utility.yul\":4186:4579   */\n  swap4\n  swap3\n  pop\n  pop\n  pop\n  jump\t// out\n    /* \"#utility.yul\":4585:4645   */\ntag_71:\n    /* \"#utility.yul\":4613:4616   */\n  0x00\n    /* \"#utility.yul\":4634:4639   */\n  dup2\n    /* \"#utility.yul\":4627:4639   */\n  swap1\n  pop\n    /* \"#utility.yul\":4585:4645   */\n  swap2\n  swap1\n  pop\n  jump\t// out\n    /* \"#utility.yul\":4651:4793   */\ntag_72:\n    /* \"#utility.yul\":4701:4710   */\n  0x00\n    /* \"#utility.yul\":4734:4787   */\n  tag_142\n    /* \"#utility.yul\":4752:4786   */\n  tag_143\n    /* \"#utility.yul\":4761:4785   */\n  tag_144\n    /* \"#utility.yul\":4779:4784   */\n  dup5\n    /* \"#utility.yul\":4761:4785   */\n  tag_62\n  jump\t// in\ntag_144:\n    /* \"#utility.yul\":4752:4786   */\n  tag_71\n  jump\t// in\ntag_143:\n    /* \"#utility.yul\":4734:4787   */\n  tag_62\n  jump\t// in\ntag_142:\n    /* \"#utility.yul\":4721:4787   */\n  swap1\n  pop\n    /* \"#utility.yul\":4651:4793   */\n  swap2\n  swap1\n  pop\n  jump\t// out\n    /* \"#utility.yul\":4799:4874   */\ntag_73:\n    /* \"#utility.yul\":4842:4845   */\n  0x00\n    /* \"#utility.yul\":4863:4868   */\n  dup2\n    /* \"#utility.yul\":4856:4868   */\n  swap1\n  pop\n    /* \"#utility.yul\":4799:4874   */\n  swap2\n  swap1\n  pop\n  jump\t// out\n    /* \"#utility.yul\":4880:5149   */\ntag_74:\n    /* \"#utility.yul\":4990:5029   */\n  tag_147\n    /* \"#utility.yul\":5021:5028   */\n  dup4\n    /* \"#utility.yul\":4990:5029   */\n  tag_72\n  jump\t// in\ntag_147:\n    /* \"#utility.yul\":5051:5142   */\n  tag_148\n    /* \"#utility.yul\":5100:5141   */\n  tag_149\n    /* \"#utility.yul\":5124:5140   */\n  dup3\n    /* \"#utility.yul\":5100:5141   */\n  tag_73\n  jump\t// in\ntag_149:\n    /* \"#utility.yul\":5092:5098   */\n  dup5\n    /* \"#utility.yul\":5085:5089   */\n  dup5\n    /* \"#utility.yul\":5079:5090   */\n  sload\n    /* \"#utility.yul\":5051:5142   */\n  tag_70\n  jump\t// in\ntag_148:\n    /* \"#utility.yul\":5045:5049   */\n  dup3\n    /* \"#utility.yul\":5038:5143   */\n  sstore\n    /* \"#utility.yul\":4956:5149   */\n  pop\n    /* \"#utility.yul\":4880:5149   */\n  pop\n  pop\n  pop\n  jump\t// out\n    /* \"#utility.yul\":5155:5228   */\ntag_75:\n    /* \"#utility.yul\":5200:5203   */\n  0x00\n    /* \"#utility.yul\":5155:5228   */\n  swap1\n  jump\t// out\n    /* \"#utility.yul\":5234:5423   */\ntag_76:\n    /* \"#utility.yul\":5311:5343   */\n  tag_152\n  tag_75\n  jump\t// in\ntag_152:\n    /* \"#utility.yul\":5352:5417   */\n  tag_153\n    /* \"#utility.yul\":5410:5416   */\n  dup2\n    /* \"#utility.yul\":5402:5408   */\n  dup5\n    /* \"#utility.yul\":5396:5400   */\n  dup5\n    /* \"#utility.yul\":5352:5417   */\n  tag_74\n  jump\t// in\ntag_153:\n    /* \"#utility.yul\":5287:5423   */\n  pop\n    /* \"#utility.yul\":5234:5423   */\n  pop\n  pop\n  jump\t// out\n    /* \"#utility.yul\":5429:5615   */\ntag_77:\n    /* \"#utility.yul\":5489:5609   */\ntag_155:\n    /* \"#utility.yul\":5506:5509   */\n  dup2\n    /* \"#utility.yul\":5499:5504   */\n  dup2\n    /* \"#utility.yul\":5496:5510   */\n  lt\n    /* \"#utility.yul\":5489:5609   */\n  iszero\n  tag_157\n  jumpi\n    /* \"#utility.yul\":5560:5599   */\n  tag_158\n    /* \"#utility.yul\":5597:5598   */\n  0x00\n    /* \"#utility.yul\":5590:5595   */\n  dup3\n    /* \"#utility.yul\":5560:5599   */\n  tag_76\n  jump\t// in\ntag_158:\n    /* \"#utility.yul\":5533:5534   */\n  0x01\n    /* \"#utility.yul\":5526:5531   */\n  dup2\n    /* \"#utility.yul\":5522:5535   */\n  add\n    /* \"#utility.yul\":5513:5535   */\n  swap1\n  pop\n    /* \"#utility.yul\":5489:5609   */\n  jump(tag_155)\ntag_157:\n    /* \"#utility.yul\":5429:5615   */\n  pop\n  pop\n  jump\t// out\n    /* \"#utility.yul\":5621:6164   */\ntag_78:\n    /* \"#utility.yul\":5722:5724   */\n  0x1f\n    /* \"#utility.yul\":5717:5720   */\n  dup3\n    /* \"#utility.yul\":5714:5725   */\n  gt\n    /* \"#utility.yul\":5711:6157   */\n  iszero\n  tag_160\n  jumpi\n    /* \"#utility.yul\":5756:5794   */\n  tag_161\n    /* \"#utility.yul\":5788:5793   */\n  dup2\n    /* \"#utility.yul\":5756:5794   */\n  tag_67\n  jump\t// in\ntag_161:\n    /* \"#utility.yul\":5840:5869   */\n  tag_162\n    /* \"#utility.yul\":5858:5868   */\n  dup5\n    /* \"#utility.yul\":5840:5869   */\n  tag_68\n  jump\t// in\ntag_162:\n    /* \"#utility.yul\":5830:5838   */\n  dup2\n    /* \"#utility.yul\":5826:5870   */\n  add\n    /* \"#utility.yul\":6023:6025   */\n  0x20\n    /* \"#utility.yul\":6011:6021   */\n  dup6\n    /* \"#utility.yul\":6008:6026   */\n  lt\n    /* \"#utility.yul\":6005:6054   */\n  iszero\n  tag_163\n  jumpi\n    /* \"#utility.yul\":6044:6052   */\n  dup2\n    /* \"#utility.yul\":6029:6052   */\n  swap1\n  pop\n    /* \"#utility.yul\":6005:6054   */\ntag_163:\n    /* \"#utility.yul\":6067:6147   */\n  tag_164\n    /* \"#utility.yul\":6123:6145   */\n  tag_165\n    /* \"#utility.yul\":6141:6144   */\n  dup6\n    /* \"#utility.yul\":6123:6145   */\n  tag_68\n  jump\t// in\ntag_165:\n    /* \"#utility.yul\":6113:6121   */\n  dup4\n    /* \"#utility.yul\":6109:6146   */\n  add\n    /* \"#utility.yul\":6096:6107   */\n  dup3\n    /* \"#utility.yul\":6067:6147   */\n  tag_77\n  jump\t// in\ntag_164:\n    /* \"#utility.yul\":5726:6157   */\n  pop\n  pop\n    /* \"#utility.yul\":5711:6157   */\ntag_160:\n    /* \"#utility.yul\":5621:6164   */\n  pop\n  pop\n  pop\n  jump\t// out\n    /* \"#utility.yul\":6170:6287   */\ntag_79:\n    /* \"#utility.yul\":6224:6232   */\n  0x00\n    /* \"#utility.yul\":6274:6279   */\n  dup3\n    /* \"#utility.yul\":6268:6272   */\n  dup3\n    /* \"#utility.yul\":6264:6280   */\n  shr\n    /* \"#utility.yul\":6243:6280   */\n  swap1\n  pop\n    /* \"#utility.yul\":6170:6287   */\n  swap3\n  swap2\n  pop\n  pop\n  jump\t// out\n    /* \"#utility.yul\":6293:6462   */\ntag_80:\n    /* \"#utility.yul\":6337:6343   */\n  0x00\n    /* \"#utility.yul\":6370:6421   */\n  tag_168\n    /* \"#utility.yul\":6418:6419   */\n  0x00\n    /* \"#utility.yul\":6414:6420   */\n  not\n    /* \"#utility.yul\":6406:6411   */\n  dup5\n    /* \"#utility.yul\":6403:6404   */\n  0x08\n    /* \"#utility.yul\":6399:6412   */\n  mul\n    /* \"#utility.yul\":6370:6421   */\n  tag_79\n  jump\t// in\ntag_168:\n    /* \"#utility.yul\":6366:6422   */\n  not\n    /* \"#utility.yul\":6451:6455   */\n  dup1\n    /* \"#utility.yul\":6445:6449   */\n  dup4\n    /* \"#utility.yul\":6441:6456   */\n  and\n    /* \"#utility.yul\":6431:6456   */\n  swap2\n  pop\n    /* \"#utility.yul\":6344:6462   */\n  pop\n    /* \"#utility.yul\":6293:6462   */\n  swap3\n  swap2\n  pop\n  pop\n  jump\t// out\n    /* \"#utility.yul\":6467:6762   */\ntag_81:\n    /* \"#utility.yul\":6543:6547   */\n  0x00\n    /* \"#utility.yul\":6689:6718   */\n  tag_170\n    /* \"#utility.yul\":6714:6717   */\n  dup4\n    /* \"#utility.yul\":6708:6712   */\n  dup4\n    /* \"#utility.yul\":6689:6718   */\n  tag_80\n  jump\t// in\ntag_170:\n    /* \"#utility.yul\":6681:6718   */\n  swap2\n  pop\n    /* \"#utility.yul\":6751:6754   */\n  dup3\n    /* \"#utility.yul\":6748:6749   */\n  0x02\n    /* \"#utility.yul\":6744:6755   */\n  mul\n    /* \"#utility.yul\":6738:6742   */\n  dup3\n    /* \"#utility.yul\":6735:6756   */\n  or\n    /* \"#utility.yul\":6727:6756   */\n  swap1\n  pop\n    /* \"#utility.yul\":6467:6762   */\n  swap3\n  swap2\n  pop\n  pop\n  jump\t// out\n    /* \"#utility.yul\":6767:8162   */\ntag_13:\n    /* \"#utility.yul\":6884:6921   */\n  tag_172\n    /* \"#utility.yul\":6917:6920   */\n  dup3\n    /* \"#utility.yul\":6884:6921   */\n  tag_63\n  jump\t// in\ntag_172:\n    /* \"#utility.yul\":6986:7004   */\n  0xffffffffffffffff\n    /* \"#utility.yul\":6978:6984   */\n  dup2\n    /* \"#utility.yul\":6975:7005   */\n  gt\n    /* \"#utility.yul\":6972:7028   */\n  iszero\n  tag_173\n  jumpi\n    /* \"#utility.yul\":7008:7026   */\n  tag_174\n  tag_64\n  jump\t// in\ntag_174:\n    /* \"#utility.yul\":6972:7028   */\ntag_173:\n    /* \"#utility.yul\":7052:7090   */\n  tag_175\n    /* \"#utility.yul\":7084:7088   */\n  dup3\n    /* \"#utility.yul\":7078:7089   */\n  sload\n    /* \"#utility.yul\":7052:7090   */\n  tag_66\n  jump\t// in\ntag_175:\n    /* \"#utility.yul\":7137:7204   */\n  tag_176\n    /* \"#utility.yul\":7197:7203   */\n  dup3\n    /* \"#utility.yul\":7189:7195   */\n  dup3\n    /* \"#utility.yul\":7183:7187   */\n  dup6\n    /* \"#utility.yul\":7137:7204   */\n  tag_78\n  jump\t// in\ntag_176:\n    /* \"#utility.yul\":7231:7232   */\n  0x00\n    /* \"#utility.yul\":7255:7259   */\n  0x20\n    /* \"#utility.yul\":7242:7259   */\n  swap1\n  pop\n    /* \"#utility.yul\":7287:7289   */\n  0x1f\n    /* \"#utility.yul\":7279:7285   */\n  dup4\n    /* \"#utility.yul\":7276:7290   */\n  gt\n    /* \"#utility.yul\":7304:7305   */\n  0x01\n    /* \"#utility.yul\":7299:7917   */\n  dup2\n  eq\n  tag_178\n  jumpi\n    /* \"#utility.yul\":7961:7962   */\n  0x00\n    /* \"#utility.yul\":7978:7984   */\n  dup5\n    /* \"#utility.yul\":7975:8052   */\n  iszero\n  tag_179\n  jumpi\n    /* \"#utility.yul\":8027:8036   */\n  dup3\n    /* \"#utility.yul\":8022:8025   */\n  dup8\n    /* \"#utility.yul\":8018:8037   */\n  add\n    /* \"#utility.yul\":8012:8038   */\n  mload\n    /* \"#utility.yul\":8003:8038   */\n  swap1\n  pop\n    /* \"#utility.yul\":7975:8052   */\ntag_179:\n    /* \"#utility.yul\":8078:8145   */\n  tag_180\n    /* \"#utility.yul\":8138:8144   */\n  dup6\n    /* \"#utility.yul\":8131:8136   */\n  dup3\n    /* \"#utility.yul\":8078:8145   */\n  tag_81\n  jump\t// in\ntag_180:\n    /* \"#utility.yul\":8072:8076   */\n  dup7\n    /* \"#utility.yul\":8065:8146   */\n  sstore\n    /* \"#utility.yul\":7934:8156   */\n  pop\n    /* \"#utility.yul\":7269:8156   */\n  jump(tag_177)\n    /* \"#utility.yul\":7299:7917   */\ntag_178:\n    /* \"#utility.yul\":7351:7355   */\n  0x1f\n    /* \"#utility.yul\":7347:7356   */\n  not\n    /* \"#utility.yul\":7339:7345   */\n  dup5\n    /* \"#utility.yul\":7335:7357   */\n  and\n    /* \"#utility.yul\":7385:7422   */\n  tag_181\n    /* \"#utility.yul\":7417:7421   */\n  dup7\n    /* \"#utility.yul\":7385:7422   */\n  tag_67\n  jump\t// in\ntag_181:\n    /* \"#utility.yul\":7444:7445   */\n  0x00\n    /* \"#utility.yul\":7458:7666   */\ntag_182:\n    /* \"#utility.yul\":7472:7479   */\n  dup3\n    /* \"#utility.yul\":7469:7470   */\n  dup2\n    /* \"#utility.yul\":7466:7480   */\n  lt\n    /* \"#utility.yul\":7458:7666   */\n  iszero\n  tag_184\n  jumpi\n    /* \"#utility.yul\":7551:7560   */\n  dup5\n    /* \"#utility.yul\":7546:7549   */\n  dup10\n    /* \"#utility.yul\":7542:7561   */\n  add\n    /* \"#utility.yul\":7536:7562   */\n  mload\n    /* \"#utility.yul\":7528:7534   */\n  dup3\n    /* \"#utility.yul\":7521:7563   */\n  sstore\n    /* \"#utility.yul\":7602:7603   */\n  0x01\n    /* \"#utility.yul\":7594:7600   */\n  dup3\n    /* \"#utility.yul\":7590:7604   */\n  add\n    /* \"#utility.yul\":7580:7604   */\n  swap2\n  pop\n    /* \"#utility.yul\":7649:7651   */\n  0x20\n    /* \"#utility.yul\":7638:7647   */\n  dup6\n    /* \"#utility.yul\":7634:7652   */\n  add\n    /* \"#utility.yul\":7621:7652   */\n  swap5\n  pop\n    /* \"#utility.yul\":7495:7499   */\n  0x20\n    /* \"#utility.yul\":7492:7493   */\n  dup2\n    /* \"#utility.yul\":7488:7500   */\n  add\n    /* \"#utility.yul\":7483:7500   */\n  swap1\n  pop\n    /* \"#utility.yul\":7458:7666   */\n  jump(tag_182)\ntag_184:\n    /* \"#utility.yul\":7694:7700   */\n  dup7\n    /* \"#utility.yul\":7685:7692   */\n  dup4\n    /* \"#utility.yul\":7682:7701   */\n  lt\n    /* \"#utility.yul\":7679:7858   */\n  iszero\n  tag_185\n  jumpi\n    /* \"#utility.yul\":7752:7761   */\n  dup5\n    /* \"#utility.yul\":7747:7750   */\n  dup10\n    /* \"#utility.yul\":7743:7762   */\n  add\n    /* \"#utility.yul\":7737:7763   */\n  mload\n    /* \"#utility.yul\":7795:7843   */\n  tag_186\n    /* \"#utility.yul\":7837:7841   */\n  0x1f\n    /* \"#utility.yul\":7829:7835   */\n  dup10\n    /* \"#utility.yul\":7825:7842   */\n  and\n    /* \"#utility.yul\":7814:7823   */\n  dup3\n    /* \"#utility.yul\":7795:7843   */\n  tag_80\n  jump\t// in\ntag_186:\n    /* \"#utility.yul\":7787:7793   */\n  dup4\n    /* \"#utility.yul\":7780:7844   */\n  sstore\n    /* \"#utility.yul\":7702:7858   */\n  pop\n    /* \"#utility.yul\":7679:7858   */\ntag_185:\n    /* \"#utility.yul\":7904:7905   */\n  0x01\n    /* \"#utility.yul\":7900:7901   */\n  0x02\n    /* \"#utility.yul\":7892:7898   */\n  dup9\n    /* \"#utility.yul\":7888:7902   */\n  mul\n    /* \"#utility.yul\":7884:7906   */\n  add\n    /* \"#utility.yul\":7878:7882   */\n  dup9\n    /* \"#utility.yul\":7871:7907   */\n  sstore\n    /* \"#utility.yul\":7306:7917   */\n  pop\n  pop\n  pop\n    /* \"#utility.yul\":7269:8156   */\ntag_177:\n  pop\n    /* \"#utility.yul\":6859:8162   */\n  pop\n  pop\n  pop\n    /* \"#utility.yul\":6767:8162   */\n  pop\n  pop\n  jump\t// out\n    /* \"#utility.yul\":8168:8253   */\ntag_82:\n    /* \"#utility.yul\":8213:8220   */\n  0x00\n    /* \"#utility.yul\":8242:8247   */\n  dup2\n    /* \"#utility.yul\":8231:8247   */\n  swap1\n  pop\n    /* \"#utility.yul\":8168:8253   */\n  swap2\n  swap1\n  pop\n  jump\t// out\n    /* \"#utility.yul\":8259:8417   */\ntag_83:\n    /* \"#utility.yul\":8317:8326   */\n  0x00\n    /* \"#utility.yul\":8350:8411   */\n  tag_189\n    /* \"#utility.yul\":8368:8410   */\n  tag_190\n    /* \"#utility.yul\":8377:8409   */\n  tag_191\n    /* \"#utility.yul\":8403:8408   */\n  dup5\n    /* \"#utility.yul\":8377:8409   */\n  tag_82\n  jump\t// in\ntag_191:\n    /* \"#utility.yul\":8368:8410   */\n  tag_71\n  jump\t// in\ntag_190:\n    /* \"#utility.yul\":8350:8411   */\n  tag_62\n  jump\t// in\ntag_189:\n    /* \"#utility.yul\":8337:8411   */\n  swap1\n  pop\n    /* \"#utility.yul\":8259:8417   */\n  swap2\n  swap1\n  pop\n  jump\t// out\n    /* \"#utility.yul\":8423:8570   */\ntag_84:\n    /* \"#utility.yul\":8518:8563   */\n  tag_193\n    /* \"#utility.yul\":8557:8562   */\n  dup2\n    /* \"#utility.yul\":8518:8563   */\n  tag_83\n  jump\t// in\ntag_193:\n    /* \"#utility.yul\":8513:8516   */\n  dup3\n    /* \"#utility.yul\":8506:8564   */\n  mstore\n    /* \"#utility.yul\":8423:8570   */\n  pop\n  pop\n  jump\t// out\n    /* \"#utility.yul\":8576:8814   */\ntag_18:\n    /* \"#utility.yul\":8677:8681   */\n  0x00\n    /* \"#utility.yul\":8715:8717   */\n  0x20\n    /* \"#utility.yul\":8704:8713   */\n  dup3\n    /* \"#utility.yul\":8700:8718   */\n  add\n    /* \"#utility.yul\":8692:8718   */\n  swap1\n  pop\n    /* \"#utility.yul\":8728:8807   */\n  tag_195\n    /* \"#utility.yul\":8804:8805   */\n  0x00\n    /* \"#utility.yul\":8793:8802   */\n  dup4\n    /* \"#utility.yul\":8789:8806   */\n  add\n    /* \"#utility.yul\":8780:8786   */\n  dup5\n    /* \"#utility.yul\":8728:8807   */\n  tag_84\n  jump\t// in\ntag_195:\n    /* \"#utility.yul\":8576:8814   */\n  swap3\n  swap2\n  pop\n  pop\n  jump\t// out\n    /* \"#utility.yul\":8820:8946   */\ntag_85:\n    /* \"#utility.yul\":8857:8864   */\n  0x00\n    /* \"#utility.yul\":8897:8939   */\n  0xffffffffffffffffffffffffffffffffffffffff\n    /* \"#utility.yul\":8890:8895   */\n  dup3\n    /* \"#utility.yul\":8886:8940   */\n  and\n    /* \"#utility.yul\":8875:8940   */\n  swap1\n  pop\n    /* \"#utility.yul\":8820:8946   */\n  swap2\n  swap1\n  pop\n  jump\t// out\n    /* \"#utility.yul\":8952:9048   */\ntag_86:\n    /* \"#utility.yul\":8989:8996   */\n  0x00\n    /* \"#utility.yul\":9018:9042   */\n  tag_198\n    /* \"#utility.yul\":9036:9041   */\n  dup3\n    /* \"#utility.yul\":9018:9042   */\n  tag_85\n  jump\t// in\ntag_198:\n    /* \"#utility.yul\":9007:9042   */\n  swap1\n  pop\n    /* \"#utility.yul\":8952:9048   */\n  swap2\n  swap1\n  pop\n  jump\t// out\n    /* \"#utility.yul\":9054:9172   */\ntag_87:\n    /* \"#utility.yul\":9141:9165   */\n  tag_200\n    /* \"#utility.yul\":9159:9164   */\n  dup2\n    /* \"#utility.yul\":9141:9165   */\n  tag_86\n  jump\t// in\ntag_200:\n    /* \"#utility.yul\":9136:9139   */\n  dup3\n    /* \"#utility.yul\":9129:9166   */\n  mstore\n    /* \"#utility.yul\":9054:9172   */\n  pop\n  pop\n  jump\t// out\n    /* \"#utility.yul\":9178:9400   */\ntag_30:\n    /* \"#utility.yul\":9271:9275   */\n  0x00\n    /* \"#utility.yul\":9309:9311   */\n  0x20\n    /* \"#utility.yul\":9298:9307   */\n  dup3\n    /* \"#utility.yul\":9294:9312   */\n  add\n    /* \"#utility.yul\":9286:9312   */\n  swap1\n  pop\n    /* \"#utility.yul\":9322:9393   */\n  tag_202\n    /* \"#utility.yul\":9390:9391   */\n  0x00\n    /* \"#utility.yul\":9379:9388   */\n  dup4\n    /* \"#utility.yul\":9375:9392   */\n  add\n    /* \"#utility.yul\":9366:9372   */\n  dup5\n    /* \"#utility.yul\":9322:9393   */\n  tag_87\n  jump\t// in\ntag_202:\n    /* \"#utility.yul\":9178:9400   */\n  swap3\n  swap2\n  pop\n  pop\n  jump\t// out\n    /* \"#utility.yul\":9406:9524   */\ntag_88:\n    /* \"#utility.yul\":9493:9517   */\n  tag_204\n    /* \"#utility.yul\":9511:9516   */\n  dup2\n    /* \"#utility.yul\":9493:9517   */\n  tag_62\n  jump\t// in\ntag_204:\n    /* \"#utility.yul\":9488:9491   */\n  dup3\n    /* \"#utility.yul\":9481:9518   */\n  mstore\n    /* \"#utility.yul\":9406:9524   */\n  pop\n  pop\n  jump\t// out\n    /* \"#utility.yul\":9530:9862   */\ntag_43:\n    /* \"#utility.yul\":9651:9655   */\n  0x00\n    /* \"#utility.yul\":9689:9691   */\n  0x40\n    /* \"#utility.yul\":9678:9687   */\n  dup3\n    /* \"#utility.yul\":9674:9692   */\n  add\n    /* \"#utility.yul\":9666:9692   */\n  swap1\n  pop\n    /* \"#utility.yul\":9702:9773   */\n  tag_206\n    /* \"#utility.yul\":9770:9771   */\n  0x00\n    /* \"#utility.yul\":9759:9768   */\n  dup4\n    /* \"#utility.yul\":9755:9772   */\n  add\n    /* \"#utility.yul\":9746:9752   */\n  dup6\n    /* \"#utility.yul\":9702:9773   */\n  tag_88\n  jump\t// in\ntag_206:\n    /* \"#utility.yul\":9783:9855   */\n  tag_207\n    /* \"#utility.yul\":9851:9853   */\n  0x20\n    /* \"#utility.yul\":9840:9849   */\n  dup4\n    /* \"#utility.yul\":9836:9854   */\n  add\n    /* \"#utility.yul\":9827:9833   */\n  dup5\n    /* \"#utility.yul\":9783:9855   */\n  tag_88\n  jump\t// in\ntag_207:\n    /* \"#utility.yul\":9530:9862   */\n  swap4\n  swap3\n  pop\n  pop\n  pop\n  jump\t// out\n    /* \"#utility.yul\":9868:10059   */\ntag_47:\n    /* \"#utility.yul\":9908:9911   */\n  0x00\n    /* \"#utility.yul\":9927:9947   */\n  tag_209\n    /* \"#utility.yul\":9945:9946   */\n  dup3\n    /* \"#utility.yul\":9927:9947   */\n  tag_62\n  jump\t// in\ntag_209:\n    /* \"#utility.yul\":9922:9947   */\n  swap2\n  pop\n    /* \"#utility.yul\":9961:9981   */\n  tag_210\n    /* \"#utility.yul\":9979:9980   */\n  dup4\n    /* \"#utility.yul\":9961:9981   */\n  tag_62\n  jump\t// in\ntag_210:\n    /* \"#utility.yul\":9956:9981   */\n  swap3\n  pop\n    /* \"#utility.yul\":10004:10005   */\n  dup3\n    /* \"#utility.yul\":10001:10002   */\n  dup3\n    /* \"#utility.yul\":9997:10006   */\n  add\n    /* \"#utility.yul\":9990:10006   */\n  swap1\n  pop\n    /* \"#utility.yul\":10025:10028   */\n  dup1\n    /* \"#utility.yul\":10022:10023   */\n  dup3\n    /* \"#utility.yul\":10019:10029   */\n  gt\n    /* \"#utility.yul\":10016:10052   */\n  iszero\n  tag_211\n  jumpi\n    /* \"#utility.yul\":10032:10050   */\n  tag_212\n  tag_58\n  jump\t// in\ntag_212:\n    /* \"#utility.yul\":10016:10052   */\ntag_211:\n    /* \"#utility.yul\":9868:10059   */\n  swap3\n  swap2\n  pop\n  pop\n  jump\t// out\n    /* \"#utility.yul\":10065:10507   */\ntag_51:\n    /* \"#utility.yul\":10214:10218   */\n  0x00\n    /* \"#utility.yul\":10252:10254   */\n  0x60\n    /* \"#utility.yul\":10241:10250   */\n  dup3\n    /* \"#utility.yul\":10237:10255   */\n  add\n    /* \"#utility.yul\":10229:10255   */\n  swap1\n  pop\n    /* \"#utility.yul\":10265:10336   */\n  tag_214\n    /* \"#utility.yul\":10333:10334   */\n  0x00\n    /* \"#utility.yul\":10322:10331   */\n  dup4\n    /* \"#utility.yul\":10318:10335   */\n  add\n    /* \"#utility.yul\":10309:10315   */\n  dup7\n    /* \"#utility.yul\":10265:10336   */\n  tag_87\n  jump\t// in\ntag_214:\n    /* \"#utility.yul\":10346:10418   */\n  tag_215\n    /* \"#utility.yul\":10414:10416   */\n  0x20\n    /* \"#utility.yul\":10403:10412   */\n  dup4\n    /* \"#utility.yul\":10399:10417   */\n  add\n    /* \"#utility.yul\":10390:10396   */\n  dup6\n    /* \"#utility.yul\":10346:10418   */\n  tag_88\n  jump\t// in\ntag_215:\n    /* \"#utility.yul\":10428:10500   */\n  tag_216\n    /* \"#utility.yul\":10496:10498   */\n  0x40\n    /* \"#utility.yul\":10485:10494   */\n  dup4\n    /* \"#utility.yul\":10481:10499   */\n  add\n    /* \"#utility.yul\":10472:10478   */\n  dup5\n    /* \"#utility.yul\":10428:10500   */\n  tag_88\n  jump\t// in\ntag_216:\n    /* \"#utility.yul\":10065:10507   */\n  swap5\n  swap4\n  pop\n  pop\n  pop\n  pop\n  jump\t// out\n    /* \"#utility.yul\":10513:10735   */\ntag_55:\n    /* \"#utility.yul\":10606:10610   */\n  0x00\n    /* \"#utility.yul\":10644:10646   */\n  0x20\n    /* \"#utility.yul\":10633:10642   */\n  dup3\n    /* \"#utility.yul\":10629:10647   */\n  add\n    /* \"#utility.yul\":10621:10647   */\n  swap1\n  pop\n    /* \"#utility.yul\":10657:10728   */\n  tag_218\n    /* \"#utility.yul\":10725:10726   */\n  0x00\n    /* \"#utility.yul\":10714:10723   */\n  dup4\n    /* \"#utility.yul\":10710:10727   */\n  add\n    /* \"#utility.yul\":10701:10707   */\n  dup5\n    /* \"#utility.yul\":10657:10728   */\n  tag_88\n  jump\t// in\ntag_218:\n    /* \"#utility.yul\":10513:10735   */\n  swap3\n  swap2\n  pop\n  pop\n  jump\t// out\n    /* \"contracts/MNT_Mumbai.sol\":380:4289  contract MNT is ERC20Capped... */\ntag_25:\n  mload(0x80)\n  codecopy(0x00, dataOffset(sub_0), dataSize(sub_0))\n  0x00\n  assignImmutable(\"0x3ef4406067f3f2b83779fd8c58e51154fe5e1675c0d17583dd1aac1409fbf9d7\")\n  return(0x00, dataSize(sub_0))\nstop\n\nsub_0: assembly {\n        /* \"contracts/MNT_Mumbai.sol\":380:4289  contract MNT is ERC20Capped... */\n      mstore(0x40, 0x80)\n      jumpi(tag_1, lt(calldatasize, 0x04))\n      shr(0xe0, calldataload(0x00))\n      dup1\n      0x655ab927\n      gt\n      tag_19\n      jumpi\n      dup1\n      0xa9059cbb\n      gt\n      tag_20\n      jumpi\n      dup1\n      0xa9059cbb\n      eq\n      tag_14\n      jumpi\n      dup1\n      0xc0e3daf5\n      eq\n      tag_15\n      jumpi\n      dup1\n      0xce606ee0\n      eq\n      tag_16\n      jumpi\n      dup1\n      0xdd62ed3e\n      eq\n      tag_17\n      jumpi\n      dup1\n      0xea6ecb08\n      eq\n      tag_18\n      jumpi\n      jump(tag_1)\n    tag_20:\n      dup1\n      0x655ab927\n      eq\n      tag_10\n      jumpi\n      dup1\n      0x6a73bf53\n      eq\n      tag_11\n      jumpi\n      dup1\n      0x70a08231\n      eq\n      tag_12\n      jumpi\n      dup1\n      0x95d89b41\n      eq\n      tag_13\n      jumpi\n      jump(tag_1)\n    tag_19:\n      dup1\n      0x23b872dd\n      gt\n      tag_21\n      jumpi\n      dup1\n      0x23b872dd\n      eq\n      tag_6\n      jumpi\n      dup1\n      0x2bc67da0\n      eq\n      tag_7\n      jumpi\n      dup1\n      0x313ce567\n      eq\n      tag_8\n      jumpi\n      dup1\n      0x355274ea\n      eq\n      tag_9\n      jumpi\n      jump(tag_1)\n    tag_21:\n      dup1\n      0x06ed6908\n      eq\n      tag_2\n      jumpi\n      dup1\n      0x06fdde03\n      eq\n      tag_3\n      jumpi\n      dup1\n      0x095ea7b3\n      eq\n      tag_4\n      jumpi\n      dup1\n      0x18160ddd\n      eq\n      tag_5\n      jumpi\n    tag_1:\n      0x00\n      dup1\n      revert\n        /* \"contracts/MNT_Mumbai.sol\":1638:2393  function buyTokensFromContract() external payable... */\n    tag_2:\n      tag_22\n      tag_23\n      jump\t// in\n    tag_22:\n      stop\n        /* \"@openzeppelin/contracts/token/ERC20/ERC20.sol\":2074:2163  function name() public view virtual returns (string memory) {... */\n    tag_3:\n      callvalue\n      dup1\n      iszero\n      tag_24\n      jumpi\n      0x00\n      dup1\n      revert\n    tag_24:\n      pop\n      tag_25\n      tag_26\n      jump\t// in\n    tag_25:\n      mload(0x40)\n      tag_27\n      swap2\n      swap1\n      tag_28\n      jump\t// in\n    tag_27:\n      mload(0x40)\n      dup1\n      swap2\n      sub\n      swap1\n      return\n        /* \"@openzeppelin/contracts/token/ERC20/ERC20.sol\":4293:4479  function approve(address spender, uint256 value) public virtual returns (bool) {... */\n    tag_4:\n      callvalue\n      dup1\n      iszero\n      tag_29\n      jumpi\n      0x00\n      dup1\n      revert\n    tag_29:\n      pop\n      tag_30\n      0x04\n      dup1\n      calldatasize\n      sub\n      dup2\n      add\n      swap1\n      tag_31\n      swap2\n      swap1\n      tag_32\n      jump\t// in\n    tag_31:\n      tag_33\n      jump\t// in\n    tag_30:\n      mload(0x40)\n      tag_34\n      swap2\n      swap1\n      tag_35\n      jump\t// in\n    tag_34:\n      mload(0x40)\n      dup1\n      swap2\n      sub\n      swap1\n      return\n        /* \"@openzeppelin/contracts/token/ERC20/ERC20.sol\":3144:3241  function totalSupply() public view virtual returns (uint256) {... */\n    tag_5:\n      callvalue\n      dup1\n      iszero\n      tag_36\n      jumpi\n      0x00\n      dup1\n      revert\n    tag_36:\n      pop\n      tag_37\n      tag_38\n      jump\t// in\n    tag_37:\n      mload(0x40)\n      tag_39\n      swap2\n      swap1\n      tag_40\n      jump\t// in\n    tag_39:\n      mload(0x40)\n      dup1\n      swap2\n      sub\n      swap1\n      return\n        /* \"@openzeppelin/contracts/token/ERC20/ERC20.sol\":5039:5283  function transferFrom(address from, address to, uint256 value) public virtual returns (bool) {... */\n    tag_6:\n      callvalue\n      dup1\n      iszero\n      tag_41\n      jumpi\n      0x00\n      dup1\n      revert\n    tag_41:\n      pop\n      tag_42\n      0x04\n      dup1\n      calldatasize\n      sub\n      dup2\n      add\n      swap1\n      tag_43\n      swap2\n      swap1\n      tag_44\n      jump\t// in\n    tag_43:\n      tag_45\n      jump\t// in\n    tag_42:\n      mload(0x40)\n      tag_46\n      swap2\n      swap1\n      tag_35\n      jump\t// in\n    tag_46:\n      mload(0x40)\n      dup1\n      swap2\n      sub\n      swap1\n      return\n        /* \"contracts/MNT_Mumbai.sol\":554:587  uint256 public capPerAccount=5000 */\n    tag_7:\n      callvalue\n      dup1\n      iszero\n      tag_47\n      jumpi\n      0x00\n      dup1\n      revert\n    tag_47:\n      pop\n      tag_48\n      tag_49\n      jump\t// in\n    tag_48:\n      mload(0x40)\n      tag_50\n      swap2\n      swap1\n      tag_40\n      jump\t// in\n    tag_50:\n      mload(0x40)\n      dup1\n      swap2\n      sub\n      swap1\n      return\n        /* \"@openzeppelin/contracts/token/ERC20/ERC20.sol\":3002:3084  function decimals() public view virtual returns (uint8) {... */\n    tag_8:\n      callvalue\n      dup1\n      iszero\n      tag_51\n      jumpi\n      0x00\n      dup1\n      revert\n    tag_51:\n      pop\n      tag_52\n      tag_53\n      jump\t// in\n    tag_52:\n      mload(0x40)\n      tag_54\n      swap2\n      swap1\n      tag_55\n      jump\t// in\n    tag_54:\n      mload(0x40)\n      dup1\n      swap2\n      sub\n      swap1\n      return\n        /* \"@openzeppelin/contracts/token/ERC20/extensions/ERC20Capped.sol\":923:1004  function cap() public view virtual returns (uint256) {... */\n    tag_9:\n      callvalue\n      dup1\n      iszero\n      tag_56\n      jumpi\n      0x00\n      dup1\n      revert\n    tag_56:\n      pop\n      tag_57\n      tag_58\n      jump\t// in\n    tag_57:\n      mload(0x40)\n      tag_59\n      swap2\n      swap1\n      tag_40\n      jump\t// in\n    tag_59:\n      mload(0x40)\n      dup1\n      swap2\n      sub\n      swap1\n      return\n        /* \"contracts/MNT_Mumbai.sol\":4022:4286  function WithdrawMintingFees() external onlyOwner... */\n    tag_10:\n      callvalue\n      dup1\n      iszero\n      tag_60\n      jumpi\n      0x00\n      dup1\n      revert\n    tag_60:\n      pop\n      tag_61\n      tag_62\n      jump\t// in\n    tag_61:\n      stop\n        /* \"contracts/MNT_Mumbai.sol\":2401:2624  function updateCapPerAccount(uint newCap) public onlyOwner... */\n    tag_11:\n      callvalue\n      dup1\n      iszero\n      tag_63\n      jumpi\n      0x00\n      dup1\n      revert\n    tag_63:\n      pop\n      tag_64\n      0x04\n      dup1\n      calldatasize\n      sub\n      dup2\n      add\n      swap1\n      tag_65\n      swap2\n      swap1\n      tag_66\n      jump\t// in\n    tag_65:\n      tag_67\n      jump\t// in\n    tag_64:\n      stop\n        /* \"@openzeppelin/contracts/token/ERC20/ERC20.sol\":3299:3415  function balanceOf(address account) public view virtual returns (uint256) {... */\n    tag_12:\n      callvalue\n      dup1\n      iszero\n      tag_68\n      jumpi\n      0x00\n      dup1\n      revert\n    tag_68:\n      pop\n      tag_69\n      0x04\n      dup1\n      calldatasize\n      sub\n      dup2\n      add\n      swap1\n      tag_70\n      swap2\n      swap1\n      tag_71\n      jump\t// in\n    tag_70:\n      tag_72\n      jump\t// in\n    tag_69:\n      mload(0x40)\n      tag_73\n      swap2\n      swap1\n      tag_40\n      jump\t// in\n    tag_73:\n      mload(0x40)\n      dup1\n      swap2\n      sub\n      swap1\n      return\n        /* \"@openzeppelin/contracts/token/ERC20/ERC20.sol\":2276:2369  function symbol() public view virtual returns (string memory) {... */\n    tag_13:\n      callvalue\n      dup1\n      iszero\n      tag_74\n      jumpi\n      0x00\n      dup1\n      revert\n    tag_74:\n      pop\n      tag_75\n      tag_76\n      jump\t// in\n    tag_75:\n      mload(0x40)\n      tag_77\n      swap2\n      swap1\n      tag_28\n      jump\t// in\n    tag_77:\n      mload(0x40)\n      dup1\n      swap2\n      sub\n      swap1\n      return\n        /* \"@openzeppelin/contracts/token/ERC20/ERC20.sol\":3610:3788  function transfer(address to, uint256 value) public virtual returns (bool) {... */\n    tag_14:\n      callvalue\n      dup1\n      iszero\n      tag_78\n      jumpi\n      0x00\n      dup1\n      revert\n    tag_78:\n      pop\n      tag_79\n      0x04\n      dup1\n      calldatasize\n      sub\n      dup2\n      add\n      swap1\n      tag_80\n      swap2\n      swap1\n      tag_32\n      jump\t// in\n    tag_80:\n      tag_81\n      jump\t// in\n    tag_79:\n      mload(0x40)\n      tag_82\n      swap2\n      swap1\n      tag_35\n      jump\t// in\n    tag_82:\n      mload(0x40)\n      dup1\n      swap2\n      sub\n      swap1\n      return\n        /* \"contracts/MNT_Mumbai.sol\":3704:4014  function zTokenPriceInWei() public view returns (uint256)... */\n    tag_15:\n      callvalue\n      dup1\n      iszero\n      tag_83\n      jumpi\n      0x00\n      dup1\n      revert\n    tag_83:\n      pop\n      tag_84\n      tag_85\n      jump\t// in\n    tag_84:\n      mload(0x40)\n      tag_86\n      swap2\n      swap1\n      tag_40\n      jump\t// in\n    tag_86:\n      mload(0x40)\n      dup1\n      swap2\n      sub\n      swap1\n      return\n        /* \"contracts/MNT_Mumbai.sol\":464:492  address public contractOwner */\n    tag_16:\n      callvalue\n      dup1\n      iszero\n      tag_87\n      jumpi\n      0x00\n      dup1\n      revert\n    tag_87:\n      pop\n      tag_88\n      tag_89\n      jump\t// in\n    tag_88:\n      mload(0x40)\n      tag_90\n      swap2\n      swap1\n      tag_91\n      jump\t// in\n    tag_90:\n      mload(0x40)\n      dup1\n      swap2\n      sub\n      swap1\n      return\n        /* \"@openzeppelin/contracts/token/ERC20/ERC20.sol\":3846:3986  function allowance(address owner, address spender) public view virtual returns (uint256) {... */\n    tag_17:\n      callvalue\n      dup1\n      iszero\n      tag_92\n      jumpi\n      0x00\n      dup1\n      revert\n    tag_92:\n      pop\n      tag_93\n      0x04\n      dup1\n      calldatasize\n      sub\n      dup2\n      add\n      swap1\n      tag_94\n      swap2\n      swap1\n      tag_95\n      jump\t// in\n    tag_94:\n      tag_96\n      jump\t// in\n    tag_93:\n      mload(0x40)\n      tag_97\n      swap2\n      swap1\n      tag_40\n      jump\t// in\n    tag_97:\n      mload(0x40)\n      dup1\n      swap2\n      sub\n      swap1\n      return\n        /* \"contracts/MNT_Mumbai.sol\":2632:3696  function OneMATICInCents() public view returns (int)... */\n    tag_18:\n      callvalue\n      dup1\n      iszero\n      tag_98\n      jumpi\n      0x00\n      dup1\n      revert\n    tag_98:\n      pop\n      tag_99\n      tag_100\n      jump\t// in\n    tag_99:\n      mload(0x40)\n      tag_101\n      swap2\n      swap1\n      tag_102\n      jump\t// in\n    tag_101:\n      mload(0x40)\n      dup1\n      swap2\n      sub\n      swap1\n      return\n        /* \"contracts/MNT_Mumbai.sol\":1638:2393  function buyTokensFromContract() external payable... */\n    tag_23:\n        /* \"contracts/MNT_Mumbai.sol\":1902:1903  0 */\n      0x00\n        /* \"contracts/MNT_Mumbai.sol\":1889:1898  msg.value */\n      callvalue\n        /* \"contracts/MNT_Mumbai.sol\":1889:1903  msg.value != 0 */\n      sub\n        /* \"contracts/MNT_Mumbai.sol\":1881:1949  require(msg.value != 0,\"Error-MNT_MUMBAI.sol-Valueless_Transaction\") */\n      tag_104\n      jumpi\n      mload(0x40)\n      0x08c379a000000000000000000000000000000000000000000000000000000000\n      dup2\n      mstore\n      0x04\n      add\n      tag_105\n      swap1\n      tag_106\n      jump\t// in\n    tag_105:\n      mload(0x40)\n      dup1\n      swap2\n      sub\n      swap1\n      revert\n    tag_104:\n        /* \"contracts/MNT_Mumbai.sol\":2011:2031  uint256 tokensToMint */\n      0x00\n        /* \"contracts/MNT_Mumbai.sol\":2068:2086  zTokenPriceInWei() */\n      tag_107\n        /* \"contracts/MNT_Mumbai.sol\":2068:2084  zTokenPriceInWei */\n      tag_85\n        /* \"contracts/MNT_Mumbai.sol\":2068:2086  zTokenPriceInWei() */\n      jump\t// in\n    tag_107:\n        /* \"contracts/MNT_Mumbai.sol\":2055:2065  decimals() */\n      tag_108\n        /* \"contracts/MNT_Mumbai.sol\":2055:2063  decimals */\n      tag_53\n        /* \"contracts/MNT_Mumbai.sol\":2055:2065  decimals() */\n      jump\t// in\n    tag_108:\n        /* \"contracts/MNT_Mumbai.sol\":2047:2066  uint256(decimals()) */\n      0xff\n      and\n        /* \"contracts/MNT_Mumbai.sol\":2043:2045  10 */\n      0x0a\n        /* \"contracts/MNT_Mumbai.sol\":2043:2066  10**uint256(decimals()) */\n      tag_109\n      swap2\n      swap1\n      tag_110\n      jump\t// in\n    tag_109:\n        /* \"contracts/MNT_Mumbai.sol\":2032:2041  msg.value */\n      callvalue\n        /* \"contracts/MNT_Mumbai.sol\":2032:2067  msg.value*(10**uint256(decimals())) */\n      tag_111\n      swap2\n      swap1\n      tag_112\n      jump\t// in\n    tag_111:\n        /* \"contracts/MNT_Mumbai.sol\":2032:2086  msg.value*(10**uint256(decimals()))/zTokenPriceInWei() */\n      tag_113\n      swap2\n      swap1\n      tag_114\n      jump\t// in\n    tag_113:\n        /* \"contracts/MNT_Mumbai.sol\":2011:2086  uint256 tokensToMint=msg.value*(10**uint256(decimals()))/zTokenPriceInWei() */\n      swap1\n      pop\n        /* \"contracts/MNT_Mumbai.sol\":2177:2187  decimals() */\n      tag_115\n        /* \"contracts/MNT_Mumbai.sol\":2177:2185  decimals */\n      tag_53\n        /* \"contracts/MNT_Mumbai.sol\":2177:2187  decimals() */\n      jump\t// in\n    tag_115:\n        /* \"contracts/MNT_Mumbai.sol\":2169:2188  uint256(decimals()) */\n      0xff\n      and\n        /* \"contracts/MNT_Mumbai.sol\":2165:2167  10 */\n      0x0a\n        /* \"contracts/MNT_Mumbai.sol\":2165:2188  10**uint256(decimals()) */\n      tag_116\n      swap2\n      swap1\n      tag_110\n      jump\t// in\n    tag_116:\n        /* \"contracts/MNT_Mumbai.sol\":2148:2161  capPerAccount */\n      sload(0x08)\n        /* \"contracts/MNT_Mumbai.sol\":2148:2189  capPerAccount * (10**uint256(decimals())) */\n      tag_117\n      swap2\n      swap1\n      tag_112\n      jump\t// in\n    tag_117:\n        /* \"contracts/MNT_Mumbai.sol\":2132:2144  tokensToMint */\n      dup2\n        /* \"contracts/MNT_Mumbai.sol\":2108:2129  balanceOf(msg.sender) */\n      tag_118\n        /* \"contracts/MNT_Mumbai.sol\":2118:2128  msg.sender */\n      caller\n        /* \"contracts/MNT_Mumbai.sol\":2108:2117  balanceOf */\n      tag_72\n        /* \"contracts/MNT_Mumbai.sol\":2108:2129  balanceOf(msg.sender) */\n      jump\t// in\n    tag_118:\n        /* \"contracts/MNT_Mumbai.sol\":2108:2144  balanceOf(msg.sender) + tokensToMint */\n      tag_119\n      swap2\n      swap1\n      tag_120\n      jump\t// in\n    tag_119:\n        /* \"contracts/MNT_Mumbai.sol\":2108:2189  balanceOf(msg.sender) + tokensToMint <= capPerAccount * (10**uint256(decimals())) */\n      gt\n      iszero\n        /* \"contracts/MNT_Mumbai.sol\":2100:2234  require(balanceOf(msg.sender) + tokensToMint <= capPerAccount * (10**uint256(decimals())), \"Error-MNT_MUMBAI.sol-Exceeds_Max_Balance\") */\n      tag_121\n      jumpi\n      mload(0x40)\n      0x08c379a000000000000000000000000000000000000000000000000000000000\n      dup2\n      mstore\n      0x04\n      add\n      tag_122\n      swap1\n      tag_123\n      jump\t// in\n    tag_122:\n      mload(0x40)\n      dup1\n      swap2\n      sub\n      swap1\n      revert\n    tag_121:\n        /* \"contracts/MNT_Mumbai.sol\":2247:2277  _mint(msg.sender,tokensToMint) */\n      tag_124\n        /* \"contracts/MNT_Mumbai.sol\":2253:2263  msg.sender */\n      caller\n        /* \"contracts/MNT_Mumbai.sol\":2264:2276  tokensToMint */\n      dup3\n        /* \"contracts/MNT_Mumbai.sol\":2247:2252  _mint */\n      tag_125\n        /* \"contracts/MNT_Mumbai.sol\":2247:2277  _mint(msg.sender,tokensToMint) */\n      jump\t// in\n    tag_124:\n        /* \"contracts/MNT_Mumbai.sol\":2309:2319  msg.sender */\n      caller\n        /* \"contracts/MNT_Mumbai.sol\":2293:2385  TokensPurchased(msg.sender, tokensToMint, msg.value, block.timestamp, balanceOf(msg.sender)) */\n      0xffffffffffffffffffffffffffffffffffffffff\n      and\n      0x34987d73948b60cfba9beeb35760c345a3be430f3540605113911ead78a0830e\n        /* \"contracts/MNT_Mumbai.sol\":2321:2333  tokensToMint */\n      dup3\n        /* \"contracts/MNT_Mumbai.sol\":2335:2344  msg.value */\n      callvalue\n        /* \"contracts/MNT_Mumbai.sol\":2346:2361  block.timestamp */\n      timestamp\n        /* \"contracts/MNT_Mumbai.sol\":2363:2384  balanceOf(msg.sender) */\n      tag_126\n        /* \"contracts/MNT_Mumbai.sol\":2373:2383  msg.sender */\n      caller\n        /* \"contracts/MNT_Mumbai.sol\":2363:2372  balanceOf */\n      tag_72\n        /* \"contracts/MNT_Mumbai.sol\":2363:2384  balanceOf(msg.sender) */\n      jump\t// in\n    tag_126:\n        /* \"contracts/MNT_Mumbai.sol\":2293:2385  TokensPurchased(msg.sender, tokensToMint, msg.value, block.timestamp, balanceOf(msg.sender)) */\n      mload(0x40)\n      tag_127\n      swap5\n      swap4\n      swap3\n      swap2\n      swap1\n      tag_128\n      jump\t// in\n    tag_127:\n      mload(0x40)\n      dup1\n      swap2\n      sub\n      swap1\n      log2\n        /* \"contracts/MNT_Mumbai.sol\":1693:2393  {... */\n      pop\n        /* \"contracts/MNT_Mumbai.sol\":1638:2393  function buyTokensFromContract() external payable... */\n      jump\t// out\n        /* \"@openzeppelin/contracts/token/ERC20/ERC20.sol\":2074:2163  function name() public view virtual returns (string memory) {... */\n    tag_26:\n        /* \"@openzeppelin/contracts/token/ERC20/ERC20.sol\":2119:2132  string memory */\n      0x60\n        /* \"@openzeppelin/contracts/token/ERC20/ERC20.sol\":2151:2156  _name */\n      0x03\n        /* \"@openzeppelin/contracts/token/ERC20/ERC20.sol\":2144:2156  return _name */\n      dup1\n      sload\n      tag_130\n      swap1\n      tag_131\n      jump\t// in\n    tag_130:\n      dup1\n      0x1f\n      add\n      0x20\n      dup1\n      swap2\n      div\n      mul\n      0x20\n      add\n      mload(0x40)\n      swap1\n      dup2\n      add\n      0x40\n      mstore\n      dup1\n      swap3\n      swap2\n      swap1\n      dup2\n      dup2\n      mstore\n      0x20\n      add\n      dup3\n      dup1\n      sload\n      tag_132\n      swap1\n      tag_131\n      jump\t// in\n    tag_132:\n      dup1\n      iszero\n      tag_133\n      jumpi\n      dup1\n      0x1f\n      lt\n      tag_134\n      jumpi\n      0x0100\n      dup1\n      dup4\n      sload\n      div\n      mul\n      dup4\n      mstore\n      swap2\n      0x20\n      add\n      swap2\n      jump(tag_133)\n    tag_134:\n      dup3\n      add\n      swap2\n      swap1\n      0x00\n      mstore\n      keccak256(0x00, 0x20)\n      swap1\n    tag_135:\n      dup2\n      sload\n      dup2\n      mstore\n      swap1\n      0x01\n      add\n      swap1\n      0x20\n      add\n      dup1\n      dup4\n      gt\n      tag_135\n      jumpi\n      dup3\n      swap1\n      sub\n      0x1f\n      and\n      dup3\n      add\n      swap2\n    tag_133:\n      pop\n      pop\n      pop\n      pop\n      pop\n      swap1\n      pop\n        /* \"@openzeppelin/contracts/token/ERC20/ERC20.sol\":2074:2163  function name() public view virtual returns (string memory) {... */\n      swap1\n      jump\t// out\n        /* \"@openzeppelin/contracts/token/ERC20/ERC20.sol\":4293:4479  function approve(address spender, uint256 value) public virtual returns (bool) {... */\n    tag_33:\n        /* \"@openzeppelin/contracts/token/ERC20/ERC20.sol\":4366:4370  bool */\n      0x00\n        /* \"@openzeppelin/contracts/token/ERC20/ERC20.sol\":4382:4395  address owner */\n      dup1\n        /* \"@openzeppelin/contracts/token/ERC20/ERC20.sol\":4398:4410  _msgSender() */\n      tag_137\n        /* \"@openzeppelin/contracts/token/ERC20/ERC20.sol\":4398:4408  _msgSender */\n      tag_138\n        /* \"@openzeppelin/contracts/token/ERC20/ERC20.sol\":4398:4410  _msgSender() */\n      jump\t// in\n    tag_137:\n        /* \"@openzeppelin/contracts/token/ERC20/ERC20.sol\":4382:4410  address owner = _msgSender() */\n      swap1\n      pop\n        /* \"@openzeppelin/contracts/token/ERC20/ERC20.sol\":4420:4451  _approve(owner, spender, value) */\n      tag_139\n        /* \"@openzeppelin/contracts/token/ERC20/ERC20.sol\":4429:4434  owner */\n      dup2\n        /* \"@openzeppelin/contracts/token/ERC20/ERC20.sol\":4436:4443  spender */\n      dup6\n        /* \"@openzeppelin/contracts/token/ERC20/ERC20.sol\":4445:4450  value */\n      dup6\n        /* \"@openzeppelin/contracts/token/ERC20/ERC20.sol\":4420:4428  _approve */\n      tag_140\n        /* \"@openzeppelin/contracts/token/ERC20/ERC20.sol\":4420:4451  _approve(owner, spender, value) */\n      jump\t// in\n    tag_139:\n        /* \"@openzeppelin/contracts/token/ERC20/ERC20.sol\":4468:4472  true */\n      0x01\n        /* \"@openzeppelin/contracts/token/ERC20/ERC20.sol\":4461:4472  return true */\n      swap2\n      pop\n      pop\n        /* \"@openzeppelin/contracts/token/ERC20/ERC20.sol\":4293:4479  function approve(address spender, uint256 value) public virtual returns (bool) {... */\n      swap3\n      swap2\n      pop\n      pop\n      jump\t// out\n        /* \"@openzeppelin/contracts/token/ERC20/ERC20.sol\":3144:3241  function totalSupply() public view virtual returns (uint256) {... */\n    tag_38:\n        /* \"@openzeppelin/contracts/token/ERC20/ERC20.sol\":3196:3203  uint256 */\n      0x00\n        /* \"@openzeppelin/contracts/token/ERC20/ERC20.sol\":3222:3234  _totalSupply */\n      sload(0x02)\n        /* \"@openzeppelin/contracts/token/ERC20/ERC20.sol\":3215:3234  return _totalSupply */\n      swap1\n      pop\n        /* \"@openzeppelin/contracts/token/ERC20/ERC20.sol\":3144:3241  function totalSupply() public view virtual returns (uint256) {... */\n      swap1\n      jump\t// out\n        /* \"@openzeppelin/contracts/token/ERC20/ERC20.sol\":5039:5283  function transferFrom(address from, address to, uint256 value) public virtual returns (bool) {... */\n    tag_45:\n        /* \"@openzeppelin/contracts/token/ERC20/ERC20.sol\":5126:5130  bool */\n      0x00\n        /* \"@openzeppelin/contracts/token/ERC20/ERC20.sol\":5142:5157  address spender */\n      dup1\n        /* \"@openzeppelin/contracts/token/ERC20/ERC20.sol\":5160:5172  _msgSender() */\n      tag_143\n        /* \"@openzeppelin/contracts/token/ERC20/ERC20.sol\":5160:5170  _msgSender */\n      tag_138\n        /* \"@openzeppelin/contracts/token/ERC20/ERC20.sol\":5160:5172  _msgSender() */\n      jump\t// in\n    tag_143:\n        /* \"@openzeppelin/contracts/token/ERC20/ERC20.sol\":5142:5172  address spender = _msgSender() */\n      swap1\n      pop\n        /* \"@openzeppelin/contracts/token/ERC20/ERC20.sol\":5182:5219  _spendAllowance(from, spender, value) */\n      tag_144\n        /* \"@openzeppelin/contracts/token/ERC20/ERC20.sol\":5198:5202  from */\n      dup6\n        /* \"@openzeppelin/contracts/token/ERC20/ERC20.sol\":5204:5211  spender */\n      dup3\n        /* \"@openzeppelin/contracts/token/ERC20/ERC20.sol\":5213:5218  value */\n      dup6\n        /* \"@openzeppelin/contracts/token/ERC20/ERC20.sol\":5182:5197  _spendAllowance */\n      tag_145\n        /* \"@openzeppelin/contracts/token/ERC20/ERC20.sol\":5182:5219  _spendAllowance(from, spender, value) */\n      jump\t// in\n    tag_144:\n        /* \"@openzeppelin/contracts/token/ERC20/ERC20.sol\":5229:5255  _transfer(from, to, value) */\n      tag_146\n        /* \"@openzeppelin/contracts/token/ERC20/ERC20.sol\":5239:5243  from */\n      dup6\n        /* \"@openzeppelin/contracts/token/ERC20/ERC20.sol\":5245:5247  to */\n      dup6\n        /* \"@openzeppelin/contracts/token/ERC20/ERC20.sol\":5249:5254  value */\n      dup6\n        /* \"@openzeppelin/contracts/token/ERC20/ERC20.sol\":5229:5238  _transfer */\n      tag_147\n        /* \"@openzeppelin/contracts/token/ERC20/ERC20.sol\":5229:5255  _transfer(from, to, value) */\n      jump\t// in\n    tag_146:\n        /* \"@openzeppelin/contracts/token/ERC20/ERC20.sol\":5272:5276  true */\n      0x01\n        /* \"@openzeppelin/contracts/token/ERC20/ERC20.sol\":5265:5276  return true */\n      swap2\n      pop\n      pop\n        /* \"@openzeppelin/contracts/token/ERC20/ERC20.sol\":5039:5283  function transferFrom(address from, address to, uint256 value) public virtual returns (bool) {... */\n      swap4\n      swap3\n      pop\n      pop\n      pop\n      jump\t// out\n        /* \"contracts/MNT_Mumbai.sol\":554:587  uint256 public capPerAccount=5000 */\n    tag_49:\n      sload(0x08)\n      dup2\n      jump\t// out\n        /* \"@openzeppelin/contracts/token/ERC20/ERC20.sol\":3002:3084  function decimals() public view virtual returns (uint8) {... */\n    tag_53:\n        /* \"@openzeppelin/contracts/token/ERC20/ERC20.sol\":3051:3056  uint8 */\n      0x00\n        /* \"@openzeppelin/contracts/token/ERC20/ERC20.sol\":3075:3077  18 */\n      0x12\n        /* \"@openzeppelin/contracts/token/ERC20/ERC20.sol\":3068:3077  return 18 */\n      swap1\n      pop\n        /* \"@openzeppelin/contracts/token/ERC20/ERC20.sol\":3002:3084  function decimals() public view virtual returns (uint8) {... */\n      swap1\n      jump\t// out\n        /* \"@openzeppelin/contracts/token/ERC20/extensions/ERC20Capped.sol\":923:1004  function cap() public view virtual returns (uint256) {... */\n    tag_58:\n        /* \"@openzeppelin/contracts/token/ERC20/extensions/ERC20Capped.sol\":967:974  uint256 */\n      0x00\n        /* \"@openzeppelin/contracts/token/ERC20/extensions/ERC20Capped.sol\":993:997  _cap */\n      immutable(\"0x3ef4406067f3f2b83779fd8c58e51154fe5e1675c0d17583dd1aac1409fbf9d7\")\n        /* \"@openzeppelin/contracts/token/ERC20/extensions/ERC20Capped.sol\":986:997  return _cap */\n      swap1\n      pop\n        /* \"@openzeppelin/contracts/token/ERC20/extensions/ERC20Capped.sol\":923:1004  function cap() public view virtual returns (uint256) {... */\n      swap1\n      jump\t// out\n        /* \"contracts/MNT_Mumbai.sol\":4022:4286  function WithdrawMintingFees() external onlyOwner... */\n    tag_62:\n        /* \"contracts/MNT_Mumbai.sol\":1564:1577  contractOwner */\n      0x06\n      0x00\n      swap1\n      sload\n      swap1\n      0x0100\n      exp\n      swap1\n      div\n      0xffffffffffffffffffffffffffffffffffffffff\n      and\n        /* \"contracts/MNT_Mumbai.sol\":1550:1577  msg.sender == contractOwner */\n      0xffffffffffffffffffffffffffffffffffffffff\n      and\n        /* \"contracts/MNT_Mumbai.sol\":1550:1560  msg.sender */\n      caller\n        /* \"contracts/MNT_Mumbai.sol\":1550:1577  msg.sender == contractOwner */\n      0xffffffffffffffffffffffffffffffffffffffff\n      and\n      eq\n        /* \"contracts/MNT_Mumbai.sol\":1542:1610  require(msg.sender == contractOwner, \"Error-MNT_MUMBAI.sol-Ownable\") */\n      tag_151\n      jumpi\n      mload(0x40)\n      0x08c379a000000000000000000000000000000000000000000000000000000000\n      dup2\n      mstore\n      0x04\n      add\n      tag_152\n      swap1\n      tag_153\n      jump\t// in\n    tag_152:\n      mload(0x40)\n      dup1\n      swap2\n      sub\n      swap1\n      revert\n    tag_151:\n        /* \"contracts/MNT_Mumbai.sol\":4088:4100  uint256 fees */\n      0x00\n        /* \"contracts/MNT_Mumbai.sol\":4103:4124  address(this).balance */\n      selfbalance\n        /* \"contracts/MNT_Mumbai.sol\":4088:4124  uint256 fees = address(this).balance */\n      swap1\n      pop\n        /* \"contracts/MNT_Mumbai.sol\":4190:4203  contractOwner */\n      0x06\n      0x00\n      swap1\n      sload\n      swap1\n      0x0100\n      exp\n      swap1\n      div\n      0xffffffffffffffffffffffffffffffffffffffff\n      and\n        /* \"contracts/MNT_Mumbai.sol\":4182:4213  payable(contractOwner).transfer */\n      0xffffffffffffffffffffffffffffffffffffffff\n      and\n        /* \"contracts/MNT_Mumbai.sol\":4182:4219  payable(contractOwner).transfer(fees) */\n      0x08fc\n        /* \"contracts/MNT_Mumbai.sol\":4214:4218  fees */\n      dup3\n        /* \"contracts/MNT_Mumbai.sol\":4182:4219  payable(contractOwner).transfer(fees) */\n      swap1\n      dup2\n      iszero\n      mul\n      swap1\n      mload(0x40)\n      0x00\n      mload(0x40)\n      dup1\n      dup4\n      sub\n      dup2\n      dup6\n      dup9\n      dup9\n      call\n      swap4\n      pop\n      pop\n      pop\n      pop\n      iszero\n      dup1\n      iszero\n      tag_156\n      jumpi\n      returndatasize\n      0x00\n      dup1\n      returndatacopy\n      revert(0x00, returndatasize)\n    tag_156:\n      pop\n        /* \"contracts/MNT_Mumbai.sol\":4235:4278  MintingFeesWithdrawn(fees, block.timestamp) */\n      0xf39edbeb800007582021719f876f29eb42aa5171248e3df79a3bf120a4e91416\n        /* \"contracts/MNT_Mumbai.sol\":4256:4260  fees */\n      dup2\n        /* \"contracts/MNT_Mumbai.sol\":4262:4277  block.timestamp */\n      timestamp\n        /* \"contracts/MNT_Mumbai.sol\":4235:4278  MintingFeesWithdrawn(fees, block.timestamp) */\n      mload(0x40)\n      tag_157\n      swap3\n      swap2\n      swap1\n      tag_158\n      jump\t// in\n    tag_157:\n      mload(0x40)\n      dup1\n      swap2\n      sub\n      swap1\n      log1\n        /* \"contracts/MNT_Mumbai.sol\":4077:4286  {... */\n      pop\n        /* \"contracts/MNT_Mumbai.sol\":4022:4286  function WithdrawMintingFees() external onlyOwner... */\n      jump\t// out\n        /* \"contracts/MNT_Mumbai.sol\":2401:2624  function updateCapPerAccount(uint newCap) public onlyOwner... */\n    tag_67:\n        /* \"contracts/MNT_Mumbai.sol\":1564:1577  contractOwner */\n      0x06\n      0x00\n      swap1\n      sload\n      swap1\n      0x0100\n      exp\n      swap1\n      div\n      0xffffffffffffffffffffffffffffffffffffffff\n      and\n        /* \"contracts/MNT_Mumbai.sol\":1550:1577  msg.sender == contractOwner */\n      0xffffffffffffffffffffffffffffffffffffffff\n      and\n        /* \"contracts/MNT_Mumbai.sol\":1550:1560  msg.sender */\n      caller\n        /* \"contracts/MNT_Mumbai.sol\":1550:1577  msg.sender == contractOwner */\n      0xffffffffffffffffffffffffffffffffffffffff\n      and\n      eq\n        /* \"contracts/MNT_Mumbai.sol\":1542:1610  require(msg.sender == contractOwner, \"Error-MNT_MUMBAI.sol-Ownable\") */\n      tag_160\n      jumpi\n      mload(0x40)\n      0x08c379a000000000000000000000000000000000000000000000000000000000\n      dup2\n      mstore\n      0x04\n      add\n      tag_161\n      swap1\n      tag_153\n      jump\t// in\n    tag_161:\n      mload(0x40)\n      dup1\n      swap2\n      sub\n      swap1\n      revert\n    tag_160:\n        /* \"contracts/MNT_Mumbai.sol\":2476:2495  uint256 previousCap */\n      0x00\n        /* \"contracts/MNT_Mumbai.sol\":2498:2511  capPerAccount */\n      sload(0x08)\n        /* \"contracts/MNT_Mumbai.sol\":2476:2511  uint256 previousCap = capPerAccount */\n      swap1\n      pop\n        /* \"contracts/MNT_Mumbai.sol\":2536:2542  newCap */\n      dup2\n        /* \"contracts/MNT_Mumbai.sol\":2522:2535  capPerAccount */\n      0x08\n        /* \"contracts/MNT_Mumbai.sol\":2522:2542  capPerAccount=newCap */\n      dup2\n      swap1\n      sstore\n      pop\n        /* \"contracts/MNT_Mumbai.sol\":2558:2616  CapPerAccountUpdated(previousCap, newCap, block.timestamp) */\n      0x4c2d858a88357e20c1b14c12b9674497934a744bb8118d4d3f2dce8ded4989be\n        /* \"contracts/MNT_Mumbai.sol\":2579:2590  previousCap */\n      dup2\n        /* \"contracts/MNT_Mumbai.sol\":2592:2598  newCap */\n      dup4\n        /* \"contracts/MNT_Mumbai.sol\":2600:2615  block.timestamp */\n      timestamp\n        /* \"contracts/MNT_Mumbai.sol\":2558:2616  CapPerAccountUpdated(previousCap, newCap, block.timestamp) */\n      mload(0x40)\n      tag_163\n      swap4\n      swap3\n      swap2\n      swap1\n      tag_164\n      jump\t// in\n    tag_163:\n      mload(0x40)\n      dup1\n      swap2\n      sub\n      swap1\n      log1\n        /* \"contracts/MNT_Mumbai.sol\":2465:2624  {... */\n      pop\n        /* \"contracts/MNT_Mumbai.sol\":2401:2624  function updateCapPerAccount(uint newCap) public onlyOwner... */\n      pop\n      jump\t// out\n        /* \"@openzeppelin/contracts/token/ERC20/ERC20.sol\":3299:3415  function balanceOf(address account) public view virtual returns (uint256) {... */\n    tag_72:\n        /* \"@openzeppelin/contracts/token/ERC20/ERC20.sol\":3364:3371  uint256 */\n      0x00\n        /* \"@openzeppelin/contracts/token/ERC20/ERC20.sol\":3390:3399  _balances */\n      dup1\n        /* \"@openzeppelin/contracts/token/ERC20/ERC20.sol\":3390:3408  _balances[account] */\n      0x00\n        /* \"@openzeppelin/contracts/token/ERC20/ERC20.sol\":3400:3407  account */\n      dup4\n        /* \"@openzeppelin/contracts/token/ERC20/ERC20.sol\":3390:3408  _balances[account] */\n      0xffffffffffffffffffffffffffffffffffffffff\n      and\n      0xffffffffffffffffffffffffffffffffffffffff\n      and\n      dup2\n      mstore\n      0x20\n      add\n      swap1\n      dup2\n      mstore\n      0x20\n      add\n      0x00\n      keccak256\n      sload\n        /* \"@openzeppelin/contracts/token/ERC20/ERC20.sol\":3383:3408  return _balances[account] */\n      swap1\n      pop\n        /* \"@openzeppelin/contracts/token/ERC20/ERC20.sol\":3299:3415  function balanceOf(address account) public view virtual returns (uint256) {... */\n      swap2\n      swap1\n      pop\n      jump\t// out\n        /* \"@openzeppelin/contracts/token/ERC20/ERC20.sol\":2276:2369  function symbol() public view virtual returns (string memory) {... */\n    tag_76:\n        /* \"@openzeppelin/contracts/token/ERC20/ERC20.sol\":2323:2336  string memory */\n      0x60\n        /* \"@openzeppelin/contracts/token/ERC20/ERC20.sol\":2355:2362  _symbol */\n      0x04\n        /* \"@openzeppelin/contracts/token/ERC20/ERC20.sol\":2348:2362  return _symbol */\n      dup1\n      sload\n      tag_167\n      swap1\n      tag_131\n      jump\t// in\n    tag_167:\n      dup1\n      0x1f\n      add\n      0x20\n      dup1\n      swap2\n      div\n      mul\n      0x20\n      add\n      mload(0x40)\n      swap1\n      dup2\n      add\n      0x40\n      mstore\n      dup1\n      swap3\n      swap2\n      swap1\n      dup2\n      dup2\n      mstore\n      0x20\n      add\n      dup3\n      dup1\n      sload\n      tag_168\n      swap1\n      tag_131\n      jump\t// in\n    tag_168:\n      dup1\n      iszero\n      tag_169\n      jumpi\n      dup1\n      0x1f\n      lt\n      tag_170\n      jumpi\n      0x0100\n      dup1\n      dup4\n      sload\n      div\n      mul\n      dup4\n      mstore\n      swap2\n      0x20\n      add\n      swap2\n      jump(tag_169)\n    tag_170:\n      dup3\n      add\n      swap2\n      swap1\n      0x00\n      mstore\n      keccak256(0x00, 0x20)\n      swap1\n    tag_171:\n      dup2\n      sload\n      dup2\n      mstore\n      swap1\n      0x01\n      add\n      swap1\n      0x20\n      add\n      dup1\n      dup4\n      gt\n      tag_171\n      jumpi\n      dup3\n      swap1\n      sub\n      0x1f\n      and\n      dup3\n      add\n      swap2\n    tag_169:\n      pop\n      pop\n      pop\n      pop\n      pop\n      swap1\n      pop\n        /* \"@openzeppelin/contracts/token/ERC20/ERC20.sol\":2276:2369  function symbol() public view virtual returns (string memory) {... */\n      swap1\n      jump\t// out\n        /* \"@openzeppelin/contracts/token/ERC20/ERC20.sol\":3610:3788  function transfer(address to, uint256 value) public virtual returns (bool) {... */\n    tag_81:\n        /* \"@openzeppelin/contracts/token/ERC20/ERC20.sol\":3679:3683  bool */\n      0x00\n        /* \"@openzeppelin/contracts/token/ERC20/ERC20.sol\":3695:3708  address owner */\n      dup1\n        /* \"@openzeppelin/contracts/token/ERC20/ERC20.sol\":3711:3723  _msgSender() */\n      tag_173\n        /* \"@openzeppelin/contracts/token/ERC20/ERC20.sol\":3711:3721  _msgSender */\n      tag_138\n        /* \"@openzeppelin/contracts/token/ERC20/ERC20.sol\":3711:3723  _msgSender() */\n      jump\t// in\n    tag_173:\n        /* \"@openzeppelin/contracts/token/ERC20/ERC20.sol\":3695:3723  address owner = _msgSender() */\n      swap1\n      pop\n        /* \"@openzeppelin/contracts/token/ERC20/ERC20.sol\":3733:3760  _transfer(owner, to, value) */\n      tag_174\n        /* \"@openzeppelin/contracts/token/ERC20/ERC20.sol\":3743:3748  owner */\n      dup2\n        /* \"@openzeppelin/contracts/token/ERC20/ERC20.sol\":3750:3752  to */\n      dup6\n        /* \"@openzeppelin/contracts/token/ERC20/ERC20.sol\":3754:3759  value */\n      dup6\n        /* \"@openzeppelin/contracts/token/ERC20/ERC20.sol\":3733:3742  _transfer */\n      tag_147\n        /* \"@openzeppelin/contracts/token/ERC20/ERC20.sol\":3733:3760  _transfer(owner, to, value) */\n      jump\t// in\n    tag_174:\n        /* \"@openzeppelin/contracts/token/ERC20/ERC20.sol\":3777:3781  true */\n      0x01\n        /* \"@openzeppelin/contracts/token/ERC20/ERC20.sol\":3770:3781  return true */\n      swap2\n      pop\n      pop\n        /* \"@openzeppelin/contracts/token/ERC20/ERC20.sol\":3610:3788  function transfer(address to, uint256 value) public virtual returns (bool) {... */\n      swap3\n      swap2\n      pop\n      pop\n      jump\t// out\n        /* \"contracts/MNT_Mumbai.sol\":3704:4014  function zTokenPriceInWei() public view returns (uint256)... */\n    tag_85:\n        /* \"contracts/MNT_Mumbai.sol\":3753:3760  uint256 */\n      0x00\n        /* \"contracts/MNT_Mumbai.sol\":3988:4005  OneMATICInCents() */\n      tag_176\n        /* \"contracts/MNT_Mumbai.sol\":3988:4003  OneMATICInCents */\n      tag_100\n        /* \"contracts/MNT_Mumbai.sol\":3988:4005  OneMATICInCents() */\n      jump\t// in\n    tag_176:\n        /* \"contracts/MNT_Mumbai.sol\":3968:3978  2*(10**18) */\n      0x1bc16d674ec80000\n        /* \"contracts/MNT_Mumbai.sol\":3960:4006  uint256(2*(10**18))/uint256(OneMATICInCents()) */\n      tag_177\n      swap2\n      swap1\n      tag_114\n      jump\t// in\n    tag_177:\n        /* \"contracts/MNT_Mumbai.sol\":3953:4006  return uint256(2*(10**18))/uint256(OneMATICInCents()) */\n      swap1\n      pop\n        /* \"contracts/MNT_Mumbai.sol\":3704:4014  function zTokenPriceInWei() public view returns (uint256)... */\n      swap1\n      jump\t// out\n        /* \"contracts/MNT_Mumbai.sol\":464:492  address public contractOwner */\n    tag_89:\n      0x06\n      0x00\n      swap1\n      sload\n      swap1\n      0x0100\n      exp\n      swap1\n      div\n      0xffffffffffffffffffffffffffffffffffffffff\n      and\n      dup2\n      jump\t// out\n        /* \"@openzeppelin/contracts/token/ERC20/ERC20.sol\":3846:3986  function allowance(address owner, address spender) public view virtual returns (uint256) {... */\n    tag_96:\n        /* \"@openzeppelin/contracts/token/ERC20/ERC20.sol\":3926:3933  uint256 */\n      0x00\n        /* \"@openzeppelin/contracts/token/ERC20/ERC20.sol\":3952:3963  _allowances */\n      0x01\n        /* \"@openzeppelin/contracts/token/ERC20/ERC20.sol\":3952:3970  _allowances[owner] */\n      0x00\n        /* \"@openzeppelin/contracts/token/ERC20/ERC20.sol\":3964:3969  owner */\n      dup5\n        /* \"@openzeppelin/contracts/token/ERC20/ERC20.sol\":3952:3970  _allowances[owner] */\n      0xffffffffffffffffffffffffffffffffffffffff\n      and\n      0xffffffffffffffffffffffffffffffffffffffff\n      and\n      dup2\n      mstore\n      0x20\n      add\n      swap1\n      dup2\n      mstore\n      0x20\n      add\n      0x00\n      keccak256\n        /* \"@openzeppelin/contracts/token/ERC20/ERC20.sol\":3952:3979  _allowances[owner][spender] */\n      0x00\n        /* \"@openzeppelin/contracts/token/ERC20/ERC20.sol\":3971:3978  spender */\n      dup4\n        /* \"@openzeppelin/contracts/token/ERC20/ERC20.sol\":3952:3979  _allowances[owner][spender] */\n      0xffffffffffffffffffffffffffffffffffffffff\n      and\n      0xffffffffffffffffffffffffffffffffffffffff\n      and\n      dup2\n      mstore\n      0x20\n      add\n      swap1\n      dup2\n      mstore\n      0x20\n      add\n      0x00\n      keccak256\n      sload\n        /* \"@openzeppelin/contracts/token/ERC20/ERC20.sol\":3945:3979  return _allowances[owner][spender] */\n      swap1\n      pop\n        /* \"@openzeppelin/contracts/token/ERC20/ERC20.sol\":3846:3986  function allowance(address owner, address spender) public view virtual returns (uint256) {... */\n      swap3\n      swap2\n      pop\n      pop\n      jump\t// out\n        /* \"contracts/MNT_Mumbai.sol\":2632:3696  function OneMATICInCents() public view returns (int)... */\n    tag_100:\n        /* \"contracts/MNT_Mumbai.sol\":2680:2683  int */\n      0x00\n        /* \"contracts/MNT_Mumbai.sol\":2703:2713  int answer */\n      dup1\n        /* \"contracts/MNT_Mumbai.sol\":2720:2728  dataFeed */\n      0x05\n      0x00\n      swap1\n      sload\n      swap1\n      0x0100\n      exp\n      swap1\n      div\n      0xffffffffffffffffffffffffffffffffffffffff\n      and\n        /* \"contracts/MNT_Mumbai.sol\":2720:2744  dataFeed.latestRoundData */\n      0xffffffffffffffffffffffffffffffffffffffff\n      and\n      0xfeaf968c\n        /* \"contracts/MNT_Mumbai.sol\":2720:2746  dataFeed.latestRoundData() */\n      mload(0x40)\n      dup2\n      0xffffffff\n      and\n      0xe0\n      shl\n      dup2\n      mstore\n      0x04\n      add\n      0xa0\n      mload(0x40)\n      dup1\n      dup4\n      sub\n      dup2\n      dup7\n      gas\n      staticcall\n      iszero\n      dup1\n      iszero\n      tag_181\n      jumpi\n      returndatasize\n      0x00\n      dup1\n      returndatacopy\n      revert(0x00, returndatasize)\n    tag_181:\n      pop\n      pop\n      pop\n      pop\n      mload(0x40)\n      returndatasize\n      not(0x1f)\n      0x1f\n      dup3\n      add\n      and\n      dup3\n      add\n      dup1\n      0x40\n      mstore\n      pop\n      dup2\n      add\n      swap1\n      tag_182\n      swap2\n      swap1\n      tag_183\n      jump\t// in\n    tag_182:\n        /* \"contracts/MNT_Mumbai.sol\":2701:2746  (,int answer,,,) = dataFeed.latestRoundData() */\n      pop\n      pop\n      pop\n      swap2\n      pop\n      pop\n        /* \"contracts/MNT_Mumbai.sol\":3499:3506  1000000 */\n      0x0f4240\n        /* \"contracts/MNT_Mumbai.sol\":3492:3498  answer */\n      dup2\n        /* \"contracts/MNT_Mumbai.sol\":3492:3506  answer/1000000 */\n      tag_184\n      swap2\n      swap1\n      tag_185\n      jump\t// in\n    tag_184:\n        /* \"contracts/MNT_Mumbai.sol\":3485:3506  return answer/1000000 */\n      swap2\n      pop\n      pop\n        /* \"contracts/MNT_Mumbai.sol\":2632:3696  function OneMATICInCents() public view returns (int)... */\n      swap1\n      jump\t// out\n        /* \"@openzeppelin/contracts/token/ERC20/ERC20.sol\":7721:7929  function _mint(address account, uint256 value) internal {... */\n    tag_125:\n        /* \"@openzeppelin/contracts/token/ERC20/ERC20.sol\":7810:7811  0 */\n      0x00\n        /* \"@openzeppelin/contracts/token/ERC20/ERC20.sol\":7791:7812  account == address(0) */\n      0xffffffffffffffffffffffffffffffffffffffff\n      and\n        /* \"@openzeppelin/contracts/token/ERC20/ERC20.sol\":7791:7798  account */\n      dup3\n        /* \"@openzeppelin/contracts/token/ERC20/ERC20.sol\":7791:7812  account == address(0) */\n      0xffffffffffffffffffffffffffffffffffffffff\n      and\n      sub\n        /* \"@openzeppelin/contracts/token/ERC20/ERC20.sol\":7787:7878  if (account == address(0)) {... */\n      tag_187\n      jumpi\n        /* \"@openzeppelin/contracts/token/ERC20/ERC20.sol\":7864:7865  0 */\n      0x00\n        /* \"@openzeppelin/contracts/token/ERC20/ERC20.sol\":7835:7867  ERC20InvalidReceiver(address(0)) */\n      mload(0x40)\n      0xec442f0500000000000000000000000000000000000000000000000000000000\n      dup2\n      mstore\n      0x04\n      add\n      tag_188\n      swap2\n      swap1\n      tag_91\n      jump\t// in\n    tag_188:\n      mload(0x40)\n      dup1\n      swap2\n      sub\n      swap1\n      revert\n        /* \"@openzeppelin/contracts/token/ERC20/ERC20.sol\":7787:7878  if (account == address(0)) {... */\n    tag_187:\n        /* \"@openzeppelin/contracts/token/ERC20/ERC20.sol\":7887:7922  _update(address(0), account, value) */\n      tag_189\n        /* \"@openzeppelin/contracts/token/ERC20/ERC20.sol\":7903:7904  0 */\n      0x00\n        /* \"@openzeppelin/contracts/token/ERC20/ERC20.sol\":7907:7914  account */\n      dup4\n        /* \"@openzeppelin/contracts/token/ERC20/ERC20.sol\":7916:7921  value */\n      dup4\n        /* \"@openzeppelin/contracts/token/ERC20/ERC20.sol\":7887:7894  _update */\n      tag_190\n        /* \"@openzeppelin/contracts/token/ERC20/ERC20.sol\":7887:7922  _update(address(0), account, value) */\n      jump\t// in\n    tag_189:\n        /* \"@openzeppelin/contracts/token/ERC20/ERC20.sol\":7721:7929  function _mint(address account, uint256 value) internal {... */\n      pop\n      pop\n      jump\t// out\n        /* \"@openzeppelin/contracts/utils/Context.sol\":656:752  function _msgSender() internal view virtual returns (address) {... */\n    tag_138:\n        /* \"@openzeppelin/contracts/utils/Context.sol\":709:716  address */\n      0x00\n        /* \"@openzeppelin/contracts/utils/Context.sol\":735:745  msg.sender */\n      caller\n        /* \"@openzeppelin/contracts/utils/Context.sol\":728:745  return msg.sender */\n      swap1\n      pop\n        /* \"@openzeppelin/contracts/utils/Context.sol\":656:752  function _msgSender() internal view virtual returns (address) {... */\n      swap1\n      jump\t// out\n        /* \"@openzeppelin/contracts/token/ERC20/ERC20.sol\":8989:9117  function _approve(address owner, address spender, uint256 value) internal {... */\n    tag_140:\n        /* \"@openzeppelin/contracts/token/ERC20/ERC20.sol\":9073:9110  _approve(owner, spender, value, true) */\n      tag_193\n        /* \"@openzeppelin/contracts/token/ERC20/ERC20.sol\":9082:9087  owner */\n      dup4\n        /* \"@openzeppelin/contracts/token/ERC20/ERC20.sol\":9089:9096  spender */\n      dup4\n        /* \"@openzeppelin/contracts/token/ERC20/ERC20.sol\":9098:9103  value */\n      dup4\n        /* \"@openzeppelin/contracts/token/ERC20/ERC20.sol\":9105:9109  true */\n      0x01\n        /* \"@openzeppelin/contracts/token/ERC20/ERC20.sol\":9073:9081  _approve */\n      tag_194\n        /* \"@openzeppelin/contracts/token/ERC20/ERC20.sol\":9073:9110  _approve(owner, spender, value, true) */\n      jump\t// in\n    tag_193:\n        /* \"@openzeppelin/contracts/token/ERC20/ERC20.sol\":8989:9117  function _approve(address owner, address spender, uint256 value) internal {... */\n      pop\n      pop\n      pop\n      jump\t// out\n        /* \"@openzeppelin/contracts/token/ERC20/ERC20.sol\":10663:11140  function _spendAllowance(address owner, address spender, uint256 value) internal virtual {... */\n    tag_145:\n        /* \"@openzeppelin/contracts/token/ERC20/ERC20.sol\":10762:10786  uint256 currentAllowance */\n      0x00\n        /* \"@openzeppelin/contracts/token/ERC20/ERC20.sol\":10789:10814  allowance(owner, spender) */\n      tag_196\n        /* \"@openzeppelin/contracts/token/ERC20/ERC20.sol\":10799:10804  owner */\n      dup5\n        /* \"@openzeppelin/contracts/token/ERC20/ERC20.sol\":10806:10813  spender */\n      dup5\n        /* \"@openzeppelin/contracts/token/ERC20/ERC20.sol\":10789:10798  allowance */\n      tag_96\n        /* \"@openzeppelin/contracts/token/ERC20/ERC20.sol\":10789:10814  allowance(owner, spender) */\n      jump\t// in\n    tag_196:\n        /* \"@openzeppelin/contracts/token/ERC20/ERC20.sol\":10762:10814  uint256 currentAllowance = allowance(owner, spender) */\n      swap1\n      pop\n        /* \"@openzeppelin/contracts/token/ERC20/ERC20.sol\":10848:10865  type(uint256).max */\n      0xffffffffffffffffffffffffffffffffffffffffffffffffffffffffffffffff\n        /* \"@openzeppelin/contracts/token/ERC20/ERC20.sol\":10828:10844  currentAllowance */\n      dup2\n        /* \"@openzeppelin/contracts/token/ERC20/ERC20.sol\":10828:10865  currentAllowance != type(uint256).max */\n      eq\n        /* \"@openzeppelin/contracts/token/ERC20/ERC20.sol\":10824:11134  if (currentAllowance != type(uint256).max) {... */\n      tag_197\n      jumpi\n        /* \"@openzeppelin/contracts/token/ERC20/ERC20.sol\":10904:10909  value */\n      dup2\n        /* \"@openzeppelin/contracts/token/ERC20/ERC20.sol\":10885:10901  currentAllowance */\n      dup2\n        /* \"@openzeppelin/contracts/token/ERC20/ERC20.sol\":10885:10909  currentAllowance < value */\n      lt\n        /* \"@openzeppelin/contracts/token/ERC20/ERC20.sol\":10881:11011  if (currentAllowance < value) {... */\n      iszero\n      tag_198\n      jumpi\n        /* \"@openzeppelin/contracts/token/ERC20/ERC20.sol\":10963:10970  spender */\n      dup3\n        /* \"@openzeppelin/contracts/token/ERC20/ERC20.sol\":10972:10988  currentAllowance */\n      dup2\n        /* \"@openzeppelin/contracts/token/ERC20/ERC20.sol\":10990:10995  value */\n      dup4\n        /* \"@openzeppelin/contracts/token/ERC20/ERC20.sol\":10936:10996  ERC20InsufficientAllowance(spender, currentAllowance, value) */\n      mload(0x40)\n      0xfb8f41b200000000000000000000000000000000000000000000000000000000\n      dup2\n      mstore\n      0x04\n      add\n      tag_199\n      swap4\n      swap3\n      swap2\n      swap1\n      tag_200\n      jump\t// in\n    tag_199:\n      mload(0x40)\n      dup1\n      swap2\n      sub\n      swap1\n      revert\n        /* \"@openzeppelin/contracts/token/ERC20/ERC20.sol\":10881:11011  if (currentAllowance < value) {... */\n    tag_198:\n        /* \"@openzeppelin/contracts/token/ERC20/ERC20.sol\":11052:11109  _approve(owner, spender, currentAllowance - value, false) */\n      tag_201\n        /* \"@openzeppelin/contracts/token/ERC20/ERC20.sol\":11061:11066  owner */\n      dup5\n        /* \"@openzeppelin/contracts/token/ERC20/ERC20.sol\":11068:11075  spender */\n      dup5\n        /* \"@openzeppelin/contracts/token/ERC20/ERC20.sol\":11096:11101  value */\n      dup5\n        /* \"@openzeppelin/contracts/token/ERC20/ERC20.sol\":11077:11093  currentAllowance */\n      dup5\n        /* \"@openzeppelin/contracts/token/ERC20/ERC20.sol\":11077:11101  currentAllowance - value */\n      sub\n        /* \"@openzeppelin/contracts/token/ERC20/ERC20.sol\":11103:11108  false */\n      0x00\n        /* \"@openzeppelin/contracts/token/ERC20/ERC20.sol\":11052:11060  _approve */\n      tag_194\n        /* \"@openzeppelin/contracts/token/ERC20/ERC20.sol\":11052:11109  _approve(owner, spender, currentAllowance - value, false) */\n      jump\t// in\n    tag_201:\n        /* \"@openzeppelin/contracts/token/ERC20/ERC20.sol\":10824:11134  if (currentAllowance != type(uint256).max) {... */\n    tag_197:\n        /* \"@openzeppelin/contracts/token/ERC20/ERC20.sol\":10752:11140  {... */\n      pop\n        /* \"@openzeppelin/contracts/token/ERC20/ERC20.sol\":10663:11140  function _spendAllowance(address owner, address spender, uint256 value) internal virtual {... */\n      pop\n      pop\n      pop\n      jump\t// out\n        /* \"@openzeppelin/contracts/token/ERC20/ERC20.sol\":5656:5956  function _transfer(address from, address to, uint256 value) internal {... */\n    tag_147:\n        /* \"@openzeppelin/contracts/token/ERC20/ERC20.sol\":5755:5756  0 */\n      0x00\n        /* \"@openzeppelin/contracts/token/ERC20/ERC20.sol\":5739:5757  from == address(0) */\n      0xffffffffffffffffffffffffffffffffffffffff\n      and\n        /* \"@openzeppelin/contracts/token/ERC20/ERC20.sol\":5739:5743  from */\n      dup4\n        /* \"@openzeppelin/contracts/token/ERC20/ERC20.sol\":5739:5757  from == address(0) */\n      0xffffffffffffffffffffffffffffffffffffffff\n      and\n      sub\n        /* \"@openzeppelin/contracts/token/ERC20/ERC20.sol\":5735:5821  if (from == address(0)) {... */\n      tag_203\n      jumpi\n        /* \"@openzeppelin/contracts/token/ERC20/ERC20.sol\":5807:5808  0 */\n      0x00\n        /* \"@openzeppelin/contracts/token/ERC20/ERC20.sol\":5780:5810  ERC20InvalidSender(address(0)) */\n      mload(0x40)\n      0x96c6fd1e00000000000000000000000000000000000000000000000000000000\n      dup2\n      mstore\n      0x04\n      add\n      tag_204\n      swap2\n      swap1\n      tag_91\n      jump\t// in\n    tag_204:\n      mload(0x40)\n      dup1\n      swap2\n      sub\n      swap1\n      revert\n        /* \"@openzeppelin/contracts/token/ERC20/ERC20.sol\":5735:5821  if (from == address(0)) {... */\n    tag_203:\n        /* \"@openzeppelin/contracts/token/ERC20/ERC20.sol\":5848:5849  0 */\n      0x00\n        /* \"@openzeppelin/contracts/token/ERC20/ERC20.sol\":5834:5850  to == address(0) */\n      0xffffffffffffffffffffffffffffffffffffffff\n      and\n        /* \"@openzeppelin/contracts/token/ERC20/ERC20.sol\":5834:5836  to */\n      dup3\n        /* \"@openzeppelin/contracts/token/ERC20/ERC20.sol\":5834:5850  to == address(0) */\n      0xffffffffffffffffffffffffffffffffffffffff\n      and\n      sub\n        /* \"@openzeppelin/contracts/token/ERC20/ERC20.sol\":5830:5916  if (to == address(0)) {... */\n      tag_205\n      jumpi\n        /* \"@openzeppelin/contracts/token/ERC20/ERC20.sol\":5902:5903  0 */\n      0x00\n        /* \"@openzeppelin/contracts/token/ERC20/ERC20.sol\":5873:5905  ERC20InvalidReceiver(address(0)) */\n      mload(0x40)\n      0xec442f0500000000000000000000000000000000000000000000000000000000\n      dup2\n      mstore\n      0x04\n      add\n      tag_206\n      swap2\n      swap1\n      tag_91\n      jump\t// in\n    tag_206:\n      mload(0x40)\n      dup1\n      swap2\n      sub\n      swap1\n      revert\n        /* \"@openzeppelin/contracts/token/ERC20/ERC20.sol\":5830:5916  if (to == address(0)) {... */\n    tag_205:\n        /* \"@openzeppelin/contracts/token/ERC20/ERC20.sol\":5925:5949  _update(from, to, value) */\n      tag_207\n        /* \"@openzeppelin/contracts/token/ERC20/ERC20.sol\":5933:5937  from */\n      dup4\n        /* \"@openzeppelin/contracts/token/ERC20/ERC20.sol\":5939:5941  to */\n      dup4\n        /* \"@openzeppelin/contracts/token/ERC20/ERC20.sol\":5943:5948  value */\n      dup4\n        /* \"@openzeppelin/contracts/token/ERC20/ERC20.sol\":5925:5932  _update */\n      tag_190\n        /* \"@openzeppelin/contracts/token/ERC20/ERC20.sol\":5925:5949  _update(from, to, value) */\n      jump\t// in\n    tag_207:\n        /* \"@openzeppelin/contracts/token/ERC20/ERC20.sol\":5656:5956  function _transfer(address from, address to, uint256 value) internal {... */\n      pop\n      pop\n      pop\n      jump\t// out\n        /* \"@openzeppelin/contracts/token/ERC20/extensions/ERC20Capped.sol\":1059:1430  function _update(address from, address to, uint256 value) internal virtual override {... */\n    tag_190:\n        /* \"@openzeppelin/contracts/token/ERC20/extensions/ERC20Capped.sol\":1153:1183  super._update(from, to, value) */\n      tag_209\n        /* \"@openzeppelin/contracts/token/ERC20/extensions/ERC20Capped.sol\":1167:1171  from */\n      dup4\n        /* \"@openzeppelin/contracts/token/ERC20/extensions/ERC20Capped.sol\":1173:1175  to */\n      dup4\n        /* \"@openzeppelin/contracts/token/ERC20/extensions/ERC20Capped.sol\":1177:1182  value */\n      dup4\n        /* \"@openzeppelin/contracts/token/ERC20/extensions/ERC20Capped.sol\":1153:1166  super._update */\n      tag_210\n        /* \"@openzeppelin/contracts/token/ERC20/extensions/ERC20Capped.sol\":1153:1183  super._update(from, to, value) */\n      jump\t// in\n    tag_209:\n        /* \"@openzeppelin/contracts/token/ERC20/extensions/ERC20Capped.sol\":1214:1215  0 */\n      0x00\n        /* \"@openzeppelin/contracts/token/ERC20/extensions/ERC20Capped.sol\":1198:1216  from == address(0) */\n      0xffffffffffffffffffffffffffffffffffffffff\n      and\n        /* \"@openzeppelin/contracts/token/ERC20/extensions/ERC20Capped.sol\":1198:1202  from */\n      dup4\n        /* \"@openzeppelin/contracts/token/ERC20/extensions/ERC20Capped.sol\":1198:1216  from == address(0) */\n      0xffffffffffffffffffffffffffffffffffffffff\n      and\n      sub\n        /* \"@openzeppelin/contracts/token/ERC20/extensions/ERC20Capped.sol\":1194:1424  if (from == address(0)) {... */\n      tag_211\n      jumpi\n        /* \"@openzeppelin/contracts/token/ERC20/extensions/ERC20Capped.sol\":1232:1249  uint256 maxSupply */\n      0x00\n        /* \"@openzeppelin/contracts/token/ERC20/extensions/ERC20Capped.sol\":1252:1257  cap() */\n      tag_212\n        /* \"@openzeppelin/contracts/token/ERC20/extensions/ERC20Capped.sol\":1252:1255  cap */\n      tag_58\n        /* \"@openzeppelin/contracts/token/ERC20/extensions/ERC20Capped.sol\":1252:1257  cap() */\n      jump\t// in\n    tag_212:\n        /* \"@openzeppelin/contracts/token/ERC20/extensions/ERC20Capped.sol\":1232:1257  uint256 maxSupply = cap() */\n      swap1\n      pop\n        /* \"@openzeppelin/contracts/token/ERC20/extensions/ERC20Capped.sol\":1271:1285  uint256 supply */\n      0x00\n        /* \"@openzeppelin/contracts/token/ERC20/extensions/ERC20Capped.sol\":1288:1301  totalSupply() */\n      tag_213\n        /* \"@openzeppelin/contracts/token/ERC20/extensions/ERC20Capped.sol\":1288:1299  totalSupply */\n      tag_38\n        /* \"@openzeppelin/contracts/token/ERC20/extensions/ERC20Capped.sol\":1288:1301  totalSupply() */\n      jump\t// in\n    tag_213:\n        /* \"@openzeppelin/contracts/token/ERC20/extensions/ERC20Capped.sol\":1271:1301  uint256 supply = totalSupply() */\n      swap1\n      pop\n        /* \"@openzeppelin/contracts/token/ERC20/extensions/ERC20Capped.sol\":1328:1337  maxSupply */\n      dup2\n        /* \"@openzeppelin/contracts/token/ERC20/extensions/ERC20Capped.sol\":1319:1325  supply */\n      dup2\n        /* \"@openzeppelin/contracts/token/ERC20/extensions/ERC20Capped.sol\":1319:1337  supply > maxSupply */\n      gt\n        /* \"@openzeppelin/contracts/token/ERC20/extensions/ERC20Capped.sol\":1315:1414  if (supply > maxSupply) {... */\n      iszero\n      tag_214\n      jumpi\n        /* \"@openzeppelin/contracts/token/ERC20/extensions/ERC20Capped.sol\":1381:1387  supply */\n      dup1\n        /* \"@openzeppelin/contracts/token/ERC20/extensions/ERC20Capped.sol\":1389:1398  maxSupply */\n      dup3\n        /* \"@openzeppelin/contracts/token/ERC20/extensions/ERC20Capped.sol\":1364:1399  ERC20ExceededCap(supply, maxSupply) */\n      mload(0x40)\n      0x9e79f85400000000000000000000000000000000000000000000000000000000\n      dup2\n      mstore\n      0x04\n      add\n      tag_215\n      swap3\n      swap2\n      swap1\n      tag_158\n      jump\t// in\n    tag_215:\n      mload(0x40)\n      dup1\n      swap2\n      sub\n      swap1\n      revert\n        /* \"@openzeppelin/contracts/token/ERC20/extensions/ERC20Capped.sol\":1315:1414  if (supply > maxSupply) {... */\n    tag_214:\n        /* \"@openzeppelin/contracts/token/ERC20/extensions/ERC20Capped.sol\":1218:1424  {... */\n      pop\n      pop\n        /* \"@openzeppelin/contracts/token/ERC20/extensions/ERC20Capped.sol\":1194:1424  if (from == address(0)) {... */\n    tag_211:\n        /* \"@openzeppelin/contracts/token/ERC20/extensions/ERC20Capped.sol\":1059:1430  function _update(address from, address to, uint256 value) internal virtual override {... */\n      pop\n      pop\n      pop\n      jump\t// out\n        /* \"@openzeppelin/contracts/token/ERC20/ERC20.sol\":9949:10381  function _approve(address owner, address spender, uint256 value, bool emitEvent) internal virtual {... */\n    tag_194:\n        /* \"@openzeppelin/contracts/token/ERC20/ERC20.sol\":10078:10079  0 */\n      0x00\n        /* \"@openzeppelin/contracts/token/ERC20/ERC20.sol\":10061:10080  owner == address(0) */\n      0xffffffffffffffffffffffffffffffffffffffff\n      and\n        /* \"@openzeppelin/contracts/token/ERC20/ERC20.sol\":10061:10066  owner */\n      dup5\n        /* \"@openzeppelin/contracts/token/ERC20/ERC20.sol\":10061:10080  owner == address(0) */\n      0xffffffffffffffffffffffffffffffffffffffff\n      and\n      sub\n        /* \"@openzeppelin/contracts/token/ERC20/ERC20.sol\":10057:10146  if (owner == address(0)) {... */\n      tag_217\n      jumpi\n        /* \"@openzeppelin/contracts/token/ERC20/ERC20.sol\":10132:10133  0 */\n      0x00\n        /* \"@openzeppelin/contracts/token/ERC20/ERC20.sol\":10103:10135  ERC20InvalidApprover(address(0)) */\n      mload(0x40)\n      0xe602df0500000000000000000000000000000000000000000000000000000000\n      dup2\n      mstore\n      0x04\n      add\n      tag_218\n      swap2\n      swap1\n      tag_91\n      jump\t// in\n    tag_218:\n      mload(0x40)\n      dup1\n      swap2\n      sub\n      swap1\n      revert\n        /* \"@openzeppelin/contracts/token/ERC20/ERC20.sol\":10057:10146  if (owner == address(0)) {... */\n    tag_217:\n        /* \"@openzeppelin/contracts/token/ERC20/ERC20.sol\":10178:10179  0 */\n      0x00\n        /* \"@openzeppelin/contracts/token/ERC20/ERC20.sol\":10159:10180  spender == address(0) */\n      0xffffffffffffffffffffffffffffffffffffffff\n      and\n        /* \"@openzeppelin/contracts/token/ERC20/ERC20.sol\":10159:10166  spender */\n      dup4\n        /* \"@openzeppelin/contracts/token/ERC20/ERC20.sol\":10159:10180  spender == address(0) */\n      0xffffffffffffffffffffffffffffffffffffffff\n      and\n      sub\n        /* \"@openzeppelin/contracts/token/ERC20/ERC20.sol\":10155:10245  if (spender == address(0)) {... */\n      tag_219\n      jumpi\n        /* \"@openzeppelin/contracts/token/ERC20/ERC20.sol\":10231:10232  0 */\n      0x00\n        /* \"@openzeppelin/contracts/token/ERC20/ERC20.sol\":10203:10234  ERC20InvalidSpender(address(0)) */\n      mload(0x40)\n      0x94280d6200000000000000000000000000000000000000000000000000000000\n      dup2\n      mstore\n      0x04\n      add\n      tag_220\n      swap2\n      swap1\n      tag_91\n      jump\t// in\n    tag_220:\n      mload(0x40)\n      dup1\n      swap2\n      sub\n      swap1\n      revert\n        /* \"@openzeppelin/contracts/token/ERC20/ERC20.sol\":10155:10245  if (spender == address(0)) {... */\n    tag_219:\n        /* \"@openzeppelin/contracts/token/ERC20/ERC20.sol\":10284:10289  value */\n      dup2\n        /* \"@openzeppelin/contracts/token/ERC20/ERC20.sol\":10254:10265  _allowances */\n      0x01\n        /* \"@openzeppelin/contracts/token/ERC20/ERC20.sol\":10254:10272  _allowances[owner] */\n      0x00\n        /* \"@openzeppelin/contracts/token/ERC20/ERC20.sol\":10266:10271  owner */\n      dup7\n        /* \"@openzeppelin/contracts/token/ERC20/ERC20.sol\":10254:10272  _allowances[owner] */\n      0xffffffffffffffffffffffffffffffffffffffff\n      and\n      0xffffffffffffffffffffffffffffffffffffffff\n      and\n      dup2\n      mstore\n      0x20\n      add\n      swap1\n      dup2\n      mstore\n      0x20\n      add\n      0x00\n      keccak256\n        /* \"@openzeppelin/contracts/token/ERC20/ERC20.sol\":10254:10281  _allowances[owner][spender] */\n      0x00\n        /* \"@openzeppelin/contracts/token/ERC20/ERC20.sol\":10273:10280  spender */\n      dup6\n        /* \"@openzeppelin/contracts/token/ERC20/ERC20.sol\":10254:10281  _allowances[owner][spender] */\n      0xffffffffffffffffffffffffffffffffffffffff\n      and\n      0xffffffffffffffffffffffffffffffffffffffff\n      and\n      dup2\n      mstore\n      0x20\n      add\n      swap1\n      dup2\n      mstore\n      0x20\n      add\n      0x00\n      keccak256\n        /* \"@openzeppelin/contracts/token/ERC20/ERC20.sol\":10254:10289  _allowances[owner][spender] = value */\n      dup2\n      swap1\n      sstore\n      pop\n        /* \"@openzeppelin/contracts/token/ERC20/ERC20.sol\":10303:10312  emitEvent */\n      dup1\n        /* \"@openzeppelin/contracts/token/ERC20/ERC20.sol\":10299:10375  if (emitEvent) {... */\n      iszero\n      tag_221\n      jumpi\n        /* \"@openzeppelin/contracts/token/ERC20/ERC20.sol\":10349:10356  spender */\n      dup3\n        /* \"@openzeppelin/contracts/token/ERC20/ERC20.sol\":10333:10364  Approval(owner, spender, value) */\n      0xffffffffffffffffffffffffffffffffffffffff\n      and\n        /* \"@openzeppelin/contracts/token/ERC20/ERC20.sol\":10342:10347  owner */\n      dup5\n        /* \"@openzeppelin/contracts/token/ERC20/ERC20.sol\":10333:10364  Approval(owner, spender, value) */\n      0xffffffffffffffffffffffffffffffffffffffff\n      and\n      0x8c5be1e5ebec7d5bd14f71427d1e84f3dd0314c0f7b2291e5b200ac8c7c3b925\n        /* \"@openzeppelin/contracts/token/ERC20/ERC20.sol\":10358:10363  value */\n      dup5\n        /* \"@openzeppelin/contracts/token/ERC20/ERC20.sol\":10333:10364  Approval(owner, spender, value) */\n      mload(0x40)\n      tag_222\n      swap2\n      swap1\n      tag_40\n      jump\t// in\n    tag_222:\n      mload(0x40)\n      dup1\n      swap2\n      sub\n      swap1\n      log3\n        /* \"@openzeppelin/contracts/token/ERC20/ERC20.sol\":10299:10375  if (emitEvent) {... */\n    tag_221:\n        /* \"@openzeppelin/contracts/token/ERC20/ERC20.sol\":9949:10381  function _approve(address owner, address spender, uint256 value, bool emitEvent) internal virtual {... */\n      pop\n      pop\n      pop\n      pop\n      jump\t// out\n        /* \"@openzeppelin/contracts/token/ERC20/ERC20.sol\":6271:7378  function _update(address from, address to, uint256 value) internal virtual {... */\n    tag_210:\n        /* \"@openzeppelin/contracts/token/ERC20/ERC20.sol\":6376:6377  0 */\n      0x00\n        /* \"@openzeppelin/contracts/token/ERC20/ERC20.sol\":6360:6378  from == address(0) */\n      0xffffffffffffffffffffffffffffffffffffffff\n      and\n        /* \"@openzeppelin/contracts/token/ERC20/ERC20.sol\":6360:6364  from */\n      dup4\n        /* \"@openzeppelin/contracts/token/ERC20/ERC20.sol\":6360:6378  from == address(0) */\n      0xffffffffffffffffffffffffffffffffffffffff\n      and\n      sub\n        /* \"@openzeppelin/contracts/token/ERC20/ERC20.sol\":6356:6896  if (from == address(0)) {... */\n      tag_224\n      jumpi\n        /* \"@openzeppelin/contracts/token/ERC20/ERC20.sol\":6512:6517  value */\n      dup1\n        /* \"@openzeppelin/contracts/token/ERC20/ERC20.sol\":6496:6508  _totalSupply */\n      0x02\n      0x00\n        /* \"@openzeppelin/contracts/token/ERC20/ERC20.sol\":6496:6517  _totalSupply += value */\n      dup3\n      dup3\n      sload\n      tag_225\n      swap2\n      swap1\n      tag_120\n      jump\t// in\n    tag_225:\n      swap3\n      pop\n      pop\n      dup2\n      swap1\n      sstore\n      pop\n        /* \"@openzeppelin/contracts/token/ERC20/ERC20.sol\":6356:6896  if (from == address(0)) {... */\n      jump(tag_226)\n    tag_224:\n        /* \"@openzeppelin/contracts/token/ERC20/ERC20.sol\":6548:6567  uint256 fromBalance */\n      0x00\n        /* \"@openzeppelin/contracts/token/ERC20/ERC20.sol\":6570:6579  _balances */\n      dup1\n        /* \"@openzeppelin/contracts/token/ERC20/ERC20.sol\":6570:6585  _balances[from] */\n      0x00\n        /* \"@openzeppelin/contracts/token/ERC20/ERC20.sol\":6580:6584  from */\n      dup6\n        /* \"@openzeppelin/contracts/token/ERC20/ERC20.sol\":6570:6585  _balances[from] */\n      0xffffffffffffffffffffffffffffffffffffffff\n      and\n      0xffffffffffffffffffffffffffffffffffffffff\n      and\n      dup2\n      mstore\n      0x20\n      add\n      swap1\n      dup2\n      mstore\n      0x20\n      add\n      0x00\n      keccak256\n      sload\n        /* \"@openzeppelin/contracts/token/ERC20/ERC20.sol\":6548:6585  uint256 fromBalance = _balances[from] */\n      swap1\n      pop\n        /* \"@openzeppelin/contracts/token/ERC20/ERC20.sol\":6617:6622  value */\n      dup2\n        /* \"@openzeppelin/contracts/token/ERC20/ERC20.sol\":6603:6614  fromBalance */\n      dup2\n        /* \"@openzeppelin/contracts/token/ERC20/ERC20.sol\":6603:6622  fromBalance < value */\n      lt\n        /* \"@openzeppelin/contracts/token/ERC20/ERC20.sol\":6599:6714  if (fromBalance < value) {... */\n      iszero\n      tag_227\n      jumpi\n        /* \"@openzeppelin/contracts/token/ERC20/ERC20.sol\":6674:6678  from */\n      dup4\n        /* \"@openzeppelin/contracts/token/ERC20/ERC20.sol\":6680:6691  fromBalance */\n      dup2\n        /* \"@openzeppelin/contracts/token/ERC20/ERC20.sol\":6693:6698  value */\n      dup4\n        /* \"@openzeppelin/contracts/token/ERC20/ERC20.sol\":6649:6699  ERC20InsufficientBalance(from, fromBalance, value) */\n      mload(0x40)\n      0xe450d38c00000000000000000000000000000000000000000000000000000000\n      dup2\n      mstore\n      0x04\n      add\n      tag_228\n      swap4\n      swap3\n      swap2\n      swap1\n      tag_200\n      jump\t// in\n    tag_228:\n      mload(0x40)\n      dup1\n      swap2\n      sub\n      swap1\n      revert\n        /* \"@openzeppelin/contracts/token/ERC20/ERC20.sol\":6599:6714  if (fromBalance < value) {... */\n    tag_227:\n        /* \"@openzeppelin/contracts/token/ERC20/ERC20.sol\":6866:6871  value */\n      dup2\n        /* \"@openzeppelin/contracts/token/ERC20/ERC20.sol\":6852:6863  fromBalance */\n      dup2\n        /* \"@openzeppelin/contracts/token/ERC20/ERC20.sol\":6852:6871  fromBalance - value */\n      sub\n        /* \"@openzeppelin/contracts/token/ERC20/ERC20.sol\":6834:6843  _balances */\n      0x00\n        /* \"@openzeppelin/contracts/token/ERC20/ERC20.sol\":6834:6849  _balances[from] */\n      dup1\n        /* \"@openzeppelin/contracts/token/ERC20/ERC20.sol\":6844:6848  from */\n      dup7\n        /* \"@openzeppelin/contracts/token/ERC20/ERC20.sol\":6834:6849  _balances[from] */\n      0xffffffffffffffffffffffffffffffffffffffff\n      and\n      0xffffffffffffffffffffffffffffffffffffffff\n      and\n      dup2\n      mstore\n      0x20\n      add\n      swap1\n      dup2\n      mstore\n      0x20\n      add\n      0x00\n      keccak256\n        /* \"@openzeppelin/contracts/token/ERC20/ERC20.sol\":6834:6871  _balances[from] = fromBalance - value */\n      dup2\n      swap1\n      sstore\n      pop\n        /* \"@openzeppelin/contracts/token/ERC20/ERC20.sol\":6534:6896  {... */\n      pop\n        /* \"@openzeppelin/contracts/token/ERC20/ERC20.sol\":6356:6896  if (from == address(0)) {... */\n    tag_226:\n        /* \"@openzeppelin/contracts/token/ERC20/ERC20.sol\":6924:6925  0 */\n      0x00\n        /* \"@openzeppelin/contracts/token/ERC20/ERC20.sol\":6910:6926  to == address(0) */\n      0xffffffffffffffffffffffffffffffffffffffff\n      and\n        /* \"@openzeppelin/contracts/token/ERC20/ERC20.sol\":6910:6912  to */\n      dup3\n        /* \"@openzeppelin/contracts/token/ERC20/ERC20.sol\":6910:6926  to == address(0) */\n      0xffffffffffffffffffffffffffffffffffffffff\n      and\n      sub\n        /* \"@openzeppelin/contracts/token/ERC20/ERC20.sol\":6906:7331  if (to == address(0)) {... */\n      tag_229\n      jumpi\n        /* \"@openzeppelin/contracts/token/ERC20/ERC20.sol\":7089:7094  value */\n      dup1\n        /* \"@openzeppelin/contracts/token/ERC20/ERC20.sol\":7073:7085  _totalSupply */\n      0x02\n      0x00\n        /* \"@openzeppelin/contracts/token/ERC20/ERC20.sol\":7073:7094  _totalSupply -= value */\n      dup3\n      dup3\n      sload\n      sub\n      swap3\n      pop\n      pop\n      dup2\n      swap1\n      sstore\n      pop\n        /* \"@openzeppelin/contracts/token/ERC20/ERC20.sol\":6906:7331  if (to == address(0)) {... */\n      jump(tag_230)\n    tag_229:\n        /* \"@openzeppelin/contracts/token/ERC20/ERC20.sol\":7301:7306  value */\n      dup1\n        /* \"@openzeppelin/contracts/token/ERC20/ERC20.sol\":7284:7293  _balances */\n      0x00\n        /* \"@openzeppelin/contracts/token/ERC20/ERC20.sol\":7284:7297  _balances[to] */\n      dup1\n        /* \"@openzeppelin/contracts/token/ERC20/ERC20.sol\":7294:7296  to */\n      dup5\n        /* \"@openzeppelin/contracts/token/ERC20/ERC20.sol\":7284:7297  _balances[to] */\n      0xffffffffffffffffffffffffffffffffffffffff\n      and\n      0xffffffffffffffffffffffffffffffffffffffff\n      and\n      dup2\n      mstore\n      0x20\n      add\n      swap1\n      dup2\n      mstore\n      0x20\n      add\n      0x00\n      keccak256\n      0x00\n        /* \"@openzeppelin/contracts/token/ERC20/ERC20.sol\":7284:7306  _balances[to] += value */\n      dup3\n      dup3\n      sload\n      add\n      swap3\n      pop\n      pop\n      dup2\n      swap1\n      sstore\n      pop\n        /* \"@openzeppelin/contracts/token/ERC20/ERC20.sol\":6906:7331  if (to == address(0)) {... */\n    tag_230:\n        /* \"@openzeppelin/contracts/token/ERC20/ERC20.sol\":7361:7363  to */\n      dup2\n        /* \"@openzeppelin/contracts/token/ERC20/ERC20.sol\":7346:7371  Transfer(from, to, value) */\n      0xffffffffffffffffffffffffffffffffffffffff\n      and\n        /* \"@openzeppelin/contracts/token/ERC20/ERC20.sol\":7355:7359  from */\n      dup4\n        /* \"@openzeppelin/contracts/token/ERC20/ERC20.sol\":7346:7371  Transfer(from, to, value) */\n      0xffffffffffffffffffffffffffffffffffffffff\n      and\n      0xddf252ad1be2c89b69c2b068fc378daa952ba7f163c4a11628f55a4df523b3ef\n        /* \"@openzeppelin/contracts/token/ERC20/ERC20.sol\":7365:7370  value */\n      dup4\n        /* \"@openzeppelin/contracts/token/ERC20/ERC20.sol\":7346:7371  Transfer(from, to, value) */\n      mload(0x40)\n      tag_231\n      swap2\n      swap1\n      tag_40\n      jump\t// in\n    tag_231:\n      mload(0x40)\n      dup1\n      swap2\n      sub\n      swap1\n      log3\n        /* \"@openzeppelin/contracts/token/ERC20/ERC20.sol\":6271:7378  function _update(address from, address to, uint256 value) internal virtual {... */\n      pop\n      pop\n      pop\n      jump\t// out\n        /* \"#utility.yul\":7:106   */\n    tag_232:\n        /* \"#utility.yul\":59:65   */\n      0x00\n        /* \"#utility.yul\":93:98   */\n      dup2\n        /* \"#utility.yul\":87:99   */\n      mload\n        /* \"#utility.yul\":77:99   */\n      swap1\n      pop\n        /* \"#utility.yul\":7:106   */\n      swap2\n      swap1\n      pop\n      jump\t// out\n        /* \"#utility.yul\":112:281   */\n    tag_233:\n        /* \"#utility.yul\":196:207   */\n      0x00\n        /* \"#utility.yul\":230:236   */\n      dup3\n        /* \"#utility.yul\":225:228   */\n      dup3\n        /* \"#utility.yul\":218:237   */\n      mstore\n        /* \"#utility.yul\":270:274   */\n      0x20\n        /* \"#utility.yul\":265:268   */\n      dup3\n        /* \"#utility.yul\":261:275   */\n      add\n        /* \"#utility.yul\":246:275   */\n      swap1\n      pop\n        /* \"#utility.yul\":112:281   */\n      swap3\n      swap2\n      pop\n      pop\n      jump\t// out\n        /* \"#utility.yul\":287:533   */\n    tag_234:\n        /* \"#utility.yul\":368:369   */\n      0x00\n        /* \"#utility.yul\":378:491   */\n    tag_277:\n        /* \"#utility.yul\":392:398   */\n      dup4\n        /* \"#utility.yul\":389:390   */\n      dup2\n        /* \"#utility.yul\":386:399   */\n      lt\n        /* \"#utility.yul\":378:491   */\n      iszero\n      tag_279\n      jumpi\n        /* \"#utility.yul\":477:478   */\n      dup1\n        /* \"#utility.yul\":472:475   */\n      dup3\n        /* \"#utility.yul\":468:479   */\n      add\n        /* \"#utility.yul\":462:480   */\n      mload\n        /* \"#utility.yul\":458:459   */\n      dup2\n        /* \"#utility.yul\":453:456   */\n      dup5\n        /* \"#utility.yul\":449:460   */\n      add\n        /* \"#utility.yul\":442:481   */\n      mstore\n        /* \"#utility.yul\":414:416   */\n      0x20\n        /* \"#utility.yul\":411:412   */\n      dup2\n        /* \"#utility.yul\":407:417   */\n      add\n        /* \"#utility.yul\":402:417   */\n      swap1\n      pop\n        /* \"#utility.yul\":378:491   */\n      jump(tag_277)\n    tag_279:\n        /* \"#utility.yul\":525:526   */\n      0x00\n        /* \"#utility.yul\":516:522   */\n      dup5\n        /* \"#utility.yul\":511:514   */\n      dup5\n        /* \"#utility.yul\":507:523   */\n      add\n        /* \"#utility.yul\":500:527   */\n      mstore\n        /* \"#utility.yul\":349:533   */\n      pop\n        /* \"#utility.yul\":287:533   */\n      pop\n      pop\n      pop\n      jump\t// out\n        /* \"#utility.yul\":539:641   */\n    tag_235:\n        /* \"#utility.yul\":580:586   */\n      0x00\n        /* \"#utility.yul\":631:633   */\n      0x1f\n        /* \"#utility.yul\":627:634   */\n      not\n        /* \"#utility.yul\":622:624   */\n      0x1f\n        /* \"#utility.yul\":615:620   */\n      dup4\n        /* \"#utility.yul\":611:625   */\n      add\n        /* \"#utility.yul\":607:635   */\n      and\n        /* \"#utility.yul\":597:635   */\n      swap1\n      pop\n        /* \"#utility.yul\":539:641   */\n      swap2\n      swap1\n      pop\n      jump\t// out\n        /* \"#utility.yul\":647:1024   */\n    tag_236:\n        /* \"#utility.yul\":735:738   */\n      0x00\n        /* \"#utility.yul\":763:802   */\n      tag_282\n        /* \"#utility.yul\":796:801   */\n      dup3\n        /* \"#utility.yul\":763:802   */\n      tag_232\n      jump\t// in\n    tag_282:\n        /* \"#utility.yul\":818:889   */\n      tag_283\n        /* \"#utility.yul\":882:888   */\n      dup2\n        /* \"#utility.yul\":877:880   */\n      dup6\n        /* \"#utility.yul\":818:889   */\n      tag_233\n      jump\t// in\n    tag_283:\n        /* \"#utility.yul\":811:889   */\n      swap4\n      pop\n        /* \"#utility.yul\":898:963   */\n      tag_284\n        /* \"#utility.yul\":956:962   */\n      dup2\n        /* \"#utility.yul\":951:954   */\n      dup6\n        /* \"#utility.yul\":944:948   */\n      0x20\n        /* \"#utility.yul\":937:942   */\n      dup7\n        /* \"#utility.yul\":933:949   */\n      add\n        /* \"#utility.yul\":898:963   */\n      tag_234\n      jump\t// in\n    tag_284:\n        /* \"#utility.yul\":988:1017   */\n      tag_285\n        /* \"#utility.yul\":1010:1016   */\n      dup2\n        /* \"#utility.yul\":988:1017   */\n      tag_235\n      jump\t// in\n    tag_285:\n        /* \"#utility.yul\":983:986   */\n      dup5\n        /* \"#utility.yul\":979:1018   */\n      add\n        /* \"#utility.yul\":972:1018   */\n      swap2\n      pop\n        /* \"#utility.yul\":739:1024   */\n      pop\n        /* \"#utility.yul\":647:1024   */\n      swap3\n      swap2\n      pop\n      pop\n      jump\t// out\n        /* \"#utility.yul\":1030:1343   */\n    tag_28:\n        /* \"#utility.yul\":1143:1147   */\n      0x00\n        /* \"#utility.yul\":1181:1183   */\n      0x20\n        /* \"#utility.yul\":1170:1179   */\n      dup3\n        /* \"#utility.yul\":1166:1184   */\n      add\n        /* \"#utility.yul\":1158:1184   */\n      swap1\n      pop\n        /* \"#utility.yul\":1230:1239   */\n      dup2\n        /* \"#utility.yul\":1224:1228   */\n      dup2\n        /* \"#utility.yul\":1220:1240   */\n      sub\n        /* \"#utility.yul\":1216:1217   */\n      0x00\n        /* \"#utility.yul\":1205:1214   */\n      dup4\n        /* \"#utility.yul\":1201:1218   */\n      add\n        /* \"#utility.yul\":1194:1241   */\n      mstore\n        /* \"#utility.yul\":1258:1336   */\n      tag_287\n        /* \"#utility.yul\":1331:1335   */\n      dup2\n        /* \"#utility.yul\":1322:1328   */\n      dup5\n        /* \"#utility.yul\":1258:1336   */\n      tag_236\n      jump\t// in\n    tag_287:\n        /* \"#utility.yul\":1250:1336   */\n      swap1\n      pop\n        /* \"#utility.yul\":1030:1343   */\n      swap3\n      swap2\n      pop\n      pop\n      jump\t// out\n        /* \"#utility.yul\":1430:1547   */\n    tag_238:\n        /* \"#utility.yul\":1539:1540   */\n      0x00\n        /* \"#utility.yul\":1536:1537   */\n      dup1\n        /* \"#utility.yul\":1529:1541   */\n      revert\n        /* \"#utility.yul\":1676:1802   */\n    tag_240:\n        /* \"#utility.yul\":1713:1720   */\n      0x00\n        /* \"#utility.yul\":1753:1795   */\n      0xffffffffffffffffffffffffffffffffffffffff\n        /* \"#utility.yul\":1746:1751   */\n      dup3\n        /* \"#utility.yul\":1742:1796   */\n      and\n        /* \"#utility.yul\":1731:1796   */\n      swap1\n      pop\n        /* \"#utility.yul\":1676:1802   */\n      swap2\n      swap1\n      pop\n      jump\t// out\n        /* \"#utility.yul\":1808:1904   */\n    tag_241:\n        /* \"#utility.yul\":1845:1852   */\n      0x00\n        /* \"#utility.yul\":1874:1898   */\n      tag_293\n        /* \"#utility.yul\":1892:1897   */\n      dup3\n        /* \"#utility.yul\":1874:1898   */\n      tag_240\n      jump\t// in\n    tag_293:\n        /* \"#utility.yul\":1863:1898   */\n      swap1\n      pop\n        /* \"#utility.yul\":1808:1904   */\n      swap2\n      swap1\n      pop\n      jump\t// out\n        /* \"#utility.yul\":1910:2032   */\n    tag_242:\n        /* \"#utility.yul\":1983:2007   */\n      tag_295\n        /* \"#utility.yul\":2001:2006   */\n      dup2\n        /* \"#utility.yul\":1983:2007   */\n      tag_241\n      jump\t// in\n    tag_295:\n        /* \"#utility.yul\":1976:1981   */\n      dup2\n        /* \"#utility.yul\":1973:2008   */\n      eq\n        /* \"#utility.yul\":1963:2026   */\n      tag_296\n      jumpi\n        /* \"#utility.yul\":2022:2023   */\n      0x00\n        /* \"#utility.yul\":2019:2020   */\n      dup1\n        /* \"#utility.yul\":2012:2024   */\n      revert\n        /* \"#utility.yul\":1963:2026   */\n    tag_296:\n        /* \"#utility.yul\":1910:2032   */\n      pop\n      jump\t// out\n        /* \"#utility.yul\":2038:2177   */\n    tag_243:\n        /* \"#utility.yul\":2084:2089   */\n      0x00\n        /* \"#utility.yul\":2122:2128   */\n      dup2\n        /* \"#utility.yul\":2109:2129   */\n      calldataload\n        /* \"#utility.yul\":2100:2129   */\n      swap1\n      pop\n        /* \"#utility.yul\":2138:2171   */\n      tag_298\n        /* \"#utility.yul\":2165:2170   */\n      dup2\n        /* \"#utility.yul\":2138:2171   */\n      tag_242\n      jump\t// in\n    tag_298:\n        /* \"#utility.yul\":2038:2177   */\n      swap3\n      swap2\n      pop\n      pop\n      jump\t// out\n        /* \"#utility.yul\":2183:2260   */\n    tag_244:\n        /* \"#utility.yul\":2220:2227   */\n      0x00\n        /* \"#utility.yul\":2249:2254   */\n      dup2\n        /* \"#utility.yul\":2238:2254   */\n      swap1\n      pop\n        /* \"#utility.yul\":2183:2260   */\n      swap2\n      swap1\n      pop\n      jump\t// out\n        /* \"#utility.yul\":2266:2388   */\n    tag_245:\n        /* \"#utility.yul\":2339:2363   */\n      tag_301\n        /* \"#utility.yul\":2357:2362   */\n      dup2\n        /* \"#utility.yul\":2339:2363   */\n      tag_244\n      jump\t// in\n    tag_301:\n        /* \"#utility.yul\":2332:2337   */\n      dup2\n        /* \"#utility.yul\":2329:2364   */\n      eq\n        /* \"#utility.yul\":2319:2382   */\n      tag_302\n      jumpi\n        /* \"#utility.yul\":2378:2379   */\n      0x00\n        /* \"#utility.yul\":2375:2376   */\n      dup1\n        /* \"#utility.yul\":2368:2380   */\n      revert\n        /* \"#utility.yul\":2319:2382   */\n    tag_302:\n        /* \"#utility.yul\":2266:2388   */\n      pop\n      jump\t// out\n        /* \"#utility.yul\":2394:2533   */\n    tag_246:\n        /* \"#utility.yul\":2440:2445   */\n      0x00\n        /* \"#utility.yul\":2478:2484   */\n      dup2\n        /* \"#utility.yul\":2465:2485   */\n      calldataload\n        /* \"#utility.yul\":2456:2485   */\n      swap1\n      pop\n        /* \"#utility.yul\":2494:2527   */\n      tag_304\n        /* \"#utility.yul\":2521:2526   */\n      dup2\n        /* \"#utility.yul\":2494:2527   */\n      tag_245\n      jump\t// in\n    tag_304:\n        /* \"#utility.yul\":2394:2533   */\n      swap3\n      swap2\n      pop\n      pop\n      jump\t// out\n        /* \"#utility.yul\":2539:3013   */\n    tag_32:\n        /* \"#utility.yul\":2607:2613   */\n      0x00\n        /* \"#utility.yul\":2615:2621   */\n      dup1\n        /* \"#utility.yul\":2664:2666   */\n      0x40\n        /* \"#utility.yul\":2652:2661   */\n      dup4\n        /* \"#utility.yul\":2643:2650   */\n      dup6\n        /* \"#utility.yul\":2639:2662   */\n      sub\n        /* \"#utility.yul\":2635:2667   */\n      slt\n        /* \"#utility.yul\":2632:2751   */\n      iszero\n      tag_306\n      jumpi\n        /* \"#utility.yul\":2670:2749   */\n      tag_307\n      tag_238\n      jump\t// in\n    tag_307:\n        /* \"#utility.yul\":2632:2751   */\n    tag_306:\n        /* \"#utility.yul\":2790:2791   */\n      0x00\n        /* \"#utility.yul\":2815:2868   */\n      tag_308\n        /* \"#utility.yul\":2860:2867   */\n      dup6\n        /* \"#utility.yul\":2851:2857   */\n      dup3\n        /* \"#utility.yul\":2840:2849   */\n      dup7\n        /* \"#utility.yul\":2836:2858   */\n      add\n        /* \"#utility.yul\":2815:2868   */\n      tag_243\n      jump\t// in\n    tag_308:\n        /* \"#utility.yul\":2805:2868   */\n      swap3\n      pop\n        /* \"#utility.yul\":2761:2878   */\n      pop\n        /* \"#utility.yul\":2917:2919   */\n      0x20\n        /* \"#utility.yul\":2943:2996   */\n      tag_309\n        /* \"#utility.yul\":2988:2995   */\n      dup6\n        /* \"#utility.yul\":2979:2985   */\n      dup3\n        /* \"#utility.yul\":2968:2977   */\n      dup7\n        /* \"#utility.yul\":2964:2986   */\n      add\n        /* \"#utility.yul\":2943:2996   */\n      tag_246\n      jump\t// in\n    tag_309:\n        /* \"#utility.yul\":2933:2996   */\n      swap2\n      pop\n        /* \"#utility.yul\":2888:3006   */\n      pop\n        /* \"#utility.yul\":2539:3013   */\n      swap3\n      pop\n      swap3\n      swap1\n      pop\n      jump\t// out\n        /* \"#utility.yul\":3019:3109   */\n    tag_247:\n        /* \"#utility.yul\":3053:3060   */\n      0x00\n        /* \"#utility.yul\":3096:3101   */\n      dup2\n        /* \"#utility.yul\":3089:3102   */\n      iszero\n        /* \"#utility.yul\":3082:3103   */\n      iszero\n        /* \"#utility.yul\":3071:3103   */\n      swap1\n      pop\n        /* \"#utility.yul\":3019:3109   */\n      swap2\n      swap1\n      pop\n      jump\t// out\n        /* \"#utility.yul\":3115:3224   */\n    tag_248:\n        /* \"#utility.yul\":3196:3217   */\n      tag_312\n        /* \"#utility.yul\":3211:3216   */\n      dup2\n        /* \"#utility.yul\":3196:3217   */\n      tag_247\n      jump\t// in\n    tag_312:\n        /* \"#utility.yul\":3191:3194   */\n      dup3\n        /* \"#utility.yul\":3184:3218   */\n      mstore\n        /* \"#utility.yul\":3115:3224   */\n      pop\n      pop\n      jump\t// out\n        /* \"#utility.yul\":3230:3440   */\n    tag_35:\n        /* \"#utility.yul\":3317:3321   */\n      0x00\n        /* \"#utility.yul\":3355:3357   */\n      0x20\n        /* \"#utility.yul\":3344:3353   */\n      dup3\n        /* \"#utility.yul\":3340:3358   */\n      add\n        /* \"#utility.yul\":3332:3358   */\n      swap1\n      pop\n        /* \"#utility.yul\":3368:3433   */\n      tag_314\n        /* \"#utility.yul\":3430:3431   */\n      0x00\n        /* \"#utility.yul\":3419:3428   */\n      dup4\n        /* \"#utility.yul\":3415:3432   */\n      add\n        /* \"#utility.yul\":3406:3412   */\n      dup5\n        /* \"#utility.yul\":3368:3433   */\n      tag_248\n      jump\t// in\n    tag_314:\n        /* \"#utility.yul\":3230:3440   */\n      swap3\n      swap2\n      pop\n      pop\n      jump\t// out\n        /* \"#utility.yul\":3446:3564   */\n    tag_249:\n        /* \"#utility.yul\":3533:3557   */\n      tag_316\n        /* \"#utility.yul\":3551:3556   */\n      dup2\n        /* \"#utility.yul\":3533:3557   */\n      tag_244\n      jump\t// in\n    tag_316:\n        /* \"#utility.yul\":3528:3531   */\n      dup3\n        /* \"#utility.yul\":3521:3558   */\n      mstore\n        /* \"#utility.yul\":3446:3564   */\n      pop\n      pop\n      jump\t// out\n        /* \"#utility.yul\":3570:3792   */\n    tag_40:\n        /* \"#utility.yul\":3663:3667   */\n      0x00\n        /* \"#utility.yul\":3701:3703   */\n      0x20\n        /* \"#utility.yul\":3690:3699   */\n      dup3\n        /* \"#utility.yul\":3686:3704   */\n      add\n        /* \"#utility.yul\":3678:3704   */\n      swap1\n      pop\n        /* \"#utility.yul\":3714:3785   */\n      tag_318\n        /* \"#utility.yul\":3782:3783   */\n      0x00\n        /* \"#utility.yul\":3771:3780   */\n      dup4\n        /* \"#utility.yul\":3767:3784   */\n      add\n        /* \"#utility.yul\":3758:3764   */\n      dup5\n        /* \"#utility.yul\":3714:3785   */\n      tag_249\n      jump\t// in\n    tag_318:\n        /* \"#utility.yul\":3570:3792   */\n      swap3\n      swap2\n      pop\n      pop\n      jump\t// out\n        /* \"#utility.yul\":3798:4417   */\n    tag_44:\n        /* \"#utility.yul\":3875:3881   */\n      0x00\n        /* \"#utility.yul\":3883:3889   */\n      dup1\n        /* \"#utility.yul\":3891:3897   */\n      0x00\n        /* \"#utility.yul\":3940:3942   */\n      0x60\n        /* \"#utility.yul\":3928:3937   */\n      dup5\n        /* \"#utility.yul\":3919:3926   */\n      dup7\n        /* \"#utility.yul\":3915:3938   */\n      sub\n        /* \"#utility.yul\":3911:3943   */\n      slt\n        /* \"#utility.yul\":3908:4027   */\n      iszero\n      tag_320\n      jumpi\n        /* \"#utility.yul\":3946:4025   */\n      tag_321\n      tag_238\n      jump\t// in\n    tag_321:\n        /* \"#utility.yul\":3908:4027   */\n    tag_320:\n        /* \"#utility.yul\":4066:4067   */\n      0x00\n        /* \"#utility.yul\":4091:4144   */\n      tag_322\n        /* \"#utility.yul\":4136:4143   */\n      dup7\n        /* \"#utility.yul\":4127:4133   */\n      dup3\n        /* \"#utility.yul\":4116:4125   */\n      dup8\n        /* \"#utility.yul\":4112:4134   */\n      add\n        /* \"#utility.yul\":4091:4144   */\n      tag_243\n      jump\t// in\n    tag_322:\n        /* \"#utility.yul\":4081:4144   */\n      swap4\n      pop\n        /* \"#utility.yul\":4037:4154   */\n      pop\n        /* \"#utility.yul\":4193:4195   */\n      0x20\n        /* \"#utility.yul\":4219:4272   */\n      tag_323\n        /* \"#utility.yul\":4264:4271   */\n      dup7\n        /* \"#utility.yul\":4255:4261   */\n      dup3\n        /* \"#utility.yul\":4244:4253   */\n      dup8\n        /* \"#utility.yul\":4240:4262   */\n      add\n        /* \"#utility.yul\":4219:4272   */\n      tag_243\n      jump\t// in\n    tag_323:\n        /* \"#utility.yul\":4209:4272   */\n      swap3\n      pop\n        /* \"#utility.yul\":4164:4282   */\n      pop\n        /* \"#utility.yul\":4321:4323   */\n      0x40\n        /* \"#utility.yul\":4347:4400   */\n      tag_324\n        /* \"#utility.yul\":4392:4399   */\n      dup7\n        /* \"#utility.yul\":4383:4389   */\n      dup3\n        /* \"#utility.yul\":4372:4381   */\n      dup8\n        /* \"#utility.yul\":4368:4390   */\n      add\n        /* \"#utility.yul\":4347:4400   */\n      tag_246\n      jump\t// in\n    tag_324:\n        /* \"#utility.yul\":4337:4400   */\n      swap2\n      pop\n        /* \"#utility.yul\":4292:4410   */\n      pop\n        /* \"#utility.yul\":3798:4417   */\n      swap3\n      pop\n      swap3\n      pop\n      swap3\n      jump\t// out\n        /* \"#utility.yul\":4423:4509   */\n    tag_250:\n        /* \"#utility.yul\":4458:4465   */\n      0x00\n        /* \"#utility.yul\":4498:4502   */\n      0xff\n        /* \"#utility.yul\":4491:4496   */\n      dup3\n        /* \"#utility.yul\":4487:4503   */\n      and\n        /* \"#utility.yul\":4476:4503   */\n      swap1\n      pop\n        /* \"#utility.yul\":4423:4509   */\n      swap2\n      swap1\n      pop\n      jump\t// out\n        /* \"#utility.yul\":4515:4627   */\n    tag_251:\n        /* \"#utility.yul\":4598:4620   */\n      tag_327\n        /* \"#utility.yul\":4614:4619   */\n      dup2\n        /* \"#utility.yul\":4598:4620   */\n      tag_250\n      jump\t// in\n    tag_327:\n        /* \"#utility.yul\":4593:4596   */\n      dup3\n        /* \"#utility.yul\":4586:4621   */\n      mstore\n        /* \"#utility.yul\":4515:4627   */\n      pop\n      pop\n      jump\t// out\n        /* \"#utility.yul\":4633:4847   */\n    tag_55:\n        /* \"#utility.yul\":4722:4726   */\n      0x00\n        /* \"#utility.yul\":4760:4762   */\n      0x20\n        /* \"#utility.yul\":4749:4758   */\n      dup3\n        /* \"#utility.yul\":4745:4763   */\n      add\n        /* \"#utility.yul\":4737:4763   */\n      swap1\n      pop\n        /* \"#utility.yul\":4773:4840   */\n      tag_329\n        /* \"#utility.yul\":4837:4838   */\n      0x00\n        /* \"#utility.yul\":4826:4835   */\n      dup4\n        /* \"#utility.yul\":4822:4839   */\n      add\n        /* \"#utility.yul\":4813:4819   */\n      dup5\n        /* \"#utility.yul\":4773:4840   */\n      tag_251\n      jump\t// in\n    tag_329:\n        /* \"#utility.yul\":4633:4847   */\n      swap3\n      swap2\n      pop\n      pop\n      jump\t// out\n        /* \"#utility.yul\":4853:5182   */\n    tag_66:\n        /* \"#utility.yul\":4912:4918   */\n      0x00\n        /* \"#utility.yul\":4961:4963   */\n      0x20\n        /* \"#utility.yul\":4949:4958   */\n      dup3\n        /* \"#utility.yul\":4940:4947   */\n      dup5\n        /* \"#utility.yul\":4936:4959   */\n      sub\n        /* \"#utility.yul\":4932:4964   */\n      slt\n        /* \"#utility.yul\":4929:5048   */\n      iszero\n      tag_331\n      jumpi\n        /* \"#utility.yul\":4967:5046   */\n      tag_332\n      tag_238\n      jump\t// in\n    tag_332:\n        /* \"#utility.yul\":4929:5048   */\n    tag_331:\n        /* \"#utility.yul\":5087:5088   */\n      0x00\n        /* \"#utility.yul\":5112:5165   */\n      tag_333\n        /* \"#utility.yul\":5157:5164   */\n      dup5\n        /* \"#utility.yul\":5148:5154   */\n      dup3\n        /* \"#utility.yul\":5137:5146   */\n      dup6\n        /* \"#utility.yul\":5133:5155   */\n      add\n        /* \"#utility.yul\":5112:5165   */\n      tag_246\n      jump\t// in\n    tag_333:\n        /* \"#utility.yul\":5102:5165   */\n      swap2\n      pop\n        /* \"#utility.yul\":5058:5175   */\n      pop\n        /* \"#utility.yul\":4853:5182   */\n      swap3\n      swap2\n      pop\n      pop\n      jump\t// out\n        /* \"#utility.yul\":5188:5517   */\n    tag_71:\n        /* \"#utility.yul\":5247:5253   */\n      0x00\n        /* \"#utility.yul\":5296:5298   */\n      0x20\n        /* \"#utility.yul\":5284:5293   */\n      dup3\n        /* \"#utility.yul\":5275:5282   */\n      dup5\n        /* \"#utility.yul\":5271:5294   */\n      sub\n        /* \"#utility.yul\":5267:5299   */\n      slt\n        /* \"#utility.yul\":5264:5383   */\n      iszero\n      tag_335\n      jumpi\n        /* \"#utility.yul\":5302:5381   */\n      tag_336\n      tag_238\n      jump\t// in\n    tag_336:\n        /* \"#utility.yul\":5264:5383   */\n    tag_335:\n        /* \"#utility.yul\":5422:5423   */\n      0x00\n        /* \"#utility.yul\":5447:5500   */\n      tag_337\n        /* \"#utility.yul\":5492:5499   */\n      dup5\n        /* \"#utility.yul\":5483:5489   */\n      dup3\n        /* \"#utility.yul\":5472:5481   */\n      dup6\n        /* \"#utility.yul\":5468:5490   */\n      add\n        /* \"#utility.yul\":5447:5500   */\n      tag_243\n      jump\t// in\n    tag_337:\n        /* \"#utility.yul\":5437:5500   */\n      swap2\n      pop\n        /* \"#utility.yul\":5393:5510   */\n      pop\n        /* \"#utility.yul\":5188:5517   */\n      swap3\n      swap2\n      pop\n      pop\n      jump\t// out\n        /* \"#utility.yul\":5523:5641   */\n    tag_252:\n        /* \"#utility.yul\":5610:5634   */\n      tag_339\n        /* \"#utility.yul\":5628:5633   */\n      dup2\n        /* \"#utility.yul\":5610:5634   */\n      tag_241\n      jump\t// in\n    tag_339:\n        /* \"#utility.yul\":5605:5608   */\n      dup3\n        /* \"#utility.yul\":5598:5635   */\n      mstore\n        /* \"#utility.yul\":5523:5641   */\n      pop\n      pop\n      jump\t// out\n        /* \"#utility.yul\":5647:5869   */\n    tag_91:\n        /* \"#utility.yul\":5740:5744   */\n      0x00\n        /* \"#utility.yul\":5778:5780   */\n      0x20\n        /* \"#utility.yul\":5767:5776   */\n      dup3\n        /* \"#utility.yul\":5763:5781   */\n      add\n        /* \"#utility.yul\":5755:5781   */\n      swap1\n      pop\n        /* \"#utility.yul\":5791:5862   */\n      tag_341\n        /* \"#utility.yul\":5859:5860   */\n      0x00\n        /* \"#utility.yul\":5848:5857   */\n      dup4\n        /* \"#utility.yul\":5844:5861   */\n      add\n        /* \"#utility.yul\":5835:5841   */\n      dup5\n        /* \"#utility.yul\":5791:5862   */\n      tag_252\n      jump\t// in\n    tag_341:\n        /* \"#utility.yul\":5647:5869   */\n      swap3\n      swap2\n      pop\n      pop\n      jump\t// out\n        /* \"#utility.yul\":5875:6349   */\n    tag_95:\n        /* \"#utility.yul\":5943:5949   */\n      0x00\n        /* \"#utility.yul\":5951:5957   */\n      dup1\n        /* \"#utility.yul\":6000:6002   */\n      0x40\n        /* \"#utility.yul\":5988:5997   */\n      dup4\n        /* \"#utility.yul\":5979:5986   */\n      dup6\n        /* \"#utility.yul\":5975:5998   */\n      sub\n        /* \"#utility.yul\":5971:6003   */\n      slt\n        /* \"#utility.yul\":5968:6087   */\n      iszero\n      tag_343\n      jumpi\n        /* \"#utility.yul\":6006:6085   */\n      tag_344\n      tag_238\n      jump\t// in\n    tag_344:\n        /* \"#utility.yul\":5968:6087   */\n    tag_343:\n        /* \"#utility.yul\":6126:6127   */\n      0x00\n        /* \"#utility.yul\":6151:6204   */\n      tag_345\n        /* \"#utility.yul\":6196:6203   */\n      dup6\n        /* \"#utility.yul\":6187:6193   */\n      dup3\n        /* \"#utility.yul\":6176:6185   */\n      dup7\n        /* \"#utility.yul\":6172:6194   */\n      add\n        /* \"#utility.yul\":6151:6204   */\n      tag_243\n      jump\t// in\n    tag_345:\n        /* \"#utility.yul\":6141:6204   */\n      swap3\n      pop\n        /* \"#utility.yul\":6097:6214   */\n      pop\n        /* \"#utility.yul\":6253:6255   */\n      0x20\n        /* \"#utility.yul\":6279:6332   */\n      tag_346\n        /* \"#utility.yul\":6324:6331   */\n      dup6\n        /* \"#utility.yul\":6315:6321   */\n      dup3\n        /* \"#utility.yul\":6304:6313   */\n      dup7\n        /* \"#utility.yul\":6300:6322   */\n      add\n        /* \"#utility.yul\":6279:6332   */\n      tag_243\n      jump\t// in\n    tag_346:\n        /* \"#utility.yul\":6269:6332   */\n      swap2\n      pop\n        /* \"#utility.yul\":6224:6342   */\n      pop\n        /* \"#utility.yul\":5875:6349   */\n      swap3\n      pop\n      swap3\n      swap1\n      pop\n      jump\t// out\n        /* \"#utility.yul\":6355:6431   */\n    tag_253:\n        /* \"#utility.yul\":6391:6398   */\n      0x00\n        /* \"#utility.yul\":6420:6425   */\n      dup2\n        /* \"#utility.yul\":6409:6425   */\n      swap1\n      pop\n        /* \"#utility.yul\":6355:6431   */\n      swap2\n      swap1\n      pop\n      jump\t// out\n        /* \"#utility.yul\":6437:6552   */\n    tag_254:\n        /* \"#utility.yul\":6522:6545   */\n      tag_349\n        /* \"#utility.yul\":6539:6544   */\n      dup2\n        /* \"#utility.yul\":6522:6545   */\n      tag_253\n      jump\t// in\n    tag_349:\n        /* \"#utility.yul\":6517:6520   */\n      dup3\n        /* \"#utility.yul\":6510:6546   */\n      mstore\n        /* \"#utility.yul\":6437:6552   */\n      pop\n      pop\n      jump\t// out\n        /* \"#utility.yul\":6558:6776   */\n    tag_102:\n        /* \"#utility.yul\":6649:6653   */\n      0x00\n        /* \"#utility.yul\":6687:6689   */\n      0x20\n        /* \"#utility.yul\":6676:6685   */\n      dup3\n        /* \"#utility.yul\":6672:6690   */\n      add\n        /* \"#utility.yul\":6664:6690   */\n      swap1\n      pop\n        /* \"#utility.yul\":6700:6769   */\n      tag_351\n        /* \"#utility.yul\":6766:6767   */\n      0x00\n        /* \"#utility.yul\":6755:6764   */\n      dup4\n        /* \"#utility.yul\":6751:6768   */\n      add\n        /* \"#utility.yul\":6742:6748   */\n      dup5\n        /* \"#utility.yul\":6700:6769   */\n      tag_254\n      jump\t// in\n    tag_351:\n        /* \"#utility.yul\":6558:6776   */\n      swap3\n      swap2\n      pop\n      pop\n      jump\t// out\n        /* \"#utility.yul\":6782:7011   */\n    tag_255:\n        /* \"#utility.yul\":6922:6956   */\n      0x4572726f722d4d4e545f4d554d4241492e736f6c2d56616c75656c6573735f54\n        /* \"#utility.yul\":6918:6919   */\n      0x00\n        /* \"#utility.yul\":6910:6916   */\n      dup3\n        /* \"#utility.yul\":6906:6920   */\n      add\n        /* \"#utility.yul\":6899:6957   */\n      mstore\n        /* \"#utility.yul\":6991:7003   */\n      0x72616e73616374696f6e00000000000000000000000000000000000000000000\n        /* \"#utility.yul\":6986:6988   */\n      0x20\n        /* \"#utility.yul\":6978:6984   */\n      dup3\n        /* \"#utility.yul\":6974:6989   */\n      add\n        /* \"#utility.yul\":6967:7004   */\n      mstore\n        /* \"#utility.yul\":6782:7011   */\n      pop\n      jump\t// out\n        /* \"#utility.yul\":7017:7383   */\n    tag_256:\n        /* \"#utility.yul\":7159:7162   */\n      0x00\n        /* \"#utility.yul\":7180:7247   */\n      tag_354\n        /* \"#utility.yul\":7244:7246   */\n      0x2a\n        /* \"#utility.yul\":7239:7242   */\n      dup4\n        /* \"#utility.yul\":7180:7247   */\n      tag_233\n      jump\t// in\n    tag_354:\n        /* \"#utility.yul\":7173:7247   */\n      swap2\n      pop\n        /* \"#utility.yul\":7256:7349   */\n      tag_355\n        /* \"#utility.yul\":7345:7348   */\n      dup3\n        /* \"#utility.yul\":7256:7349   */\n      tag_255\n      jump\t// in\n    tag_355:\n        /* \"#utility.yul\":7374:7376   */\n      0x40\n        /* \"#utility.yul\":7369:7372   */\n      dup3\n        /* \"#utility.yul\":7365:7377   */\n      add\n        /* \"#utility.yul\":7358:7377   */\n      swap1\n      pop\n        /* \"#utility.yul\":7017:7383   */\n      swap2\n      swap1\n      pop\n      jump\t// out\n        /* \"#utility.yul\":7389:7808   */\n    tag_106:\n        /* \"#utility.yul\":7555:7559   */\n      0x00\n        /* \"#utility.yul\":7593:7595   */\n      0x20\n        /* \"#utility.yul\":7582:7591   */\n      dup3\n        /* \"#utility.yul\":7578:7596   */\n      add\n        /* \"#utility.yul\":7570:7596   */\n      swap1\n      pop\n        /* \"#utility.yul\":7642:7651   */\n      dup2\n        /* \"#utility.yul\":7636:7640   */\n      dup2\n        /* \"#utility.yul\":7632:7652   */\n      sub\n        /* \"#utility.yul\":7628:7629   */\n      0x00\n        /* \"#utility.yul\":7617:7626   */\n      dup4\n        /* \"#utility.yul\":7613:7630   */\n      add\n        /* \"#utility.yul\":7606:7653   */\n      mstore\n        /* \"#utility.yul\":7670:7801   */\n      tag_357\n        /* \"#utility.yul\":7796:7800   */\n      dup2\n        /* \"#utility.yul\":7670:7801   */\n      tag_256\n      jump\t// in\n    tag_357:\n        /* \"#utility.yul\":7662:7801   */\n      swap1\n      pop\n        /* \"#utility.yul\":7389:7808   */\n      swap2\n      swap1\n      pop\n      jump\t// out\n        /* \"#utility.yul\":7814:7994   */\n    tag_257:\n        /* \"#utility.yul\":7862:7939   */\n      0x4e487b7100000000000000000000000000000000000000000000000000000000\n        /* \"#utility.yul\":7859:7860   */\n      0x00\n        /* \"#utility.yul\":7852:7940   */\n      mstore\n        /* \"#utility.yul\":7959:7963   */\n      0x11\n        /* \"#utility.yul\":7956:7957   */\n      0x04\n        /* \"#utility.yul\":7949:7964   */\n      mstore\n        /* \"#utility.yul\":7983:7987   */\n      0x24\n        /* \"#utility.yul\":7980:7981   */\n      0x00\n        /* \"#utility.yul\":7973:7988   */\n      revert\n        /* \"#utility.yul\":8000:8102   */\n    tag_258:\n        /* \"#utility.yul\":8042:8050   */\n      0x00\n        /* \"#utility.yul\":8089:8094   */\n      dup2\n        /* \"#utility.yul\":8086:8087   */\n      0x01\n        /* \"#utility.yul\":8082:8095   */\n      shr\n        /* \"#utility.yul\":8061:8095   */\n      swap1\n      pop\n        /* \"#utility.yul\":8000:8102   */\n      swap2\n      swap1\n      pop\n      jump\t// out\n        /* \"#utility.yul\":8108:8956   */\n    tag_259:\n        /* \"#utility.yul\":8169:8174   */\n      0x00\n        /* \"#utility.yul\":8176:8180   */\n      dup1\n        /* \"#utility.yul\":8200:8206   */\n      dup3\n        /* \"#utility.yul\":8191:8206   */\n      swap2\n      pop\n        /* \"#utility.yul\":8224:8229   */\n      dup4\n        /* \"#utility.yul\":8215:8229   */\n      swap1\n      pop\n        /* \"#utility.yul\":8238:8950   */\n    tag_361:\n        /* \"#utility.yul\":8259:8260   */\n      0x01\n        /* \"#utility.yul\":8249:8257   */\n      dup6\n        /* \"#utility.yul\":8246:8261   */\n      gt\n        /* \"#utility.yul\":8238:8950   */\n      iszero\n      tag_363\n      jumpi\n        /* \"#utility.yul\":8354:8358   */\n      dup1\n        /* \"#utility.yul\":8349:8352   */\n      dup7\n        /* \"#utility.yul\":8345:8359   */\n      div\n        /* \"#utility.yul\":8339:8343   */\n      dup2\n        /* \"#utility.yul\":8336:8360   */\n      gt\n        /* \"#utility.yul\":8333:8383   */\n      iszero\n      tag_364\n      jumpi\n        /* \"#utility.yul\":8363:8381   */\n      tag_365\n      tag_257\n      jump\t// in\n    tag_365:\n        /* \"#utility.yul\":8333:8383   */\n    tag_364:\n        /* \"#utility.yul\":8413:8414   */\n      0x01\n        /* \"#utility.yul\":8403:8411   */\n      dup6\n        /* \"#utility.yul\":8399:8415   */\n      and\n        /* \"#utility.yul\":8396:8847   */\n      iszero\n      tag_366\n      jumpi\n        /* \"#utility.yul\":8828:8832   */\n      dup1\n        /* \"#utility.yul\":8821:8826   */\n      dup3\n        /* \"#utility.yul\":8817:8833   */\n      mul\n        /* \"#utility.yul\":8808:8833   */\n      swap2\n      pop\n        /* \"#utility.yul\":8396:8847   */\n    tag_366:\n        /* \"#utility.yul\":8878:8882   */\n      dup1\n        /* \"#utility.yul\":8872:8876   */\n      dup2\n        /* \"#utility.yul\":8868:8883   */\n      mul\n        /* \"#utility.yul\":8860:8883   */\n      swap1\n      pop\n        /* \"#utility.yul\":8908:8940   */\n      tag_367\n        /* \"#utility.yul\":8931:8939   */\n      dup6\n        /* \"#utility.yul\":8908:8940   */\n      tag_258\n      jump\t// in\n    tag_367:\n        /* \"#utility.yul\":8896:8940   */\n      swap5\n      pop\n        /* \"#utility.yul\":8238:8950   */\n      jump(tag_361)\n    tag_363:\n        /* \"#utility.yul\":8108:8956   */\n      swap5\n      pop\n      swap5\n      swap3\n      pop\n      pop\n      pop\n      jump\t// out\n        /* \"#utility.yul\":8962:10035   */\n    tag_260:\n        /* \"#utility.yul\":9016:9021   */\n      0x00\n        /* \"#utility.yul\":9207:9215   */\n      dup3\n        /* \"#utility.yul\":9197:9237   */\n      tag_369\n      jumpi\n        /* \"#utility.yul\":9228:9229   */\n      0x01\n        /* \"#utility.yul\":9219:9229   */\n      swap1\n      pop\n        /* \"#utility.yul\":9230:9235   */\n      jump(tag_368)\n        /* \"#utility.yul\":9197:9237   */\n    tag_369:\n        /* \"#utility.yul\":9256:9260   */\n      dup2\n        /* \"#utility.yul\":9246:9282   */\n      tag_370\n      jumpi\n        /* \"#utility.yul\":9273:9274   */\n      0x00\n        /* \"#utility.yul\":9264:9274   */\n      swap1\n      pop\n        /* \"#utility.yul\":9275:9280   */\n      jump(tag_368)\n        /* \"#utility.yul\":9246:9282   */\n    tag_370:\n        /* \"#utility.yul\":9342:9346   */\n      dup2\n        /* \"#utility.yul\":9390:9391   */\n      0x01\n        /* \"#utility.yul\":9385:9412   */\n      dup2\n      eq\n      tag_372\n      jumpi\n        /* \"#utility.yul\":9426:9427   */\n      0x02\n        /* \"#utility.yul\":9421:9612   */\n      dup2\n      eq\n      tag_373\n      jumpi\n        /* \"#utility.yul\":9335:9612   */\n      jump(tag_371)\n        /* \"#utility.yul\":9385:9412   */\n    tag_372:\n        /* \"#utility.yul\":9403:9404   */\n      0x01\n        /* \"#utility.yul\":9394:9404   */\n      swap2\n      pop\n        /* \"#utility.yul\":9405:9410   */\n      pop\n      jump(tag_368)\n        /* \"#utility.yul\":9421:9612   */\n    tag_373:\n        /* \"#utility.yul\":9466:9469   */\n      0xff\n        /* \"#utility.yul\":9456:9464   */\n      dup5\n        /* \"#utility.yul\":9453:9470   */\n      gt\n        /* \"#utility.yul\":9450:9493   */\n      iszero\n      tag_374\n      jumpi\n        /* \"#utility.yul\":9473:9491   */\n      tag_375\n      tag_257\n      jump\t// in\n    tag_375:\n        /* \"#utility.yul\":9450:9493   */\n    tag_374:\n        /* \"#utility.yul\":9522:9530   */\n      dup4\n        /* \"#utility.yul\":9519:9520   */\n      0x02\n        /* \"#utility.yul\":9515:9531   */\n      exp\n        /* \"#utility.yul\":9506:9531   */\n      swap2\n      pop\n        /* \"#utility.yul\":9557:9560   */\n      dup5\n        /* \"#utility.yul\":9550:9555   */\n      dup3\n        /* \"#utility.yul\":9547:9561   */\n      gt\n        /* \"#utility.yul\":9544:9584   */\n      iszero\n      tag_376\n      jumpi\n        /* \"#utility.yul\":9564:9582   */\n      tag_377\n      tag_257\n      jump\t// in\n    tag_377:\n        /* \"#utility.yul\":9544:9584   */\n    tag_376:\n        /* \"#utility.yul\":9597:9602   */\n      pop\n      jump(tag_368)\n        /* \"#utility.yul\":9335:9612   */\n    tag_371:\n      pop\n        /* \"#utility.yul\":9721:9723   */\n      0x20\n        /* \"#utility.yul\":9711:9719   */\n      dup4\n        /* \"#utility.yul\":9708:9724   */\n      lt\n        /* \"#utility.yul\":9702:9705   */\n      0x0133\n        /* \"#utility.yul\":9696:9700   */\n      dup4\n        /* \"#utility.yul\":9693:9706   */\n      lt\n        /* \"#utility.yul\":9689:9725   */\n      and\n        /* \"#utility.yul\":9671:9673   */\n      0x4e\n        /* \"#utility.yul\":9661:9669   */\n      dup5\n        /* \"#utility.yul\":9658:9674   */\n      lt\n        /* \"#utility.yul\":9653:9655   */\n      0x0b\n        /* \"#utility.yul\":9647:9651   */\n      dup5\n        /* \"#utility.yul\":9644:9656   */\n      lt\n        /* \"#utility.yul\":9640:9675   */\n      and\n        /* \"#utility.yul\":9624:9735   */\n      or\n        /* \"#utility.yul\":9621:9867   */\n      iszero\n      tag_378\n      jumpi\n        /* \"#utility.yul\":9777:9785   */\n      dup3\n        /* \"#utility.yul\":9771:9775   */\n      dup3\n        /* \"#utility.yul\":9767:9786   */\n      exp\n        /* \"#utility.yul\":9758:9786   */\n      swap1\n      pop\n        /* \"#utility.yul\":9812:9815   */\n      dup4\n        /* \"#utility.yul\":9805:9810   */\n      dup2\n        /* \"#utility.yul\":9802:9816   */\n      gt\n        /* \"#utility.yul\":9799:9839   */\n      iszero\n      tag_379\n      jumpi\n        /* \"#utility.yul\":9819:9837   */\n      tag_380\n      tag_257\n      jump\t// in\n    tag_380:\n        /* \"#utility.yul\":9799:9839   */\n    tag_379:\n        /* \"#utility.yul\":9852:9857   */\n      jump(tag_368)\n        /* \"#utility.yul\":9621:9867   */\n    tag_378:\n        /* \"#utility.yul\":9892:9934   */\n      tag_381\n        /* \"#utility.yul\":9930:9933   */\n      dup5\n        /* \"#utility.yul\":9920:9928   */\n      dup5\n        /* \"#utility.yul\":9914:9918   */\n      dup5\n        /* \"#utility.yul\":9911:9912   */\n      0x01\n        /* \"#utility.yul\":9892:9934   */\n      tag_259\n      jump\t// in\n    tag_381:\n        /* \"#utility.yul\":9877:9934   */\n      swap3\n      pop\n      swap1\n      pop\n        /* \"#utility.yul\":9966:9970   */\n      dup2\n        /* \"#utility.yul\":9961:9964   */\n      dup5\n        /* \"#utility.yul\":9957:9971   */\n      div\n        /* \"#utility.yul\":9950:9955   */\n      dup2\n        /* \"#utility.yul\":9947:9972   */\n      gt\n        /* \"#utility.yul\":9944:9995   */\n      iszero\n      tag_382\n      jumpi\n        /* \"#utility.yul\":9975:9993   */\n      tag_383\n      tag_257\n      jump\t// in\n    tag_383:\n        /* \"#utility.yul\":9944:9995   */\n    tag_382:\n        /* \"#utility.yul\":10024:10028   */\n      dup2\n        /* \"#utility.yul\":10017:10022   */\n      dup2\n        /* \"#utility.yul\":10013:10029   */\n      mul\n        /* \"#utility.yul\":10004:10029   */\n      swap1\n      pop\n        /* \"#utility.yul\":8962:10035   */\n    tag_368:\n      swap4\n      swap3\n      pop\n      pop\n      pop\n      jump\t// out\n        /* \"#utility.yul\":10041:10326   */\n    tag_110:\n        /* \"#utility.yul\":10101:10106   */\n      0x00\n        /* \"#utility.yul\":10125:10148   */\n      tag_385\n        /* \"#utility.yul\":10143:10147   */\n      dup3\n        /* \"#utility.yul\":10125:10148   */\n      tag_244\n      jump\t// in\n    tag_385:\n        /* \"#utility.yul\":10117:10148   */\n      swap2\n      pop\n        /* \"#utility.yul\":10169:10196   */\n      tag_386\n        /* \"#utility.yul\":10187:10195   */\n      dup4\n        /* \"#utility.yul\":10169:10196   */\n      tag_244\n      jump\t// in\n    tag_386:\n        /* \"#utility.yul\":10157:10196   */\n      swap3\n      pop\n        /* \"#utility.yul\":10215:10319   */\n      tag_387\n        /* \"#utility.yul\":10252:10318   */\n      0xffffffffffffffffffffffffffffffffffffffffffffffffffffffffffffffff\n        /* \"#utility.yul\":10242:10250   */\n      dup5\n        /* \"#utility.yul\":10236:10240   */\n      dup5\n        /* \"#utility.yul\":10215:10319   */\n      tag_260\n      jump\t// in\n    tag_387:\n        /* \"#utility.yul\":10206:10319   */\n      swap1\n      pop\n        /* \"#utility.yul\":10041:10326   */\n      swap3\n      swap2\n      pop\n      pop\n      jump\t// out\n        /* \"#utility.yul\":10332:10742   */\n    tag_112:\n        /* \"#utility.yul\":10372:10379   */\n      0x00\n        /* \"#utility.yul\":10395:10415   */\n      tag_389\n        /* \"#utility.yul\":10413:10414   */\n      dup3\n        /* \"#utility.yul\":10395:10415   */\n      tag_244\n      jump\t// in\n    tag_389:\n        /* \"#utility.yul\":10390:10415   */\n      swap2\n      pop\n        /* \"#utility.yul\":10429:10449   */\n      tag_390\n        /* \"#utility.yul\":10447:10448   */\n      dup4\n        /* \"#utility.yul\":10429:10449   */\n      tag_244\n      jump\t// in\n    tag_390:\n        /* \"#utility.yul\":10424:10449   */\n      swap3\n      pop\n        /* \"#utility.yul\":10484:10485   */\n      dup3\n        /* \"#utility.yul\":10481:10482   */\n      dup3\n        /* \"#utility.yul\":10477:10486   */\n      mul\n        /* \"#utility.yul\":10506:10536   */\n      tag_391\n        /* \"#utility.yul\":10524:10535   */\n      dup2\n        /* \"#utility.yul\":10506:10536   */\n      tag_244\n      jump\t// in\n    tag_391:\n        /* \"#utility.yul\":10495:10536   */\n      swap2\n      pop\n        /* \"#utility.yul\":10685:10686   */\n      dup3\n        /* \"#utility.yul\":10676:10683   */\n      dup3\n        /* \"#utility.yul\":10672:10687   */\n      div\n        /* \"#utility.yul\":10669:10670   */\n      dup5\n        /* \"#utility.yul\":10666:10688   */\n      eq\n        /* \"#utility.yul\":10646:10647   */\n      dup4\n        /* \"#utility.yul\":10639:10648   */\n      iszero\n        /* \"#utility.yul\":10619:10702   */\n      or\n        /* \"#utility.yul\":10596:10735   */\n      tag_392\n      jumpi\n        /* \"#utility.yul\":10715:10733   */\n      tag_393\n      tag_257\n      jump\t// in\n    tag_393:\n        /* \"#utility.yul\":10596:10735   */\n    tag_392:\n        /* \"#utility.yul\":10380:10742   */\n      pop\n        /* \"#utility.yul\":10332:10742   */\n      swap3\n      swap2\n      pop\n      pop\n      jump\t// out\n        /* \"#utility.yul\":10748:10928   */\n    tag_261:\n        /* \"#utility.yul\":10796:10873   */\n      0x4e487b7100000000000000000000000000000000000000000000000000000000\n        /* \"#utility.yul\":10793:10794   */\n      0x00\n        /* \"#utility.yul\":10786:10874   */\n      mstore\n        /* \"#utility.yul\":10893:10897   */\n      0x12\n        /* \"#utility.yul\":10890:10891   */\n      0x04\n        /* \"#utility.yul\":10883:10898   */\n      mstore\n        /* \"#utility.yul\":10917:10921   */\n      0x24\n        /* \"#utility.yul\":10914:10915   */\n      0x00\n        /* \"#utility.yul\":10907:10922   */\n      revert\n        /* \"#utility.yul\":10934:11119   */\n    tag_114:\n        /* \"#utility.yul\":10974:10975   */\n      0x00\n        /* \"#utility.yul\":10991:11011   */\n      tag_396\n        /* \"#utility.yul\":11009:11010   */\n      dup3\n        /* \"#utility.yul\":10991:11011   */\n      tag_244\n      jump\t// in\n    tag_396:\n        /* \"#utility.yul\":10986:11011   */\n      swap2\n      pop\n        /* \"#utility.yul\":11025:11045   */\n      tag_397\n        /* \"#utility.yul\":11043:11044   */\n      dup4\n        /* \"#utility.yul\":11025:11045   */\n      tag_244\n      jump\t// in\n    tag_397:\n        /* \"#utility.yul\":11020:11045   */\n      swap3\n      pop\n        /* \"#utility.yul\":11064:11065   */\n      dup3\n        /* \"#utility.yul\":11054:11089   */\n      tag_398\n      jumpi\n        /* \"#utility.yul\":11069:11087   */\n      tag_399\n      tag_261\n      jump\t// in\n    tag_399:\n        /* \"#utility.yul\":11054:11089   */\n    tag_398:\n        /* \"#utility.yul\":11111:11112   */\n      dup3\n        /* \"#utility.yul\":11108:11109   */\n      dup3\n        /* \"#utility.yul\":11104:11113   */\n      div\n        /* \"#utility.yul\":11099:11113   */\n      swap1\n      pop\n        /* \"#utility.yul\":10934:11119   */\n      swap3\n      swap2\n      pop\n      pop\n      jump\t// out\n        /* \"#utility.yul\":11125:11316   */\n    tag_120:\n        /* \"#utility.yul\":11165:11168   */\n      0x00\n        /* \"#utility.yul\":11184:11204   */\n      tag_401\n        /* \"#utility.yul\":11202:11203   */\n      dup3\n        /* \"#utility.yul\":11184:11204   */\n      tag_244\n      jump\t// in\n    tag_401:\n        /* \"#utility.yul\":11179:11204   */\n      swap2\n      pop\n        /* \"#utility.yul\":11218:11238   */\n      tag_402\n        /* \"#utility.yul\":11236:11237   */\n      dup4\n        /* \"#utility.yul\":11218:11238   */\n      tag_244\n      jump\t// in\n    tag_402:\n        /* \"#utility.yul\":11213:11238   */\n      swap3\n      pop\n        /* \"#utility.yul\":11261:11262   */\n      dup3\n        /* \"#utility.yul\":11258:11259   */\n      dup3\n        /* \"#utility.yul\":11254:11263   */\n      add\n        /* \"#utility.yul\":11247:11263   */\n      swap1\n      pop\n        /* \"#utility.yul\":11282:11285   */\n      dup1\n        /* \"#utility.yul\":11279:11280   */\n      dup3\n        /* \"#utility.yul\":11276:11286   */\n      gt\n        /* \"#utility.yul\":11273:11309   */\n      iszero\n      tag_403\n      jumpi\n        /* \"#utility.yul\":11289:11307   */\n      tag_404\n      tag_257\n      jump\t// in\n    tag_404:\n        /* \"#utility.yul\":11273:11309   */\n    tag_403:\n        /* \"#utility.yul\":11125:11316   */\n      swap3\n      swap2\n      pop\n      pop\n      jump\t// out\n        /* \"#utility.yul\":11322:11549   */\n    tag_262:\n        /* \"#utility.yul\":11462:11496   */\n      0x4572726f722d4d4e545f4d554d4241492e736f6c2d457863656564735f4d6178\n        /* \"#utility.yul\":11458:11459   */\n      0x00\n        /* \"#utility.yul\":11450:11456   */\n      dup3\n        /* \"#utility.yul\":11446:11460   */\n      add\n        /* \"#utility.yul\":11439:11497   */\n      mstore\n        /* \"#utility.yul\":11531:11541   */\n      0x5f42616c616e6365000000000000000000000000000000000000000000000000\n        /* \"#utility.yul\":11526:11528   */\n      0x20\n        /* \"#utility.yul\":11518:11524   */\n      dup3\n        /* \"#utility.yul\":11514:11529   */\n      add\n        /* \"#utility.yul\":11507:11542   */\n      mstore\n        /* \"#utility.yul\":11322:11549   */\n      pop\n      jump\t// out\n        /* \"#utility.yul\":11555:11921   */\n    tag_263:\n        /* \"#utility.yul\":11697:11700   */\n      0x00\n        /* \"#utility.yul\":11718:11785   */\n      tag_407\n        /* \"#utility.yul\":11782:11784   */\n      0x28\n        /* \"#utility.yul\":11777:11780   */\n      dup4\n        /* \"#utility.yul\":11718:11785   */\n      tag_233\n      jump\t// in\n    tag_407:\n        /* \"#utility.yul\":11711:11785   */\n      swap2\n      pop\n        /* \"#utility.yul\":11794:11887   */\n      tag_408\n        /* \"#utility.yul\":11883:11886   */\n      dup3\n        /* \"#utility.yul\":11794:11887   */\n      tag_262\n      jump\t// in\n    tag_408:\n        /* \"#utility.yul\":11912:11914   */\n      0x40\n        /* \"#utility.yul\":11907:11910   */\n      dup3\n        /* \"#utility.yul\":11903:11915   */\n      add\n        /* \"#utility.yul\":11896:11915   */\n      swap1\n      pop\n        /* \"#utility.yul\":11555:11921   */\n      swap2\n      swap1\n      pop\n      jump\t// out\n        /* \"#utility.yul\":11927:12346   */\n    tag_123:\n        /* \"#utility.yul\":12093:12097   */\n      0x00\n        /* \"#utility.yul\":12131:12133   */\n      0x20\n        /* \"#utility.yul\":12120:12129   */\n      dup3\n        /* \"#utility.yul\":12116:12134   */\n      add\n        /* \"#utility.yul\":12108:12134   */\n      swap1\n      pop\n        /* \"#utility.yul\":12180:12189   */\n      dup2\n        /* \"#utility.yul\":12174:12178   */\n      dup2\n        /* \"#utility.yul\":12170:12190   */\n      sub\n        /* \"#utility.yul\":12166:12167   */\n      0x00\n        /* \"#utility.yul\":12155:12164   */\n      dup4\n        /* \"#utility.yul\":12151:12168   */\n      add\n        /* \"#utility.yul\":12144:12191   */\n      mstore\n        /* \"#utility.yul\":12208:12339   */\n      tag_410\n        /* \"#utility.yul\":12334:12338   */\n      dup2\n        /* \"#utility.yul\":12208:12339   */\n      tag_263\n      jump\t// in\n    tag_410:\n        /* \"#utility.yul\":12200:12339   */\n      swap1\n      pop\n        /* \"#utility.yul\":11927:12346   */\n      swap2\n      swap1\n      pop\n      jump\t// out\n        /* \"#utility.yul\":12352:12905   */\n    tag_128:\n        /* \"#utility.yul\":12529:12533   */\n      0x00\n        /* \"#utility.yul\":12567:12570   */\n      0x80\n        /* \"#utility.yul\":12556:12565   */\n      dup3\n        /* \"#utility.yul\":12552:12571   */\n      add\n        /* \"#utility.yul\":12544:12571   */\n      swap1\n      pop\n        /* \"#utility.yul\":12581:12652   */\n      tag_412\n        /* \"#utility.yul\":12649:12650   */\n      0x00\n        /* \"#utility.yul\":12638:12647   */\n      dup4\n        /* \"#utility.yul\":12634:12651   */\n      add\n        /* \"#utility.yul\":12625:12631   */\n      dup8\n        /* \"#utility.yul\":12581:12652   */\n      tag_249\n      jump\t// in\n    tag_412:\n        /* \"#utility.yul\":12662:12734   */\n      tag_413\n        /* \"#utility.yul\":12730:12732   */\n      0x20\n        /* \"#utility.yul\":12719:12728   */\n      dup4\n        /* \"#utility.yul\":12715:12733   */\n      add\n        /* \"#utility.yul\":12706:12712   */\n      dup7\n        /* \"#utility.yul\":12662:12734   */\n      tag_249\n      jump\t// in\n    tag_413:\n        /* \"#utility.yul\":12744:12816   */\n      tag_414\n        /* \"#utility.yul\":12812:12814   */\n      0x40\n        /* \"#utility.yul\":12801:12810   */\n      dup4\n        /* \"#utility.yul\":12797:12815   */\n      add\n        /* \"#utility.yul\":12788:12794   */\n      dup6\n        /* \"#utility.yul\":12744:12816   */\n      tag_249\n      jump\t// in\n    tag_414:\n        /* \"#utility.yul\":12826:12898   */\n      tag_415\n        /* \"#utility.yul\":12894:12896   */\n      0x60\n        /* \"#utility.yul\":12883:12892   */\n      dup4\n        /* \"#utility.yul\":12879:12897   */\n      add\n        /* \"#utility.yul\":12870:12876   */\n      dup5\n        /* \"#utility.yul\":12826:12898   */\n      tag_249\n      jump\t// in\n    tag_415:\n        /* \"#utility.yul\":12352:12905   */\n      swap6\n      swap5\n      pop\n      pop\n      pop\n      pop\n      pop\n      jump\t// out\n        /* \"#utility.yul\":12911:13091   */\n    tag_264:\n        /* \"#utility.yul\":12959:13036   */\n      0x4e487b7100000000000000000000000000000000000000000000000000000000\n        /* \"#utility.yul\":12956:12957   */\n      0x00\n        /* \"#utility.yul\":12949:13037   */\n      mstore\n        /* \"#utility.yul\":13056:13060   */\n      0x22\n        /* \"#utility.yul\":13053:13054   */\n      0x04\n        /* \"#utility.yul\":13046:13061   */\n      mstore\n        /* \"#utility.yul\":13080:13084   */\n      0x24\n        /* \"#utility.yul\":13077:13078   */\n      0x00\n        /* \"#utility.yul\":13070:13085   */\n      revert\n        /* \"#utility.yul\":13097:13417   */\n    tag_131:\n        /* \"#utility.yul\":13141:13147   */\n      0x00\n        /* \"#utility.yul\":13178:13179   */\n      0x02\n        /* \"#utility.yul\":13172:13176   */\n      dup3\n        /* \"#utility.yul\":13168:13180   */\n      div\n        /* \"#utility.yul\":13158:13180   */\n      swap1\n      pop\n        /* \"#utility.yul\":13225:13226   */\n      0x01\n        /* \"#utility.yul\":13219:13223   */\n      dup3\n        /* \"#utility.yul\":13215:13227   */\n      and\n        /* \"#utility.yul\":13246:13264   */\n      dup1\n        /* \"#utility.yul\":13236:13317   */\n      tag_418\n      jumpi\n        /* \"#utility.yul\":13302:13306   */\n      0x7f\n        /* \"#utility.yul\":13294:13300   */\n      dup3\n        /* \"#utility.yul\":13290:13307   */\n      and\n        /* \"#utility.yul\":13280:13307   */\n      swap2\n      pop\n        /* \"#utility.yul\":13236:13317   */\n    tag_418:\n        /* \"#utility.yul\":13364:13366   */\n      0x20\n        /* \"#utility.yul\":13356:13362   */\n      dup3\n        /* \"#utility.yul\":13353:13367   */\n      lt\n        /* \"#utility.yul\":13333:13351   */\n      dup2\n        /* \"#utility.yul\":13330:13368   */\n      sub\n        /* \"#utility.yul\":13327:13411   */\n      tag_419\n      jumpi\n        /* \"#utility.yul\":13383:13401   */\n      tag_420\n      tag_264\n      jump\t// in\n    tag_420:\n        /* \"#utility.yul\":13327:13411   */\n    tag_419:\n        /* \"#utility.yul\":13148:13417   */\n      pop\n        /* \"#utility.yul\":13097:13417   */\n      swap2\n      swap1\n      pop\n      jump\t// out\n        /* \"#utility.yul\":13423:13601   */\n    tag_265:\n        /* \"#utility.yul\":13563:13593   */\n      0x4572726f722d4d4e545f4d554d4241492e736f6c2d4f776e61626c6500000000\n        /* \"#utility.yul\":13559:13560   */\n      0x00\n        /* \"#utility.yul\":13551:13557   */\n      dup3\n        /* \"#utility.yul\":13547:13561   */\n      add\n        /* \"#utility.yul\":13540:13594   */\n      mstore\n        /* \"#utility.yul\":13423:13601   */\n      pop\n      jump\t// out\n        /* \"#utility.yul\":13607:13973   */\n    tag_266:\n        /* \"#utility.yul\":13749:13752   */\n      0x00\n        /* \"#utility.yul\":13770:13837   */\n      tag_423\n        /* \"#utility.yul\":13834:13836   */\n      0x1c\n        /* \"#utility.yul\":13829:13832   */\n      dup4\n        /* \"#utility.yul\":13770:13837   */\n      tag_233\n      jump\t// in\n    tag_423:\n        /* \"#utility.yul\":13763:13837   */\n      swap2\n      pop\n        /* \"#utility.yul\":13846:13939   */\n      tag_424\n        /* \"#utility.yul\":13935:13938   */\n      dup3\n        /* \"#utility.yul\":13846:13939   */\n      tag_265\n      jump\t// in\n    tag_424:\n        /* \"#utility.yul\":13964:13966   */\n      0x20\n        /* \"#utility.yul\":13959:13962   */\n      dup3\n        /* \"#utility.yul\":13955:13967   */\n      add\n        /* \"#utility.yul\":13948:13967   */\n      swap1\n      pop\n        /* \"#utility.yul\":13607:13973   */\n      swap2\n      swap1\n      pop\n      jump\t// out\n        /* \"#utility.yul\":13979:14398   */\n    tag_153:\n        /* \"#utility.yul\":14145:14149   */\n      0x00\n        /* \"#utility.yul\":14183:14185   */\n      0x20\n        /* \"#utility.yul\":14172:14181   */\n      dup3\n        /* \"#utility.yul\":14168:14186   */\n      add\n        /* \"#utility.yul\":14160:14186   */\n      swap1\n      pop\n        /* \"#utility.yul\":14232:14241   */\n      dup2\n        /* \"#utility.yul\":14226:14230   */\n      dup2\n        /* \"#utility.yul\":14222:14242   */\n      sub\n        /* \"#utility.yul\":14218:14219   */\n      0x00\n        /* \"#utility.yul\":14207:14216   */\n      dup4\n        /* \"#utility.yul\":14203:14220   */\n      add\n        /* \"#utility.yul\":14196:14243   */\n      mstore\n        /* \"#utility.yul\":14260:14391   */\n      tag_426\n        /* \"#utility.yul\":14386:14390   */\n      dup2\n        /* \"#utility.yul\":14260:14391   */\n      tag_266\n      jump\t// in\n    tag_426:\n        /* \"#utility.yul\":14252:14391   */\n      swap1\n      pop\n        /* \"#utility.yul\":13979:14398   */\n      swap2\n      swap1\n      pop\n      jump\t// out\n        /* \"#utility.yul\":14404:14736   */\n    tag_158:\n        /* \"#utility.yul\":14525:14529   */\n      0x00\n        /* \"#utility.yul\":14563:14565   */\n      0x40\n        /* \"#utility.yul\":14552:14561   */\n      dup3\n        /* \"#utility.yul\":14548:14566   */\n      add\n        /* \"#utility.yul\":14540:14566   */\n      swap1\n      pop\n        /* \"#utility.yul\":14576:14647   */\n      tag_428\n        /* \"#utility.yul\":14644:14645   */\n      0x00\n        /* \"#utility.yul\":14633:14642   */\n      dup4\n        /* \"#utility.yul\":14629:14646   */\n      add\n        /* \"#utility.yul\":14620:14626   */\n      dup6\n        /* \"#utility.yul\":14576:14647   */\n      tag_249\n      jump\t// in\n    tag_428:\n        /* \"#utility.yul\":14657:14729   */\n      tag_429\n        /* \"#utility.yul\":14725:14727   */\n      0x20\n        /* \"#utility.yul\":14714:14723   */\n      dup4\n        /* \"#utility.yul\":14710:14728   */\n      add\n        /* \"#utility.yul\":14701:14707   */\n      dup5\n        /* \"#utility.yul\":14657:14729   */\n      tag_249\n      jump\t// in\n    tag_429:\n        /* \"#utility.yul\":14404:14736   */\n      swap4\n      swap3\n      pop\n      pop\n      pop\n      jump\t// out\n        /* \"#utility.yul\":14742:15184   */\n    tag_164:\n        /* \"#utility.yul\":14891:14895   */\n      0x00\n        /* \"#utility.yul\":14929:14931   */\n      0x60\n        /* \"#utility.yul\":14918:14927   */\n      dup3\n        /* \"#utility.yul\":14914:14932   */\n      add\n        /* \"#utility.yul\":14906:14932   */\n      swap1\n      pop\n        /* \"#utility.yul\":14942:15013   */\n      tag_431\n        /* \"#utility.yul\":15010:15011   */\n      0x00\n        /* \"#utility.yul\":14999:15008   */\n      dup4\n        /* \"#utility.yul\":14995:15012   */\n      add\n        /* \"#utility.yul\":14986:14992   */\n      dup7\n        /* \"#utility.yul\":14942:15013   */\n      tag_249\n      jump\t// in\n    tag_431:\n        /* \"#utility.yul\":15023:15095   */\n      tag_432\n        /* \"#utility.yul\":15091:15093   */\n      0x20\n        /* \"#utility.yul\":15080:15089   */\n      dup4\n        /* \"#utility.yul\":15076:15094   */\n      add\n        /* \"#utility.yul\":15067:15073   */\n      dup6\n        /* \"#utility.yul\":15023:15095   */\n      tag_249\n      jump\t// in\n    tag_432:\n        /* \"#utility.yul\":15105:15177   */\n      tag_433\n        /* \"#utility.yul\":15173:15175   */\n      0x40\n        /* \"#utility.yul\":15162:15171   */\n      dup4\n        /* \"#utility.yul\":15158:15176   */\n      add\n        /* \"#utility.yul\":15149:15155   */\n      dup5\n        /* \"#utility.yul\":15105:15177   */\n      tag_249\n      jump\t// in\n    tag_433:\n        /* \"#utility.yul\":14742:15184   */\n      swap5\n      swap4\n      pop\n      pop\n      pop\n      pop\n      jump\t// out\n        /* \"#utility.yul\":15190:15295   */\n    tag_267:\n        /* \"#utility.yul\":15226:15233   */\n      0x00\n        /* \"#utility.yul\":15266:15288   */\n      0xffffffffffffffffffff\n        /* \"#utility.yul\":15259:15264   */\n      dup3\n        /* \"#utility.yul\":15255:15289   */\n      and\n        /* \"#utility.yul\":15244:15289   */\n      swap1\n      pop\n        /* \"#utility.yul\":15190:15295   */\n      swap2\n      swap1\n      pop\n      jump\t// out\n        /* \"#utility.yul\":15301:15421   */\n    tag_268:\n        /* \"#utility.yul\":15373:15396   */\n      tag_436\n        /* \"#utility.yul\":15390:15395   */\n      dup2\n        /* \"#utility.yul\":15373:15396   */\n      tag_267\n      jump\t// in\n    tag_436:\n        /* \"#utility.yul\":15366:15371   */\n      dup2\n        /* \"#utility.yul\":15363:15397   */\n      eq\n        /* \"#utility.yul\":15353:15415   */\n      tag_437\n      jumpi\n        /* \"#utility.yul\":15411:15412   */\n      0x00\n        /* \"#utility.yul\":15408:15409   */\n      dup1\n        /* \"#utility.yul\":15401:15413   */\n      revert\n        /* \"#utility.yul\":15353:15415   */\n    tag_437:\n        /* \"#utility.yul\":15301:15421   */\n      pop\n      jump\t// out\n        /* \"#utility.yul\":15427:15568   */\n    tag_269:\n        /* \"#utility.yul\":15483:15488   */\n      0x00\n        /* \"#utility.yul\":15514:15520   */\n      dup2\n        /* \"#utility.yul\":15508:15521   */\n      mload\n        /* \"#utility.yul\":15499:15521   */\n      swap1\n      pop\n        /* \"#utility.yul\":15530:15562   */\n      tag_439\n        /* \"#utility.yul\":15556:15561   */\n      dup2\n        /* \"#utility.yul\":15530:15562   */\n      tag_268\n      jump\t// in\n    tag_439:\n        /* \"#utility.yul\":15427:15568   */\n      swap3\n      swap2\n      pop\n      pop\n      jump\t// out\n        /* \"#utility.yul\":15574:15694   */\n    tag_270:\n        /* \"#utility.yul\":15646:15669   */\n      tag_441\n        /* \"#utility.yul\":15663:15668   */\n      dup2\n        /* \"#utility.yul\":15646:15669   */\n      tag_253\n      jump\t// in\n    tag_441:\n        /* \"#utility.yul\":15639:15644   */\n      dup2\n        /* \"#utility.yul\":15636:15670   */\n      eq\n        /* \"#utility.yul\":15626:15688   */\n      tag_442\n      jumpi\n        /* \"#utility.yul\":15684:15685   */\n      0x00\n        /* \"#utility.yul\":15681:15682   */\n      dup1\n        /* \"#utility.yul\":15674:15686   */\n      revert\n        /* \"#utility.yul\":15626:15688   */\n    tag_442:\n        /* \"#utility.yul\":15574:15694   */\n      pop\n      jump\t// out\n        /* \"#utility.yul\":15700:15841   */\n    tag_271:\n        /* \"#utility.yul\":15756:15761   */\n      0x00\n        /* \"#utility.yul\":15787:15793   */\n      dup2\n        /* \"#utility.yul\":15781:15794   */\n      mload\n        /* \"#utility.yul\":15772:15794   */\n      swap1\n      pop\n        /* \"#utility.yul\":15803:15835   */\n      tag_444\n        /* \"#utility.yul\":15829:15834   */\n      dup2\n        /* \"#utility.yul\":15803:15835   */\n      tag_270\n      jump\t// in\n    tag_444:\n        /* \"#utility.yul\":15700:15841   */\n      swap3\n      swap2\n      pop\n      pop\n      jump\t// out\n        /* \"#utility.yul\":15847:15990   */\n    tag_272:\n        /* \"#utility.yul\":15904:15909   */\n      0x00\n        /* \"#utility.yul\":15935:15941   */\n      dup2\n        /* \"#utility.yul\":15929:15942   */\n      mload\n        /* \"#utility.yul\":15920:15942   */\n      swap1\n      pop\n        /* \"#utility.yul\":15951:15984   */\n      tag_446\n        /* \"#utility.yul\":15978:15983   */\n      dup2\n        /* \"#utility.yul\":15951:15984   */\n      tag_245\n      jump\t// in\n    tag_446:\n        /* \"#utility.yul\":15847:15990   */\n      swap3\n      swap2\n      pop\n      pop\n      jump\t// out\n        /* \"#utility.yul\":15996:16967   */\n    tag_183:\n        /* \"#utility.yul\":16099:16105   */\n      0x00\n        /* \"#utility.yul\":16107:16113   */\n      dup1\n        /* \"#utility.yul\":16115:16121   */\n      0x00\n        /* \"#utility.yul\":16123:16129   */\n      dup1\n        /* \"#utility.yul\":16131:16137   */\n      0x00\n        /* \"#utility.yul\":16180:16183   */\n      0xa0\n        /* \"#utility.yul\":16168:16177   */\n      dup7\n        /* \"#utility.yul\":16159:16166   */\n      dup9\n        /* \"#utility.yul\":16155:16178   */\n      sub\n        /* \"#utility.yul\":16151:16184   */\n      slt\n        /* \"#utility.yul\":16148:16268   */\n      iszero\n      tag_448\n      jumpi\n        /* \"#utility.yul\":16187:16266   */\n      tag_449\n      tag_238\n      jump\t// in\n    tag_449:\n        /* \"#utility.yul\":16148:16268   */\n    tag_448:\n        /* \"#utility.yul\":16307:16308   */\n      0x00\n        /* \"#utility.yul\":16332:16395   */\n      tag_450\n        /* \"#utility.yul\":16387:16394   */\n      dup9\n        /* \"#utility.yul\":16378:16384   */\n      dup3\n        /* \"#utility.yul\":16367:16376   */\n      dup10\n        /* \"#utility.yul\":16363:16385   */\n      add\n        /* \"#utility.yul\":16332:16395   */\n      tag_269\n      jump\t// in\n    tag_450:\n        /* \"#utility.yul\":16322:16395   */\n      swap6\n      pop\n        /* \"#utility.yul\":16278:16405   */\n      pop\n        /* \"#utility.yul\":16444:16446   */\n      0x20\n        /* \"#utility.yul\":16470:16533   */\n      tag_451\n        /* \"#utility.yul\":16525:16532   */\n      dup9\n        /* \"#utility.yul\":16516:16522   */\n      dup3\n        /* \"#utility.yul\":16505:16514   */\n      dup10\n        /* \"#utility.yul\":16501:16523   */\n      add\n        /* \"#utility.yul\":16470:16533   */\n      tag_271\n      jump\t// in\n    tag_451:\n        /* \"#utility.yul\":16460:16533   */\n      swap5\n      pop\n        /* \"#utility.yul\":16415:16543   */\n      pop\n        /* \"#utility.yul\":16582:16584   */\n      0x40\n        /* \"#utility.yul\":16608:16672   */\n      tag_452\n        /* \"#utility.yul\":16664:16671   */\n      dup9\n        /* \"#utility.yul\":16655:16661   */\n      dup3\n        /* \"#utility.yul\":16644:16653   */\n      dup10\n        /* \"#utility.yul\":16640:16662   */\n      add\n        /* \"#utility.yul\":16608:16672   */\n      tag_272\n      jump\t// in\n    tag_452:\n        /* \"#utility.yul\":16598:16672   */\n      swap4\n      pop\n        /* \"#utility.yul\":16553:16682   */\n      pop\n        /* \"#utility.yul\":16721:16723   */\n      0x60\n        /* \"#utility.yul\":16747:16811   */\n      tag_453\n        /* \"#utility.yul\":16803:16810   */\n      dup9\n        /* \"#utility.yul\":16794:16800   */\n      dup3\n        /* \"#utility.yul\":16783:16792   */\n      dup10\n        /* \"#utility.yul\":16779:16801   */\n      add\n        /* \"#utility.yul\":16747:16811   */\n      tag_272\n      jump\t// in\n    tag_453:\n        /* \"#utility.yul\":16737:16811   */\n      swap3\n      pop\n        /* \"#utility.yul\":16692:16821   */\n      pop\n        /* \"#utility.yul\":16860:16863   */\n      0x80\n        /* \"#utility.yul\":16887:16950   */\n      tag_454\n        /* \"#utility.yul\":16942:16949   */\n      dup9\n        /* \"#utility.yul\":16933:16939   */\n      dup3\n        /* \"#utility.yul\":16922:16931   */\n      dup10\n        /* \"#utility.yul\":16918:16940   */\n      add\n        /* \"#utility.yul\":16887:16950   */\n      tag_269\n      jump\t// in\n    tag_454:\n        /* \"#utility.yul\":16877:16950   */\n      swap2\n      pop\n        /* \"#utility.yul\":16831:16960   */\n      pop\n        /* \"#utility.yul\":15996:16967   */\n      swap3\n      swap6\n      pop\n      swap3\n      swap6\n      swap1\n      swap4\n      pop\n      jump\t// out\n        /* \"#utility.yul\":16973:17358   */\n    tag_185:\n        /* \"#utility.yul\":17012:17013   */\n      0x00\n        /* \"#utility.yul\":17029:17048   */\n      tag_456\n        /* \"#utility.yul\":17046:17047   */\n      dup3\n        /* \"#utility.yul\":17029:17048   */\n      tag_253\n      jump\t// in\n    tag_456:\n        /* \"#utility.yul\":17024:17048   */\n      swap2\n      pop\n        /* \"#utility.yul\":17062:17081   */\n      tag_457\n        /* \"#utility.yul\":17079:17080   */\n      dup4\n        /* \"#utility.yul\":17062:17081   */\n      tag_253\n      jump\t// in\n    tag_457:\n        /* \"#utility.yul\":17057:17081   */\n      swap3\n      pop\n        /* \"#utility.yul\":17100:17101   */\n      dup3\n        /* \"#utility.yul\":17090:17125   */\n      tag_458\n      jumpi\n        /* \"#utility.yul\":17105:17123   */\n      tag_459\n      tag_261\n      jump\t// in\n    tag_459:\n        /* \"#utility.yul\":17090:17125   */\n    tag_458:\n        /* \"#utility.yul\":17291:17292   */\n      0x01\n        /* \"#utility.yul\":17288:17289   */\n      0x00\n        /* \"#utility.yul\":17284:17293   */\n      sub\n        /* \"#utility.yul\":17281:17282   */\n      dup4\n        /* \"#utility.yul\":17278:17294   */\n      eq\n        /* \"#utility.yul\":17197:17263   */\n      0x8000000000000000000000000000000000000000000000000000000000000000\n        /* \"#utility.yul\":17194:17195   */\n      dup4\n        /* \"#utility.yul\":17191:17264   */\n      eq\n        /* \"#utility.yul\":17174:17304   */\n      and\n        /* \"#utility.yul\":17171:17327   */\n      iszero\n      tag_460\n      jumpi\n        /* \"#utility.yul\":17307:17325   */\n      tag_461\n      tag_257\n      jump\t// in\n    tag_461:\n        /* \"#utility.yul\":17171:17327   */\n    tag_460:\n        /* \"#utility.yul\":17350:17351   */\n      dup3\n        /* \"#utility.yul\":17347:17348   */\n      dup3\n        /* \"#utility.yul\":17342:17352   */\n      sdiv\n        /* \"#utility.yul\":17337:17352   */\n      swap1\n      pop\n        /* \"#utility.yul\":16973:17358   */\n      swap3\n      swap2\n      pop\n      pop\n      jump\t// out\n        /* \"#utility.yul\":17364:17806   */\n    tag_200:\n        /* \"#utility.yul\":17513:17517   */\n      0x00\n        /* \"#utility.yul\":17551:17553   */\n      0x60\n        /* \"#utility.yul\":17540:17549   */\n      dup3\n        /* \"#utility.yul\":17536:17554   */\n      add\n        /* \"#utility.yul\":17528:17554   */\n      swap1\n      pop\n        /* \"#utility.yul\":17564:17635   */\n      tag_463\n        /* \"#utility.yul\":17632:17633   */\n      0x00\n        /* \"#utility.yul\":17621:17630   */\n      dup4\n        /* \"#utility.yul\":17617:17634   */\n      add\n        /* \"#utility.yul\":17608:17614   */\n      dup7\n        /* \"#utility.yul\":17564:17635   */\n      tag_252\n      jump\t// in\n    tag_463:\n        /* \"#utility.yul\":17645:17717   */\n      tag_464\n        /* \"#utility.yul\":17713:17715   */\n      0x20\n        /* \"#utility.yul\":17702:17711   */\n      dup4\n        /* \"#utility.yul\":17698:17716   */\n      add\n        /* \"#utility.yul\":17689:17695   */\n      dup6\n        /* \"#utility.yul\":17645:17717   */\n      tag_249\n      jump\t// in\n    tag_464:\n        /* \"#utility.yul\":17727:17799   */\n      tag_465\n        /* \"#utility.yul\":17795:17797   */\n      0x40\n        /* \"#utility.yul\":17784:17793   */\n      dup4\n        /* \"#utility.yul\":17780:17798   */\n      add\n        /* \"#utility.yul\":17771:17777   */\n      dup5\n        /* \"#utility.yul\":17727:17799   */\n      tag_249\n      jump\t// in\n    tag_465:\n        /* \"#utility.yul\":17364:17806   */\n      swap5\n      swap4\n      pop\n      pop\n      pop\n      pop\n      jump\t// out\n\n    auxdata: 0xa2646970667358221220d4e246ff0dcb3815227a5fd5e1a70e28369513cedeed3cc6591597fa56c702a364736f6c63430008180033\n}\n",
				"bytecode": {
					"linkReferences": {},
					"object": "60a060405264012a05f2006007556113886008553480156200001f575f80fd5b50620000306200023060201b60201c565b60ff16600a6200004191906200073d565b6007546200005091906200078d565b6040518060400160405280600581526020017f4d6f6e65740000000000000000000000000000000000000000000000000000008152506040518060400160405280600381526020017f4d4e5400000000000000000000000000000000000000000000000000000000008152508160039081620000cd919062000a32565b508060049081620000df919062000a32565b5050505f810362000129575f6040517f392e1e2700000000000000000000000000000000000000000000000000000000815260040162000120919062000b57565b60405180910390fd5b8060808181525050503360065f6101000a81548173ffffffffffffffffffffffffffffffffffffffff021916908373ffffffffffffffffffffffffffffffffffffffff16021790555073d0d5e3db44de05e9f294bb0a3beeaf030de24ada60055f6101000a81548173ffffffffffffffffffffffffffffffffffffffff021916908373ffffffffffffffffffffffffffffffffffffffff1602179055506200022a60065f9054906101000a900473ffffffffffffffffffffffffffffffffffffffff16620001fc6200023060201b60201c565b60ff16600a6200020d91906200073d565b639502f9006200021e91906200078d565b6200023860201b60201c565b62000c9c565b5f6012905090565b5f73ffffffffffffffffffffffffffffffffffffffff168273ffffffffffffffffffffffffffffffffffffffff1603620002ab575f6040517fec442f05000000000000000000000000000000000000000000000000000000008152600401620002a2919062000bb5565b60405180910390fd5b620002be5f8383620002c260201b60201c565b5050565b620002d58383836200038160201b60201c565b5f73ffffffffffffffffffffffffffffffffffffffff168373ffffffffffffffffffffffffffffffffffffffff16036200037c575f6200031a620005a560201b60201c565b90505f6200032d620005ae60201b60201c565b905081811115620003795780826040517f9e79f8540000000000000000000000000000000000000000000000000000000081526004016200037092919062000be1565b60405180910390fd5b50505b505050565b5f73ffffffffffffffffffffffffffffffffffffffff168373ffffffffffffffffffffffffffffffffffffffff1603620003d5578060025f828254620003c8919062000c0c565b92505081905550620004a6565b5f805f8573ffffffffffffffffffffffffffffffffffffffff1673ffffffffffffffffffffffffffffffffffffffff1681526020019081526020015f205490508181101562000461578381836040517fe450d38c000000000000000000000000000000000000000000000000000000008152600401620004589392919062000c46565b60405180910390fd5b8181035f808673ffffffffffffffffffffffffffffffffffffffff1673ffffffffffffffffffffffffffffffffffffffff1681526020019081526020015f2081905550505b5f73ffffffffffffffffffffffffffffffffffffffff168273ffffffffffffffffffffffffffffffffffffffff1603620004ef578060025f828254039250508190555062000539565b805f808473ffffffffffffffffffffffffffffffffffffffff1673ffffffffffffffffffffffffffffffffffffffff1681526020019081526020015f205f82825401925050819055505b8173ffffffffffffffffffffffffffffffffffffffff168373ffffffffffffffffffffffffffffffffffffffff167fddf252ad1be2c89b69c2b068fc378daa952ba7f163c4a11628f55a4df523b3ef8360405162000598919062000c81565b60405180910390a3505050565b5f608051905090565b5f600254905090565b7f4e487b71000000000000000000000000000000000000000000000000000000005f52601160045260245ffd5b5f8160011c9050919050565b5f808291508390505b60018511156200064157808604811115620006195762000618620005b7565b5b6001851615620006295780820291505b80810290506200063985620005e4565b9450620005f9565b94509492505050565b5f826200065b57600190506200072d565b816200066a575f90506200072d565b81600181146200068357600281146200068e57620006c4565b60019150506200072d565b60ff841115620006a357620006a2620005b7565b5b8360020a915084821115620006bd57620006bc620005b7565b5b506200072d565b5060208310610133831016604e8410600b8410161715620006fe5782820a905083811115620006f857620006f7620005b7565b5b6200072d565b6200070d8484846001620005f0565b92509050818404811115620007275762000726620005b7565b5b81810290505b9392505050565b5f819050919050565b5f620007498262000734565b9150620007568362000734565b9250620007857fffffffffffffffffffffffffffffffffffffffffffffffffffffffffffffffff84846200064a565b905092915050565b5f620007998262000734565b9150620007a68362000734565b9250828202620007b68162000734565b91508282048414831517620007d057620007cf620005b7565b5b5092915050565b5f81519050919050565b7f4e487b71000000000000000000000000000000000000000000000000000000005f52604160045260245ffd5b7f4e487b71000000000000000000000000000000000000000000000000000000005f52602260045260245ffd5b5f60028204905060018216806200085357607f821691505b6020821081036200086957620008686200080e565b5b50919050565b5f819050815f5260205f209050919050565b5f6020601f8301049050919050565b5f82821b905092915050565b5f60088302620008cd7fffffffffffffffffffffffffffffffffffffffffffffffffffffffffffffffff8262000890565b620008d9868362000890565b95508019841693508086168417925050509392505050565b5f819050919050565b5f6200091a620009146200090e8462000734565b620008f1565b62000734565b9050919050565b5f819050919050565b6200093583620008fa565b6200094d620009448262000921565b8484546200089c565b825550505050565b5f90565b6200096362000955565b620009708184846200092a565b505050565b5b8181101562000997576200098b5f8262000959565b60018101905062000976565b5050565b601f821115620009e657620009b0816200086f565b620009bb8462000881565b81016020851015620009cb578190505b620009e3620009da8562000881565b83018262000975565b50505b505050565b5f82821c905092915050565b5f62000a085f1984600802620009eb565b1980831691505092915050565b5f62000a228383620009f7565b9150826002028217905092915050565b62000a3d82620007d7565b67ffffffffffffffff81111562000a595762000a58620007e1565b5b62000a6582546200083b565b62000a728282856200099b565b5f60209050601f83116001811462000aa8575f841562000a93578287015190505b62000a9f858262000a15565b86555062000b0e565b601f19841662000ab8866200086f565b5f5b8281101562000ae15784890151825560018201915060208501945060208101905062000aba565b8683101562000b01578489015162000afd601f891682620009f7565b8355505b6001600288020188555050505b505050505050565b5f819050919050565b5f62000b3f62000b3962000b338462000b16565b620008f1565b62000734565b9050919050565b62000b518162000b1f565b82525050565b5f60208201905062000b6c5f83018462000b46565b92915050565b5f73ffffffffffffffffffffffffffffffffffffffff82169050919050565b5f62000b9d8262000b72565b9050919050565b62000baf8162000b91565b82525050565b5f60208201905062000bca5f83018462000ba4565b92915050565b62000bdb8162000734565b82525050565b5f60408201905062000bf65f83018562000bd0565b62000c05602083018462000bd0565b9392505050565b5f62000c188262000734565b915062000c258362000734565b925082820190508082111562000c405762000c3f620005b7565b5b92915050565b5f60608201905062000c5b5f83018662000ba4565b62000c6a602083018562000bd0565b62000c79604083018462000bd0565b949350505050565b5f60208201905062000c965f83018462000bd0565b92915050565b608051611b8962000cb55f395f6106440152611b895ff3fe6080604052600436106100fd575f3560e01c8063655ab92711610094578063a9059cbb11610063578063a9059cbb146102f9578063c0e3daf514610335578063ce606ee01461035f578063dd62ed3e14610389578063ea6ecb08146103c5576100fd565b8063655ab927146102555780636a73bf531461026b57806370a082311461029357806395d89b41146102cf576100fd565b806323b872dd116100d057806323b872dd1461019b5780632bc67da0146101d7578063313ce56714610201578063355274ea1461022b576100fd565b806306ed69081461010157806306fdde031461010b578063095ea7b31461013557806318160ddd14610171575b5f80fd5b6101096103ef565b005b348015610116575f80fd5b5061011f61054a565b60405161012c9190611210565b60405180910390f35b348015610140575f80fd5b5061015b600480360381019061015691906112c1565b6105da565b6040516101689190611319565b60405180910390f35b34801561017c575f80fd5b506101856105fc565b6040516101929190611341565b60405180910390f35b3480156101a6575f80fd5b506101c160048036038101906101bc919061135a565b610605565b6040516101ce9190611319565b60405180910390f35b3480156101e2575f80fd5b506101eb610633565b6040516101f89190611341565b60405180910390f35b34801561020c575f80fd5b50610215610639565b60405161022291906113c5565b60405180910390f35b348015610236575f80fd5b5061023f610641565b60405161024c9190611341565b60405180910390f35b348015610260575f80fd5b50610269610668565b005b348015610276575f80fd5b50610291600480360381019061028c91906113de565b61079c565b005b34801561029e575f80fd5b506102b960048036038101906102b49190611409565b610877565b6040516102c69190611341565b60405180910390f35b3480156102da575f80fd5b506102e36108bc565b6040516102f09190611210565b60405180910390f35b348015610304575f80fd5b5061031f600480360381019061031a91906112c1565b61094c565b60405161032c9190611319565b60405180910390f35b348015610340575f80fd5b5061034961096e565b6040516103569190611341565b60405180910390f35b34801561036a575f80fd5b5061037361098f565b6040516103809190611443565b60405180910390f35b348015610394575f80fd5b506103af60048036038101906103aa919061145c565b6109b4565b6040516103bc9190611341565b60405180910390f35b3480156103d0575f80fd5b506103d9610a36565b6040516103e691906114b2565b60405180910390f35b5f3403610431576040517f08c379a00000000000000000000000000000000000000000000000000000000081526004016104289061153b565b60405180910390fd5b5f61043a61096e565b610442610639565b60ff16600a61045191906116b5565b3461045c91906116ff565b610466919061176d565b9050610470610639565b60ff16600a61047f91906116b5565b60085461048c91906116ff565b8161049633610877565b6104a0919061179d565b11156104e1576040517f08c379a00000000000000000000000000000000000000000000000000000000081526004016104d890611840565b60405180910390fd5b6104eb3382610ae1565b3373ffffffffffffffffffffffffffffffffffffffff167f34987d73948b60cfba9beeb35760c345a3be430f3540605113911ead78a0830e82344261052f33610877565b60405161053f949392919061185e565b60405180910390a250565b606060038054610559906118ce565b80601f0160208091040260200160405190810160405280929190818152602001828054610585906118ce565b80156105d05780601f106105a7576101008083540402835291602001916105d0565b820191905f5260205f20905b8154815290600101906020018083116105b357829003601f168201915b5050505050905090565b5f806105e4610b60565b90506105f1818585610b67565b600191505092915050565b5f600254905090565b5f8061060f610b60565b905061061c858285610b79565b610627858585610c0b565b60019150509392505050565b60085481565b5f6012905090565b5f7f0000000000000000000000000000000000000000000000000000000000000000905090565b60065f9054906101000a900473ffffffffffffffffffffffffffffffffffffffff1673ffffffffffffffffffffffffffffffffffffffff163373ffffffffffffffffffffffffffffffffffffffff16146106f7576040517f08c379a00000000000000000000000000000000000000000000000000000000081526004016106ee90611948565b60405180910390fd5b5f47905060065f9054906101000a900473ffffffffffffffffffffffffffffffffffffffff1673ffffffffffffffffffffffffffffffffffffffff166108fc8290811502906040515f60405180830381858888f1935050505015801561075f573d5f803e3d5ffd5b507ff39edbeb800007582021719f876f29eb42aa5171248e3df79a3bf120a4e914168142604051610791929190611966565b60405180910390a150565b60065f9054906101000a900473ffffffffffffffffffffffffffffffffffffffff1673ffffffffffffffffffffffffffffffffffffffff163373ffffffffffffffffffffffffffffffffffffffff161461082b576040517f08c379a000000000000000000000000000000000000000000000000000000000815260040161082290611948565b60405180910390fd5b5f6008549050816008819055507f4c2d858a88357e20c1b14c12b9674497934a744bb8118d4d3f2dce8ded4989be81834260405161086b9392919061198d565b60405180910390a15050565b5f805f8373ffffffffffffffffffffffffffffffffffffffff1673ffffffffffffffffffffffffffffffffffffffff1681526020019081526020015f20549050919050565b6060600480546108cb906118ce565b80601f01602080910402602001604051908101604052809291908181526020018280546108f7906118ce565b80156109425780601f1061091957610100808354040283529160200191610942565b820191905f5260205f20905b81548152906001019060200180831161092557829003601f168201915b5050505050905090565b5f80610956610b60565b9050610963818585610c0b565b600191505092915050565b5f610977610a36565b671bc16d674ec8000061098a919061176d565b905090565b60065f9054906101000a900473ffffffffffffffffffffffffffffffffffffffff1681565b5f60015f8473ffffffffffffffffffffffffffffffffffffffff1673ffffffffffffffffffffffffffffffffffffffff1681526020019081526020015f205f8373ffffffffffffffffffffffffffffffffffffffff1673ffffffffffffffffffffffffffffffffffffffff1681526020019081526020015f2054905092915050565b5f8060055f9054906101000a900473ffffffffffffffffffffffffffffffffffffffff1673ffffffffffffffffffffffffffffffffffffffff1663feaf968c6040518163ffffffff1660e01b815260040160a060405180830381865afa158015610aa2573d5f803e3d5ffd5b505050506040513d601f19601f82011682018060405250810190610ac69190611a3f565b505050915050620f424081610adb9190611ab6565b91505090565b5f73ffffffffffffffffffffffffffffffffffffffff168273ffffffffffffffffffffffffffffffffffffffff1603610b51575f6040517fec442f05000000000000000000000000000000000000000000000000000000008152600401610b489190611443565b60405180910390fd5b610b5c5f8383610cfb565b5050565b5f33905090565b610b748383836001610d9e565b505050565b5f610b8484846109b4565b90507fffffffffffffffffffffffffffffffffffffffffffffffffffffffffffffffff8114610c055781811015610bf6578281836040517ffb8f41b2000000000000000000000000000000000000000000000000000000008152600401610bed93929190611b1e565b60405180910390fd5b610c0484848484035f610d9e565b5b50505050565b5f73ffffffffffffffffffffffffffffffffffffffff168373ffffffffffffffffffffffffffffffffffffffff1603610c7b575f6040517f96c6fd1e000000000000000000000000000000000000000000000000000000008152600401610c729190611443565b60405180910390fd5b5f73ffffffffffffffffffffffffffffffffffffffff168273ffffffffffffffffffffffffffffffffffffffff1603610ceb575f6040517fec442f05000000000000000000000000000000000000000000000000000000008152600401610ce29190611443565b60405180910390fd5b610cf6838383610cfb565b505050565b610d06838383610f6d565b5f73ffffffffffffffffffffffffffffffffffffffff168373ffffffffffffffffffffffffffffffffffffffff1603610d99575f610d42610641565b90505f610d4d6105fc565b905081811115610d965780826040517f9e79f854000000000000000000000000000000000000000000000000000000008152600401610d8d929190611966565b60405180910390fd5b50505b505050565b5f73ffffffffffffffffffffffffffffffffffffffff168473ffffffffffffffffffffffffffffffffffffffff1603610e0e575f6040517fe602df05000000000000000000000000000000000000000000000000000000008152600401610e059190611443565b60405180910390fd5b5f73ffffffffffffffffffffffffffffffffffffffff168373ffffffffffffffffffffffffffffffffffffffff1603610e7e575f6040517f94280d62000000000000000000000000000000000000000000000000000000008152600401610e759190611443565b60405180910390fd5b8160015f8673ffffffffffffffffffffffffffffffffffffffff1673ffffffffffffffffffffffffffffffffffffffff1681526020019081526020015f205f8573ffffffffffffffffffffffffffffffffffffffff1673ffffffffffffffffffffffffffffffffffffffff1681526020019081526020015f20819055508015610f67578273ffffffffffffffffffffffffffffffffffffffff168473ffffffffffffffffffffffffffffffffffffffff167f8c5be1e5ebec7d5bd14f71427d1e84f3dd0314c0f7b2291e5b200ac8c7c3b92584604051610f5e9190611341565b60405180910390a35b50505050565b5f73ffffffffffffffffffffffffffffffffffffffff168373ffffffffffffffffffffffffffffffffffffffff1603610fbd578060025f828254610fb1919061179d565b9250508190555061108b565b5f805f8573ffffffffffffffffffffffffffffffffffffffff1673ffffffffffffffffffffffffffffffffffffffff1681526020019081526020015f2054905081811015611046578381836040517fe450d38c00000000000000000000000000000000000000000000000000000000815260040161103d93929190611b1e565b60405180910390fd5b8181035f808673ffffffffffffffffffffffffffffffffffffffff1673ffffffffffffffffffffffffffffffffffffffff1681526020019081526020015f2081905550505b5f73ffffffffffffffffffffffffffffffffffffffff168273ffffffffffffffffffffffffffffffffffffffff16036110d2578060025f828254039250508190555061111c565b805f808473ffffffffffffffffffffffffffffffffffffffff1673ffffffffffffffffffffffffffffffffffffffff1681526020019081526020015f205f82825401925050819055505b8173ffffffffffffffffffffffffffffffffffffffff168373ffffffffffffffffffffffffffffffffffffffff167fddf252ad1be2c89b69c2b068fc378daa952ba7f163c4a11628f55a4df523b3ef836040516111799190611341565b60405180910390a3505050565b5f81519050919050565b5f82825260208201905092915050565b5f5b838110156111bd5780820151818401526020810190506111a2565b5f8484015250505050565b5f601f19601f8301169050919050565b5f6111e282611186565b6111ec8185611190565b93506111fc8185602086016111a0565b611205816111c8565b840191505092915050565b5f6020820190508181035f83015261122881846111d8565b905092915050565b5f80fd5b5f73ffffffffffffffffffffffffffffffffffffffff82169050919050565b5f61125d82611234565b9050919050565b61126d81611253565b8114611277575f80fd5b50565b5f8135905061128881611264565b92915050565b5f819050919050565b6112a08161128e565b81146112aa575f80fd5b50565b5f813590506112bb81611297565b92915050565b5f80604083850312156112d7576112d6611230565b5b5f6112e48582860161127a565b92505060206112f5858286016112ad565b9150509250929050565b5f8115159050919050565b611313816112ff565b82525050565b5f60208201905061132c5f83018461130a565b92915050565b61133b8161128e565b82525050565b5f6020820190506113545f830184611332565b92915050565b5f805f6060848603121561137157611370611230565b5b5f61137e8682870161127a565b935050602061138f8682870161127a565b92505060406113a0868287016112ad565b9150509250925092565b5f60ff82169050919050565b6113bf816113aa565b82525050565b5f6020820190506113d85f8301846113b6565b92915050565b5f602082840312156113f3576113f2611230565b5b5f611400848285016112ad565b91505092915050565b5f6020828403121561141e5761141d611230565b5b5f61142b8482850161127a565b91505092915050565b61143d81611253565b82525050565b5f6020820190506114565f830184611434565b92915050565b5f806040838503121561147257611471611230565b5b5f61147f8582860161127a565b92505060206114908582860161127a565b9150509250929050565b5f819050919050565b6114ac8161149a565b82525050565b5f6020820190506114c55f8301846114a3565b92915050565b7f4572726f722d4d4e545f4d554d4241492e736f6c2d56616c75656c6573735f545f8201527f72616e73616374696f6e00000000000000000000000000000000000000000000602082015250565b5f611525602a83611190565b9150611530826114cb565b604082019050919050565b5f6020820190508181035f83015261155281611519565b9050919050565b7f4e487b71000000000000000000000000000000000000000000000000000000005f52601160045260245ffd5b5f8160011c9050919050565b5f808291508390505b60018511156115db578086048111156115b7576115b6611559565b5b60018516156115c65780820291505b80810290506115d485611586565b945061159b565b94509492505050565b5f826115f357600190506116ae565b81611600575f90506116ae565b816001811461161657600281146116205761164f565b60019150506116ae565b60ff84111561163257611631611559565b5b8360020a91508482111561164957611648611559565b5b506116ae565b5060208310610133831016604e8410600b84101617156116845782820a90508381111561167f5761167e611559565b5b6116ae565b6116918484846001611592565b925090508184048111156116a8576116a7611559565b5b81810290505b9392505050565b5f6116bf8261128e565b91506116ca8361128e565b92506116f77fffffffffffffffffffffffffffffffffffffffffffffffffffffffffffffffff84846115e4565b905092915050565b5f6117098261128e565b91506117148361128e565b92508282026117228161128e565b9150828204841483151761173957611738611559565b5b5092915050565b7f4e487b71000000000000000000000000000000000000000000000000000000005f52601260045260245ffd5b5f6117778261128e565b91506117828361128e565b92508261179257611791611740565b5b828204905092915050565b5f6117a78261128e565b91506117b28361128e565b92508282019050808211156117ca576117c9611559565b5b92915050565b7f4572726f722d4d4e545f4d554d4241492e736f6c2d457863656564735f4d61785f8201527f5f42616c616e6365000000000000000000000000000000000000000000000000602082015250565b5f61182a602883611190565b9150611835826117d0565b604082019050919050565b5f6020820190508181035f8301526118578161181e565b9050919050565b5f6080820190506118715f830187611332565b61187e6020830186611332565b61188b6040830185611332565b6118986060830184611332565b95945050505050565b7f4e487b71000000000000000000000000000000000000000000000000000000005f52602260045260245ffd5b5f60028204905060018216806118e557607f821691505b6020821081036118f8576118f76118a1565b5b50919050565b7f4572726f722d4d4e545f4d554d4241492e736f6c2d4f776e61626c65000000005f82015250565b5f611932601c83611190565b915061193d826118fe565b602082019050919050565b5f6020820190508181035f83015261195f81611926565b9050919050565b5f6040820190506119795f830185611332565b6119866020830184611332565b9392505050565b5f6060820190506119a05f830186611332565b6119ad6020830185611332565b6119ba6040830184611332565b949350505050565b5f69ffffffffffffffffffff82169050919050565b6119e0816119c2565b81146119ea575f80fd5b50565b5f815190506119fb816119d7565b92915050565b611a0a8161149a565b8114611a14575f80fd5b50565b5f81519050611a2581611a01565b92915050565b5f81519050611a3981611297565b92915050565b5f805f805f60a08688031215611a5857611a57611230565b5b5f611a65888289016119ed565b9550506020611a7688828901611a17565b9450506040611a8788828901611a2b565b9350506060611a9888828901611a2b565b9250506080611aa9888289016119ed565b9150509295509295909350565b5f611ac08261149a565b9150611acb8361149a565b925082611adb57611ada611740565b5b60015f0383147f800000000000000000000000000000000000000000000000000000000000000083141615611b1357611b12611559565b5b828205905092915050565b5f606082019050611b315f830186611434565b611b3e6020830185611332565b611b4b6040830184611332565b94935050505056fea2646970667358221220d4e246ff0dcb3815227a5fd5e1a70e28369513cedeed3cc6591597fa56c702a364736f6c63430008180033",
					"opcodes": "PUSH1 0xA0 PUSH1 0x40 MSTORE PUSH5 0x12A05F200 PUSH1 0x7 SSTORE PUSH2 0x1388 PUSH1 0x8 SSTORE CALLVALUE DUP1 ISZERO PUSH3 0x1F JUMPI PUSH0 DUP1 REVERT JUMPDEST POP PUSH3 0x30 PUSH3 0x230 PUSH1 0x20 SHL PUSH1 0x20 SHR JUMP JUMPDEST PUSH1 0xFF AND PUSH1 0xA PUSH3 0x41 SWAP2 SWAP1 PUSH3 0x73D JUMP JUMPDEST PUSH1 0x7 SLOAD PUSH3 0x50 SWAP2 SWAP1 PUSH3 0x78D JUMP JUMPDEST PUSH1 0x40 MLOAD DUP1 PUSH1 0x40 ADD PUSH1 0x40 MSTORE DUP1 PUSH1 0x5 DUP2 MSTORE PUSH1 0x20 ADD PUSH32 0x4D6F6E6574000000000000000000000000000000000000000000000000000000 DUP2 MSTORE POP PUSH1 0x40 MLOAD DUP1 PUSH1 0x40 ADD PUSH1 0x40 MSTORE DUP1 PUSH1 0x3 DUP2 MSTORE PUSH1 0x20 ADD PUSH32 0x4D4E540000000000000000000000000000000000000000000000000000000000 DUP2 MSTORE POP DUP2 PUSH1 0x3 SWAP1 DUP2 PUSH3 0xCD SWAP2 SWAP1 PUSH3 0xA32 JUMP JUMPDEST POP DUP1 PUSH1 0x4 SWAP1 DUP2 PUSH3 0xDF SWAP2 SWAP1 PUSH3 0xA32 JUMP JUMPDEST POP POP POP PUSH0 DUP2 SUB PUSH3 0x129 JUMPI PUSH0 PUSH1 0x40 MLOAD PUSH32 0x392E1E2700000000000000000000000000000000000000000000000000000000 DUP2 MSTORE PUSH1 0x4 ADD PUSH3 0x120 SWAP2 SWAP1 PUSH3 0xB57 JUMP JUMPDEST PUSH1 0x40 MLOAD DUP1 SWAP2 SUB SWAP1 REVERT JUMPDEST DUP1 PUSH1 0x80 DUP2 DUP2 MSTORE POP POP POP CALLER PUSH1 0x6 PUSH0 PUSH2 0x100 EXP DUP2 SLOAD DUP2 PUSH20 0xFFFFFFFFFFFFFFFFFFFFFFFFFFFFFFFFFFFFFFFF MUL NOT AND SWAP1 DUP4 PUSH20 0xFFFFFFFFFFFFFFFFFFFFFFFFFFFFFFFFFFFFFFFF AND MUL OR SWAP1 SSTORE POP PUSH20 0xD0D5E3DB44DE05E9F294BB0A3BEEAF030DE24ADA PUSH1 0x5 PUSH0 PUSH2 0x100 EXP DUP2 SLOAD DUP2 PUSH20 0xFFFFFFFFFFFFFFFFFFFFFFFFFFFFFFFFFFFFFFFF MUL NOT AND SWAP1 DUP4 PUSH20 0xFFFFFFFFFFFFFFFFFFFFFFFFFFFFFFFFFFFFFFFF AND MUL OR SWAP1 SSTORE POP PUSH3 0x22A PUSH1 0x6 PUSH0 SWAP1 SLOAD SWAP1 PUSH2 0x100 EXP SWAP1 DIV PUSH20 0xFFFFFFFFFFFFFFFFFFFFFFFFFFFFFFFFFFFFFFFF AND PUSH3 0x1FC PUSH3 0x230 PUSH1 0x20 SHL PUSH1 0x20 SHR JUMP JUMPDEST PUSH1 0xFF AND PUSH1 0xA PUSH3 0x20D SWAP2 SWAP1 PUSH3 0x73D JUMP JUMPDEST PUSH4 0x9502F900 PUSH3 0x21E SWAP2 SWAP1 PUSH3 0x78D JUMP JUMPDEST PUSH3 0x238 PUSH1 0x20 SHL PUSH1 0x20 SHR JUMP JUMPDEST PUSH3 0xC9C JUMP JUMPDEST PUSH0 PUSH1 0x12 SWAP1 POP SWAP1 JUMP JUMPDEST PUSH0 PUSH20 0xFFFFFFFFFFFFFFFFFFFFFFFFFFFFFFFFFFFFFFFF AND DUP3 PUSH20 0xFFFFFFFFFFFFFFFFFFFFFFFFFFFFFFFFFFFFFFFF AND SUB PUSH3 0x2AB JUMPI PUSH0 PUSH1 0x40 MLOAD PUSH32 0xEC442F0500000000000000000000000000000000000000000000000000000000 DUP2 MSTORE PUSH1 0x4 ADD PUSH3 0x2A2 SWAP2 SWAP1 PUSH3 0xBB5 JUMP JUMPDEST PUSH1 0x40 MLOAD DUP1 SWAP2 SUB SWAP1 REVERT JUMPDEST PUSH3 0x2BE PUSH0 DUP4 DUP4 PUSH3 0x2C2 PUSH1 0x20 SHL PUSH1 0x20 SHR JUMP JUMPDEST POP POP JUMP JUMPDEST PUSH3 0x2D5 DUP4 DUP4 DUP4 PUSH3 0x381 PUSH1 0x20 SHL PUSH1 0x20 SHR JUMP JUMPDEST PUSH0 PUSH20 0xFFFFFFFFFFFFFFFFFFFFFFFFFFFFFFFFFFFFFFFF AND DUP4 PUSH20 0xFFFFFFFFFFFFFFFFFFFFFFFFFFFFFFFFFFFFFFFF AND SUB PUSH3 0x37C JUMPI PUSH0 PUSH3 0x31A PUSH3 0x5A5 PUSH1 0x20 SHL PUSH1 0x20 SHR JUMP JUMPDEST SWAP1 POP PUSH0 PUSH3 0x32D PUSH3 0x5AE PUSH1 0x20 SHL PUSH1 0x20 SHR JUMP JUMPDEST SWAP1 POP DUP2 DUP2 GT ISZERO PUSH3 0x379 JUMPI DUP1 DUP3 PUSH1 0x40 MLOAD PUSH32 0x9E79F85400000000000000000000000000000000000000000000000000000000 DUP2 MSTORE PUSH1 0x4 ADD PUSH3 0x370 SWAP3 SWAP2 SWAP1 PUSH3 0xBE1 JUMP JUMPDEST PUSH1 0x40 MLOAD DUP1 SWAP2 SUB SWAP1 REVERT JUMPDEST POP POP JUMPDEST POP POP POP JUMP JUMPDEST PUSH0 PUSH20 0xFFFFFFFFFFFFFFFFFFFFFFFFFFFFFFFFFFFFFFFF AND DUP4 PUSH20 0xFFFFFFFFFFFFFFFFFFFFFFFFFFFFFFFFFFFFFFFF AND SUB PUSH3 0x3D5 JUMPI DUP1 PUSH1 0x2 PUSH0 DUP3 DUP3 SLOAD PUSH3 0x3C8 SWAP2 SWAP1 PUSH3 0xC0C JUMP JUMPDEST SWAP3 POP POP DUP2 SWAP1 SSTORE POP PUSH3 0x4A6 JUMP JUMPDEST PUSH0 DUP1 PUSH0 DUP6 PUSH20 0xFFFFFFFFFFFFFFFFFFFFFFFFFFFFFFFFFFFFFFFF AND PUSH20 0xFFFFFFFFFFFFFFFFFFFFFFFFFFFFFFFFFFFFFFFF AND DUP2 MSTORE PUSH1 0x20 ADD SWAP1 DUP2 MSTORE PUSH1 0x20 ADD PUSH0 KECCAK256 SLOAD SWAP1 POP DUP2 DUP2 LT ISZERO PUSH3 0x461 JUMPI DUP4 DUP2 DUP4 PUSH1 0x40 MLOAD PUSH32 0xE450D38C00000000000000000000000000000000000000000000000000000000 DUP2 MSTORE PUSH1 0x4 ADD PUSH3 0x458 SWAP4 SWAP3 SWAP2 SWAP1 PUSH3 0xC46 JUMP JUMPDEST PUSH1 0x40 MLOAD DUP1 SWAP2 SUB SWAP1 REVERT JUMPDEST DUP2 DUP2 SUB PUSH0 DUP1 DUP7 PUSH20 0xFFFFFFFFFFFFFFFFFFFFFFFFFFFFFFFFFFFFFFFF AND PUSH20 0xFFFFFFFFFFFFFFFFFFFFFFFFFFFFFFFFFFFFFFFF AND DUP2 MSTORE PUSH1 0x20 ADD SWAP1 DUP2 MSTORE PUSH1 0x20 ADD PUSH0 KECCAK256 DUP2 SWAP1 SSTORE POP POP JUMPDEST PUSH0 PUSH20 0xFFFFFFFFFFFFFFFFFFFFFFFFFFFFFFFFFFFFFFFF AND DUP3 PUSH20 0xFFFFFFFFFFFFFFFFFFFFFFFFFFFFFFFFFFFFFFFF AND SUB PUSH3 0x4EF JUMPI DUP1 PUSH1 0x2 PUSH0 DUP3 DUP3 SLOAD SUB SWAP3 POP POP DUP2 SWAP1 SSTORE POP PUSH3 0x539 JUMP JUMPDEST DUP1 PUSH0 DUP1 DUP5 PUSH20 0xFFFFFFFFFFFFFFFFFFFFFFFFFFFFFFFFFFFFFFFF AND PUSH20 0xFFFFFFFFFFFFFFFFFFFFFFFFFFFFFFFFFFFFFFFF AND DUP2 MSTORE PUSH1 0x20 ADD SWAP1 DUP2 MSTORE PUSH1 0x20 ADD PUSH0 KECCAK256 PUSH0 DUP3 DUP3 SLOAD ADD SWAP3 POP POP DUP2 SWAP1 SSTORE POP JUMPDEST DUP2 PUSH20 0xFFFFFFFFFFFFFFFFFFFFFFFFFFFFFFFFFFFFFFFF AND DUP4 PUSH20 0xFFFFFFFFFFFFFFFFFFFFFFFFFFFFFFFFFFFFFFFF AND PUSH32 0xDDF252AD1BE2C89B69C2B068FC378DAA952BA7F163C4A11628F55A4DF523B3EF DUP4 PUSH1 0x40 MLOAD PUSH3 0x598 SWAP2 SWAP1 PUSH3 0xC81 JUMP JUMPDEST PUSH1 0x40 MLOAD DUP1 SWAP2 SUB SWAP1 LOG3 POP POP POP JUMP JUMPDEST PUSH0 PUSH1 0x80 MLOAD SWAP1 POP SWAP1 JUMP JUMPDEST PUSH0 PUSH1 0x2 SLOAD SWAP1 POP SWAP1 JUMP JUMPDEST PUSH32 0x4E487B7100000000000000000000000000000000000000000000000000000000 PUSH0 MSTORE PUSH1 0x11 PUSH1 0x4 MSTORE PUSH1 0x24 PUSH0 REVERT JUMPDEST PUSH0 DUP2 PUSH1 0x1 SHR SWAP1 POP SWAP2 SWAP1 POP JUMP JUMPDEST PUSH0 DUP1 DUP3 SWAP2 POP DUP4 SWAP1 POP JUMPDEST PUSH1 0x1 DUP6 GT ISZERO PUSH3 0x641 JUMPI DUP1 DUP7 DIV DUP2 GT ISZERO PUSH3 0x619 JUMPI PUSH3 0x618 PUSH3 0x5B7 JUMP JUMPDEST JUMPDEST PUSH1 0x1 DUP6 AND ISZERO PUSH3 0x629 JUMPI DUP1 DUP3 MUL SWAP2 POP JUMPDEST DUP1 DUP2 MUL SWAP1 POP PUSH3 0x639 DUP6 PUSH3 0x5E4 JUMP JUMPDEST SWAP5 POP PUSH3 0x5F9 JUMP JUMPDEST SWAP5 POP SWAP5 SWAP3 POP POP POP JUMP JUMPDEST PUSH0 DUP3 PUSH3 0x65B JUMPI PUSH1 0x1 SWAP1 POP PUSH3 0x72D JUMP JUMPDEST DUP2 PUSH3 0x66A JUMPI PUSH0 SWAP1 POP PUSH3 0x72D JUMP JUMPDEST DUP2 PUSH1 0x1 DUP2 EQ PUSH3 0x683 JUMPI PUSH1 0x2 DUP2 EQ PUSH3 0x68E JUMPI PUSH3 0x6C4 JUMP JUMPDEST PUSH1 0x1 SWAP2 POP POP PUSH3 0x72D JUMP JUMPDEST PUSH1 0xFF DUP5 GT ISZERO PUSH3 0x6A3 JUMPI PUSH3 0x6A2 PUSH3 0x5B7 JUMP JUMPDEST JUMPDEST DUP4 PUSH1 0x2 EXP SWAP2 POP DUP5 DUP3 GT ISZERO PUSH3 0x6BD JUMPI PUSH3 0x6BC PUSH3 0x5B7 JUMP JUMPDEST JUMPDEST POP PUSH3 0x72D JUMP JUMPDEST POP PUSH1 0x20 DUP4 LT PUSH2 0x133 DUP4 LT AND PUSH1 0x4E DUP5 LT PUSH1 0xB DUP5 LT AND OR ISZERO PUSH3 0x6FE JUMPI DUP3 DUP3 EXP SWAP1 POP DUP4 DUP2 GT ISZERO PUSH3 0x6F8 JUMPI PUSH3 0x6F7 PUSH3 0x5B7 JUMP JUMPDEST JUMPDEST PUSH3 0x72D JUMP JUMPDEST PUSH3 0x70D DUP5 DUP5 DUP5 PUSH1 0x1 PUSH3 0x5F0 JUMP JUMPDEST SWAP3 POP SWAP1 POP DUP2 DUP5 DIV DUP2 GT ISZERO PUSH3 0x727 JUMPI PUSH3 0x726 PUSH3 0x5B7 JUMP JUMPDEST JUMPDEST DUP2 DUP2 MUL SWAP1 POP JUMPDEST SWAP4 SWAP3 POP POP POP JUMP JUMPDEST PUSH0 DUP2 SWAP1 POP SWAP2 SWAP1 POP JUMP JUMPDEST PUSH0 PUSH3 0x749 DUP3 PUSH3 0x734 JUMP JUMPDEST SWAP2 POP PUSH3 0x756 DUP4 PUSH3 0x734 JUMP JUMPDEST SWAP3 POP PUSH3 0x785 PUSH32 0xFFFFFFFFFFFFFFFFFFFFFFFFFFFFFFFFFFFFFFFFFFFFFFFFFFFFFFFFFFFFFFFF DUP5 DUP5 PUSH3 0x64A JUMP JUMPDEST SWAP1 POP SWAP3 SWAP2 POP POP JUMP JUMPDEST PUSH0 PUSH3 0x799 DUP3 PUSH3 0x734 JUMP JUMPDEST SWAP2 POP PUSH3 0x7A6 DUP4 PUSH3 0x734 JUMP JUMPDEST SWAP3 POP DUP3 DUP3 MUL PUSH3 0x7B6 DUP2 PUSH3 0x734 JUMP JUMPDEST SWAP2 POP DUP3 DUP3 DIV DUP5 EQ DUP4 ISZERO OR PUSH3 0x7D0 JUMPI PUSH3 0x7CF PUSH3 0x5B7 JUMP JUMPDEST JUMPDEST POP SWAP3 SWAP2 POP POP JUMP JUMPDEST PUSH0 DUP2 MLOAD SWAP1 POP SWAP2 SWAP1 POP JUMP JUMPDEST PUSH32 0x4E487B7100000000000000000000000000000000000000000000000000000000 PUSH0 MSTORE PUSH1 0x41 PUSH1 0x4 MSTORE PUSH1 0x24 PUSH0 REVERT JUMPDEST PUSH32 0x4E487B7100000000000000000000000000000000000000000000000000000000 PUSH0 MSTORE PUSH1 0x22 PUSH1 0x4 MSTORE PUSH1 0x24 PUSH0 REVERT JUMPDEST PUSH0 PUSH1 0x2 DUP3 DIV SWAP1 POP PUSH1 0x1 DUP3 AND DUP1 PUSH3 0x853 JUMPI PUSH1 0x7F DUP3 AND SWAP2 POP JUMPDEST PUSH1 0x20 DUP3 LT DUP2 SUB PUSH3 0x869 JUMPI PUSH3 0x868 PUSH3 0x80E JUMP JUMPDEST JUMPDEST POP SWAP2 SWAP1 POP JUMP JUMPDEST PUSH0 DUP2 SWAP1 POP DUP2 PUSH0 MSTORE PUSH1 0x20 PUSH0 KECCAK256 SWAP1 POP SWAP2 SWAP1 POP JUMP JUMPDEST PUSH0 PUSH1 0x20 PUSH1 0x1F DUP4 ADD DIV SWAP1 POP SWAP2 SWAP1 POP JUMP JUMPDEST PUSH0 DUP3 DUP3 SHL SWAP1 POP SWAP3 SWAP2 POP POP JUMP JUMPDEST PUSH0 PUSH1 0x8 DUP4 MUL PUSH3 0x8CD PUSH32 0xFFFFFFFFFFFFFFFFFFFFFFFFFFFFFFFFFFFFFFFFFFFFFFFFFFFFFFFFFFFFFFFF DUP3 PUSH3 0x890 JUMP JUMPDEST PUSH3 0x8D9 DUP7 DUP4 PUSH3 0x890 JUMP JUMPDEST SWAP6 POP DUP1 NOT DUP5 AND SWAP4 POP DUP1 DUP7 AND DUP5 OR SWAP3 POP POP POP SWAP4 SWAP3 POP POP POP JUMP JUMPDEST PUSH0 DUP2 SWAP1 POP SWAP2 SWAP1 POP JUMP JUMPDEST PUSH0 PUSH3 0x91A PUSH3 0x914 PUSH3 0x90E DUP5 PUSH3 0x734 JUMP JUMPDEST PUSH3 0x8F1 JUMP JUMPDEST PUSH3 0x734 JUMP JUMPDEST SWAP1 POP SWAP2 SWAP1 POP JUMP JUMPDEST PUSH0 DUP2 SWAP1 POP SWAP2 SWAP1 POP JUMP JUMPDEST PUSH3 0x935 DUP4 PUSH3 0x8FA JUMP JUMPDEST PUSH3 0x94D PUSH3 0x944 DUP3 PUSH3 0x921 JUMP JUMPDEST DUP5 DUP5 SLOAD PUSH3 0x89C JUMP JUMPDEST DUP3 SSTORE POP POP POP POP JUMP JUMPDEST PUSH0 SWAP1 JUMP JUMPDEST PUSH3 0x963 PUSH3 0x955 JUMP JUMPDEST PUSH3 0x970 DUP2 DUP5 DUP5 PUSH3 0x92A JUMP JUMPDEST POP POP POP JUMP JUMPDEST JUMPDEST DUP2 DUP2 LT ISZERO PUSH3 0x997 JUMPI PUSH3 0x98B PUSH0 DUP3 PUSH3 0x959 JUMP JUMPDEST PUSH1 0x1 DUP2 ADD SWAP1 POP PUSH3 0x976 JUMP JUMPDEST POP POP JUMP JUMPDEST PUSH1 0x1F DUP3 GT ISZERO PUSH3 0x9E6 JUMPI PUSH3 0x9B0 DUP2 PUSH3 0x86F JUMP JUMPDEST PUSH3 0x9BB DUP5 PUSH3 0x881 JUMP JUMPDEST DUP2 ADD PUSH1 0x20 DUP6 LT ISZERO PUSH3 0x9CB JUMPI DUP2 SWAP1 POP JUMPDEST PUSH3 0x9E3 PUSH3 0x9DA DUP6 PUSH3 0x881 JUMP JUMPDEST DUP4 ADD DUP3 PUSH3 0x975 JUMP JUMPDEST POP POP JUMPDEST POP POP POP JUMP JUMPDEST PUSH0 DUP3 DUP3 SHR SWAP1 POP SWAP3 SWAP2 POP POP JUMP JUMPDEST PUSH0 PUSH3 0xA08 PUSH0 NOT DUP5 PUSH1 0x8 MUL PUSH3 0x9EB JUMP JUMPDEST NOT DUP1 DUP4 AND SWAP2 POP POP SWAP3 SWAP2 POP POP JUMP JUMPDEST PUSH0 PUSH3 0xA22 DUP4 DUP4 PUSH3 0x9F7 JUMP JUMPDEST SWAP2 POP DUP3 PUSH1 0x2 MUL DUP3 OR SWAP1 POP SWAP3 SWAP2 POP POP JUMP JUMPDEST PUSH3 0xA3D DUP3 PUSH3 0x7D7 JUMP JUMPDEST PUSH8 0xFFFFFFFFFFFFFFFF DUP2 GT ISZERO PUSH3 0xA59 JUMPI PUSH3 0xA58 PUSH3 0x7E1 JUMP JUMPDEST JUMPDEST PUSH3 0xA65 DUP3 SLOAD PUSH3 0x83B JUMP JUMPDEST PUSH3 0xA72 DUP3 DUP3 DUP6 PUSH3 0x99B JUMP JUMPDEST PUSH0 PUSH1 0x20 SWAP1 POP PUSH1 0x1F DUP4 GT PUSH1 0x1 DUP2 EQ PUSH3 0xAA8 JUMPI PUSH0 DUP5 ISZERO PUSH3 0xA93 JUMPI DUP3 DUP8 ADD MLOAD SWAP1 POP JUMPDEST PUSH3 0xA9F DUP6 DUP3 PUSH3 0xA15 JUMP JUMPDEST DUP7 SSTORE POP PUSH3 0xB0E JUMP JUMPDEST PUSH1 0x1F NOT DUP5 AND PUSH3 0xAB8 DUP7 PUSH3 0x86F JUMP JUMPDEST PUSH0 JUMPDEST DUP3 DUP2 LT ISZERO PUSH3 0xAE1 JUMPI DUP5 DUP10 ADD MLOAD DUP3 SSTORE PUSH1 0x1 DUP3 ADD SWAP2 POP PUSH1 0x20 DUP6 ADD SWAP5 POP PUSH1 0x20 DUP2 ADD SWAP1 POP PUSH3 0xABA JUMP JUMPDEST DUP7 DUP4 LT ISZERO PUSH3 0xB01 JUMPI DUP5 DUP10 ADD MLOAD PUSH3 0xAFD PUSH1 0x1F DUP10 AND DUP3 PUSH3 0x9F7 JUMP JUMPDEST DUP4 SSTORE POP JUMPDEST PUSH1 0x1 PUSH1 0x2 DUP9 MUL ADD DUP9 SSTORE POP POP POP JUMPDEST POP POP POP POP POP POP JUMP JUMPDEST PUSH0 DUP2 SWAP1 POP SWAP2 SWAP1 POP JUMP JUMPDEST PUSH0 PUSH3 0xB3F PUSH3 0xB39 PUSH3 0xB33 DUP5 PUSH3 0xB16 JUMP JUMPDEST PUSH3 0x8F1 JUMP JUMPDEST PUSH3 0x734 JUMP JUMPDEST SWAP1 POP SWAP2 SWAP1 POP JUMP JUMPDEST PUSH3 0xB51 DUP2 PUSH3 0xB1F JUMP JUMPDEST DUP3 MSTORE POP POP JUMP JUMPDEST PUSH0 PUSH1 0x20 DUP3 ADD SWAP1 POP PUSH3 0xB6C PUSH0 DUP4 ADD DUP5 PUSH3 0xB46 JUMP JUMPDEST SWAP3 SWAP2 POP POP JUMP JUMPDEST PUSH0 PUSH20 0xFFFFFFFFFFFFFFFFFFFFFFFFFFFFFFFFFFFFFFFF DUP3 AND SWAP1 POP SWAP2 SWAP1 POP JUMP JUMPDEST PUSH0 PUSH3 0xB9D DUP3 PUSH3 0xB72 JUMP JUMPDEST SWAP1 POP SWAP2 SWAP1 POP JUMP JUMPDEST PUSH3 0xBAF DUP2 PUSH3 0xB91 JUMP JUMPDEST DUP3 MSTORE POP POP JUMP JUMPDEST PUSH0 PUSH1 0x20 DUP3 ADD SWAP1 POP PUSH3 0xBCA PUSH0 DUP4 ADD DUP5 PUSH3 0xBA4 JUMP JUMPDEST SWAP3 SWAP2 POP POP JUMP JUMPDEST PUSH3 0xBDB DUP2 PUSH3 0x734 JUMP JUMPDEST DUP3 MSTORE POP POP JUMP JUMPDEST PUSH0 PUSH1 0x40 DUP3 ADD SWAP1 POP PUSH3 0xBF6 PUSH0 DUP4 ADD DUP6 PUSH3 0xBD0 JUMP JUMPDEST PUSH3 0xC05 PUSH1 0x20 DUP4 ADD DUP5 PUSH3 0xBD0 JUMP JUMPDEST SWAP4 SWAP3 POP POP POP JUMP JUMPDEST PUSH0 PUSH3 0xC18 DUP3 PUSH3 0x734 JUMP JUMPDEST SWAP2 POP PUSH3 0xC25 DUP4 PUSH3 0x734 JUMP JUMPDEST SWAP3 POP DUP3 DUP3 ADD SWAP1 POP DUP1 DUP3 GT ISZERO PUSH3 0xC40 JUMPI PUSH3 0xC3F PUSH3 0x5B7 JUMP JUMPDEST JUMPDEST SWAP3 SWAP2 POP POP JUMP JUMPDEST PUSH0 PUSH1 0x60 DUP3 ADD SWAP1 POP PUSH3 0xC5B PUSH0 DUP4 ADD DUP7 PUSH3 0xBA4 JUMP JUMPDEST PUSH3 0xC6A PUSH1 0x20 DUP4 ADD DUP6 PUSH3 0xBD0 JUMP JUMPDEST PUSH3 0xC79 PUSH1 0x40 DUP4 ADD DUP5 PUSH3 0xBD0 JUMP JUMPDEST SWAP5 SWAP4 POP POP POP POP JUMP JUMPDEST PUSH0 PUSH1 0x20 DUP3 ADD SWAP1 POP PUSH3 0xC96 PUSH0 DUP4 ADD DUP5 PUSH3 0xBD0 JUMP JUMPDEST SWAP3 SWAP2 POP POP JUMP JUMPDEST PUSH1 0x80 MLOAD PUSH2 0x1B89 PUSH3 0xCB5 PUSH0 CODECOPY PUSH0 PUSH2 0x644 ADD MSTORE PUSH2 0x1B89 PUSH0 RETURN INVALID PUSH1 0x80 PUSH1 0x40 MSTORE PUSH1 0x4 CALLDATASIZE LT PUSH2 0xFD JUMPI PUSH0 CALLDATALOAD PUSH1 0xE0 SHR DUP1 PUSH4 0x655AB927 GT PUSH2 0x94 JUMPI DUP1 PUSH4 0xA9059CBB GT PUSH2 0x63 JUMPI DUP1 PUSH4 0xA9059CBB EQ PUSH2 0x2F9 JUMPI DUP1 PUSH4 0xC0E3DAF5 EQ PUSH2 0x335 JUMPI DUP1 PUSH4 0xCE606EE0 EQ PUSH2 0x35F JUMPI DUP1 PUSH4 0xDD62ED3E EQ PUSH2 0x389 JUMPI DUP1 PUSH4 0xEA6ECB08 EQ PUSH2 0x3C5 JUMPI PUSH2 0xFD JUMP JUMPDEST DUP1 PUSH4 0x655AB927 EQ PUSH2 0x255 JUMPI DUP1 PUSH4 0x6A73BF53 EQ PUSH2 0x26B JUMPI DUP1 PUSH4 0x70A08231 EQ PUSH2 0x293 JUMPI DUP1 PUSH4 0x95D89B41 EQ PUSH2 0x2CF JUMPI PUSH2 0xFD JUMP JUMPDEST DUP1 PUSH4 0x23B872DD GT PUSH2 0xD0 JUMPI DUP1 PUSH4 0x23B872DD EQ PUSH2 0x19B JUMPI DUP1 PUSH4 0x2BC67DA0 EQ PUSH2 0x1D7 JUMPI DUP1 PUSH4 0x313CE567 EQ PUSH2 0x201 JUMPI DUP1 PUSH4 0x355274EA EQ PUSH2 0x22B JUMPI PUSH2 0xFD JUMP JUMPDEST DUP1 PUSH4 0x6ED6908 EQ PUSH2 0x101 JUMPI DUP1 PUSH4 0x6FDDE03 EQ PUSH2 0x10B JUMPI DUP1 PUSH4 0x95EA7B3 EQ PUSH2 0x135 JUMPI DUP1 PUSH4 0x18160DDD EQ PUSH2 0x171 JUMPI JUMPDEST PUSH0 DUP1 REVERT JUMPDEST PUSH2 0x109 PUSH2 0x3EF JUMP JUMPDEST STOP JUMPDEST CALLVALUE DUP1 ISZERO PUSH2 0x116 JUMPI PUSH0 DUP1 REVERT JUMPDEST POP PUSH2 0x11F PUSH2 0x54A JUMP JUMPDEST PUSH1 0x40 MLOAD PUSH2 0x12C SWAP2 SWAP1 PUSH2 0x1210 JUMP JUMPDEST PUSH1 0x40 MLOAD DUP1 SWAP2 SUB SWAP1 RETURN JUMPDEST CALLVALUE DUP1 ISZERO PUSH2 0x140 JUMPI PUSH0 DUP1 REVERT JUMPDEST POP PUSH2 0x15B PUSH1 0x4 DUP1 CALLDATASIZE SUB DUP2 ADD SWAP1 PUSH2 0x156 SWAP2 SWAP1 PUSH2 0x12C1 JUMP JUMPDEST PUSH2 0x5DA JUMP JUMPDEST PUSH1 0x40 MLOAD PUSH2 0x168 SWAP2 SWAP1 PUSH2 0x1319 JUMP JUMPDEST PUSH1 0x40 MLOAD DUP1 SWAP2 SUB SWAP1 RETURN JUMPDEST CALLVALUE DUP1 ISZERO PUSH2 0x17C JUMPI PUSH0 DUP1 REVERT JUMPDEST POP PUSH2 0x185 PUSH2 0x5FC JUMP JUMPDEST PUSH1 0x40 MLOAD PUSH2 0x192 SWAP2 SWAP1 PUSH2 0x1341 JUMP JUMPDEST PUSH1 0x40 MLOAD DUP1 SWAP2 SUB SWAP1 RETURN JUMPDEST CALLVALUE DUP1 ISZERO PUSH2 0x1A6 JUMPI PUSH0 DUP1 REVERT JUMPDEST POP PUSH2 0x1C1 PUSH1 0x4 DUP1 CALLDATASIZE SUB DUP2 ADD SWAP1 PUSH2 0x1BC SWAP2 SWAP1 PUSH2 0x135A JUMP JUMPDEST PUSH2 0x605 JUMP JUMPDEST PUSH1 0x40 MLOAD PUSH2 0x1CE SWAP2 SWAP1 PUSH2 0x1319 JUMP JUMPDEST PUSH1 0x40 MLOAD DUP1 SWAP2 SUB SWAP1 RETURN JUMPDEST CALLVALUE DUP1 ISZERO PUSH2 0x1E2 JUMPI PUSH0 DUP1 REVERT JUMPDEST POP PUSH2 0x1EB PUSH2 0x633 JUMP JUMPDEST PUSH1 0x40 MLOAD PUSH2 0x1F8 SWAP2 SWAP1 PUSH2 0x1341 JUMP JUMPDEST PUSH1 0x40 MLOAD DUP1 SWAP2 SUB SWAP1 RETURN JUMPDEST CALLVALUE DUP1 ISZERO PUSH2 0x20C JUMPI PUSH0 DUP1 REVERT JUMPDEST POP PUSH2 0x215 PUSH2 0x639 JUMP JUMPDEST PUSH1 0x40 MLOAD PUSH2 0x222 SWAP2 SWAP1 PUSH2 0x13C5 JUMP JUMPDEST PUSH1 0x40 MLOAD DUP1 SWAP2 SUB SWAP1 RETURN JUMPDEST CALLVALUE DUP1 ISZERO PUSH2 0x236 JUMPI PUSH0 DUP1 REVERT JUMPDEST POP PUSH2 0x23F PUSH2 0x641 JUMP JUMPDEST PUSH1 0x40 MLOAD PUSH2 0x24C SWAP2 SWAP1 PUSH2 0x1341 JUMP JUMPDEST PUSH1 0x40 MLOAD DUP1 SWAP2 SUB SWAP1 RETURN JUMPDEST CALLVALUE DUP1 ISZERO PUSH2 0x260 JUMPI PUSH0 DUP1 REVERT JUMPDEST POP PUSH2 0x269 PUSH2 0x668 JUMP JUMPDEST STOP JUMPDEST CALLVALUE DUP1 ISZERO PUSH2 0x276 JUMPI PUSH0 DUP1 REVERT JUMPDEST POP PUSH2 0x291 PUSH1 0x4 DUP1 CALLDATASIZE SUB DUP2 ADD SWAP1 PUSH2 0x28C SWAP2 SWAP1 PUSH2 0x13DE JUMP JUMPDEST PUSH2 0x79C JUMP JUMPDEST STOP JUMPDEST CALLVALUE DUP1 ISZERO PUSH2 0x29E JUMPI PUSH0 DUP1 REVERT JUMPDEST POP PUSH2 0x2B9 PUSH1 0x4 DUP1 CALLDATASIZE SUB DUP2 ADD SWAP1 PUSH2 0x2B4 SWAP2 SWAP1 PUSH2 0x1409 JUMP JUMPDEST PUSH2 0x877 JUMP JUMPDEST PUSH1 0x40 MLOAD PUSH2 0x2C6 SWAP2 SWAP1 PUSH2 0x1341 JUMP JUMPDEST PUSH1 0x40 MLOAD DUP1 SWAP2 SUB SWAP1 RETURN JUMPDEST CALLVALUE DUP1 ISZERO PUSH2 0x2DA JUMPI PUSH0 DUP1 REVERT JUMPDEST POP PUSH2 0x2E3 PUSH2 0x8BC JUMP JUMPDEST PUSH1 0x40 MLOAD PUSH2 0x2F0 SWAP2 SWAP1 PUSH2 0x1210 JUMP JUMPDEST PUSH1 0x40 MLOAD DUP1 SWAP2 SUB SWAP1 RETURN JUMPDEST CALLVALUE DUP1 ISZERO PUSH2 0x304 JUMPI PUSH0 DUP1 REVERT JUMPDEST POP PUSH2 0x31F PUSH1 0x4 DUP1 CALLDATASIZE SUB DUP2 ADD SWAP1 PUSH2 0x31A SWAP2 SWAP1 PUSH2 0x12C1 JUMP JUMPDEST PUSH2 0x94C JUMP JUMPDEST PUSH1 0x40 MLOAD PUSH2 0x32C SWAP2 SWAP1 PUSH2 0x1319 JUMP JUMPDEST PUSH1 0x40 MLOAD DUP1 SWAP2 SUB SWAP1 RETURN JUMPDEST CALLVALUE DUP1 ISZERO PUSH2 0x340 JUMPI PUSH0 DUP1 REVERT JUMPDEST POP PUSH2 0x349 PUSH2 0x96E JUMP JUMPDEST PUSH1 0x40 MLOAD PUSH2 0x356 SWAP2 SWAP1 PUSH2 0x1341 JUMP JUMPDEST PUSH1 0x40 MLOAD DUP1 SWAP2 SUB SWAP1 RETURN JUMPDEST CALLVALUE DUP1 ISZERO PUSH2 0x36A JUMPI PUSH0 DUP1 REVERT JUMPDEST POP PUSH2 0x373 PUSH2 0x98F JUMP JUMPDEST PUSH1 0x40 MLOAD PUSH2 0x380 SWAP2 SWAP1 PUSH2 0x1443 JUMP JUMPDEST PUSH1 0x40 MLOAD DUP1 SWAP2 SUB SWAP1 RETURN JUMPDEST CALLVALUE DUP1 ISZERO PUSH2 0x394 JUMPI PUSH0 DUP1 REVERT JUMPDEST POP PUSH2 0x3AF PUSH1 0x4 DUP1 CALLDATASIZE SUB DUP2 ADD SWAP1 PUSH2 0x3AA SWAP2 SWAP1 PUSH2 0x145C JUMP JUMPDEST PUSH2 0x9B4 JUMP JUMPDEST PUSH1 0x40 MLOAD PUSH2 0x3BC SWAP2 SWAP1 PUSH2 0x1341 JUMP JUMPDEST PUSH1 0x40 MLOAD DUP1 SWAP2 SUB SWAP1 RETURN JUMPDEST CALLVALUE DUP1 ISZERO PUSH2 0x3D0 JUMPI PUSH0 DUP1 REVERT JUMPDEST POP PUSH2 0x3D9 PUSH2 0xA36 JUMP JUMPDEST PUSH1 0x40 MLOAD PUSH2 0x3E6 SWAP2 SWAP1 PUSH2 0x14B2 JUMP JUMPDEST PUSH1 0x40 MLOAD DUP1 SWAP2 SUB SWAP1 RETURN JUMPDEST PUSH0 CALLVALUE SUB PUSH2 0x431 JUMPI PUSH1 0x40 MLOAD PUSH32 0x8C379A000000000000000000000000000000000000000000000000000000000 DUP2 MSTORE PUSH1 0x4 ADD PUSH2 0x428 SWAP1 PUSH2 0x153B JUMP JUMPDEST PUSH1 0x40 MLOAD DUP1 SWAP2 SUB SWAP1 REVERT JUMPDEST PUSH0 PUSH2 0x43A PUSH2 0x96E JUMP JUMPDEST PUSH2 0x442 PUSH2 0x639 JUMP JUMPDEST PUSH1 0xFF AND PUSH1 0xA PUSH2 0x451 SWAP2 SWAP1 PUSH2 0x16B5 JUMP JUMPDEST CALLVALUE PUSH2 0x45C SWAP2 SWAP1 PUSH2 0x16FF JUMP JUMPDEST PUSH2 0x466 SWAP2 SWAP1 PUSH2 0x176D JUMP JUMPDEST SWAP1 POP PUSH2 0x470 PUSH2 0x639 JUMP JUMPDEST PUSH1 0xFF AND PUSH1 0xA PUSH2 0x47F SWAP2 SWAP1 PUSH2 0x16B5 JUMP JUMPDEST PUSH1 0x8 SLOAD PUSH2 0x48C SWAP2 SWAP1 PUSH2 0x16FF JUMP JUMPDEST DUP2 PUSH2 0x496 CALLER PUSH2 0x877 JUMP JUMPDEST PUSH2 0x4A0 SWAP2 SWAP1 PUSH2 0x179D JUMP JUMPDEST GT ISZERO PUSH2 0x4E1 JUMPI PUSH1 0x40 MLOAD PUSH32 0x8C379A000000000000000000000000000000000000000000000000000000000 DUP2 MSTORE PUSH1 0x4 ADD PUSH2 0x4D8 SWAP1 PUSH2 0x1840 JUMP JUMPDEST PUSH1 0x40 MLOAD DUP1 SWAP2 SUB SWAP1 REVERT JUMPDEST PUSH2 0x4EB CALLER DUP3 PUSH2 0xAE1 JUMP JUMPDEST CALLER PUSH20 0xFFFFFFFFFFFFFFFFFFFFFFFFFFFFFFFFFFFFFFFF AND PUSH32 0x34987D73948B60CFBA9BEEB35760C345A3BE430F3540605113911EAD78A0830E DUP3 CALLVALUE TIMESTAMP PUSH2 0x52F CALLER PUSH2 0x877 JUMP JUMPDEST PUSH1 0x40 MLOAD PUSH2 0x53F SWAP5 SWAP4 SWAP3 SWAP2 SWAP1 PUSH2 0x185E JUMP JUMPDEST PUSH1 0x40 MLOAD DUP1 SWAP2 SUB SWAP1 LOG2 POP JUMP JUMPDEST PUSH1 0x60 PUSH1 0x3 DUP1 SLOAD PUSH2 0x559 SWAP1 PUSH2 0x18CE JUMP JUMPDEST DUP1 PUSH1 0x1F ADD PUSH1 0x20 DUP1 SWAP2 DIV MUL PUSH1 0x20 ADD PUSH1 0x40 MLOAD SWAP1 DUP2 ADD PUSH1 0x40 MSTORE DUP1 SWAP3 SWAP2 SWAP1 DUP2 DUP2 MSTORE PUSH1 0x20 ADD DUP3 DUP1 SLOAD PUSH2 0x585 SWAP1 PUSH2 0x18CE JUMP JUMPDEST DUP1 ISZERO PUSH2 0x5D0 JUMPI DUP1 PUSH1 0x1F LT PUSH2 0x5A7 JUMPI PUSH2 0x100 DUP1 DUP4 SLOAD DIV MUL DUP4 MSTORE SWAP2 PUSH1 0x20 ADD SWAP2 PUSH2 0x5D0 JUMP JUMPDEST DUP3 ADD SWAP2 SWAP1 PUSH0 MSTORE PUSH1 0x20 PUSH0 KECCAK256 SWAP1 JUMPDEST DUP2 SLOAD DUP2 MSTORE SWAP1 PUSH1 0x1 ADD SWAP1 PUSH1 0x20 ADD DUP1 DUP4 GT PUSH2 0x5B3 JUMPI DUP3 SWAP1 SUB PUSH1 0x1F AND DUP3 ADD SWAP2 JUMPDEST POP POP POP POP POP SWAP1 POP SWAP1 JUMP JUMPDEST PUSH0 DUP1 PUSH2 0x5E4 PUSH2 0xB60 JUMP JUMPDEST SWAP1 POP PUSH2 0x5F1 DUP2 DUP6 DUP6 PUSH2 0xB67 JUMP JUMPDEST PUSH1 0x1 SWAP2 POP POP SWAP3 SWAP2 POP POP JUMP JUMPDEST PUSH0 PUSH1 0x2 SLOAD SWAP1 POP SWAP1 JUMP JUMPDEST PUSH0 DUP1 PUSH2 0x60F PUSH2 0xB60 JUMP JUMPDEST SWAP1 POP PUSH2 0x61C DUP6 DUP3 DUP6 PUSH2 0xB79 JUMP JUMPDEST PUSH2 0x627 DUP6 DUP6 DUP6 PUSH2 0xC0B JUMP JUMPDEST PUSH1 0x1 SWAP2 POP POP SWAP4 SWAP3 POP POP POP JUMP JUMPDEST PUSH1 0x8 SLOAD DUP2 JUMP JUMPDEST PUSH0 PUSH1 0x12 SWAP1 POP SWAP1 JUMP JUMPDEST PUSH0 PUSH32 0x0 SWAP1 POP SWAP1 JUMP JUMPDEST PUSH1 0x6 PUSH0 SWAP1 SLOAD SWAP1 PUSH2 0x100 EXP SWAP1 DIV PUSH20 0xFFFFFFFFFFFFFFFFFFFFFFFFFFFFFFFFFFFFFFFF AND PUSH20 0xFFFFFFFFFFFFFFFFFFFFFFFFFFFFFFFFFFFFFFFF AND CALLER PUSH20 0xFFFFFFFFFFFFFFFFFFFFFFFFFFFFFFFFFFFFFFFF AND EQ PUSH2 0x6F7 JUMPI PUSH1 0x40 MLOAD PUSH32 0x8C379A000000000000000000000000000000000000000000000000000000000 DUP2 MSTORE PUSH1 0x4 ADD PUSH2 0x6EE SWAP1 PUSH2 0x1948 JUMP JUMPDEST PUSH1 0x40 MLOAD DUP1 SWAP2 SUB SWAP1 REVERT JUMPDEST PUSH0 SELFBALANCE SWAP1 POP PUSH1 0x6 PUSH0 SWAP1 SLOAD SWAP1 PUSH2 0x100 EXP SWAP1 DIV PUSH20 0xFFFFFFFFFFFFFFFFFFFFFFFFFFFFFFFFFFFFFFFF AND PUSH20 0xFFFFFFFFFFFFFFFFFFFFFFFFFFFFFFFFFFFFFFFF AND PUSH2 0x8FC DUP3 SWAP1 DUP2 ISZERO MUL SWAP1 PUSH1 0x40 MLOAD PUSH0 PUSH1 0x40 MLOAD DUP1 DUP4 SUB DUP2 DUP6 DUP9 DUP9 CALL SWAP4 POP POP POP POP ISZERO DUP1 ISZERO PUSH2 0x75F JUMPI RETURNDATASIZE PUSH0 DUP1 RETURNDATACOPY RETURNDATASIZE PUSH0 REVERT JUMPDEST POP PUSH32 0xF39EDBEB800007582021719F876F29EB42AA5171248E3DF79A3BF120A4E91416 DUP2 TIMESTAMP PUSH1 0x40 MLOAD PUSH2 0x791 SWAP3 SWAP2 SWAP1 PUSH2 0x1966 JUMP JUMPDEST PUSH1 0x40 MLOAD DUP1 SWAP2 SUB SWAP1 LOG1 POP JUMP JUMPDEST PUSH1 0x6 PUSH0 SWAP1 SLOAD SWAP1 PUSH2 0x100 EXP SWAP1 DIV PUSH20 0xFFFFFFFFFFFFFFFFFFFFFFFFFFFFFFFFFFFFFFFF AND PUSH20 0xFFFFFFFFFFFFFFFFFFFFFFFFFFFFFFFFFFFFFFFF AND CALLER PUSH20 0xFFFFFFFFFFFFFFFFFFFFFFFFFFFFFFFFFFFFFFFF AND EQ PUSH2 0x82B JUMPI PUSH1 0x40 MLOAD PUSH32 0x8C379A000000000000000000000000000000000000000000000000000000000 DUP2 MSTORE PUSH1 0x4 ADD PUSH2 0x822 SWAP1 PUSH2 0x1948 JUMP JUMPDEST PUSH1 0x40 MLOAD DUP1 SWAP2 SUB SWAP1 REVERT JUMPDEST PUSH0 PUSH1 0x8 SLOAD SWAP1 POP DUP2 PUSH1 0x8 DUP2 SWAP1 SSTORE POP PUSH32 0x4C2D858A88357E20C1B14C12B9674497934A744BB8118D4D3F2DCE8DED4989BE DUP2 DUP4 TIMESTAMP PUSH1 0x40 MLOAD PUSH2 0x86B SWAP4 SWAP3 SWAP2 SWAP1 PUSH2 0x198D JUMP JUMPDEST PUSH1 0x40 MLOAD DUP1 SWAP2 SUB SWAP1 LOG1 POP POP JUMP JUMPDEST PUSH0 DUP1 PUSH0 DUP4 PUSH20 0xFFFFFFFFFFFFFFFFFFFFFFFFFFFFFFFFFFFFFFFF AND PUSH20 0xFFFFFFFFFFFFFFFFFFFFFFFFFFFFFFFFFFFFFFFF AND DUP2 MSTORE PUSH1 0x20 ADD SWAP1 DUP2 MSTORE PUSH1 0x20 ADD PUSH0 KECCAK256 SLOAD SWAP1 POP SWAP2 SWAP1 POP JUMP JUMPDEST PUSH1 0x60 PUSH1 0x4 DUP1 SLOAD PUSH2 0x8CB SWAP1 PUSH2 0x18CE JUMP JUMPDEST DUP1 PUSH1 0x1F ADD PUSH1 0x20 DUP1 SWAP2 DIV MUL PUSH1 0x20 ADD PUSH1 0x40 MLOAD SWAP1 DUP2 ADD PUSH1 0x40 MSTORE DUP1 SWAP3 SWAP2 SWAP1 DUP2 DUP2 MSTORE PUSH1 0x20 ADD DUP3 DUP1 SLOAD PUSH2 0x8F7 SWAP1 PUSH2 0x18CE JUMP JUMPDEST DUP1 ISZERO PUSH2 0x942 JUMPI DUP1 PUSH1 0x1F LT PUSH2 0x919 JUMPI PUSH2 0x100 DUP1 DUP4 SLOAD DIV MUL DUP4 MSTORE SWAP2 PUSH1 0x20 ADD SWAP2 PUSH2 0x942 JUMP JUMPDEST DUP3 ADD SWAP2 SWAP1 PUSH0 MSTORE PUSH1 0x20 PUSH0 KECCAK256 SWAP1 JUMPDEST DUP2 SLOAD DUP2 MSTORE SWAP1 PUSH1 0x1 ADD SWAP1 PUSH1 0x20 ADD DUP1 DUP4 GT PUSH2 0x925 JUMPI DUP3 SWAP1 SUB PUSH1 0x1F AND DUP3 ADD SWAP2 JUMPDEST POP POP POP POP POP SWAP1 POP SWAP1 JUMP JUMPDEST PUSH0 DUP1 PUSH2 0x956 PUSH2 0xB60 JUMP JUMPDEST SWAP1 POP PUSH2 0x963 DUP2 DUP6 DUP6 PUSH2 0xC0B JUMP JUMPDEST PUSH1 0x1 SWAP2 POP POP SWAP3 SWAP2 POP POP JUMP JUMPDEST PUSH0 PUSH2 0x977 PUSH2 0xA36 JUMP JUMPDEST PUSH8 0x1BC16D674EC80000 PUSH2 0x98A SWAP2 SWAP1 PUSH2 0x176D JUMP JUMPDEST SWAP1 POP SWAP1 JUMP JUMPDEST PUSH1 0x6 PUSH0 SWAP1 SLOAD SWAP1 PUSH2 0x100 EXP SWAP1 DIV PUSH20 0xFFFFFFFFFFFFFFFFFFFFFFFFFFFFFFFFFFFFFFFF AND DUP2 JUMP JUMPDEST PUSH0 PUSH1 0x1 PUSH0 DUP5 PUSH20 0xFFFFFFFFFFFFFFFFFFFFFFFFFFFFFFFFFFFFFFFF AND PUSH20 0xFFFFFFFFFFFFFFFFFFFFFFFFFFFFFFFFFFFFFFFF AND DUP2 MSTORE PUSH1 0x20 ADD SWAP1 DUP2 MSTORE PUSH1 0x20 ADD PUSH0 KECCAK256 PUSH0 DUP4 PUSH20 0xFFFFFFFFFFFFFFFFFFFFFFFFFFFFFFFFFFFFFFFF AND PUSH20 0xFFFFFFFFFFFFFFFFFFFFFFFFFFFFFFFFFFFFFFFF AND DUP2 MSTORE PUSH1 0x20 ADD SWAP1 DUP2 MSTORE PUSH1 0x20 ADD PUSH0 KECCAK256 SLOAD SWAP1 POP SWAP3 SWAP2 POP POP JUMP JUMPDEST PUSH0 DUP1 PUSH1 0x5 PUSH0 SWAP1 SLOAD SWAP1 PUSH2 0x100 EXP SWAP1 DIV PUSH20 0xFFFFFFFFFFFFFFFFFFFFFFFFFFFFFFFFFFFFFFFF AND PUSH20 0xFFFFFFFFFFFFFFFFFFFFFFFFFFFFFFFFFFFFFFFF AND PUSH4 0xFEAF968C PUSH1 0x40 MLOAD DUP2 PUSH4 0xFFFFFFFF AND PUSH1 0xE0 SHL DUP2 MSTORE PUSH1 0x4 ADD PUSH1 0xA0 PUSH1 0x40 MLOAD DUP1 DUP4 SUB DUP2 DUP7 GAS STATICCALL ISZERO DUP1 ISZERO PUSH2 0xAA2 JUMPI RETURNDATASIZE PUSH0 DUP1 RETURNDATACOPY RETURNDATASIZE PUSH0 REVERT JUMPDEST POP POP POP POP PUSH1 0x40 MLOAD RETURNDATASIZE PUSH1 0x1F NOT PUSH1 0x1F DUP3 ADD AND DUP3 ADD DUP1 PUSH1 0x40 MSTORE POP DUP2 ADD SWAP1 PUSH2 0xAC6 SWAP2 SWAP1 PUSH2 0x1A3F JUMP JUMPDEST POP POP POP SWAP2 POP POP PUSH3 0xF4240 DUP2 PUSH2 0xADB SWAP2 SWAP1 PUSH2 0x1AB6 JUMP JUMPDEST SWAP2 POP POP SWAP1 JUMP JUMPDEST PUSH0 PUSH20 0xFFFFFFFFFFFFFFFFFFFFFFFFFFFFFFFFFFFFFFFF AND DUP3 PUSH20 0xFFFFFFFFFFFFFFFFFFFFFFFFFFFFFFFFFFFFFFFF AND SUB PUSH2 0xB51 JUMPI PUSH0 PUSH1 0x40 MLOAD PUSH32 0xEC442F0500000000000000000000000000000000000000000000000000000000 DUP2 MSTORE PUSH1 0x4 ADD PUSH2 0xB48 SWAP2 SWAP1 PUSH2 0x1443 JUMP JUMPDEST PUSH1 0x40 MLOAD DUP1 SWAP2 SUB SWAP1 REVERT JUMPDEST PUSH2 0xB5C PUSH0 DUP4 DUP4 PUSH2 0xCFB JUMP JUMPDEST POP POP JUMP JUMPDEST PUSH0 CALLER SWAP1 POP SWAP1 JUMP JUMPDEST PUSH2 0xB74 DUP4 DUP4 DUP4 PUSH1 0x1 PUSH2 0xD9E JUMP JUMPDEST POP POP POP JUMP JUMPDEST PUSH0 PUSH2 0xB84 DUP5 DUP5 PUSH2 0x9B4 JUMP JUMPDEST SWAP1 POP PUSH32 0xFFFFFFFFFFFFFFFFFFFFFFFFFFFFFFFFFFFFFFFFFFFFFFFFFFFFFFFFFFFFFFFF DUP2 EQ PUSH2 0xC05 JUMPI DUP2 DUP2 LT ISZERO PUSH2 0xBF6 JUMPI DUP3 DUP2 DUP4 PUSH1 0x40 MLOAD PUSH32 0xFB8F41B200000000000000000000000000000000000000000000000000000000 DUP2 MSTORE PUSH1 0x4 ADD PUSH2 0xBED SWAP4 SWAP3 SWAP2 SWAP1 PUSH2 0x1B1E JUMP JUMPDEST PUSH1 0x40 MLOAD DUP1 SWAP2 SUB SWAP1 REVERT JUMPDEST PUSH2 0xC04 DUP5 DUP5 DUP5 DUP5 SUB PUSH0 PUSH2 0xD9E JUMP JUMPDEST JUMPDEST POP POP POP POP JUMP JUMPDEST PUSH0 PUSH20 0xFFFFFFFFFFFFFFFFFFFFFFFFFFFFFFFFFFFFFFFF AND DUP4 PUSH20 0xFFFFFFFFFFFFFFFFFFFFFFFFFFFFFFFFFFFFFFFF AND SUB PUSH2 0xC7B JUMPI PUSH0 PUSH1 0x40 MLOAD PUSH32 0x96C6FD1E00000000000000000000000000000000000000000000000000000000 DUP2 MSTORE PUSH1 0x4 ADD PUSH2 0xC72 SWAP2 SWAP1 PUSH2 0x1443 JUMP JUMPDEST PUSH1 0x40 MLOAD DUP1 SWAP2 SUB SWAP1 REVERT JUMPDEST PUSH0 PUSH20 0xFFFFFFFFFFFFFFFFFFFFFFFFFFFFFFFFFFFFFFFF AND DUP3 PUSH20 0xFFFFFFFFFFFFFFFFFFFFFFFFFFFFFFFFFFFFFFFF AND SUB PUSH2 0xCEB JUMPI PUSH0 PUSH1 0x40 MLOAD PUSH32 0xEC442F0500000000000000000000000000000000000000000000000000000000 DUP2 MSTORE PUSH1 0x4 ADD PUSH2 0xCE2 SWAP2 SWAP1 PUSH2 0x1443 JUMP JUMPDEST PUSH1 0x40 MLOAD DUP1 SWAP2 SUB SWAP1 REVERT JUMPDEST PUSH2 0xCF6 DUP4 DUP4 DUP4 PUSH2 0xCFB JUMP JUMPDEST POP POP POP JUMP JUMPDEST PUSH2 0xD06 DUP4 DUP4 DUP4 PUSH2 0xF6D JUMP JUMPDEST PUSH0 PUSH20 0xFFFFFFFFFFFFFFFFFFFFFFFFFFFFFFFFFFFFFFFF AND DUP4 PUSH20 0xFFFFFFFFFFFFFFFFFFFFFFFFFFFFFFFFFFFFFFFF AND SUB PUSH2 0xD99 JUMPI PUSH0 PUSH2 0xD42 PUSH2 0x641 JUMP JUMPDEST SWAP1 POP PUSH0 PUSH2 0xD4D PUSH2 0x5FC JUMP JUMPDEST SWAP1 POP DUP2 DUP2 GT ISZERO PUSH2 0xD96 JUMPI DUP1 DUP3 PUSH1 0x40 MLOAD PUSH32 0x9E79F85400000000000000000000000000000000000000000000000000000000 DUP2 MSTORE PUSH1 0x4 ADD PUSH2 0xD8D SWAP3 SWAP2 SWAP1 PUSH2 0x1966 JUMP JUMPDEST PUSH1 0x40 MLOAD DUP1 SWAP2 SUB SWAP1 REVERT JUMPDEST POP POP JUMPDEST POP POP POP JUMP JUMPDEST PUSH0 PUSH20 0xFFFFFFFFFFFFFFFFFFFFFFFFFFFFFFFFFFFFFFFF AND DUP5 PUSH20 0xFFFFFFFFFFFFFFFFFFFFFFFFFFFFFFFFFFFFFFFF AND SUB PUSH2 0xE0E JUMPI PUSH0 PUSH1 0x40 MLOAD PUSH32 0xE602DF0500000000000000000000000000000000000000000000000000000000 DUP2 MSTORE PUSH1 0x4 ADD PUSH2 0xE05 SWAP2 SWAP1 PUSH2 0x1443 JUMP JUMPDEST PUSH1 0x40 MLOAD DUP1 SWAP2 SUB SWAP1 REVERT JUMPDEST PUSH0 PUSH20 0xFFFFFFFFFFFFFFFFFFFFFFFFFFFFFFFFFFFFFFFF AND DUP4 PUSH20 0xFFFFFFFFFFFFFFFFFFFFFFFFFFFFFFFFFFFFFFFF AND SUB PUSH2 0xE7E JUMPI PUSH0 PUSH1 0x40 MLOAD PUSH32 0x94280D6200000000000000000000000000000000000000000000000000000000 DUP2 MSTORE PUSH1 0x4 ADD PUSH2 0xE75 SWAP2 SWAP1 PUSH2 0x1443 JUMP JUMPDEST PUSH1 0x40 MLOAD DUP1 SWAP2 SUB SWAP1 REVERT JUMPDEST DUP2 PUSH1 0x1 PUSH0 DUP7 PUSH20 0xFFFFFFFFFFFFFFFFFFFFFFFFFFFFFFFFFFFFFFFF AND PUSH20 0xFFFFFFFFFFFFFFFFFFFFFFFFFFFFFFFFFFFFFFFF AND DUP2 MSTORE PUSH1 0x20 ADD SWAP1 DUP2 MSTORE PUSH1 0x20 ADD PUSH0 KECCAK256 PUSH0 DUP6 PUSH20 0xFFFFFFFFFFFFFFFFFFFFFFFFFFFFFFFFFFFFFFFF AND PUSH20 0xFFFFFFFFFFFFFFFFFFFFFFFFFFFFFFFFFFFFFFFF AND DUP2 MSTORE PUSH1 0x20 ADD SWAP1 DUP2 MSTORE PUSH1 0x20 ADD PUSH0 KECCAK256 DUP2 SWAP1 SSTORE POP DUP1 ISZERO PUSH2 0xF67 JUMPI DUP3 PUSH20 0xFFFFFFFFFFFFFFFFFFFFFFFFFFFFFFFFFFFFFFFF AND DUP5 PUSH20 0xFFFFFFFFFFFFFFFFFFFFFFFFFFFFFFFFFFFFFFFF AND PUSH32 0x8C5BE1E5EBEC7D5BD14F71427D1E84F3DD0314C0F7B2291E5B200AC8C7C3B925 DUP5 PUSH1 0x40 MLOAD PUSH2 0xF5E SWAP2 SWAP1 PUSH2 0x1341 JUMP JUMPDEST PUSH1 0x40 MLOAD DUP1 SWAP2 SUB SWAP1 LOG3 JUMPDEST POP POP POP POP JUMP JUMPDEST PUSH0 PUSH20 0xFFFFFFFFFFFFFFFFFFFFFFFFFFFFFFFFFFFFFFFF AND DUP4 PUSH20 0xFFFFFFFFFFFFFFFFFFFFFFFFFFFFFFFFFFFFFFFF AND SUB PUSH2 0xFBD JUMPI DUP1 PUSH1 0x2 PUSH0 DUP3 DUP3 SLOAD PUSH2 0xFB1 SWAP2 SWAP1 PUSH2 0x179D JUMP JUMPDEST SWAP3 POP POP DUP2 SWAP1 SSTORE POP PUSH2 0x108B JUMP JUMPDEST PUSH0 DUP1 PUSH0 DUP6 PUSH20 0xFFFFFFFFFFFFFFFFFFFFFFFFFFFFFFFFFFFFFFFF AND PUSH20 0xFFFFFFFFFFFFFFFFFFFFFFFFFFFFFFFFFFFFFFFF AND DUP2 MSTORE PUSH1 0x20 ADD SWAP1 DUP2 MSTORE PUSH1 0x20 ADD PUSH0 KECCAK256 SLOAD SWAP1 POP DUP2 DUP2 LT ISZERO PUSH2 0x1046 JUMPI DUP4 DUP2 DUP4 PUSH1 0x40 MLOAD PUSH32 0xE450D38C00000000000000000000000000000000000000000000000000000000 DUP2 MSTORE PUSH1 0x4 ADD PUSH2 0x103D SWAP4 SWAP3 SWAP2 SWAP1 PUSH2 0x1B1E JUMP JUMPDEST PUSH1 0x40 MLOAD DUP1 SWAP2 SUB SWAP1 REVERT JUMPDEST DUP2 DUP2 SUB PUSH0 DUP1 DUP7 PUSH20 0xFFFFFFFFFFFFFFFFFFFFFFFFFFFFFFFFFFFFFFFF AND PUSH20 0xFFFFFFFFFFFFFFFFFFFFFFFFFFFFFFFFFFFFFFFF AND DUP2 MSTORE PUSH1 0x20 ADD SWAP1 DUP2 MSTORE PUSH1 0x20 ADD PUSH0 KECCAK256 DUP2 SWAP1 SSTORE POP POP JUMPDEST PUSH0 PUSH20 0xFFFFFFFFFFFFFFFFFFFFFFFFFFFFFFFFFFFFFFFF AND DUP3 PUSH20 0xFFFFFFFFFFFFFFFFFFFFFFFFFFFFFFFFFFFFFFFF AND SUB PUSH2 0x10D2 JUMPI DUP1 PUSH1 0x2 PUSH0 DUP3 DUP3 SLOAD SUB SWAP3 POP POP DUP2 SWAP1 SSTORE POP PUSH2 0x111C JUMP JUMPDEST DUP1 PUSH0 DUP1 DUP5 PUSH20 0xFFFFFFFFFFFFFFFFFFFFFFFFFFFFFFFFFFFFFFFF AND PUSH20 0xFFFFFFFFFFFFFFFFFFFFFFFFFFFFFFFFFFFFFFFF AND DUP2 MSTORE PUSH1 0x20 ADD SWAP1 DUP2 MSTORE PUSH1 0x20 ADD PUSH0 KECCAK256 PUSH0 DUP3 DUP3 SLOAD ADD SWAP3 POP POP DUP2 SWAP1 SSTORE POP JUMPDEST DUP2 PUSH20 0xFFFFFFFFFFFFFFFFFFFFFFFFFFFFFFFFFFFFFFFF AND DUP4 PUSH20 0xFFFFFFFFFFFFFFFFFFFFFFFFFFFFFFFFFFFFFFFF AND PUSH32 0xDDF252AD1BE2C89B69C2B068FC378DAA952BA7F163C4A11628F55A4DF523B3EF DUP4 PUSH1 0x40 MLOAD PUSH2 0x1179 SWAP2 SWAP1 PUSH2 0x1341 JUMP JUMPDEST PUSH1 0x40 MLOAD DUP1 SWAP2 SUB SWAP1 LOG3 POP POP POP JUMP JUMPDEST PUSH0 DUP2 MLOAD SWAP1 POP SWAP2 SWAP1 POP JUMP JUMPDEST PUSH0 DUP3 DUP3 MSTORE PUSH1 0x20 DUP3 ADD SWAP1 POP SWAP3 SWAP2 POP POP JUMP JUMPDEST PUSH0 JUMPDEST DUP4 DUP2 LT ISZERO PUSH2 0x11BD JUMPI DUP1 DUP3 ADD MLOAD DUP2 DUP5 ADD MSTORE PUSH1 0x20 DUP2 ADD SWAP1 POP PUSH2 0x11A2 JUMP JUMPDEST PUSH0 DUP5 DUP5 ADD MSTORE POP POP POP POP JUMP JUMPDEST PUSH0 PUSH1 0x1F NOT PUSH1 0x1F DUP4 ADD AND SWAP1 POP SWAP2 SWAP1 POP JUMP JUMPDEST PUSH0 PUSH2 0x11E2 DUP3 PUSH2 0x1186 JUMP JUMPDEST PUSH2 0x11EC DUP2 DUP6 PUSH2 0x1190 JUMP JUMPDEST SWAP4 POP PUSH2 0x11FC DUP2 DUP6 PUSH1 0x20 DUP7 ADD PUSH2 0x11A0 JUMP JUMPDEST PUSH2 0x1205 DUP2 PUSH2 0x11C8 JUMP JUMPDEST DUP5 ADD SWAP2 POP POP SWAP3 SWAP2 POP POP JUMP JUMPDEST PUSH0 PUSH1 0x20 DUP3 ADD SWAP1 POP DUP2 DUP2 SUB PUSH0 DUP4 ADD MSTORE PUSH2 0x1228 DUP2 DUP5 PUSH2 0x11D8 JUMP JUMPDEST SWAP1 POP SWAP3 SWAP2 POP POP JUMP JUMPDEST PUSH0 DUP1 REVERT JUMPDEST PUSH0 PUSH20 0xFFFFFFFFFFFFFFFFFFFFFFFFFFFFFFFFFFFFFFFF DUP3 AND SWAP1 POP SWAP2 SWAP1 POP JUMP JUMPDEST PUSH0 PUSH2 0x125D DUP3 PUSH2 0x1234 JUMP JUMPDEST SWAP1 POP SWAP2 SWAP1 POP JUMP JUMPDEST PUSH2 0x126D DUP2 PUSH2 0x1253 JUMP JUMPDEST DUP2 EQ PUSH2 0x1277 JUMPI PUSH0 DUP1 REVERT JUMPDEST POP JUMP JUMPDEST PUSH0 DUP2 CALLDATALOAD SWAP1 POP PUSH2 0x1288 DUP2 PUSH2 0x1264 JUMP JUMPDEST SWAP3 SWAP2 POP POP JUMP JUMPDEST PUSH0 DUP2 SWAP1 POP SWAP2 SWAP1 POP JUMP JUMPDEST PUSH2 0x12A0 DUP2 PUSH2 0x128E JUMP JUMPDEST DUP2 EQ PUSH2 0x12AA JUMPI PUSH0 DUP1 REVERT JUMPDEST POP JUMP JUMPDEST PUSH0 DUP2 CALLDATALOAD SWAP1 POP PUSH2 0x12BB DUP2 PUSH2 0x1297 JUMP JUMPDEST SWAP3 SWAP2 POP POP JUMP JUMPDEST PUSH0 DUP1 PUSH1 0x40 DUP4 DUP6 SUB SLT ISZERO PUSH2 0x12D7 JUMPI PUSH2 0x12D6 PUSH2 0x1230 JUMP JUMPDEST JUMPDEST PUSH0 PUSH2 0x12E4 DUP6 DUP3 DUP7 ADD PUSH2 0x127A JUMP JUMPDEST SWAP3 POP POP PUSH1 0x20 PUSH2 0x12F5 DUP6 DUP3 DUP7 ADD PUSH2 0x12AD JUMP JUMPDEST SWAP2 POP POP SWAP3 POP SWAP3 SWAP1 POP JUMP JUMPDEST PUSH0 DUP2 ISZERO ISZERO SWAP1 POP SWAP2 SWAP1 POP JUMP JUMPDEST PUSH2 0x1313 DUP2 PUSH2 0x12FF JUMP JUMPDEST DUP3 MSTORE POP POP JUMP JUMPDEST PUSH0 PUSH1 0x20 DUP3 ADD SWAP1 POP PUSH2 0x132C PUSH0 DUP4 ADD DUP5 PUSH2 0x130A JUMP JUMPDEST SWAP3 SWAP2 POP POP JUMP JUMPDEST PUSH2 0x133B DUP2 PUSH2 0x128E JUMP JUMPDEST DUP3 MSTORE POP POP JUMP JUMPDEST PUSH0 PUSH1 0x20 DUP3 ADD SWAP1 POP PUSH2 0x1354 PUSH0 DUP4 ADD DUP5 PUSH2 0x1332 JUMP JUMPDEST SWAP3 SWAP2 POP POP JUMP JUMPDEST PUSH0 DUP1 PUSH0 PUSH1 0x60 DUP5 DUP7 SUB SLT ISZERO PUSH2 0x1371 JUMPI PUSH2 0x1370 PUSH2 0x1230 JUMP JUMPDEST JUMPDEST PUSH0 PUSH2 0x137E DUP7 DUP3 DUP8 ADD PUSH2 0x127A JUMP JUMPDEST SWAP4 POP POP PUSH1 0x20 PUSH2 0x138F DUP7 DUP3 DUP8 ADD PUSH2 0x127A JUMP JUMPDEST SWAP3 POP POP PUSH1 0x40 PUSH2 0x13A0 DUP7 DUP3 DUP8 ADD PUSH2 0x12AD JUMP JUMPDEST SWAP2 POP POP SWAP3 POP SWAP3 POP SWAP3 JUMP JUMPDEST PUSH0 PUSH1 0xFF DUP3 AND SWAP1 POP SWAP2 SWAP1 POP JUMP JUMPDEST PUSH2 0x13BF DUP2 PUSH2 0x13AA JUMP JUMPDEST DUP3 MSTORE POP POP JUMP JUMPDEST PUSH0 PUSH1 0x20 DUP3 ADD SWAP1 POP PUSH2 0x13D8 PUSH0 DUP4 ADD DUP5 PUSH2 0x13B6 JUMP JUMPDEST SWAP3 SWAP2 POP POP JUMP JUMPDEST PUSH0 PUSH1 0x20 DUP3 DUP5 SUB SLT ISZERO PUSH2 0x13F3 JUMPI PUSH2 0x13F2 PUSH2 0x1230 JUMP JUMPDEST JUMPDEST PUSH0 PUSH2 0x1400 DUP5 DUP3 DUP6 ADD PUSH2 0x12AD JUMP JUMPDEST SWAP2 POP POP SWAP3 SWAP2 POP POP JUMP JUMPDEST PUSH0 PUSH1 0x20 DUP3 DUP5 SUB SLT ISZERO PUSH2 0x141E JUMPI PUSH2 0x141D PUSH2 0x1230 JUMP JUMPDEST JUMPDEST PUSH0 PUSH2 0x142B DUP5 DUP3 DUP6 ADD PUSH2 0x127A JUMP JUMPDEST SWAP2 POP POP SWAP3 SWAP2 POP POP JUMP JUMPDEST PUSH2 0x143D DUP2 PUSH2 0x1253 JUMP JUMPDEST DUP3 MSTORE POP POP JUMP JUMPDEST PUSH0 PUSH1 0x20 DUP3 ADD SWAP1 POP PUSH2 0x1456 PUSH0 DUP4 ADD DUP5 PUSH2 0x1434 JUMP JUMPDEST SWAP3 SWAP2 POP POP JUMP JUMPDEST PUSH0 DUP1 PUSH1 0x40 DUP4 DUP6 SUB SLT ISZERO PUSH2 0x1472 JUMPI PUSH2 0x1471 PUSH2 0x1230 JUMP JUMPDEST JUMPDEST PUSH0 PUSH2 0x147F DUP6 DUP3 DUP7 ADD PUSH2 0x127A JUMP JUMPDEST SWAP3 POP POP PUSH1 0x20 PUSH2 0x1490 DUP6 DUP3 DUP7 ADD PUSH2 0x127A JUMP JUMPDEST SWAP2 POP POP SWAP3 POP SWAP3 SWAP1 POP JUMP JUMPDEST PUSH0 DUP2 SWAP1 POP SWAP2 SWAP1 POP JUMP JUMPDEST PUSH2 0x14AC DUP2 PUSH2 0x149A JUMP JUMPDEST DUP3 MSTORE POP POP JUMP JUMPDEST PUSH0 PUSH1 0x20 DUP3 ADD SWAP1 POP PUSH2 0x14C5 PUSH0 DUP4 ADD DUP5 PUSH2 0x14A3 JUMP JUMPDEST SWAP3 SWAP2 POP POP JUMP JUMPDEST PUSH32 0x4572726F722D4D4E545F4D554D4241492E736F6C2D56616C75656C6573735F54 PUSH0 DUP3 ADD MSTORE PUSH32 0x72616E73616374696F6E00000000000000000000000000000000000000000000 PUSH1 0x20 DUP3 ADD MSTORE POP JUMP JUMPDEST PUSH0 PUSH2 0x1525 PUSH1 0x2A DUP4 PUSH2 0x1190 JUMP JUMPDEST SWAP2 POP PUSH2 0x1530 DUP3 PUSH2 0x14CB JUMP JUMPDEST PUSH1 0x40 DUP3 ADD SWAP1 POP SWAP2 SWAP1 POP JUMP JUMPDEST PUSH0 PUSH1 0x20 DUP3 ADD SWAP1 POP DUP2 DUP2 SUB PUSH0 DUP4 ADD MSTORE PUSH2 0x1552 DUP2 PUSH2 0x1519 JUMP JUMPDEST SWAP1 POP SWAP2 SWAP1 POP JUMP JUMPDEST PUSH32 0x4E487B7100000000000000000000000000000000000000000000000000000000 PUSH0 MSTORE PUSH1 0x11 PUSH1 0x4 MSTORE PUSH1 0x24 PUSH0 REVERT JUMPDEST PUSH0 DUP2 PUSH1 0x1 SHR SWAP1 POP SWAP2 SWAP1 POP JUMP JUMPDEST PUSH0 DUP1 DUP3 SWAP2 POP DUP4 SWAP1 POP JUMPDEST PUSH1 0x1 DUP6 GT ISZERO PUSH2 0x15DB JUMPI DUP1 DUP7 DIV DUP2 GT ISZERO PUSH2 0x15B7 JUMPI PUSH2 0x15B6 PUSH2 0x1559 JUMP JUMPDEST JUMPDEST PUSH1 0x1 DUP6 AND ISZERO PUSH2 0x15C6 JUMPI DUP1 DUP3 MUL SWAP2 POP JUMPDEST DUP1 DUP2 MUL SWAP1 POP PUSH2 0x15D4 DUP6 PUSH2 0x1586 JUMP JUMPDEST SWAP5 POP PUSH2 0x159B JUMP JUMPDEST SWAP5 POP SWAP5 SWAP3 POP POP POP JUMP JUMPDEST PUSH0 DUP3 PUSH2 0x15F3 JUMPI PUSH1 0x1 SWAP1 POP PUSH2 0x16AE JUMP JUMPDEST DUP2 PUSH2 0x1600 JUMPI PUSH0 SWAP1 POP PUSH2 0x16AE JUMP JUMPDEST DUP2 PUSH1 0x1 DUP2 EQ PUSH2 0x1616 JUMPI PUSH1 0x2 DUP2 EQ PUSH2 0x1620 JUMPI PUSH2 0x164F JUMP JUMPDEST PUSH1 0x1 SWAP2 POP POP PUSH2 0x16AE JUMP JUMPDEST PUSH1 0xFF DUP5 GT ISZERO PUSH2 0x1632 JUMPI PUSH2 0x1631 PUSH2 0x1559 JUMP JUMPDEST JUMPDEST DUP4 PUSH1 0x2 EXP SWAP2 POP DUP5 DUP3 GT ISZERO PUSH2 0x1649 JUMPI PUSH2 0x1648 PUSH2 0x1559 JUMP JUMPDEST JUMPDEST POP PUSH2 0x16AE JUMP JUMPDEST POP PUSH1 0x20 DUP4 LT PUSH2 0x133 DUP4 LT AND PUSH1 0x4E DUP5 LT PUSH1 0xB DUP5 LT AND OR ISZERO PUSH2 0x1684 JUMPI DUP3 DUP3 EXP SWAP1 POP DUP4 DUP2 GT ISZERO PUSH2 0x167F JUMPI PUSH2 0x167E PUSH2 0x1559 JUMP JUMPDEST JUMPDEST PUSH2 0x16AE JUMP JUMPDEST PUSH2 0x1691 DUP5 DUP5 DUP5 PUSH1 0x1 PUSH2 0x1592 JUMP JUMPDEST SWAP3 POP SWAP1 POP DUP2 DUP5 DIV DUP2 GT ISZERO PUSH2 0x16A8 JUMPI PUSH2 0x16A7 PUSH2 0x1559 JUMP JUMPDEST JUMPDEST DUP2 DUP2 MUL SWAP1 POP JUMPDEST SWAP4 SWAP3 POP POP POP JUMP JUMPDEST PUSH0 PUSH2 0x16BF DUP3 PUSH2 0x128E JUMP JUMPDEST SWAP2 POP PUSH2 0x16CA DUP4 PUSH2 0x128E JUMP JUMPDEST SWAP3 POP PUSH2 0x16F7 PUSH32 0xFFFFFFFFFFFFFFFFFFFFFFFFFFFFFFFFFFFFFFFFFFFFFFFFFFFFFFFFFFFFFFFF DUP5 DUP5 PUSH2 0x15E4 JUMP JUMPDEST SWAP1 POP SWAP3 SWAP2 POP POP JUMP JUMPDEST PUSH0 PUSH2 0x1709 DUP3 PUSH2 0x128E JUMP JUMPDEST SWAP2 POP PUSH2 0x1714 DUP4 PUSH2 0x128E JUMP JUMPDEST SWAP3 POP DUP3 DUP3 MUL PUSH2 0x1722 DUP2 PUSH2 0x128E JUMP JUMPDEST SWAP2 POP DUP3 DUP3 DIV DUP5 EQ DUP4 ISZERO OR PUSH2 0x1739 JUMPI PUSH2 0x1738 PUSH2 0x1559 JUMP JUMPDEST JUMPDEST POP SWAP3 SWAP2 POP POP JUMP JUMPDEST PUSH32 0x4E487B7100000000000000000000000000000000000000000000000000000000 PUSH0 MSTORE PUSH1 0x12 PUSH1 0x4 MSTORE PUSH1 0x24 PUSH0 REVERT JUMPDEST PUSH0 PUSH2 0x1777 DUP3 PUSH2 0x128E JUMP JUMPDEST SWAP2 POP PUSH2 0x1782 DUP4 PUSH2 0x128E JUMP JUMPDEST SWAP3 POP DUP3 PUSH2 0x1792 JUMPI PUSH2 0x1791 PUSH2 0x1740 JUMP JUMPDEST JUMPDEST DUP3 DUP3 DIV SWAP1 POP SWAP3 SWAP2 POP POP JUMP JUMPDEST PUSH0 PUSH2 0x17A7 DUP3 PUSH2 0x128E JUMP JUMPDEST SWAP2 POP PUSH2 0x17B2 DUP4 PUSH2 0x128E JUMP JUMPDEST SWAP3 POP DUP3 DUP3 ADD SWAP1 POP DUP1 DUP3 GT ISZERO PUSH2 0x17CA JUMPI PUSH2 0x17C9 PUSH2 0x1559 JUMP JUMPDEST JUMPDEST SWAP3 SWAP2 POP POP JUMP JUMPDEST PUSH32 0x4572726F722D4D4E545F4D554D4241492E736F6C2D457863656564735F4D6178 PUSH0 DUP3 ADD MSTORE PUSH32 0x5F42616C616E6365000000000000000000000000000000000000000000000000 PUSH1 0x20 DUP3 ADD MSTORE POP JUMP JUMPDEST PUSH0 PUSH2 0x182A PUSH1 0x28 DUP4 PUSH2 0x1190 JUMP JUMPDEST SWAP2 POP PUSH2 0x1835 DUP3 PUSH2 0x17D0 JUMP JUMPDEST PUSH1 0x40 DUP3 ADD SWAP1 POP SWAP2 SWAP1 POP JUMP JUMPDEST PUSH0 PUSH1 0x20 DUP3 ADD SWAP1 POP DUP2 DUP2 SUB PUSH0 DUP4 ADD MSTORE PUSH2 0x1857 DUP2 PUSH2 0x181E JUMP JUMPDEST SWAP1 POP SWAP2 SWAP1 POP JUMP JUMPDEST PUSH0 PUSH1 0x80 DUP3 ADD SWAP1 POP PUSH2 0x1871 PUSH0 DUP4 ADD DUP8 PUSH2 0x1332 JUMP JUMPDEST PUSH2 0x187E PUSH1 0x20 DUP4 ADD DUP7 PUSH2 0x1332 JUMP JUMPDEST PUSH2 0x188B PUSH1 0x40 DUP4 ADD DUP6 PUSH2 0x1332 JUMP JUMPDEST PUSH2 0x1898 PUSH1 0x60 DUP4 ADD DUP5 PUSH2 0x1332 JUMP JUMPDEST SWAP6 SWAP5 POP POP POP POP POP JUMP JUMPDEST PUSH32 0x4E487B7100000000000000000000000000000000000000000000000000000000 PUSH0 MSTORE PUSH1 0x22 PUSH1 0x4 MSTORE PUSH1 0x24 PUSH0 REVERT JUMPDEST PUSH0 PUSH1 0x2 DUP3 DIV SWAP1 POP PUSH1 0x1 DUP3 AND DUP1 PUSH2 0x18E5 JUMPI PUSH1 0x7F DUP3 AND SWAP2 POP JUMPDEST PUSH1 0x20 DUP3 LT DUP2 SUB PUSH2 0x18F8 JUMPI PUSH2 0x18F7 PUSH2 0x18A1 JUMP JUMPDEST JUMPDEST POP SWAP2 SWAP1 POP JUMP JUMPDEST PUSH32 0x4572726F722D4D4E545F4D554D4241492E736F6C2D4F776E61626C6500000000 PUSH0 DUP3 ADD MSTORE POP JUMP JUMPDEST PUSH0 PUSH2 0x1932 PUSH1 0x1C DUP4 PUSH2 0x1190 JUMP JUMPDEST SWAP2 POP PUSH2 0x193D DUP3 PUSH2 0x18FE JUMP JUMPDEST PUSH1 0x20 DUP3 ADD SWAP1 POP SWAP2 SWAP1 POP JUMP JUMPDEST PUSH0 PUSH1 0x20 DUP3 ADD SWAP1 POP DUP2 DUP2 SUB PUSH0 DUP4 ADD MSTORE PUSH2 0x195F DUP2 PUSH2 0x1926 JUMP JUMPDEST SWAP1 POP SWAP2 SWAP1 POP JUMP JUMPDEST PUSH0 PUSH1 0x40 DUP3 ADD SWAP1 POP PUSH2 0x1979 PUSH0 DUP4 ADD DUP6 PUSH2 0x1332 JUMP JUMPDEST PUSH2 0x1986 PUSH1 0x20 DUP4 ADD DUP5 PUSH2 0x1332 JUMP JUMPDEST SWAP4 SWAP3 POP POP POP JUMP JUMPDEST PUSH0 PUSH1 0x60 DUP3 ADD SWAP1 POP PUSH2 0x19A0 PUSH0 DUP4 ADD DUP7 PUSH2 0x1332 JUMP JUMPDEST PUSH2 0x19AD PUSH1 0x20 DUP4 ADD DUP6 PUSH2 0x1332 JUMP JUMPDEST PUSH2 0x19BA PUSH1 0x40 DUP4 ADD DUP5 PUSH2 0x1332 JUMP JUMPDEST SWAP5 SWAP4 POP POP POP POP JUMP JUMPDEST PUSH0 PUSH10 0xFFFFFFFFFFFFFFFFFFFF DUP3 AND SWAP1 POP SWAP2 SWAP1 POP JUMP JUMPDEST PUSH2 0x19E0 DUP2 PUSH2 0x19C2 JUMP JUMPDEST DUP2 EQ PUSH2 0x19EA JUMPI PUSH0 DUP1 REVERT JUMPDEST POP JUMP JUMPDEST PUSH0 DUP2 MLOAD SWAP1 POP PUSH2 0x19FB DUP2 PUSH2 0x19D7 JUMP JUMPDEST SWAP3 SWAP2 POP POP JUMP JUMPDEST PUSH2 0x1A0A DUP2 PUSH2 0x149A JUMP JUMPDEST DUP2 EQ PUSH2 0x1A14 JUMPI PUSH0 DUP1 REVERT JUMPDEST POP JUMP JUMPDEST PUSH0 DUP2 MLOAD SWAP1 POP PUSH2 0x1A25 DUP2 PUSH2 0x1A01 JUMP JUMPDEST SWAP3 SWAP2 POP POP JUMP JUMPDEST PUSH0 DUP2 MLOAD SWAP1 POP PUSH2 0x1A39 DUP2 PUSH2 0x1297 JUMP JUMPDEST SWAP3 SWAP2 POP POP JUMP JUMPDEST PUSH0 DUP1 PUSH0 DUP1 PUSH0 PUSH1 0xA0 DUP7 DUP9 SUB SLT ISZERO PUSH2 0x1A58 JUMPI PUSH2 0x1A57 PUSH2 0x1230 JUMP JUMPDEST JUMPDEST PUSH0 PUSH2 0x1A65 DUP9 DUP3 DUP10 ADD PUSH2 0x19ED JUMP JUMPDEST SWAP6 POP POP PUSH1 0x20 PUSH2 0x1A76 DUP9 DUP3 DUP10 ADD PUSH2 0x1A17 JUMP JUMPDEST SWAP5 POP POP PUSH1 0x40 PUSH2 0x1A87 DUP9 DUP3 DUP10 ADD PUSH2 0x1A2B JUMP JUMPDEST SWAP4 POP POP PUSH1 0x60 PUSH2 0x1A98 DUP9 DUP3 DUP10 ADD PUSH2 0x1A2B JUMP JUMPDEST SWAP3 POP POP PUSH1 0x80 PUSH2 0x1AA9 DUP9 DUP3 DUP10 ADD PUSH2 0x19ED JUMP JUMPDEST SWAP2 POP POP SWAP3 SWAP6 POP SWAP3 SWAP6 SWAP1 SWAP4 POP JUMP JUMPDEST PUSH0 PUSH2 0x1AC0 DUP3 PUSH2 0x149A JUMP JUMPDEST SWAP2 POP PUSH2 0x1ACB DUP4 PUSH2 0x149A JUMP JUMPDEST SWAP3 POP DUP3 PUSH2 0x1ADB JUMPI PUSH2 0x1ADA PUSH2 0x1740 JUMP JUMPDEST JUMPDEST PUSH1 0x1 PUSH0 SUB DUP4 EQ PUSH32 0x8000000000000000000000000000000000000000000000000000000000000000 DUP4 EQ AND ISZERO PUSH2 0x1B13 JUMPI PUSH2 0x1B12 PUSH2 0x1559 JUMP JUMPDEST JUMPDEST DUP3 DUP3 SDIV SWAP1 POP SWAP3 SWAP2 POP POP JUMP JUMPDEST PUSH0 PUSH1 0x60 DUP3 ADD SWAP1 POP PUSH2 0x1B31 PUSH0 DUP4 ADD DUP7 PUSH2 0x1434 JUMP JUMPDEST PUSH2 0x1B3E PUSH1 0x20 DUP4 ADD DUP6 PUSH2 0x1332 JUMP JUMPDEST PUSH2 0x1B4B PUSH1 0x40 DUP4 ADD DUP5 PUSH2 0x1332 JUMP JUMPDEST SWAP5 SWAP4 POP POP POP POP JUMP INVALID LOG2 PUSH5 0x6970667358 0x22 SLT KECCAK256 0xD4 0xE2 CHAINID SELFDESTRUCT 0xD 0xCB CODESIZE ISZERO 0x22 PUSH27 0x5FD5E1A70E28369513CEDEED3CC6591597FA56C702A364736F6C63 NUMBER STOP ADDMOD XOR STOP CALLER "
				},
				"gasEstimates": {
					"creation": {
						"codeDepositCost": "1409800",
						"executionCost": "infinite",
						"totalCost": "infinite"
					},
					"external": {
						"OneMATICInCents()": "infinite",
						"WithdrawMintingFees()": "infinite",
						"allowance(address,address)": "infinite",
						"approve(address,uint256)": "infinite",
						"balanceOf(address)": "2896",
						"buyTokensFromContract()": "infinite",
						"cap()": "infinite",
						"capPerAccount()": "2470",
						"contractOwner()": "2574",
						"decimals()": "405",
						"name()": "infinite",
						"symbol()": "infinite",
						"totalSupply()": "2522",
						"transfer(address,uint256)": "infinite",
						"transferFrom(address,address,uint256)": "infinite",
						"updateCapPerAccount(uint256)": "infinite",
						"zTokenPriceInWei()": "infinite"
					}
				},
				"methodIdentifiers": {
					"OneMATICInCents()": "ea6ecb08",
					"WithdrawMintingFees()": "655ab927",
					"allowance(address,address)": "dd62ed3e",
					"approve(address,uint256)": "095ea7b3",
					"balanceOf(address)": "70a08231",
					"buyTokensFromContract()": "06ed6908",
					"cap()": "355274ea",
					"capPerAccount()": "2bc67da0",
					"contractOwner()": "ce606ee0",
					"decimals()": "313ce567",
					"name()": "06fdde03",
					"symbol()": "95d89b41",
					"totalSupply()": "18160ddd",
					"transfer(address,uint256)": "a9059cbb",
					"transferFrom(address,address,uint256)": "23b872dd",
					"updateCapPerAccount(uint256)": "6a73bf53",
					"zTokenPriceInWei()": "c0e3daf5"
				}
			},
			"storageLayout": {
				"storage": [
					{
						"astId": 205,
						"contract": "contracts/MNT_Mumbai.sol:MNT",
						"label": "_balances",
						"offset": 0,
						"slot": "0",
						"type": "t_mapping(t_address,t_uint256)"
					},
					{
						"astId": 211,
						"contract": "contracts/MNT_Mumbai.sol:MNT",
						"label": "_allowances",
						"offset": 0,
						"slot": "1",
						"type": "t_mapping(t_address,t_mapping(t_address,t_uint256))"
					},
					{
						"astId": 213,
						"contract": "contracts/MNT_Mumbai.sol:MNT",
						"label": "_totalSupply",
						"offset": 0,
						"slot": "2",
						"type": "t_uint256"
					},
					{
						"astId": 215,
						"contract": "contracts/MNT_Mumbai.sol:MNT",
						"label": "_name",
						"offset": 0,
						"slot": "3",
						"type": "t_string_storage"
					},
					{
						"astId": 217,
						"contract": "contracts/MNT_Mumbai.sol:MNT",
						"label": "_symbol",
						"offset": 0,
						"slot": "4",
						"type": "t_string_storage"
					},
					{
						"astId": 940,
						"contract": "contracts/MNT_Mumbai.sol:MNT",
						"label": "dataFeed",
						"offset": 0,
						"slot": "5",
						"type": "t_contract(AggregatorV3Interface)45"
					},
					{
						"astId": 942,
						"contract": "contracts/MNT_Mumbai.sol:MNT",
						"label": "contractOwner",
						"offset": 0,
						"slot": "6",
						"type": "t_address"
					},
					{
						"astId": 945,
						"contract": "contracts/MNT_Mumbai.sol:MNT",
						"label": "ourCap",
						"offset": 0,
						"slot": "7",
						"type": "t_uint256"
					},
					{
						"astId": 948,
						"contract": "contracts/MNT_Mumbai.sol:MNT",
						"label": "capPerAccount",
						"offset": 0,
						"slot": "8",
						"type": "t_uint256"
					}
				],
				"types": {
					"t_address": {
						"encoding": "inplace",
						"label": "address",
						"numberOfBytes": "20"
					},
					"t_contract(AggregatorV3Interface)45": {
						"encoding": "inplace",
						"label": "contract AggregatorV3Interface",
						"numberOfBytes": "20"
					},
					"t_mapping(t_address,t_mapping(t_address,t_uint256))": {
						"encoding": "mapping",
						"key": "t_address",
						"label": "mapping(address => mapping(address => uint256))",
						"numberOfBytes": "32",
						"value": "t_mapping(t_address,t_uint256)"
					},
					"t_mapping(t_address,t_uint256)": {
						"encoding": "mapping",
						"key": "t_address",
						"label": "mapping(address => uint256)",
						"numberOfBytes": "32",
						"value": "t_uint256"
					},
					"t_string_storage": {
						"encoding": "bytes",
						"label": "string",
						"numberOfBytes": "32"
					},
					"t_uint256": {
						"encoding": "inplace",
						"label": "uint256",
						"numberOfBytes": "32"
					}
				}
			},
			"userdoc": {
				"kind": "user",
				"methods": {},
				"version": 1
			}
		}
	}
}